{
	"contracts/0.8.9/utils/Versioned.sol": {
		"Versioned": {
			"abi": [
				{
					"inputs": [],
					"stateMutability": "nonpayable",
					"type": "constructor"
				},
				{
					"inputs": [],
					"name": "InvalidContractVersionIncrement",
					"type": "error"
				},
				{
					"inputs": [],
					"name": "NonZeroContractVersionOnInit",
					"type": "error"
				},
				{
					"inputs": [
						{
							"internalType": "uint256",
							"name": "expected",
							"type": "uint256"
						},
						{
							"internalType": "uint256",
							"name": "received",
							"type": "uint256"
						}
					],
					"name": "UnexpectedContractVersion",
					"type": "error"
				},
				{
					"anonymous": false,
					"inputs": [
						{
							"indexed": false,
							"internalType": "uint256",
							"name": "version",
							"type": "uint256"
						}
					],
					"name": "ContractVersionSet",
					"type": "event"
				},
				{
					"inputs": [],
					"name": "getContractVersion",
					"outputs": [
						{
							"internalType": "uint256",
							"name": "",
							"type": "uint256"
						}
					],
					"stateMutability": "view",
					"type": "function"
				}
			],
			"devdoc": {
				"kind": "dev",
				"methods": {},
				"stateVariables": {
					"CONTRACT_VERSION_POSITION": {
						"details": "Storage slot: uint256 version Version of the initialized contract storage. The version stored in CONTRACT_VERSION_POSITION equals to: - 0 right after the deployment, before an initializer is invoked (and only at that moment); - N after calling initialize(), where N is the initially deployed contract version; - N after upgrading contract by calling finalizeUpgrade_vN()."
					}
				},
				"version": 1
			},
			"evm": {
				"assembly": "    /* \"contracts/0.8.9/utils/Versioned.sol\":156:2429  contract Versioned {... */\n  mstore(0x40, 0x80)\n    /* \"contracts/0.8.9/utils/Versioned.sol\":1038:1218  constructor() {... */\n  callvalue\n  dup1\n  iszero\n  tag_1\n  jumpi\n  0x00\n  dup1\n  revert\ntag_1:\n  pop\n    /* \"contracts/0.8.9/utils/Versioned.sol\":1144:1211  CONTRACT_VERSION_POSITION.setStorageUint256(PETRIFIED_VERSION_MARK) */\n  tag_4\n    /* \"contracts/0.8.9/utils/Versioned.sol\":1014:1031  type(uint256).max */\n  0xffffffffffffffffffffffffffffffffffffffffffffffffffffffffffffffff\n    /* \"contracts/0.8.9/utils/Versioned.sol\":913:956  keccak256(\"lido.Versioned.contractVersion\") */\n  0x4dd0f6662ba1d6b081f08b350f5e9a6a7b15cf586926ba66f753594928fa64a6\n    /* \"contracts/0.8.9/utils/Versioned.sol\":1144:1187  CONTRACT_VERSION_POSITION.setStorageUint256 */\n  or(tag_0_8, shl(0x20, tag_5))\n  swap1\n    /* \"contracts/0.8.9/utils/Versioned.sol\":1144:1211  CONTRACT_VERSION_POSITION.setStorageUint256(PETRIFIED_VERSION_MARK) */\n  swap2\n  swap1\n  0x20\n  shr\n  jump\t// in\ntag_4:\n    /* \"contracts/0.8.9/utils/Versioned.sol\":156:2429  contract Versioned {... */\n  jump(tag_6)\n    /* \"contracts/0.8.9/lib/UnstructuredStorage.sol\":1077:1196  function setStorageUint256(bytes32 position, uint256 data) internal {... */\ntag_5:\n    /* \"contracts/0.8.9/lib/UnstructuredStorage.sol\":1183:1187  data */\n  dup1\n    /* \"contracts/0.8.9/lib/UnstructuredStorage.sol\":1173:1181  position */\n  dup3\n    /* \"contracts/0.8.9/lib/UnstructuredStorage.sol\":1166:1188  sstore(position, data) */\n  sstore\n    /* \"contracts/0.8.9/lib/UnstructuredStorage.sol\":1077:1196  function setStorageUint256(bytes32 position, uint256 data) internal {... */\n  pop\n  pop\n  jump\t// out\n    /* \"contracts/0.8.9/utils/Versioned.sol\":156:2429  contract Versioned {... */\ntag_6:\n  dataSize(sub_0)\n  dup1\n  dataOffset(sub_0)\n  0x00\n  codecopy\n  0x00\n  return\nstop\n\nsub_0: assembly {\n        /* \"contracts/0.8.9/utils/Versioned.sol\":156:2429  contract Versioned {... */\n      mstore(0x40, 0x80)\n      callvalue\n      dup1\n      iszero\n      tag_1\n      jumpi\n      0x00\n      dup1\n      revert\n    tag_1:\n      pop\n      jumpi(tag_2, lt(calldatasize, 0x04))\n      shr(0xe0, calldataload(0x00))\n      dup1\n      0x8aa10435\n      eq\n      tag_3\n      jumpi\n    tag_2:\n      0x00\n      dup1\n      revert\n        /* \"contracts/0.8.9/utils/Versioned.sol\":1278:1407  function getContractVersion() public view returns (uint256) {... */\n    tag_3:\n      tag_4\n      tag_5\n      jump\t// in\n    tag_4:\n      mload(0x40)\n      tag_6\n      swap2\n      swap1\n      tag_7\n      jump\t// in\n    tag_6:\n      mload(0x40)\n      dup1\n      swap2\n      sub\n      swap1\n      return\n    tag_5:\n        /* \"contracts/0.8.9/utils/Versioned.sol\":1329:1336  uint256 */\n      0x00\n        /* \"contracts/0.8.9/utils/Versioned.sol\":1355:1400  CONTRACT_VERSION_POSITION.getStorageUint256() */\n      tag_10\n        /* \"contracts/0.8.9/utils/Versioned.sol\":913:956  keccak256(\"lido.Versioned.contractVersion\") */\n      0x4dd0f6662ba1d6b081f08b350f5e9a6a7b15cf586926ba66f753594928fa64a6\n        /* \"contracts/0.8.9/utils/Versioned.sol\":1355:1398  CONTRACT_VERSION_POSITION.getStorageUint256 */\n      tag_11\n        /* \"contracts/0.8.9/utils/Versioned.sol\":1355:1400  CONTRACT_VERSION_POSITION.getStorageUint256() */\n      jump\t// in\n    tag_10:\n        /* \"contracts/0.8.9/utils/Versioned.sol\":1348:1400  return CONTRACT_VERSION_POSITION.getStorageUint256() */\n      swap1\n      pop\n        /* \"contracts/0.8.9/utils/Versioned.sol\":1278:1407  function getContractVersion() public view returns (uint256) {... */\n      swap1\n      jump\t// out\n        /* \"contracts/0.8.9/lib/UnstructuredStorage.sol\":1077:1196  function setStorageUint256(bytes32 position, uint256 data) internal {... */\n    tag_8:\n        /* \"contracts/0.8.9/lib/UnstructuredStorage.sol\":1183:1187  data */\n      dup1\n        /* \"contracts/0.8.9/lib/UnstructuredStorage.sol\":1173:1181  position */\n      dup3\n        /* \"contracts/0.8.9/lib/UnstructuredStorage.sol\":1166:1188  sstore(position, data) */\n      sstore\n        /* \"contracts/0.8.9/lib/UnstructuredStorage.sol\":1077:1196  function setStorageUint256(bytes32 position, uint256 data) internal {... */\n      pop\n      pop\n      jump\t// out\n        /* \"contracts/0.8.9/lib/UnstructuredStorage.sol\":568:702  function getStorageUint256(bytes32 position) internal view returns (uint256 data) {... */\n    tag_11:\n        /* \"contracts/0.8.9/lib/UnstructuredStorage.sol\":636:648  uint256 data */\n      0x00\n        /* \"contracts/0.8.9/lib/UnstructuredStorage.sol\":685:693  position */\n      dup2\n        /* \"contracts/0.8.9/lib/UnstructuredStorage.sol\":679:694  sload(position) */\n      sload\n        /* \"contracts/0.8.9/lib/UnstructuredStorage.sol\":671:694  data := sload(position) */\n      swap1\n      pop\n        /* \"contracts/0.8.9/lib/UnstructuredStorage.sol\":568:702  function getStorageUint256(bytes32 position) internal view returns (uint256 data) {... */\n      swap2\n      swap1\n      pop\n      jump\t// out\n        /* \"#utility.yul\":7:84   */\n    tag_14:\n        /* \"#utility.yul\":44:51   */\n      0x00\n        /* \"#utility.yul\":73:78   */\n      dup2\n        /* \"#utility.yul\":62:78   */\n      swap1\n      pop\n        /* \"#utility.yul\":7:84   */\n      swap2\n      swap1\n      pop\n      jump\t// out\n        /* \"#utility.yul\":90:208   */\n    tag_15:\n        /* \"#utility.yul\":177:201   */\n      tag_19\n        /* \"#utility.yul\":195:200   */\n      dup2\n        /* \"#utility.yul\":177:201   */\n      tag_14\n      jump\t// in\n    tag_19:\n        /* \"#utility.yul\":172:175   */\n      dup3\n        /* \"#utility.yul\":165:202   */\n      mstore\n        /* \"#utility.yul\":90:208   */\n      pop\n      pop\n      jump\t// out\n        /* \"#utility.yul\":214:436   */\n    tag_7:\n        /* \"#utility.yul\":307:311   */\n      0x00\n        /* \"#utility.yul\":345:347   */\n      0x20\n        /* \"#utility.yul\":334:343   */\n      dup3\n        /* \"#utility.yul\":330:348   */\n      add\n        /* \"#utility.yul\":322:348   */\n      swap1\n      pop\n        /* \"#utility.yul\":358:429   */\n      tag_21\n        /* \"#utility.yul\":426:427   */\n      0x00\n        /* \"#utility.yul\":415:424   */\n      dup4\n        /* \"#utility.yul\":411:428   */\n      add\n        /* \"#utility.yul\":402:408   */\n      dup5\n        /* \"#utility.yul\":358:429   */\n      tag_15\n      jump\t// in\n    tag_21:\n        /* \"#utility.yul\":214:436   */\n      swap3\n      swap2\n      pop\n      pop\n      jump\t// out\n\n    auxdata: 0xa2646970667358221220d7df59d033ee2e4de97c7799cf0892be59eed33f4731bff385447b3553d0ea7c64736f6c63430008090033\n}\n",
				"bytecode": {
					"linkReferences": {},
					"object": "608060405234801561001057600080fd5b506100687fffffffffffffffffffffffffffffffffffffffffffffffffffffffffffffffff7f4dd0f6662ba1d6b081f08b350f5e9a6a7b15cf586926ba66f753594928fa64a661006d60201b6100751790919060201c565b610074565b8082555050565b60ed806100826000396000f3fe6080604052348015600f57600080fd5b506004361060285760003560e01c80638aa1043514602d575b600080fd5b60336047565b604051603e9190609e565b60405180910390f35b600060707f4dd0f6662ba1d6b081f08b350f5e9a6a7b15cf586926ba66f753594928fa64a6607c565b905090565b8082555050565b600081549050919050565b6000819050919050565b6098816087565b82525050565b600060208201905060b160008301846091565b9291505056fea2646970667358221220d7df59d033ee2e4de97c7799cf0892be59eed33f4731bff385447b3553d0ea7c64736f6c63430008090033",
					"opcodes": "PUSH1 0x80 PUSH1 0x40 MSTORE CALLVALUE DUP1 ISZERO PUSH2 0x10 JUMPI PUSH1 0x0 DUP1 REVERT JUMPDEST POP PUSH2 0x68 PUSH32 0xFFFFFFFFFFFFFFFFFFFFFFFFFFFFFFFFFFFFFFFFFFFFFFFFFFFFFFFFFFFFFFFF PUSH32 0x4DD0F6662BA1D6B081F08B350F5E9A6A7B15CF586926BA66F753594928FA64A6 PUSH2 0x6D PUSH1 0x20 SHL PUSH2 0x75 OR SWAP1 SWAP2 SWAP1 PUSH1 0x20 SHR JUMP JUMPDEST PUSH2 0x74 JUMP JUMPDEST DUP1 DUP3 SSTORE POP POP JUMP JUMPDEST PUSH1 0xED DUP1 PUSH2 0x82 PUSH1 0x0 CODECOPY PUSH1 0x0 RETURN INVALID PUSH1 0x80 PUSH1 0x40 MSTORE CALLVALUE DUP1 ISZERO PUSH1 0xF JUMPI PUSH1 0x0 DUP1 REVERT JUMPDEST POP PUSH1 0x4 CALLDATASIZE LT PUSH1 0x28 JUMPI PUSH1 0x0 CALLDATALOAD PUSH1 0xE0 SHR DUP1 PUSH4 0x8AA10435 EQ PUSH1 0x2D JUMPI JUMPDEST PUSH1 0x0 DUP1 REVERT JUMPDEST PUSH1 0x33 PUSH1 0x47 JUMP JUMPDEST PUSH1 0x40 MLOAD PUSH1 0x3E SWAP2 SWAP1 PUSH1 0x9E JUMP JUMPDEST PUSH1 0x40 MLOAD DUP1 SWAP2 SUB SWAP1 RETURN JUMPDEST PUSH1 0x0 PUSH1 0x70 PUSH32 0x4DD0F6662BA1D6B081F08B350F5E9A6A7B15CF586926BA66F753594928FA64A6 PUSH1 0x7C JUMP JUMPDEST SWAP1 POP SWAP1 JUMP JUMPDEST DUP1 DUP3 SSTORE POP POP JUMP JUMPDEST PUSH1 0x0 DUP2 SLOAD SWAP1 POP SWAP2 SWAP1 POP JUMP JUMPDEST PUSH1 0x0 DUP2 SWAP1 POP SWAP2 SWAP1 POP JUMP JUMPDEST PUSH1 0x98 DUP2 PUSH1 0x87 JUMP JUMPDEST DUP3 MSTORE POP POP JUMP JUMPDEST PUSH1 0x0 PUSH1 0x20 DUP3 ADD SWAP1 POP PUSH1 0xB1 PUSH1 0x0 DUP4 ADD DUP5 PUSH1 0x91 JUMP JUMPDEST SWAP3 SWAP2 POP POP JUMP INVALID LOG2 PUSH5 0x6970667358 0x22 SLT KECCAK256 0xD7 0xDF MSIZE 0xD0 CALLER 0xEE 0x2E 0x4D 0xE9 PUSH29 0x7799CF0892BE59EED33F4731BFF385447B3553D0EA7C64736F6C634300 ADDMOD MULMOD STOP CALLER "
				},
				"gasEstimates": {
					"creation": {
						"codeDepositCost": "47400",
						"executionCost": "infinite",
						"totalCost": "infinite"
					},
					"external": {
						"getContractVersion()": "2458"
					},
					"internal": {
						"_checkContractVersion(uint256)": "infinite",
						"_initializeContractVersionTo(uint256)": "infinite",
						"_setContractVersion(uint256)": "infinite",
						"_updateContractVersion(uint256)": "infinite"
					}
				},
				"methodIdentifiers": {
					"getContractVersion()": "8aa10435"
				}
			},
			"storageLayout": {
				"storage": [],
				"types": null
			},
			"userdoc": {
				"kind": "user",
				"methods": {
					"getContractVersion()": {
						"notice": "Returns the current contract version."
					}
				},
				"version": 1
			}
		}
	}
}