{
	"contracts/0.8.9/utils/PausableUntil.sol": {
		"PausableUntil": {
			"abi": [
				{
					"inputs": [],
					"name": "PauseUntilMustBeInFuture",
					"type": "error"
				},
				{
					"inputs": [],
					"name": "PausedExpected",
					"type": "error"
				},
				{
					"inputs": [],
					"name": "ResumedExpected",
					"type": "error"
				},
				{
					"inputs": [],
					"name": "ZeroPauseDuration",
					"type": "error"
				},
				{
					"anonymous": false,
					"inputs": [
						{
							"indexed": false,
							"internalType": "uint256",
							"name": "duration",
							"type": "uint256"
						}
					],
					"name": "Paused",
					"type": "event"
				},
				{
					"anonymous": false,
					"inputs": [],
					"name": "Resumed",
					"type": "event"
				},
				{
					"inputs": [],
					"name": "PAUSE_INFINITELY",
					"outputs": [
						{
							"internalType": "uint256",
							"name": "",
							"type": "uint256"
						}
					],
					"stateMutability": "view",
					"type": "function"
				},
				{
					"inputs": [],
					"name": "getResumeSinceTimestamp",
					"outputs": [
						{
							"internalType": "uint256",
							"name": "",
							"type": "uint256"
						}
					],
					"stateMutability": "view",
					"type": "function"
				},
				{
					"inputs": [],
					"name": "isPaused",
					"outputs": [
						{
							"internalType": "bool",
							"name": "",
							"type": "bool"
						}
					],
					"stateMutability": "view",
					"type": "function"
				}
			],
			"devdoc": {
				"kind": "dev",
				"methods": {},
				"version": 1
			},
			"evm": {
				"assembly": "    /* \"contracts/0.8.9/utils/PausableUntil.sol\":155:3155  contract PausableUntil {... */\n  mstore(0x40, 0x80)\n  callvalue\n  dup1\n  iszero\n  tag_1\n  jumpi\n  0x00\n  dup1\n  revert\ntag_1:\n  pop\n  dataSize(sub_0)\n  dup1\n  dataOffset(sub_0)\n  0x00\n  codecopy\n  0x00\n  return\nstop\n\nsub_0: assembly {\n        /* \"contracts/0.8.9/utils/PausableUntil.sol\":155:3155  contract PausableUntil {... */\n      mstore(0x40, 0x80)\n      callvalue\n      dup1\n      iszero\n      tag_1\n      jumpi\n      0x00\n      dup1\n      revert\n    tag_1:\n      pop\n      jumpi(tag_2, lt(calldatasize, 0x04))\n      shr(0xe0, calldataload(0x00))\n      dup1\n      0x589ff76c\n      eq\n      tag_3\n      jumpi\n      dup1\n      0xa302ee38\n      eq\n      tag_4\n      jumpi\n      dup1\n      0xb187bd26\n      eq\n      tag_5\n      jumpi\n    tag_2:\n      0x00\n      dup1\n      revert\n        /* \"contracts/0.8.9/utils/PausableUntil.sol\":1717:1859  function getResumeSinceTimestamp() external view returns (uint256) {... */\n    tag_3:\n      tag_6\n      tag_7\n      jump\t// in\n    tag_6:\n      mload(0x40)\n      tag_8\n      swap2\n      swap1\n      tag_9\n      jump\t// in\n    tag_8:\n      mload(0x40)\n      dup1\n      swap2\n      sub\n      swap1\n      return\n        /* \"contracts/0.8.9/utils/PausableUntil.sol\":442:502  uint256 public constant PAUSE_INFINITELY = type(uint256).max */\n    tag_4:\n      tag_10\n      tag_11\n      jump\t// in\n    tag_10:\n      mload(0x40)\n      tag_12\n      swap2\n      swap1\n      tag_9\n      jump\t// in\n    tag_12:\n      mload(0x40)\n      dup1\n      swap2\n      sub\n      swap1\n      return\n        /* \"contracts/0.8.9/utils/PausableUntil.sol\":1348:1488  function isPaused() public view returns (bool) {... */\n    tag_5:\n      tag_13\n      tag_14\n      jump\t// in\n    tag_13:\n      mload(0x40)\n      tag_15\n      swap2\n      swap1\n      tag_16\n      jump\t// in\n    tag_15:\n      mload(0x40)\n      dup1\n      swap2\n      sub\n      swap1\n      return\n        /* \"contracts/0.8.9/utils/PausableUntil.sol\":1717:1859  function getResumeSinceTimestamp() external view returns (uint256) {... */\n    tag_7:\n        /* \"contracts/0.8.9/utils/PausableUntil.sol\":1775:1782  uint256 */\n      0x00\n        /* \"contracts/0.8.9/utils/PausableUntil.sol\":1801:1852  RESUME_SINCE_TIMESTAMP_POSITION.getStorageUint256() */\n      tag_18\n        /* \"contracts/0.8.9/utils/PausableUntil.sol\":339:391  keccak256(\"lido.PausableUntil.resumeSinceTimestamp\") */\n      0xe8b012900cb200ee5dfc3b895a32791b67d12891b09f117814f167a237783a02\n        /* \"contracts/0.8.9/utils/PausableUntil.sol\":1801:1850  RESUME_SINCE_TIMESTAMP_POSITION.getStorageUint256 */\n      tag_19\n        /* \"contracts/0.8.9/utils/PausableUntil.sol\":1801:1852  RESUME_SINCE_TIMESTAMP_POSITION.getStorageUint256() */\n      jump\t// in\n    tag_18:\n        /* \"contracts/0.8.9/utils/PausableUntil.sol\":1794:1852  return RESUME_SINCE_TIMESTAMP_POSITION.getStorageUint256() */\n      swap1\n      pop\n        /* \"contracts/0.8.9/utils/PausableUntil.sol\":1717:1859  function getResumeSinceTimestamp() external view returns (uint256) {... */\n      swap1\n      jump\t// out\n        /* \"contracts/0.8.9/utils/PausableUntil.sol\":442:502  uint256 public constant PAUSE_INFINITELY = type(uint256).max */\n    tag_11:\n        /* \"contracts/0.8.9/utils/PausableUntil.sol\":485:502  type(uint256).max */\n      0xffffffffffffffffffffffffffffffffffffffffffffffffffffffffffffffff\n        /* \"contracts/0.8.9/utils/PausableUntil.sol\":442:502  uint256 public constant PAUSE_INFINITELY = type(uint256).max */\n      dup2\n      jump\t// out\n        /* \"contracts/0.8.9/utils/PausableUntil.sol\":1348:1488  function isPaused() public view returns (bool) {... */\n    tag_14:\n        /* \"contracts/0.8.9/utils/PausableUntil.sol\":1389:1393  bool */\n      0x00\n        /* \"contracts/0.8.9/utils/PausableUntil.sol\":1430:1481  RESUME_SINCE_TIMESTAMP_POSITION.getStorageUint256() */\n      tag_21\n        /* \"contracts/0.8.9/utils/PausableUntil.sol\":339:391  keccak256(\"lido.PausableUntil.resumeSinceTimestamp\") */\n      0xe8b012900cb200ee5dfc3b895a32791b67d12891b09f117814f167a237783a02\n        /* \"contracts/0.8.9/utils/PausableUntil.sol\":1430:1479  RESUME_SINCE_TIMESTAMP_POSITION.getStorageUint256 */\n      tag_19\n        /* \"contracts/0.8.9/utils/PausableUntil.sol\":1430:1481  RESUME_SINCE_TIMESTAMP_POSITION.getStorageUint256() */\n      jump\t// in\n    tag_21:\n        /* \"contracts/0.8.9/utils/PausableUntil.sol\":1412:1427  block.timestamp */\n      timestamp\n        /* \"contracts/0.8.9/utils/PausableUntil.sol\":1412:1481  block.timestamp < RESUME_SINCE_TIMESTAMP_POSITION.getStorageUint256() */\n      lt\n        /* \"contracts/0.8.9/utils/PausableUntil.sol\":1405:1481  return block.timestamp < RESUME_SINCE_TIMESTAMP_POSITION.getStorageUint256() */\n      swap1\n      pop\n        /* \"contracts/0.8.9/utils/PausableUntil.sol\":1348:1488  function isPaused() public view returns (bool) {... */\n      swap1\n      jump\t// out\n        /* \"contracts/0.8.9/lib/UnstructuredStorage.sol\":568:702  function getStorageUint256(bytes32 position) internal view returns (uint256 data) {... */\n    tag_19:\n        /* \"contracts/0.8.9/lib/UnstructuredStorage.sol\":636:648  uint256 data */\n      0x00\n        /* \"contracts/0.8.9/lib/UnstructuredStorage.sol\":685:693  position */\n      dup2\n        /* \"contracts/0.8.9/lib/UnstructuredStorage.sol\":679:694  sload(position) */\n      sload\n        /* \"contracts/0.8.9/lib/UnstructuredStorage.sol\":671:694  data := sload(position) */\n      swap1\n      pop\n        /* \"contracts/0.8.9/lib/UnstructuredStorage.sol\":568:702  function getStorageUint256(bytes32 position) internal view returns (uint256 data) {... */\n      swap2\n      swap1\n      pop\n      jump\t// out\n        /* \"#utility.yul\":7:84   */\n    tag_23:\n        /* \"#utility.yul\":44:51   */\n      0x00\n        /* \"#utility.yul\":73:78   */\n      dup2\n        /* \"#utility.yul\":62:78   */\n      swap1\n      pop\n        /* \"#utility.yul\":7:84   */\n      swap2\n      swap1\n      pop\n      jump\t// out\n        /* \"#utility.yul\":90:208   */\n    tag_24:\n        /* \"#utility.yul\":177:201   */\n      tag_30\n        /* \"#utility.yul\":195:200   */\n      dup2\n        /* \"#utility.yul\":177:201   */\n      tag_23\n      jump\t// in\n    tag_30:\n        /* \"#utility.yul\":172:175   */\n      dup3\n        /* \"#utility.yul\":165:202   */\n      mstore\n        /* \"#utility.yul\":90:208   */\n      pop\n      pop\n      jump\t// out\n        /* \"#utility.yul\":214:436   */\n    tag_9:\n        /* \"#utility.yul\":307:311   */\n      0x00\n        /* \"#utility.yul\":345:347   */\n      0x20\n        /* \"#utility.yul\":334:343   */\n      dup3\n        /* \"#utility.yul\":330:348   */\n      add\n        /* \"#utility.yul\":322:348   */\n      swap1\n      pop\n        /* \"#utility.yul\":358:429   */\n      tag_32\n        /* \"#utility.yul\":426:427   */\n      0x00\n        /* \"#utility.yul\":415:424   */\n      dup4\n        /* \"#utility.yul\":411:428   */\n      add\n        /* \"#utility.yul\":402:408   */\n      dup5\n        /* \"#utility.yul\":358:429   */\n      tag_24\n      jump\t// in\n    tag_32:\n        /* \"#utility.yul\":214:436   */\n      swap3\n      swap2\n      pop\n      pop\n      jump\t// out\n        /* \"#utility.yul\":442:532   */\n    tag_25:\n        /* \"#utility.yul\":476:483   */\n      0x00\n        /* \"#utility.yul\":519:524   */\n      dup2\n        /* \"#utility.yul\":512:525   */\n      iszero\n        /* \"#utility.yul\":505:526   */\n      iszero\n        /* \"#utility.yul\":494:526   */\n      swap1\n      pop\n        /* \"#utility.yul\":442:532   */\n      swap2\n      swap1\n      pop\n      jump\t// out\n        /* \"#utility.yul\":538:647   */\n    tag_26:\n        /* \"#utility.yul\":619:640   */\n      tag_35\n        /* \"#utility.yul\":634:639   */\n      dup2\n        /* \"#utility.yul\":619:640   */\n      tag_25\n      jump\t// in\n    tag_35:\n        /* \"#utility.yul\":614:617   */\n      dup3\n        /* \"#utility.yul\":607:641   */\n      mstore\n        /* \"#utility.yul\":538:647   */\n      pop\n      pop\n      jump\t// out\n        /* \"#utility.yul\":653:863   */\n    tag_16:\n        /* \"#utility.yul\":740:744   */\n      0x00\n        /* \"#utility.yul\":778:780   */\n      0x20\n        /* \"#utility.yul\":767:776   */\n      dup3\n        /* \"#utility.yul\":763:781   */\n      add\n        /* \"#utility.yul\":755:781   */\n      swap1\n      pop\n        /* \"#utility.yul\":791:856   */\n      tag_37\n        /* \"#utility.yul\":853:854   */\n      0x00\n        /* \"#utility.yul\":842:851   */\n      dup4\n        /* \"#utility.yul\":838:855   */\n      add\n        /* \"#utility.yul\":829:835   */\n      dup5\n        /* \"#utility.yul\":791:856   */\n      tag_26\n      jump\t// in\n    tag_37:\n        /* \"#utility.yul\":653:863   */\n      swap3\n      swap2\n      pop\n      pop\n      jump\t// out\n\n    auxdata: 0xa26469706673582212208ef2a02a9983d2b4cead7a419ff6aa406110cad90353f3a1840d41dbd363141e64736f6c63430008090033\n}\n",
				"bytecode": {
					"linkReferences": {},
					"object": "608060405234801561001057600080fd5b506101d1806100206000396000f3fe608060405234801561001057600080fd5b50600436106100415760003560e01c8063589ff76c14610046578063a302ee3814610064578063b187bd2614610082575b600080fd5b61004e6100a0565b60405161005b919061014a565b60405180910390f35b61006c6100d0565b604051610079919061014a565b60405180910390f35b61008a6100f4565b6040516100979190610180565b60405180910390f35b60006100cb7fe8b012900cb200ee5dfc3b895a32791b67d12891b09f117814f167a237783a02610126565b905090565b7fffffffffffffffffffffffffffffffffffffffffffffffffffffffffffffffff81565b600061011f7fe8b012900cb200ee5dfc3b895a32791b67d12891b09f117814f167a237783a02610126565b4210905090565b600081549050919050565b6000819050919050565b61014481610131565b82525050565b600060208201905061015f600083018461013b565b92915050565b60008115159050919050565b61017a81610165565b82525050565b60006020820190506101956000830184610171565b9291505056fea26469706673582212208ef2a02a9983d2b4cead7a419ff6aa406110cad90353f3a1840d41dbd363141e64736f6c63430008090033",
					"opcodes": "PUSH1 0x80 PUSH1 0x40 MSTORE CALLVALUE DUP1 ISZERO PUSH2 0x10 JUMPI PUSH1 0x0 DUP1 REVERT JUMPDEST POP PUSH2 0x1D1 DUP1 PUSH2 0x20 PUSH1 0x0 CODECOPY PUSH1 0x0 RETURN INVALID PUSH1 0x80 PUSH1 0x40 MSTORE CALLVALUE DUP1 ISZERO PUSH2 0x10 JUMPI PUSH1 0x0 DUP1 REVERT JUMPDEST POP PUSH1 0x4 CALLDATASIZE LT PUSH2 0x41 JUMPI PUSH1 0x0 CALLDATALOAD PUSH1 0xE0 SHR DUP1 PUSH4 0x589FF76C EQ PUSH2 0x46 JUMPI DUP1 PUSH4 0xA302EE38 EQ PUSH2 0x64 JUMPI DUP1 PUSH4 0xB187BD26 EQ PUSH2 0x82 JUMPI JUMPDEST PUSH1 0x0 DUP1 REVERT JUMPDEST PUSH2 0x4E PUSH2 0xA0 JUMP JUMPDEST PUSH1 0x40 MLOAD PUSH2 0x5B SWAP2 SWAP1 PUSH2 0x14A JUMP JUMPDEST PUSH1 0x40 MLOAD DUP1 SWAP2 SUB SWAP1 RETURN JUMPDEST PUSH2 0x6C PUSH2 0xD0 JUMP JUMPDEST PUSH1 0x40 MLOAD PUSH2 0x79 SWAP2 SWAP1 PUSH2 0x14A JUMP JUMPDEST PUSH1 0x40 MLOAD DUP1 SWAP2 SUB SWAP1 RETURN JUMPDEST PUSH2 0x8A PUSH2 0xF4 JUMP JUMPDEST PUSH1 0x40 MLOAD PUSH2 0x97 SWAP2 SWAP1 PUSH2 0x180 JUMP JUMPDEST PUSH1 0x40 MLOAD DUP1 SWAP2 SUB SWAP1 RETURN JUMPDEST PUSH1 0x0 PUSH2 0xCB PUSH32 0xE8B012900CB200EE5DFC3B895A32791B67D12891B09F117814F167A237783A02 PUSH2 0x126 JUMP JUMPDEST SWAP1 POP SWAP1 JUMP JUMPDEST PUSH32 0xFFFFFFFFFFFFFFFFFFFFFFFFFFFFFFFFFFFFFFFFFFFFFFFFFFFFFFFFFFFFFFFF DUP2 JUMP JUMPDEST PUSH1 0x0 PUSH2 0x11F PUSH32 0xE8B012900CB200EE5DFC3B895A32791B67D12891B09F117814F167A237783A02 PUSH2 0x126 JUMP JUMPDEST TIMESTAMP LT SWAP1 POP SWAP1 JUMP JUMPDEST PUSH1 0x0 DUP2 SLOAD SWAP1 POP SWAP2 SWAP1 POP JUMP JUMPDEST PUSH1 0x0 DUP2 SWAP1 POP SWAP2 SWAP1 POP JUMP JUMPDEST PUSH2 0x144 DUP2 PUSH2 0x131 JUMP JUMPDEST DUP3 MSTORE POP POP JUMP JUMPDEST PUSH1 0x0 PUSH1 0x20 DUP3 ADD SWAP1 POP PUSH2 0x15F PUSH1 0x0 DUP4 ADD DUP5 PUSH2 0x13B JUMP JUMPDEST SWAP3 SWAP2 POP POP JUMP JUMPDEST PUSH1 0x0 DUP2 ISZERO ISZERO SWAP1 POP SWAP2 SWAP1 POP JUMP JUMPDEST PUSH2 0x17A DUP2 PUSH2 0x165 JUMP JUMPDEST DUP3 MSTORE POP POP JUMP JUMPDEST PUSH1 0x0 PUSH1 0x20 DUP3 ADD SWAP1 POP PUSH2 0x195 PUSH1 0x0 DUP4 ADD DUP5 PUSH2 0x171 JUMP JUMPDEST SWAP3 SWAP2 POP POP JUMP INVALID LOG2 PUSH5 0x6970667358 0x22 SLT KECCAK256 DUP15 CALLCODE LOG0 0x2A SWAP10 DUP4 0xD2 0xB4 0xCE 0xAD PUSH27 0x419FF6AA406110CAD90353F3A1840D41DBD363141E64736F6C6343 STOP ADDMOD MULMOD STOP CALLER "
				},
				"gasEstimates": {
					"creation": {
						"codeDepositCost": "93000",
						"executionCost": "141",
						"totalCost": "93141"
					},
					"external": {
						"PAUSE_INFINITELY()": "329",
						"getResumeSinceTimestamp()": "2458",
						"isPaused()": "2513"
					},
					"internal": {
						"_checkPaused()": "infinite",
						"_checkResumed()": "infinite",
						"_pauseFor(uint256)": "infinite",
						"_pauseUntil(uint256)": "infinite",
						"_resume()": "infinite",
						"_setPausedState(uint256)": "infinite"
					}
				},
				"methodIdentifiers": {
					"PAUSE_INFINITELY()": "a302ee38",
					"getResumeSinceTimestamp()": "589ff76c",
					"isPaused()": "b187bd26"
				}
			},
			"storageLayout": {
				"storage": [],
				"types": null
			},
			"userdoc": {
				"events": {
					"Paused(uint256)": {
						"notice": "Emitted when paused by the `pauseFor` or `pauseUntil` call"
					},
					"Resumed()": {
						"notice": "Emitted when resumed by the `resume` call"
					}
				},
				"kind": "user",
				"methods": {
					"PAUSE_INFINITELY()": {
						"notice": "Special value for the infinite pause"
					},
					"getResumeSinceTimestamp()": {
						"notice": "Returns one of:  - PAUSE_INFINITELY if paused infinitely returns  - first second when get contract get resumed if paused for specific duration  - some timestamp in past if not paused"
					},
					"isPaused()": {
						"notice": "Returns whether the contract is paused"
					}
				},
				"version": 1
			}
		}
	}
}