{
	"data": {
		"bytecode": {
			"linkReferences": {},
			"object": "608060405234801561001057600080fd5b506101d1806100206000396000f3fe608060405234801561001057600080fd5b50600436106100415760003560e01c8063589ff76c14610046578063a302ee3814610064578063b187bd2614610082575b600080fd5b61004e6100a0565b60405161005b919061014a565b60405180910390f35b61006c6100d0565b604051610079919061014a565b60405180910390f35b61008a6100f4565b6040516100979190610180565b60405180910390f35b60006100cb7fe8b012900cb200ee5dfc3b895a32791b67d12891b09f117814f167a237783a02610126565b905090565b7fffffffffffffffffffffffffffffffffffffffffffffffffffffffffffffffff81565b600061011f7fe8b012900cb200ee5dfc3b895a32791b67d12891b09f117814f167a237783a02610126565b4210905090565b600081549050919050565b6000819050919050565b61014481610131565b82525050565b600060208201905061015f600083018461013b565b92915050565b60008115159050919050565b61017a81610165565b82525050565b60006020820190506101956000830184610171565b9291505056fea26469706673582212208ef2a02a9983d2b4cead7a419ff6aa406110cad90353f3a1840d41dbd363141e64736f6c63430008090033",
			"opcodes": "PUSH1 0x80 PUSH1 0x40 MSTORE CALLVALUE DUP1 ISZERO PUSH2 0x10 JUMPI PUSH1 0x0 DUP1 REVERT JUMPDEST POP PUSH2 0x1D1 DUP1 PUSH2 0x20 PUSH1 0x0 CODECOPY PUSH1 0x0 RETURN INVALID PUSH1 0x80 PUSH1 0x40 MSTORE CALLVALUE DUP1 ISZERO PUSH2 0x10 JUMPI PUSH1 0x0 DUP1 REVERT JUMPDEST POP PUSH1 0x4 CALLDATASIZE LT PUSH2 0x41 JUMPI PUSH1 0x0 CALLDATALOAD PUSH1 0xE0 SHR DUP1 PUSH4 0x589FF76C EQ PUSH2 0x46 JUMPI DUP1 PUSH4 0xA302EE38 EQ PUSH2 0x64 JUMPI DUP1 PUSH4 0xB187BD26 EQ PUSH2 0x82 JUMPI JUMPDEST PUSH1 0x0 DUP1 REVERT JUMPDEST PUSH2 0x4E PUSH2 0xA0 JUMP JUMPDEST PUSH1 0x40 MLOAD PUSH2 0x5B SWAP2 SWAP1 PUSH2 0x14A JUMP JUMPDEST PUSH1 0x40 MLOAD DUP1 SWAP2 SUB SWAP1 RETURN JUMPDEST PUSH2 0x6C PUSH2 0xD0 JUMP JUMPDEST PUSH1 0x40 MLOAD PUSH2 0x79 SWAP2 SWAP1 PUSH2 0x14A JUMP JUMPDEST PUSH1 0x40 MLOAD DUP1 SWAP2 SUB SWAP1 RETURN JUMPDEST PUSH2 0x8A PUSH2 0xF4 JUMP JUMPDEST PUSH1 0x40 MLOAD PUSH2 0x97 SWAP2 SWAP1 PUSH2 0x180 JUMP JUMPDEST PUSH1 0x40 MLOAD DUP1 SWAP2 SUB SWAP1 RETURN JUMPDEST PUSH1 0x0 PUSH2 0xCB PUSH32 0xE8B012900CB200EE5DFC3B895A32791B67D12891B09F117814F167A237783A02 PUSH2 0x126 JUMP JUMPDEST SWAP1 POP SWAP1 JUMP JUMPDEST PUSH32 0xFFFFFFFFFFFFFFFFFFFFFFFFFFFFFFFFFFFFFFFFFFFFFFFFFFFFFFFFFFFFFFFF DUP2 JUMP JUMPDEST PUSH1 0x0 PUSH2 0x11F PUSH32 0xE8B012900CB200EE5DFC3B895A32791B67D12891B09F117814F167A237783A02 PUSH2 0x126 JUMP JUMPDEST TIMESTAMP LT SWAP1 POP SWAP1 JUMP JUMPDEST PUSH1 0x0 DUP2 SLOAD SWAP1 POP SWAP2 SWAP1 POP JUMP JUMPDEST PUSH1 0x0 DUP2 SWAP1 POP SWAP2 SWAP1 POP JUMP JUMPDEST PUSH2 0x144 DUP2 PUSH2 0x131 JUMP JUMPDEST DUP3 MSTORE POP POP JUMP JUMPDEST PUSH1 0x0 PUSH1 0x20 DUP3 ADD SWAP1 POP PUSH2 0x15F PUSH1 0x0 DUP4 ADD DUP5 PUSH2 0x13B JUMP JUMPDEST SWAP3 SWAP2 POP POP JUMP JUMPDEST PUSH1 0x0 DUP2 ISZERO ISZERO SWAP1 POP SWAP2 SWAP1 POP JUMP JUMPDEST PUSH2 0x17A DUP2 PUSH2 0x165 JUMP JUMPDEST DUP3 MSTORE POP POP JUMP JUMPDEST PUSH1 0x0 PUSH1 0x20 DUP3 ADD SWAP1 POP PUSH2 0x195 PUSH1 0x0 DUP4 ADD DUP5 PUSH2 0x171 JUMP JUMPDEST SWAP3 SWAP2 POP POP JUMP INVALID LOG2 PUSH5 0x6970667358 0x22 SLT KECCAK256 DUP15 CALLCODE LOG0 0x2A SWAP10 DUP4 0xD2 0xB4 0xCE 0xAD PUSH27 0x419FF6AA406110CAD90353F3A1840D41DBD363141E64736F6C6343 STOP ADDMOD MULMOD STOP CALLER "
		},
		"gasEstimates": {
			"creation": {
				"codeDepositCost": "93000",
				"executionCost": "141",
				"totalCost": "93141"
			},
			"external": {
				"PAUSE_INFINITELY()": "329",
				"getResumeSinceTimestamp()": "2458",
				"isPaused()": "2513"
			},
			"internal": {
				"_checkPaused()": "infinite",
				"_checkResumed()": "infinite",
				"_pauseFor(uint256)": "infinite",
				"_pauseUntil(uint256)": "infinite",
				"_resume()": "infinite",
				"_setPausedState(uint256)": "infinite"
			}
		},
		"methodIdentifiers": {
			"PAUSE_INFINITELY()": "a302ee38",
			"getResumeSinceTimestamp()": "589ff76c",
			"isPaused()": "b187bd26"
		}
	},
	"abi": [
		{
			"inputs": [],
			"name": "PauseUntilMustBeInFuture",
			"type": "error"
		},
		{
			"inputs": [],
			"name": "PausedExpected",
			"type": "error"
		},
		{
			"inputs": [],
			"name": "ResumedExpected",
			"type": "error"
		},
		{
			"inputs": [],
			"name": "ZeroPauseDuration",
			"type": "error"
		},
		{
			"anonymous": false,
			"inputs": [
				{
					"indexed": false,
					"internalType": "uint256",
					"name": "duration",
					"type": "uint256"
				}
			],
			"name": "Paused",
			"type": "event"
		},
		{
			"anonymous": false,
			"inputs": [],
			"name": "Resumed",
			"type": "event"
		},
		{
			"inputs": [],
			"name": "PAUSE_INFINITELY",
			"outputs": [
				{
					"internalType": "uint256",
					"name": "",
					"type": "uint256"
				}
			],
			"stateMutability": "view",
			"type": "function"
		},
		{
			"inputs": [],
			"name": "getResumeSinceTimestamp",
			"outputs": [
				{
					"internalType": "uint256",
					"name": "",
					"type": "uint256"
				}
			],
			"stateMutability": "view",
			"type": "function"
		},
		{
			"inputs": [],
			"name": "isPaused",
			"outputs": [
				{
					"internalType": "bool",
					"name": "",
					"type": "bool"
				}
			],
			"stateMutability": "view",
			"type": "function"
		}
	]
}