{
	"data": {
		"bytecode": {
			"linkReferences": {},
			"object": "608060405234801561001057600080fd5b506100687fffffffffffffffffffffffffffffffffffffffffffffffffffffffffffffffff7f4dd0f6662ba1d6b081f08b350f5e9a6a7b15cf586926ba66f753594928fa64a661006d60201b6100751790919060201c565b610074565b8082555050565b60ed806100826000396000f3fe6080604052348015600f57600080fd5b506004361060285760003560e01c80638aa1043514602d575b600080fd5b60336047565b604051603e9190609e565b60405180910390f35b600060707f4dd0f6662ba1d6b081f08b350f5e9a6a7b15cf586926ba66f753594928fa64a6607c565b905090565b8082555050565b600081549050919050565b6000819050919050565b6098816087565b82525050565b600060208201905060b160008301846091565b9291505056fea2646970667358221220d7df59d033ee2e4de97c7799cf0892be59eed33f4731bff385447b3553d0ea7c64736f6c63430008090033",
			"opcodes": "PUSH1 0x80 PUSH1 0x40 MSTORE CALLVALUE DUP1 ISZERO PUSH2 0x10 JUMPI PUSH1 0x0 DUP1 REVERT JUMPDEST POP PUSH2 0x68 PUSH32 0xFFFFFFFFFFFFFFFFFFFFFFFFFFFFFFFFFFFFFFFFFFFFFFFFFFFFFFFFFFFFFFFF PUSH32 0x4DD0F6662BA1D6B081F08B350F5E9A6A7B15CF586926BA66F753594928FA64A6 PUSH2 0x6D PUSH1 0x20 SHL PUSH2 0x75 OR SWAP1 SWAP2 SWAP1 PUSH1 0x20 SHR JUMP JUMPDEST PUSH2 0x74 JUMP JUMPDEST DUP1 DUP3 SSTORE POP POP JUMP JUMPDEST PUSH1 0xED DUP1 PUSH2 0x82 PUSH1 0x0 CODECOPY PUSH1 0x0 RETURN INVALID PUSH1 0x80 PUSH1 0x40 MSTORE CALLVALUE DUP1 ISZERO PUSH1 0xF JUMPI PUSH1 0x0 DUP1 REVERT JUMPDEST POP PUSH1 0x4 CALLDATASIZE LT PUSH1 0x28 JUMPI PUSH1 0x0 CALLDATALOAD PUSH1 0xE0 SHR DUP1 PUSH4 0x8AA10435 EQ PUSH1 0x2D JUMPI JUMPDEST PUSH1 0x0 DUP1 REVERT JUMPDEST PUSH1 0x33 PUSH1 0x47 JUMP JUMPDEST PUSH1 0x40 MLOAD PUSH1 0x3E SWAP2 SWAP1 PUSH1 0x9E JUMP JUMPDEST PUSH1 0x40 MLOAD DUP1 SWAP2 SUB SWAP1 RETURN JUMPDEST PUSH1 0x0 PUSH1 0x70 PUSH32 0x4DD0F6662BA1D6B081F08B350F5E9A6A7B15CF586926BA66F753594928FA64A6 PUSH1 0x7C JUMP JUMPDEST SWAP1 POP SWAP1 JUMP JUMPDEST DUP1 DUP3 SSTORE POP POP JUMP JUMPDEST PUSH1 0x0 DUP2 SLOAD SWAP1 POP SWAP2 SWAP1 POP JUMP JUMPDEST PUSH1 0x0 DUP2 SWAP1 POP SWAP2 SWAP1 POP JUMP JUMPDEST PUSH1 0x98 DUP2 PUSH1 0x87 JUMP JUMPDEST DUP3 MSTORE POP POP JUMP JUMPDEST PUSH1 0x0 PUSH1 0x20 DUP3 ADD SWAP1 POP PUSH1 0xB1 PUSH1 0x0 DUP4 ADD DUP5 PUSH1 0x91 JUMP JUMPDEST SWAP3 SWAP2 POP POP JUMP INVALID LOG2 PUSH5 0x6970667358 0x22 SLT KECCAK256 0xD7 0xDF MSIZE 0xD0 CALLER 0xEE 0x2E 0x4D 0xE9 PUSH29 0x7799CF0892BE59EED33F4731BFF385447B3553D0EA7C64736F6C634300 ADDMOD MULMOD STOP CALLER "
		},
		"gasEstimates": {
			"creation": {
				"codeDepositCost": "47400",
				"executionCost": "infinite",
				"totalCost": "infinite"
			},
			"external": {
				"getContractVersion()": "2458"
			},
			"internal": {
				"_checkContractVersion(uint256)": "infinite",
				"_initializeContractVersionTo(uint256)": "infinite",
				"_setContractVersion(uint256)": "infinite",
				"_updateContractVersion(uint256)": "infinite"
			}
		},
		"methodIdentifiers": {
			"getContractVersion()": "8aa10435"
		}
	},
	"abi": [
		{
			"inputs": [],
			"stateMutability": "nonpayable",
			"type": "constructor"
		},
		{
			"inputs": [],
			"name": "InvalidContractVersionIncrement",
			"type": "error"
		},
		{
			"inputs": [],
			"name": "NonZeroContractVersionOnInit",
			"type": "error"
		},
		{
			"inputs": [
				{
					"internalType": "uint256",
					"name": "expected",
					"type": "uint256"
				},
				{
					"internalType": "uint256",
					"name": "received",
					"type": "uint256"
				}
			],
			"name": "UnexpectedContractVersion",
			"type": "error"
		},
		{
			"anonymous": false,
			"inputs": [
				{
					"indexed": false,
					"internalType": "uint256",
					"name": "version",
					"type": "uint256"
				}
			],
			"name": "ContractVersionSet",
			"type": "event"
		},
		{
			"inputs": [],
			"name": "getContractVersion",
			"outputs": [
				{
					"internalType": "uint256",
					"name": "",
					"type": "uint256"
				}
			],
			"stateMutability": "view",
			"type": "function"
		}
	]
}