{
	"data": {
		"bytecode": {
			"linkReferences": {},
			"object": "6101006040523480156200001257600080fd5b506040516200a00d3803806200a00d833981810160405281019062000038919062000478565b82620000937fffffffffffffffffffffffffffffffffffffffffffffffffffffffffffffffff7f4dd0f6662ba1d6b081f08b350f5e9a6a7b15cf586926ba66f753594928fa64a66200020260201b62003a5f1790919060201c565b8073ffffffffffffffffffffffffffffffffffffffff1660a08173ffffffffffffffffffffffffffffffffffffffff168152505060a05173ffffffffffffffffffffffffffffffffffffffff1663c1fe3e486040518163ffffffff1660e01b815260040160206040518083038186803b1580156200011057600080fd5b505afa15801562000125573d6000803e3d6000fd5b505050506040513d601f19601f820116820180604052508101906200014b919062000557565b73ffffffffffffffffffffffffffffffffffffffff1660808173ffffffffffffffffffffffffffffffffffffffff16815250505060008251148062000191575060008151145b15620001c9576040517f71178d6600000000000000000000000000000000000000000000000000000000815260040160405180910390fd5b620001da826200020960201b60201c565b60c08181525050620001f2816200020960201b60201c565b60e08181525050505050620006c3565b8082555050565b600080829050601f815111156200025957826040517f305a27a9000000000000000000000000000000000000000000000000000000008152600401620002509190620005e6565b60405180910390fd5b805181620002679062000653565b60001c1760001b915050919050565b6000604051905090565b600080fd5b600080fd5b600073ffffffffffffffffffffffffffffffffffffffff82169050919050565b6000620002b7826200028a565b9050919050565b620002c981620002aa565b8114620002d557600080fd5b50565b600081519050620002e981620002be565b92915050565b600080fd5b600080fd5b6000601f19601f8301169050919050565b7f4e487b7100000000000000000000000000000000000000000000000000000000600052604160045260246000fd5b6200034482620002f9565b810181811067ffffffffffffffff821117156200036657620003656200030a565b5b80604052505050565b60006200037b62000276565b905062000389828262000339565b919050565b600067ffffffffffffffff821115620003ac57620003ab6200030a565b5b620003b782620002f9565b9050602081019050919050565b60005b83811015620003e4578082015181840152602081019050620003c7565b83811115620003f4576000848401525b50505050565b6000620004116200040b846200038e565b6200036f565b90508281526020810184848401111562000430576200042f620002f4565b5b6200043d848285620003c4565b509392505050565b600082601f8301126200045d576200045c620002ef565b5b81516200046f848260208601620003fa565b91505092915050565b60008060006060848603121562000494576200049362000280565b5b6000620004a486828701620002d8565b935050602084015167ffffffffffffffff811115620004c857620004c762000285565b5b620004d68682870162000445565b925050604084015167ffffffffffffffff811115620004fa57620004f962000285565b5b620005088682870162000445565b9150509250925092565b60006200051f82620002aa565b9050919050565b620005318162000512565b81146200053d57600080fd5b50565b600081519050620005518162000526565b92915050565b60006020828403121562000570576200056f62000280565b5b6000620005808482850162000540565b91505092915050565b600081519050919050565b600082825260208201905092915050565b6000620005b28262000589565b620005be818562000594565b9350620005d0818560208601620003c4565b620005db81620002f9565b840191505092915050565b60006020820190508181036000830152620006028184620005a5565b905092915050565b600081519050919050565b6000819050602082019050919050565b6000819050919050565b60006200063d825162000625565b80915050919050565b600082821b905092915050565b600062000660826200060a565b826200066c8462000615565b905062000679816200062f565b92506020821015620006bc57620006b77fffffffffffffffffffffffffffffffffffffffffffffffffffffffffffffffff8360200360080262000646565b831692505b5050919050565b60805160a05160c05160e0516198df6200072e6000396000611f3f015260006111ba015260008181611ca001528181612f0d01528181613de00152613e9201526000818161276201528181612f3e01528181613f4a01528181615ee50152615f9701526198df6000f3fe6080604052600436106103e45760003560e01c806391d1485411610208578063c4d66de811610118578063db2296cd116100ab578063e985e9c51161007a578063e985e9c514610f57578063eed53bf514610f94578063f3f449c714610fd1578063f6fa8a4714610ffa578063f844443614611025576103e4565b8063db2296cd14610ead578063e00bfe5014610ed8578063e3afe0a314610f03578063e7c0835d14610f2c576103e4565b8063d0fb84e8116100e7578063d0fb84e814610df1578063d547741f14610e1c578063d668104214610e45578063d9fb643a14610e82576103e4565b8063c4d66de814610d11578063c87b56dd14610d3a578063c97912d814610d77578063ca15c87314610db4576103e4565b8063a52e9c9f1161019b578063b6013cef1161016a578063b6013cef14610c39578063b7bdf74814610c55578063b88d4fde14610c80578063b8c4b85a14610ca9578063c2fc7aff14610ce6576103e4565b8063a52e9c9f14610b6a578063abe9cfc814610ba8578063acf41e4d14610bd1578063b187bd2614610c0e576103e4565b80639b36be58116101d75780639b36be5814610ac0578063a217fddf14610aeb578063a22cb46514610b16578063a302ee3814610b3f576103e4565b806391d1485414610a0657806392b18a4714610a4357806395d89b4114610a6c57806396992fed14610a97576103e4565b806336568abe116103035780635e7eead911610296578063714c539811610265578063714c5398146108f95780637951b76f146109245780637d031b65146109615780638aa104351461099e5780639010d07c146109c9576103e4565b80635e7eead91461081957806362abe3fa146108425780636352211e1461087f57806370a08231146108bc576103e4565b80634f069a13116102d25780634f069a131461076f578063526eae3e1461079a57806355f804b3146107c5578063589ff76c146107ee576103e4565b806336568abe146106c7578063389ed267146106f057806342842e0e1461071b57806346a086b414610744576103e4565b806319c2b4c31161037b57806329fd065d1161034a57806329fd065d1461061d5780632b95b781146106485780632de03aa1146106735780632f2ff15d1461069e576103e4565b806319c2b4c314610561578063220ca2f41461058c57806323b872dd146105b7578063248a9ca3146105e0576103e4565b8063081812fc116103b7578063081812fc14610493578063095ea7b3146104d05780630d25a957146104f957806319aa625714610524576103e4565b806301ffc9a7146103e9578063046f7da21461042657806306fdde031461043d57806307e2cea514610468575b600080fd5b3480156103f557600080fd5b50610410600480360381019061040b9190617c74565b61104e565b60405161041d9190617cbc565b60405180910390f35b34801561043257600080fd5b5061043b61117f565b005b34801561044957600080fd5b506104526111b3565b60405161045f9190617d70565b60405180910390f35b34801561047457600080fd5b5061047d6111e3565b60405161048a9190617dab565b60405180910390f35b34801561049f57600080fd5b506104ba60048036038101906104b59190617dfc565b611207565b6040516104c79190617e6a565b60405180910390f35b3480156104dc57600080fd5b506104f760048036038101906104f29190617eb1565b611294565b005b34801561050557600080fd5b5061050e61139b565b60405161051b9190617f00565b60405180910390f35b34801561053057600080fd5b5061054b60048036038101906105469190617f80565b6113a0565b604051610558919061809e565b60405180910390f35b34801561056d57600080fd5b5061057661149a565b6040516105839190617f00565b60405180910390f35b34801561059857600080fd5b506105a16114ca565b6040516105ae9190617dab565b60405180910390f35b3480156105c357600080fd5b506105de60048036038101906105d991906180c0565b6114ee565b005b3480156105ec57600080fd5b506106076004803603810190610602919061813f565b6114fe565b6040516106149190617dab565b60405180910390f35b34801561062957600080fd5b50610632611524565b60405161063f9190617f00565b60405180910390f35b34801561065457600080fd5b5061065d611529565b60405161066a9190617cbc565b60405180910390f35b34801561067f57600080fd5b5061068861155a565b6040516106959190617dab565b60405180910390f35b3480156106aa57600080fd5b506106c560048036038101906106c0919061816c565b61157e565b005b3480156106d357600080fd5b506106ee60048036038101906106e9919061816c565b6115a7565b005b3480156106fc57600080fd5b5061070561162a565b6040516107129190617dab565b60405180910390f35b34801561072757600080fd5b50610742600480360381019061073d91906180c0565b61164e565b005b34801561075057600080fd5b5061075961166e565b6040516107669190617e6a565b60405180910390f35b34801561077b57600080fd5b5061078461169e565b6040516107919190617f00565b60405180910390f35b3480156107a657600080fd5b506107af6116ce565b6040516107bc9190617f00565b60405180910390f35b3480156107d157600080fd5b506107ec60048036038101906107e79190618202565b6116fe565b005b3480156107fa57600080fd5b50610803611789565b6040516108109190617f00565b60405180910390f35b34801561082557600080fd5b50610840600480360381019061083b919061824f565b6117b9565b005b34801561084e57600080fd5b50610869600480360381019061086491906182e4565b6118fb565b604051610876919061809e565b60405180910390f35b34801561088b57600080fd5b506108a660048036038101906108a19190617dfc565b611a44565b6040516108b39190617e6a565b60405180910390f35b3480156108c857600080fd5b506108e360048036038101906108de9190618358565b611b3a565b6040516108f09190617f00565b60405180910390f35b34801561090557600080fd5b5061090e611c01565b60405161091b9190617d70565b60405180910390f35b34801561093057600080fd5b5061094b600480360381019061094691906183a9565b611c9c565b604051610958919061809e565b60405180910390f35b34801561096d57600080fd5b5061098860048036038101906109839190618358565b611d6c565b604051610995919061809e565b60405180910390f35b3480156109aa57600080fd5b506109b3611dc2565b6040516109c09190617f00565b60405180910390f35b3480156109d557600080fd5b506109f060048036038101906109eb919061841d565b611df2565b6040516109fd9190617e6a565b60405180910390f35b348015610a1257600080fd5b50610a2d6004803603810190610a28919061816c565b611e27565b604051610a3a9190617cbc565b60405180910390f35b348015610a4f57600080fd5b50610a6a6004803603810190610a659190618358565b611e98565b005b348015610a7857600080fd5b50610a81611f38565b604051610a8e9190617d70565b60405180910390f35b348015610aa357600080fd5b50610abe6004803603810190610ab99190618489565b611f68565b005b348015610acc57600080fd5b50610ad5612120565b604051610ae29190617f00565b60405180910390f35b348015610af757600080fd5b50610b00612150565b604051610b0d9190617dab565b60405180910390f35b348015610b2257600080fd5b50610b3d6004803603810190610b3891906184dc565b612157565b005b348015610b4b57600080fd5b50610b54612166565b604051610b619190617f00565b60405180910390f35b348015610b7657600080fd5b50610b916004803603810190610b8c919061851c565b61218a565b604051610b9f92919061857c565b60405180910390f35b348015610bb457600080fd5b50610bcf6004803603810190610bca9190617dfc565b61271f565b005b348015610bdd57600080fd5b50610bf86004803603810190610bf391906183a9565b61275e565b604051610c05919061809e565b60405180910390f35b348015610c1a57600080fd5b50610c2361282e565b604051610c309190617cbc565b60405180910390f35b610c536004803603810190610c4e91906185a5565b612860565b005b348015610c6157600080fd5b50610c6a6128fa565b604051610c779190617dab565b60405180910390f35b348015610c8c57600080fd5b50610ca76004803603810190610ca29190618715565b61291e565b005b348015610cb557600080fd5b50610cd06004803603810190610ccb9190618798565b61297c565b604051610cdd919061892d565b60405180910390f35b348015610cf257600080fd5b50610cfb612a3d565b604051610d089190617f00565b60405180910390f35b348015610d1d57600080fd5b50610d386004803603810190610d339190618358565b612a5e565b005b348015610d4657600080fd5b50610d616004803603810190610d5c9190617dfc565b612ad1565b604051610d6e9190617d70565b60405180910390f35b348015610d8357600080fd5b50610d9e6004803603810190610d99919061894f565b612c26565b604051610dab919061809e565b60405180910390f35b348015610dc057600080fd5b50610ddb6004803603810190610dd6919061813f565b612cf9565b604051610de89190617f00565b60405180910390f35b348015610dfd57600080fd5b50610e06612d23565b604051610e139190617f00565b60405180910390f35b348015610e2857600080fd5b50610e436004803603810190610e3e919061816c565b612dc6565b005b348015610e5157600080fd5b50610e6c6004803603810190610e679190617f80565b612def565b604051610e79919061809e565b60405180910390f35b348015610e8e57600080fd5b50610e97612f0b565b604051610ea49190618a2f565b60405180910390f35b348015610eb957600080fd5b50610ec2612f2f565b604051610ecf9190617f00565b60405180910390f35b348015610ee457600080fd5b50610eed612f3c565b604051610efa9190618a6b565b60405180910390f35b348015610f0f57600080fd5b50610f2a6004803603810190610f25919061894f565b612f60565b005b348015610f3857600080fd5b50610f4161303a565b604051610f4e9190617f00565b60405180910390f35b348015610f6357600080fd5b50610f7e6004803603810190610f799190618a86565b61305e565b604051610f8b9190617cbc565b60405180910390f35b348015610fa057600080fd5b50610fbb6004803603810190610fb69190618bf6565b6130f8565b604051610fc89190618d39565b60405180910390f35b348015610fdd57600080fd5b50610ff86004803603810190610ff39190617dfc565b6139c4565b005b34801561100657600080fd5b5061100f613a03565b60405161101c9190617f00565b60405180910390f35b34801561103157600080fd5b5061104c60048036038101906110479190617dfc565b613a33565b005b60007f80ac58cd000000000000000000000000000000000000000000000000000000007bffffffffffffffffffffffffffffffffffffffffffffffffffffffff1916827bffffffffffffffffffffffffffffffffffffffffffffffffffffffff1916148061111957507f5b5e139f000000000000000000000000000000000000000000000000000000007bffffffffffffffffffffffffffffffffffffffffffffffffffffffff1916827bffffffffffffffffffffffffffffffffffffffffffffffffffffffff1916145b806111685750634906490660e01b7bffffffffffffffffffffffffffffffffffffffffffffffffffffffff1916827bffffffffffffffffffffffffffffffffffffffffffffffffffffffff1916145b80611178575061117782613a66565b5b9050919050565b6111a97f2fc10cc8ae19568712f7a176fb4978616a610650813c9d05326c34abb62749c733613ae0565b6111b1613b7d565b565b60606111de7f0000000000000000000000000000000000000000000000000000000000000000613be6565b905090565b7f68e79a7bf1e0bc45d0a330c573bc367f9cf464fd326078812f301165fbda4ef181565b600061121282613c5a565b61125357816040517fc969e0f200000000000000000000000000000000000000000000000000000000815260040161124a9190617f00565b60405180910390fd5b61125b613cac565b600083815260200190815260200160002060009054906101000a900473ffffffffffffffffffffffffffffffffffffffff169050919050565b600061129f82611a44565b90508073ffffffffffffffffffffffffffffffffffffffff168373ffffffffffffffffffffffffffffffffffffffff161415611307576040517f93f5178600000000000000000000000000000000000000000000000000000000815260040160405180910390fd5b8073ffffffffffffffffffffffffffffffffffffffff163373ffffffffffffffffffffffffffffffffffffffff161415801561134a5750611348813361305e565b155b1561138c57336040517f41aaefac0000000000000000000000000000000000000000000000000000000081526004016113839190617e6a565b60405180910390fd5b6113968383613cdc565b505050565b606481565b60606113aa613d9b565b600073ffffffffffffffffffffffffffffffffffffffff168273ffffffffffffffffffffffffffffffffffffffff1614156113e3573391505b8383905067ffffffffffffffff811115611400576113ff6185ea565b5b60405190808252806020026020018201604052801561142e5781602001602082028036833780820191505090505b50905060005b848490508110156114925761146285858381811061145557611454618d55565b5b9050602002013584613ddc565b82828151811061147557611474618d55565b5b6020026020010181815250508061148b90618db3565b9050611434565b509392505050565b60006114c57f8ee26abbbdf533de3953ccf2204279e845eecb5ab51f8398522746e4ea068041614014565b905090565b7f485191a2ef18512555bd4426d18a716ce8e98c80ec2de16394dcf86d7d91bc8081565b6114f983838361401f565b505050565b60006115086144bc565b6000838152602001908152602001600020600101549050919050565b602481565b60007fffffffffffffffffffffffffffffffffffffffffffffffffffffffffffffffff611554612120565b10905090565b7f2fc10cc8ae19568712f7a176fb4978616a610650813c9d05326c34abb62749c781565b611587826114fe565b611598816115936144e9565b613ae0565b6115a283836144f1565b505050565b6115af6144e9565b73ffffffffffffffffffffffffffffffffffffffff168173ffffffffffffffffffffffffffffffffffffffff161461161c576040517f08c379a000000000000000000000000000000000000000000000000000000000815260040161161390618e6e565b60405180910390fd5b611626828261452b565b5050565b7f139c2898040ef16910dc9f44dc697df79363da767d8bc92f2e310312b816e46d81565b6116698383836040518060200160405280600081525061291e565b505050565b60006116997f2a81836f39b1062c2144ef0b520c964f50c3af430524cc6f585ff0aa7dd48c72614565565b905090565b60006116c97f992f2e0c24ce59a21f2dab8bba13b25c2f872129df7f4d45372155e717db0c48614014565b905090565b60006116f97f9d8be19d6a54e40bd767aa61b0f462241f5562ef6967d7045485bccac825b240614014565b905090565b7fbe882725f03f148e7c5a5e63ec45f182f7dcdb6bb8b92311ade5a6d138e0ee0f6117308161172b6144e9565b613ae0565b828261173a614570565b600001919061174a929190617a42565b507ff9c7803e94e0d3c02900d8a90893a6d5e90dd04d32a4cfe825520f82bf9f32f6838360405161177c929190618ebb565b60405180910390a1505050565b60006117b47fe8b012900cb200ee5dfc3b895a32791b67d12891b09f117814f167a237783a02614014565b905090565b600073ffffffffffffffffffffffffffffffffffffffff168173ffffffffffffffffffffffffffffffffffffffff161415611820576040517fd27b444300000000000000000000000000000000000000000000000000000000815260040160405180910390fd5b8282905085859050146118725784849050838390506040517f4c59bf2800000000000000000000000000000000000000000000000000000000815260040161186992919061857c565b60405180910390fd5b60005b858590508110156118f3576118bd86868381811061189657611895618d55565b5b905060200201358585848181106118b0576118af618d55565b5b905060200201358461459d565b6118e23360008888858181106118d6576118d5618d55565b5b905060200201356148a0565b806118ec90618db3565b9050611875565b505050505050565b60608484905067ffffffffffffffff81111561191a576119196185ea565b5b6040519080825280602002602001820160405280156119485781602001602082028036833780820191505090505b5090506000805b86869050811015611a3a578187878381811061196e5761196d618d55565b5b9050602002013510156119ad576040517f374e8bd100000000000000000000000000000000000000000000000000000000815260040160405180910390fd5b6119d18787838181106119c3576119c2618d55565b5b905060200201358686614900565b8382815181106119e4576119e3618d55565b5b602002602001018181525050828181518110611a0357611a02618d55565b5b60200260200101519450868682818110611a2057611a1f618d55565b5b90506020020135915080611a3390618db3565b905061194f565b5050949350505050565b600080821480611a5a5750611a5761149a565b82115b15611a9c57816040517fc969e0f2000000000000000000000000000000000000000000000000000000008152600401611a939190617f00565b60405180910390fd5b6000611aa6614b1f565b600084815260200190815260200160002090508060010160199054906101000a900460ff1615611b0d57826040517ff0e0cc2d000000000000000000000000000000000000000000000000000000008152600401611b049190617f00565b60405180910390fd5b8060010160009054906101000a900473ffffffffffffffffffffffffffffffffffffffff16915050919050565b60008073ffffffffffffffffffffffffffffffffffffffff168273ffffffffffffffffffffffffffffffffffffffff161415611bad57816040517f01e4f954000000000000000000000000000000000000000000000000000000008152600401611ba49190617e6a565b60405180910390fd5b611bfa611bb8614b4c565b60008473ffffffffffffffffffffffffffffffffffffffff1673ffffffffffffffffffffffffffffffffffffffff168152602001908152602001600020614b79565b9050919050565b6060611c0b614570565b6000018054611c1990618f0e565b80601f0160208091040260200160405190810160405280929190818152602001828054611c4590618f0e565b8015611c925780601f10611c6757610100808354040283529160200191611c92565b820191906000526020600020905b815481529060010190602001808311611c7557829003601f168201915b5050505050905090565b60607f000000000000000000000000000000000000000000000000000000000000000073ffffffffffffffffffffffffffffffffffffffff1663d505accf333085600001358660200135876040016020810190611cf99190618f79565b886060013589608001356040518863ffffffff1660e01b8152600401611d259796959493929190618fb5565b600060405180830381600087803b158015611d3f57600080fd5b505af1158015611d53573d6000803e3d6000fd5b50505050611d628585856113a0565b9050949350505050565b6060611dbb611d79614b4c565b60008473ffffffffffffffffffffffffffffffffffffffff1673ffffffffffffffffffffffffffffffffffffffff168152602001908152602001600020614b8e565b9050919050565b6000611ded7f4dd0f6662ba1d6b081f08b350f5e9a6a7b15cf586926ba66f753594928fa64a6614014565b905090565b6000611e1f82611e00614baf565b6000868152602001908152602001600020614bdc90919063ffffffff16565b905092915050565b6000611e316144bc565b600084815260200190815260200160002060000160008373ffffffffffffffffffffffffffffffffffffffff1673ffffffffffffffffffffffffffffffffffffffff16815260200190815260200160002060009054906101000a900460ff16905092915050565b7fbe882725f03f148e7c5a5e63ec45f182f7dcdb6bb8b92311ade5a6d138e0ee0f611eca81611ec56144e9565b613ae0565b611efd827f2a81836f39b1062c2144ef0b520c964f50c3af430524cc6f585ff0aa7dd48c72614bf690919063ffffffff16565b7f4ec04ac71c49eea0a94dc5967b493412a8cdb2934b367713019d3b110e9f0ba882604051611f2c9190617e6a565b60405180910390a15050565b6060611f637f0000000000000000000000000000000000000000000000000000000000000000613be6565b905090565b611f927f68e79a7bf1e0bc45d0a330c573bc367f9cf464fd326078812f301165fbda4ef133613ae0565b428210611fcb576040517f34819c0300000000000000000000000000000000000000000000000000000000815260040160405180910390fd5b428110612004576040517f34819c0300000000000000000000000000000000000000000000000000000000815260040160405180910390fd5b61200d81614bfd565b6000612017611529565b90508015158415151461211a5783156120995761205d837f1450eb8d0693284079f6627b2c1c6bb2e076066e44df1b18ba6ea7cc507e9bcb613a5f90919063ffffffff16565b7f47f03b07e5b5377f871539bb2942f5ecb72733be9fc9d55a17b6d6a05d4183458360405161208c9190617f00565b60405180910390a1612119565b6120ec7fffffffffffffffffffffffffffffffffffffffffffffffffffffffffffffffff7f1450eb8d0693284079f6627b2c1c6bb2e076066e44df1b18ba6ea7cc507e9bcb613a5f90919063ffffffff16565b7fd1f8a2998c0caf73e09434aa93d273a599060d789407c6f70ccd4c9c9f32c8f460405160405180910390a15b5b50505050565b600061214b7f1450eb8d0693284079f6627b2c1c6bb2e076066e44df1b18ba6ea7cc507e9bcb614014565b905090565b6000801b81565b612162338383614c33565b5050565b7fffffffffffffffffffffffffffffffffffffffffffffffffffffffffffffffff81565b60008060008314156121c8576040517fe4e9735700000000000000000000000000000000000000000000000000000000815260040160405180910390fd5b6000858590501415612206576040517f12de1df300000000000000000000000000000000000000000000000000000000815260040160405180910390fd5b61220e61169e565b8585600081811061222257612221618d55565b5b9050602002013511612285578484600081811061224257612241618d55565b5b905060200201356040517fc969e0f200000000000000000000000000000000000000000000000000000000815260040161227c9190617f00565b60405180910390fd5b61228d61149a565b858560018888905061229f9190619024565b8181106122af576122ae618d55565b5b9050602002013511156123215784846001878790506122ce9190619024565b8181106122de576122dd618d55565b5b905060200201356040517fc969e0f20000000000000000000000000000000000000000000000000000000081526004016123189190617f00565b60405180910390fd5b60008061232c61169e565b90506000612338614b1f565b60008381526020019081526020016000206040518060c00160405290816000820160009054906101000a90046fffffffffffffffffffffffffffffffff166fffffffffffffffffffffffffffffffff166fffffffffffffffffffffffffffffffff1681526020016000820160109054906101000a90046fffffffffffffffffffffffffffffffff166fffffffffffffffffffffffffffffffff166fffffffffffffffffffffffffffffffff1681526020016001820160009054906101000a900473ffffffffffffffffffffffffffffffffffffffff1673ffffffffffffffffffffffffffffffffffffffff1673ffffffffffffffffffffffffffffffffffffffff1681526020016001820160149054906101000a900464ffffffffff1664ffffffffff1664ffffffffff1681526020016001820160199054906101000a900460ff1615151515815260200160018201601a9054906101000a900464ffffffffff1664ffffffffff1664ffffffffff168152505090505b878790508310156127145760008888858181106124ce576124cd618d55565b5b905060200201359050828111612510576040517fcdf129c400000000000000000000000000000000000000000000000000000000815260040160405180910390fd5b600061251a614b1f565b60008381526020019081526020016000206040518060c00160405290816000820160009054906101000a90046fffffffffffffffffffffffffffffffff166fffffffffffffffffffffffffffffffff166fffffffffffffffffffffffffffffffff1681526020016000820160109054906101000a90046fffffffffffffffffffffffffffffffff166fffffffffffffffffffffffffffffffff166fffffffffffffffffffffffffffffffff1681526020016001820160009054906101000a900473ffffffffffffffffffffffffffffffffffffffff1673ffffffffffffffffffffffffffffffffffffffff1673ffffffffffffffffffffffffffffffffffffffff1681526020016001820160149054906101000a900464ffffffffff1664ffffffffff1664ffffffffff1681526020016001820160199054906101000a900460ff1615151515815260200160018201601a9054906101000a900464ffffffffff1664ffffffffff1664ffffffffff16815250509050600080600061269e8685614d9d565b9250925092508a8311156126e1576b033b2e3c9fd0803ce80000008b826126c59190619058565b6126cf91906190e1565b8a6126da9190619112565b99506126f0565b818a6126ed9190619112565b99505b80896126fc9190619112565b985084965083955087600101975050505050506124ae565b505050935093915050565b7f139c2898040ef16910dc9f44dc697df79363da767d8bc92f2e310312b816e46d6127518161274c6144e9565b613ae0565b61275a82614e1e565b5050565b60607f000000000000000000000000000000000000000000000000000000000000000073ffffffffffffffffffffffffffffffffffffffff1663d505accf3330856000013586602001358760400160208101906127bb9190618f79565b886060013589608001356040518863ffffffff1660e01b81526004016127e79796959493929190618fb5565b600060405180830381600087803b15801561280157600080fd5b505af1158015612815573d6000803e3d6000fd5b50505050612824858585612def565b9050949350505050565b60006128597fe8b012900cb200ee5dfc3b895a32791b67d12891b09f117814f167a237783a02614014565b4210905090565b612868613d9b565b6128927f485191a2ef18512555bd4426d18a716ce8e98c80ec2de16394dcf86d7d91bc8033613ae0565b6000600161289e61169e565b6128a89190619112565b90506128b5833484614ece565b7f6bd5c950a8d8df17f772f5af37cb3655737899cbf903264b9795592da439661c816128df61149a565b6040516128ed92919061857c565b60405180910390a1505050565b7fbe882725f03f148e7c5a5e63ec45f182f7dcdb6bb8b92311ade5a6d138e0ee0f81565b61292984848461401f565b612935848484846153db565b61297657826040517f09f844e300000000000000000000000000000000000000000000000000000000815260040161296d9190617e6a565b60405180910390fd5b50505050565b60608282905067ffffffffffffffff81111561299b5761299a6185ea565b5b6040519080825280602002602001820160405280156129d457816020015b6129c1617ac8565b8152602001906001900390816129b95790505b50905060005b83839050811015612a3657612a078484838181106129fb576129fa618d55565b5b9050602002013561556d565b828281518110612a1a57612a19618d55565b5b602002602001018190525080612a2f90618db3565b90506129da565b5092915050565b6000612a4761169e565b612a4f61149a565b612a599190619024565b905090565b600073ffffffffffffffffffffffffffffffffffffffff168173ffffffffffffffffffffffffffffffffffffffff161415612ac5576040517f02d715c200000000000000000000000000000000000000000000000000000000815260040160405180910390fd5b612ace8161598d565b50565b6060612adc82613c5a565b612b1d57816040517fc969e0f2000000000000000000000000000000000000000000000000000000008152600401612b149190617f00565b60405180910390fd5b6000612b487f2a81836f39b1062c2144ef0b520c964f50c3af430524cc6f585ff0aa7dd48c72614565565b9050600073ffffffffffffffffffffffffffffffffffffffff168173ffffffffffffffffffffffffffffffffffffffff1614612c14578073ffffffffffffffffffffffffffffffffffffffff1663894b4c2e846040518263ffffffff1660e01b8152600401612bb79190617f00565b60006040518083038186803b158015612bcf57600080fd5b505afa158015612be3573d6000803e3d6000fd5b505050506040513d6000823e3d601f19601f82011682018060405250810190612c0c9190619209565b915050612c21565b612c1d83615a62565b9150505b919050565b60608484905067ffffffffffffffff811115612c4557612c446185ea565b5b604051908082528060200260200182016040528015612c735781602001602082028036833780820191505090505b50905060005b85859050811015612cf057612cc0868683818110612c9a57612c99618d55565b5b90506020020135858584818110612cb457612cb3618d55565b5b90506020020135615d72565b828281518110612cd357612cd2618d55565b5b60200260200101818152505080612ce990618db3565b9050612c79565b50949350505050565b6000612d1c612d06614baf565b6000848152602001908152602001600020615e35565b9050919050565b6000612d2d614b1f565b6000612d3761169e565b815260200190815260200160002060000160009054906101000a90046fffffffffffffffffffffffffffffffff16612d6d614b1f565b6000612d7761149a565b815260200190815260200160002060000160009054906101000a90046fffffffffffffffffffffffffffffffff16612daf919061926e565b6fffffffffffffffffffffffffffffffff16905090565b612dcf826114fe565b612de081612ddb6144e9565b613ae0565b612dea838361452b565b505050565b6060612df9613d9b565b600073ffffffffffffffffffffffffffffffffffffffff168273ffffffffffffffffffffffffffffffffffffffff161415612e32573391505b8383905067ffffffffffffffff811115612e4f57612e4e6185ea565b5b604051908082528060200260200182016040528015612e7d5781602001602082028036833780820191505090505b50905060005b84849050811015612f0357612eb0858583818110612ea457612ea3618d55565b5b90506020020135615e4a565b612ed3858583818110612ec657612ec5618d55565b5b9050602002013584615ee1565b828281518110612ee657612ee5618d55565b5b60200260200101818152505080612efc90618db3565b9050612e83565b509392505050565b7f000000000000000000000000000000000000000000000000000000000000000081565b683635c9adc5dea0000081565b7f000000000000000000000000000000000000000000000000000000000000000081565b818190508484905014612fb25783839050828290506040517f4c59bf28000000000000000000000000000000000000000000000000000000008152600401612fa992919061857c565b60405180910390fd5b60005b8484905081101561303357612ffd858583818110612fd657612fd5618d55565b5b90506020020135848484818110612ff057612fef618d55565b5b905060200201353361459d565b61302233600087878581811061301657613015618d55565b5b905060200201356148a0565b8061302c90618db3565b9050612fb5565b5050505050565b7fffffffffffffffffffffffffffffffffffffffffffffffffffffffffffffffff81565b6000613068616060565b60008473ffffffffffffffffffffffffffffffffffffffff1673ffffffffffffffffffffffffffffffffffffffff16815260200190815260200160002060008373ffffffffffffffffffffffffffffffffffffffff1673ffffffffffffffffffffffffffffffffffffffff16815260200190815260200160002060009054906101000a900460ff16905092915050565b613100617b18565b816020015180613114575060008260000151145b1561314b576040517fbaf3f0f700000000000000000000000000000000000000000000000000000000815260040160405180910390fd5b6000613155617b48565b6000808560600151141561330757600161316d61169e565b6131779190619112565b9250613181614b1f565b60006001856131909190619024565b81526020019081526020016000206040518060c00160405290816000820160009054906101000a90046fffffffffffffffffffffffffffffffff166fffffffffffffffffffffffffffffffff166fffffffffffffffffffffffffffffffff1681526020016000820160109054906101000a90046fffffffffffffffffffffffffffffffff166fffffffffffffffffffffffffffffffff166fffffffffffffffffffffffffffffffff1681526020016001820160009054906101000a900473ffffffffffffffffffffffffffffffffffffffff1673ffffffffffffffffffffffffffffffffffffffff1673ffffffffffffffffffffffffffffffffffffffff1681526020016001820160149054906101000a900464ffffffffff1664ffffffffff1664ffffffffff1681526020016001820160199054906101000a900460ff1615151515815260200160018201601a9054906101000a900464ffffffffff1664ffffffffff1664ffffffffff1681525050915061365c565b600085604001516001876060015161331f9190619024565b602481106133305761332f618d55565b5b602002015190506001816133449190619112565b935061334e614b1f565b60008281526020019081526020016000206040518060c00160405290816000820160009054906101000a90046fffffffffffffffffffffffffffffffff166fffffffffffffffffffffffffffffffff166fffffffffffffffffffffffffffffffff1681526020016000820160109054906101000a90046fffffffffffffffffffffffffffffffff166fffffffffffffffffffffffffffffffff166fffffffffffffffffffffffffffffffff1681526020016001820160009054906101000a900473ffffffffffffffffffffffffffffffffffffffff1673ffffffffffffffffffffffffffffffffffffffff1673ffffffffffffffffffffffffffffffffffffffff1681526020016001820160149054906101000a900464ffffffffff1664ffffffffff1664ffffffffff1681526020016001820160199054906101000a900460ff1615151515815260200160018201601a9054906101000a900464ffffffffff1664ffffffffff1664ffffffffff168152505092506136536134ce614b1f565b60006001846134dd9190619024565b81526020019081526020016000206040518060c00160405290816000820160009054906101000a90046fffffffffffffffffffffffffffffffff166fffffffffffffffffffffffffffffffff166fffffffffffffffffffffffffffffffff1681526020016000820160109054906101000a90046fffffffffffffffffffffffffffffffff166fffffffffffffffffffffffffffffffff166fffffffffffffffffffffffffffffffff1681526020016001820160009054906101000a900473ffffffffffffffffffffffffffffffffffffffff1673ffffffffffffffffffffffffffffffffffffffff1673ffffffffffffffffffffffffffffffffffffffff1681526020016001820160149054906101000a900464ffffffffff1664ffffffffff1664ffffffffff1681526020016001820160199054906101000a900460ff1615151515815260200160018201601a9054906101000a900464ffffffffff1664ffffffffff1664ffffffffff168152505084614d9d565b90505080925050505b6000868461366a9190619112565b90506000600161367861149a565b6136829190619112565b90505b808510801561369357508185105b156139985760006136a2614b1f565b60008781526020019081526020016000206040518060c00160405290816000820160009054906101000a90046fffffffffffffffffffffffffffffffff166fffffffffffffffffffffffffffffffff166fffffffffffffffffffffffffffffffff1681526020016000820160109054906101000a90046fffffffffffffffffffffffffffffffff166fffffffffffffffffffffffffffffffff166fffffffffffffffffffffffffffffffff1681526020016001820160009054906101000a900473ffffffffffffffffffffffffffffffffffffffff1673ffffffffffffffffffffffffffffffffffffffff1673ffffffffffffffffffffffffffffffffffffffff1681526020016001820160149054906101000a900464ffffffffff1664ffffffffff1664ffffffffff1681526020016001820160199054906101000a900460ff1615151515815260200160018201601a9054906101000a900464ffffffffff1664ffffffffff1664ffffffffff1681525050905089816060015164ffffffffff1611156138305750613998565b600080600061383f8885614d9d565b9250925092508d831115613873576b033b2e3c9fd0803ce80000008e826138669190619058565b61387091906190e1565b91505b8a600001518211156138885750505050613998565b818b60000181815161389a9190619024565b9150818152505060008b60600151141580156138f757508360a0015164ffffffffff168860a0015164ffffffffff1614806138e157508d87111580156138e057508d8311155b5b806138f657508d871180156138f557508d83115b5b5b1561393257888b6040015160018d606001516139139190619024565b6024811061392457613923618d55565b5b602002018181525050613983565b60248b6060015114156139485750505050613998565b888b604001518c606001516024811061396457613963618d55565b5b6020020181815250508a606001805161397c90618db3565b9081815250505b82965083975088600101985050505050613685565b808514806139a557508185105b8760200190151590811515815250508695505050505050949350505050565b7f139c2898040ef16910dc9f44dc697df79363da767d8bc92f2e310312b816e46d6139f6816139f16144e9565b613ae0565b6139ff82616090565b5050565b6000613a2e7f0e27eaa2e71c8572ab988fef0b54cd45bbd1740de1e22343fb6cda7536edc12f614014565b905090565b613a5081613a4a836001613a456116ce565b614900565b3361459d565b613a5c336000836148a0565b50565b8082555050565b60007f5a05180f000000000000000000000000000000000000000000000000000000007bffffffffffffffffffffffffffffffffffffffffffffffffffffffff1916827bffffffffffffffffffffffffffffffffffffffffffffffffffffffff19161480613ad95750613ad882616141565b5b9050919050565b613aea8282611e27565b613b7957613b0f8173ffffffffffffffffffffffffffffffffffffffff1660146161bb565b613b1d8360001c60206161bb565b604051602001613b2e929190619376565b6040516020818303038152906040526040517f08c379a0000000000000000000000000000000000000000000000000000000008152600401613b709190617d70565b60405180910390fd5b5050565b613b856163f7565b613bb8427fe8b012900cb200ee5dfc3b895a32791b67d12891b09f117814f167a237783a02613a5f90919063ffffffff16565b7f62451d457bc659158be6e6247f56ec1df424a5c7597f71c20c2bc44e0965c8f960405160405180910390a1565b60606000613bf383616437565b90506000602067ffffffffffffffff811115613c1257613c116185ea565b5b6040519080825280601f01601f191660200182016040528015613c445781602001600182028036833780820191505090505b5090508181528360208201528092505050919050565b60008082118015613c725750613c6e61149a565b8211155b8015613ca55750613c81614b1f565b600083815260200190815260200160002060010160199054906101000a900460ff16155b9050919050565b6000613cd77f528f2b9d45274be04589d1a9e644321ee1435a867d38a1359d022af391cf7d75616447565b905090565b81613ce5613cac565b600083815260200190815260200160002060006101000a81548173ffffffffffffffffffffffffffffffffffffffff021916908373ffffffffffffffffffffffffffffffffffffffff160217905550808273ffffffffffffffffffffffffffffffffffffffff16613d5583611a44565b73ffffffffffffffffffffffffffffffffffffffff167f8c5be1e5ebec7d5bd14f71427d1e84f3dd0314c0f7b2291e5b200ac8c7c3b92560405160405180910390a45050565b613da361282e565b15613dda576040517f1437839800000000000000000000000000000000000000000000000000000000815260040160405180910390fd5b565b60007f000000000000000000000000000000000000000000000000000000000000000073ffffffffffffffffffffffffffffffffffffffff166323b872dd3330866040518463ffffffff1660e01b8152600401613e3b939291906193b0565b602060405180830381600087803b158015613e5557600080fd5b505af1158015613e69573d6000803e3d6000fd5b505050506040513d601f19601f82011682018060405250810190613e8d91906193fc565b5060007f000000000000000000000000000000000000000000000000000000000000000073ffffffffffffffffffffffffffffffffffffffff1663de0e9a3e856040518263ffffffff1660e01b8152600401613ee99190617f00565b602060405180830381600087803b158015613f0357600080fd5b505af1158015613f17573d6000803e3d6000fd5b505050506040513d601f19601f82011682018060405250810190613f3b919061943e565b9050613f4681615e4a565b60007f000000000000000000000000000000000000000000000000000000000000000073ffffffffffffffffffffffffffffffffffffffff166319208451836040518263ffffffff1660e01b8152600401613fa19190617f00565b60206040518083038186803b158015613fb957600080fd5b505afa158015613fcd573d6000803e3d6000fd5b505050506040513d601f19601f82011682018060405250810190613ff1919061943e565b9050613ffe828286616451565b925061400c600085856148a0565b505092915050565b600081549050919050565b600073ffffffffffffffffffffffffffffffffffffffff168273ffffffffffffffffffffffffffffffffffffffff161415614086576040517fea553b3400000000000000000000000000000000000000000000000000000000815260040160405180910390fd5b8273ffffffffffffffffffffffffffffffffffffffff168273ffffffffffffffffffffffffffffffffffffffff1614156140ec576040517f52ce6f2100000000000000000000000000000000000000000000000000000000815260040160405180910390fd5b600081148061410157506140fe61149a565b81115b1561414357806040517fc969e0f200000000000000000000000000000000000000000000000000000000815260040161413a9190617f00565b60405180910390fd5b600061414d614b1f565b600083815260200190815260200160002090508060010160199054906101000a900460ff16156141b457816040517ff0e0cc2d0000000000000000000000000000000000000000000000000000000081526004016141ab9190617f00565b60405180910390fd5b8060010160009054906101000a900473ffffffffffffffffffffffffffffffffffffffff1673ffffffffffffffffffffffffffffffffffffffff168473ffffffffffffffffffffffffffffffffffffffff161461426e57838160010160009054906101000a900473ffffffffffffffffffffffffffffffffffffffff166040517fc0eeaa6100000000000000000000000000000000000000000000000000000000815260040161426592919061946b565b60405180910390fd5b60003390508073ffffffffffffffffffffffffffffffffffffffff168573ffffffffffffffffffffffffffffffffffffffff1614806142b357506142b2858261305e565b5b8061432257508073ffffffffffffffffffffffffffffffffffffffff166142d8613cac565b600085815260200190815260200160002060009054906101000a900473ffffffffffffffffffffffffffffffffffffffff1673ffffffffffffffffffffffffffffffffffffffff16145b61436357806040517faee697e700000000000000000000000000000000000000000000000000000000815260040161435a9190617e6a565b60405180910390fd5b61436b613cac565b600084815260200190815260200160002060006101000a81549073ffffffffffffffffffffffffffffffffffffffff0219169055838260010160006101000a81548173ffffffffffffffffffffffffffffffffffffffff021916908373ffffffffffffffffffffffffffffffffffffffff160217905550614439836143ee614b4c565b60008873ffffffffffffffffffffffffffffffffffffffff1673ffffffffffffffffffffffffffffffffffffffff1681526020019081526020016000206168cc90919063ffffffff16565b61444657614445619494565b5b61449d83614452614b4c565b60008773ffffffffffffffffffffffffffffffffffffffff1673ffffffffffffffffffffffffffffffffffffffff1681526020019081526020016000206168e690919063ffffffff16565b6144aa576144a9619494565b5b6144b58585856148a0565b5050505050565b6000807f9a627a5d4aa7c17f87ff26e3fe9a42c2b6c559e8b41a42282d0ecebb17c0e4d390508091505090565b600033905090565b6144fb8282616900565b61452681614507614baf565b60008581526020019081526020016000206169e790919063ffffffff16565b505050565b6145358282616a17565b61456081614541614baf565b6000858152602001908152602001600020616aff90919063ffffffff16565b505050565b600081549050919050565b6000807f5ed9590a548c88ba856b4395a6a115927662fde6fc45814f1c0fa2b07869394390508091505090565b60008314156145e357826040517fc969e0f20000000000000000000000000000000000000000000000000000000081526004016145da9190617f00565b60405180910390fd5b6145eb61169e565b83111561462f57826040517f4ae502280000000000000000000000000000000000000000000000000000000081526004016146269190617f00565b60405180910390fd5b6000614639614b1f565b600085815260200190815260200160002090508060010160199054906101000a900460ff16156146a057836040517ff0e0cc2d0000000000000000000000000000000000000000000000000000000081526004016146979190617f00565b60405180910390fd5b3373ffffffffffffffffffffffffffffffffffffffff168160010160009054906101000a900473ffffffffffffffffffffffffffffffffffffffff1673ffffffffffffffffffffffffffffffffffffffff161461475a57338160010160009054906101000a900473ffffffffffffffffffffffffffffffffffffffff166040517f23295f0e00000000000000000000000000000000000000000000000000000000815260040161475192919061946b565b60405180910390fd5b60018160010160196101000a81548160ff0219169083151502179055506147f284614783614b4c565b60008460010160009054906101000a900473ffffffffffffffffffffffffffffffffffffffff1673ffffffffffffffffffffffffffffffffffffffff1673ffffffffffffffffffffffffffffffffffffffff1681526020019081526020016000206168cc90919063ffffffff16565b6147ff576147fe619494565b5b600061480c828686616b2f565b90506148298161481a613a03565b6148249190619024565b61702e565b6148338382617064565b8273ffffffffffffffffffffffffffffffffffffffff163373ffffffffffffffffffffffffffffffffffffffff16867f6ad26c5e238e7d002799f9a5db07e81ef14e37386ae03496d7a7ef04713e145b846040516148919190617f00565b60405180910390a45050505050565b808273ffffffffffffffffffffffffffffffffffffffff168473ffffffffffffffffffffffffffffffffffffffff167fddf252ad1be2c89b69c2b068fc378daa952ba7f163c4a11628f55a4df523b3ef60405160405180910390a4505050565b600080841480614916575061491361149a565b84115b1561495857836040517fc969e0f200000000000000000000000000000000000000000000000000000000815260040161494f9190617f00565b60405180910390fd5b60006149626116ce565b9050600084148061497257508083115b156149b65783836040517f718942570000000000000000000000000000000000000000000000000000000081526004016149ad92919061857c565b60405180910390fd5b60008114806149cb57506149c861169e565b85115b806149d557508284115b156149e4576000915050614b18565b6149ec617146565b6000848152602001908152602001600020600001548510614a5b5780831415614a185782915050614b18565b614a20617146565b6000600185614a2f9190619112565b815260200190815260200160002060000154851015614a515782915050614b18565b6000915050614b18565b614a63617146565b600085815260200190815260200160002060000154851015614a89576000915050614b18565b60008490506000600185614a9d9190619024565b90505b81811115614b11576000600260018484614aba9190619112565b614ac49190619112565b614ace91906190e1565b905087614ad9617146565b60008381526020019081526020016000206000015411614afb57809250614b0b565b600181614b089190619024565b91505b50614aa0565b8193505050505b9392505050565b6000807fe21b95c4eb1b99fd548b219e3b5c175a8efb31f910cb76456b20e14eba8cfe4390508091505090565b6000807f4b9bfe0774f05ab288bd50bd23f74ae80a797f1d0c82d419d43ebda4fdc2fe1f90508091505090565b6000614b8782600001617173565b9050919050565b60606000614b9e83600001617184565b905060608190508092505050919050565b6000807f8f8c450dae5029cd48cd91dd9db65da48fb742893edfc7941250f6721d93cbbe90508091505090565b6000614beb83600001836171e0565b60001c905092915050565b8082555050565b614c30817f6825d6bead7081b4d1ac062bbb771f0e4ade13182688453e79955a721d58c4dd613a5f90919063ffffffff16565b50565b8173ffffffffffffffffffffffffffffffffffffffff168373ffffffffffffffffffffffffffffffffffffffff161415614c99576040517fb06307db00000000000000000000000000000000000000000000000000000000815260040160405180910390fd5b80614ca2616060565b60008573ffffffffffffffffffffffffffffffffffffffff1673ffffffffffffffffffffffffffffffffffffffff16815260200190815260200160002060008473ffffffffffffffffffffffffffffffffffffffff1673ffffffffffffffffffffffffffffffffffffffff16815260200190815260200160002060006101000a81548160ff0219169083151502179055508173ffffffffffffffffffffffffffffffffffffffff168373ffffffffffffffffffffffffffffffffffffffff167f17307eab39ab6107e8899845ad3d59bd9653f200f220920489ca2b5937696c3183604051614d909190617cbc565b60405180910390a3505050565b600080600084600001518460000151614db6919061926e565b6fffffffffffffffffffffffffffffffff16915084602001518460200151614dde919061926e565b6fffffffffffffffffffffffffffffffff169050806b033b2e3c9fd0803ce800000083614e0b9190619058565b614e1591906190e1565b92509250925092565b614e26613d9b565b42811015614e60576040517f73c5d8a600000000000000000000000000000000000000000000000000000000815260040160405180910390fd5b60007fffffffffffffffffffffffffffffffffffffffffffffffffffffffffffffffff8214614e9d57600182614e969190619112565b9050614ec1565b7fffffffffffffffffffffffffffffffffffffffffffffffffffffffffffffffff90505b614eca8161720b565b5050565b614ed661149a565b831115614f1a57826040517fc969e0f2000000000000000000000000000000000000000000000000000000008152600401614f119190617f00565b60405180910390fd5b6000614f2461169e565b9050808411614f6a57836040517fc969e0f2000000000000000000000000000000000000000000000000000000008152600401614f619190617f00565b60405180910390fd5b6000614f74614b1f565b60008381526020019081526020016000206040518060c00160405290816000820160009054906101000a90046fffffffffffffffffffffffffffffffff166fffffffffffffffffffffffffffffffff166fffffffffffffffffffffffffffffffff1681526020016000820160109054906101000a90046fffffffffffffffffffffffffffffffff166fffffffffffffffffffffffffffffffff166fffffffffffffffffffffffffffffffff1681526020016001820160009054906101000a900473ffffffffffffffffffffffffffffffffffffffff1673ffffffffffffffffffffffffffffffffffffffff1673ffffffffffffffffffffffffffffffffffffffff1681526020016001820160149054906101000a900464ffffffffff1664ffffffffff1664ffffffffff1681526020016001820160199054906101000a900460ff1615151515815260200160018201601a9054906101000a900464ffffffffff1664ffffffffff1664ffffffffff1681525050905060006150f3614b1f565b60008781526020019081526020016000206040518060c00160405290816000820160009054906101000a90046fffffffffffffffffffffffffffffffff166fffffffffffffffffffffffffffffffff166fffffffffffffffffffffffffffffffff1681526020016000820160109054906101000a90046fffffffffffffffffffffffffffffffff166fffffffffffffffffffffffffffffffff166fffffffffffffffffffffffffffffffff1681526020016001820160009054906101000a900473ffffffffffffffffffffffffffffffffffffffff1673ffffffffffffffffffffffffffffffffffffffff1673ffffffffffffffffffffffffffffffffffffffff1681526020016001820160149054906101000a900464ffffffffff1664ffffffffff1664ffffffffff1681526020016001820160199054906101000a900460ff1615151515815260200160018201601a9054906101000a900464ffffffffff1664ffffffffff1664ffffffffff1681525050905060008260000151826000015161527e919061926e565b9050806fffffffffffffffffffffffffffffffff168611156152d95785816040517f252dfe810000000000000000000000000000000000000000000000000000000081526004016152d09291906194f4565b60405180910390fd5b60006001856152e89190619112565b905060006152f46116ce565b9050604051806040016040528083815260200188815250615313617146565b60006001846153229190619112565b8152602001908152602001600020600082015181600001556020820151816001015590505061535c6001826153579190619112565b617308565b61537788615368613a03565b6153729190619112565b61702e565b6153808961733e565b88827f197874c72af6a06fb0aa4fab45fd39c7cb61ac0992159872dc3295207da7e9eb8a886020015188602001516153b8919061926e565b426040516153c89392919061951d565b60405180910390a3505050505050505050565b60006153fc8473ffffffffffffffffffffffffffffffffffffffff16617374565b15615560578373ffffffffffffffffffffffffffffffffffffffff1663150b7a02338786866040518563ffffffff1660e01b815260040161544094939291906195a9565b602060405180830381600087803b15801561545a57600080fd5b505af192505050801561548b57506040513d601f19601f82011682018060405250810190615488919061960a565b60015b615510573d80600081146154bb576040519150601f19603f3d011682016040523d82523d6000602084013e6154c0565b606091505b5060008151141561550857846040517f09f844e30000000000000000000000000000000000000000000000000000000081526004016154ff9190617e6a565b60405180910390fd5b805181602001fd5b63150b7a0260e01b7bffffffffffffffffffffffffffffffffffffffffffffffffffffffff1916817bffffffffffffffffffffffffffffffffffffffffffffffffffffffff191614915050615565565b600190505b949350505050565b615575617ac8565b600082148061558a575061558761149a565b82115b156155cc57816040517fc969e0f20000000000000000000000000000000000000000000000000000000081526004016155c39190617f00565b60405180910390fd5b60006155d6614b1f565b60008481526020019081526020016000206040518060c00160405290816000820160009054906101000a90046fffffffffffffffffffffffffffffffff166fffffffffffffffffffffffffffffffff166fffffffffffffffffffffffffffffffff1681526020016000820160109054906101000a90046fffffffffffffffffffffffffffffffff166fffffffffffffffffffffffffffffffff166fffffffffffffffffffffffffffffffff1681526020016001820160009054906101000a900473ffffffffffffffffffffffffffffffffffffffff1673ffffffffffffffffffffffffffffffffffffffff1673ffffffffffffffffffffffffffffffffffffffff1681526020016001820160149054906101000a900464ffffffffff1664ffffffffff1664ffffffffff1681526020016001820160199054906101000a900460ff1615151515815260200160018201601a9054906101000a900464ffffffffff1664ffffffffff1664ffffffffff168152505090506000615755614b1f565b60006001866157649190619024565b81526020019081526020016000206040518060c00160405290816000820160009054906101000a90046fffffffffffffffffffffffffffffffff166fffffffffffffffffffffffffffffffff166fffffffffffffffffffffffffffffffff1681526020016000820160109054906101000a90046fffffffffffffffffffffffffffffffff166fffffffffffffffffffffffffffffffff166fffffffffffffffffffffffffffffffff1681526020016001820160009054906101000a900473ffffffffffffffffffffffffffffffffffffffff1673ffffffffffffffffffffffffffffffffffffffff1673ffffffffffffffffffffffffffffffffffffffff1681526020016001820160149054906101000a900464ffffffffff1664ffffffffff1664ffffffffff1681526020016001820160199054906101000a900460ff1615151515815260200160018201601a9054906101000a900464ffffffffff1664ffffffffff1664ffffffffff168152505090506040518060c00160405280826000015184600001516158f5919061926e565b6fffffffffffffffffffffffffffffffff16815260200182602001518460200151615920919061926e565b6fffffffffffffffffffffffffffffffff168152602001836040015173ffffffffffffffffffffffffffffffffffffffff168152602001836060015164ffffffffff16815260200161597061169e565b861115151581526020018360800151151581525092505050919050565b615995617387565b6159be7fffffffffffffffffffffffffffffffffffffffffffffffffffffffffffffffff616090565b6159c860016175a6565b6159d56000801b826144f1565b615a287fffffffffffffffffffffffffffffffffffffffffffffffffffffffffffffffff7f1450eb8d0693284079f6627b2c1c6bb2e076066e44df1b18ba6ea7cc507e9bcb613a5f90919063ffffffff16565b7f20b34d2aaaf6acb4fbbc9c4846858bb824053ab11ff44a59dfba1e22ceb8a50981604051615a579190617e6a565b60405180910390a150565b60606000615a6e614570565b6000018054615a7c90618f0e565b80601f0160208091040260200160405190810160405280929190818152602001828054615aa890618f0e565b8015615af55780601f10615aca57610100808354040283529160200191615af5565b820191906000526020600020905b815481529060010190602001808311615ad857829003601f168201915b50505050509050600081511415615b1e5760405180602001604052806000815250915050615d6d565b6000816040518060400160405280600181526020017f2f00000000000000000000000000000000000000000000000000000000000000815250615b60866175f3565b6040518060400160405280600b81526020017f3f7265717565737465643d000000000000000000000000000000000000000000815250615c38615ba1614b1f565b600060018b615bb09190619024565b815260200190815260200160002060000160009054906101000a90046fffffffffffffffffffffffffffffffff16615be6614b1f565b60008b815260200190815260200160002060000160009054906101000a90046fffffffffffffffffffffffffffffffff16615c21919061926e565b6fffffffffffffffffffffffffffffffff166175f3565b6040518060400160405280600c81526020017f26637265617465645f61743d0000000000000000000000000000000000000000815250615cab615c79614b1f565b60008c815260200190815260200160002060010160149054906101000a900464ffffffffff1664ffffffffff166175f3565b604051602001615cc19796959493929190619673565b60405160208183030381529060405290506000615cdc61169e565b85111590508015615d6657816040518060400160405280600b81526020017f2666696e616c697a65643d000000000000000000000000000000000000000000815250615d42615d3d88615d388a6001615d336116ce565b614900565b615d72565b6175f3565b604051602001615d54939291906196d8565b60405160208183030381529060405291505b8193505050505b919050565b600080831480615d885750615d8561149a565b83115b15615dca57826040517fc969e0f2000000000000000000000000000000000000000000000000000000008152600401615dc19190617f00565b60405180910390fd5b615dd261169e565b831115615de25760009050615e2f565b6000615dec614b1f565b600085815260200190815260200160002090508060010160199054906101000a900460ff1615615e20576000915050615e2f565b615e2b818585616b2f565b9150505b92915050565b6000615e4382600001617173565b9050919050565b6064811015615e9057806040517fb89b87c8000000000000000000000000000000000000000000000000000000008152600401615e879190617f00565b60405180910390fd5b683635c9adc5dea00000811115615ede57806040517f8ebfb78d000000000000000000000000000000000000000000000000000000008152600401615ed59190617f00565b60405180910390fd5b50565b60007f000000000000000000000000000000000000000000000000000000000000000073ffffffffffffffffffffffffffffffffffffffff166323b872dd3330866040518463ffffffff1660e01b8152600401615f40939291906193b0565b602060405180830381600087803b158015615f5a57600080fd5b505af1158015615f6e573d6000803e3d6000fd5b505050506040513d601f19601f82011682018060405250810190615f9291906193fc565b5060007f000000000000000000000000000000000000000000000000000000000000000073ffffffffffffffffffffffffffffffffffffffff166319208451856040518263ffffffff1660e01b8152600401615fee9190617f00565b60206040518083038186803b15801561600657600080fd5b505afa15801561601a573d6000803e3d6000fd5b505050506040513d601f19601f8201168201806040525081019061603e919061943e565b905061604b848285616451565b9150616059600084846148a0565b5092915050565b600061608b7fe6a0e71d546599dab4b90490502c456cf7c806a5710690dde406c1a77d7f25e7617754565b905090565b616098613d9b565b60008114156160d3576040517fad58bfc700000000000000000000000000000000000000000000000000000000815260040160405180910390fd5b60007fffffffffffffffffffffffffffffffffffffffffffffffffffffffffffffffff821415616125577fffffffffffffffffffffffffffffffffffffffffffffffffffffffffffffffff9050616134565b81426161319190619112565b90505b61613d8161720b565b5050565b60007f7965db0b000000000000000000000000000000000000000000000000000000007bffffffffffffffffffffffffffffffffffffffffffffffffffffffff1916827bffffffffffffffffffffffffffffffffffffffffffffffffffffffff191614806161b457506161b38261775e565b5b9050919050565b6060600060028360026161ce9190619058565b6161d89190619112565b67ffffffffffffffff8111156161f1576161f06185ea565b5b6040519080825280601f01601f1916602001820160405280156162235781602001600182028036833780820191505090505b5090507f30000000000000000000000000000000000000000000000000000000000000008160008151811061625b5761625a618d55565b5b60200101907effffffffffffffffffffffffffffffffffffffffffffffffffffffffffffff1916908160001a9053507f7800000000000000000000000000000000000000000000000000000000000000816001815181106162bf576162be618d55565b5b60200101907effffffffffffffffffffffffffffffffffffffffffffffffffffffffffffff1916908160001a905350600060018460026162ff9190619058565b6163099190619112565b90505b60018111156163a9577f3031323334353637383961626364656600000000000000000000000000000000600f86166010811061634b5761634a618d55565b5b1a60f81b82828151811061636257616361618d55565b5b60200101907effffffffffffffffffffffffffffffffffffffffffffffffffffffffffffff1916908160001a905350600485901c9450806163a290619709565b905061630c565b50600084146163ed576040517f08c379a00000000000000000000000000000000000000000000000000000000081526004016163e49061977f565b60405180910390fd5b8091505092915050565b6163ff61282e565b616435576040517fb047186b00000000000000000000000000000000000000000000000000000000815260040160405180910390fd5b565b600060ff8260001c169050919050565b6000819050919050565b60008061645c61149a565b90506000616468614b1f565b60008381526020019081526020016000206040518060c00160405290816000820160009054906101000a90046fffffffffffffffffffffffffffffffff166fffffffffffffffffffffffffffffffff166fffffffffffffffffffffffffffffffff1681526020016000820160109054906101000a90046fffffffffffffffffffffffffffffffff166fffffffffffffffffffffffffffffffff166fffffffffffffffffffffffffffffffff1681526020016001820160009054906101000a900473ffffffffffffffffffffffffffffffffffffffff1673ffffffffffffffffffffffffffffffffffffffff1673ffffffffffffffffffffffffffffffffffffffff1681526020016001820160149054906101000a900464ffffffffff1664ffffffffff1664ffffffffff1681526020016001820160199054906101000a900460ff1615151515815260200160018201601a9054906101000a900464ffffffffff1664ffffffffff1664ffffffffff1681525050905060008582602001516165ef919061979f565b90506000878360000151616603919061979f565b90506001846166129190619112565b945061661d856177c8565b60006040518060c00160405280836fffffffffffffffffffffffffffffffff168152602001846fffffffffffffffffffffffffffffffff1681526020018873ffffffffffffffffffffffffffffffffffffffff1681526020014264ffffffffff1681526020016000151581526020016166946177fe565b64ffffffffff168152509050806166a9614b1f565b600088815260200190815260200160002060008201518160000160006101000a8154816fffffffffffffffffffffffffffffffff02191690836fffffffffffffffffffffffffffffffff16021790555060208201518160000160106101000a8154816fffffffffffffffffffffffffffffffff02191690836fffffffffffffffffffffffffffffffff16021790555060408201518160010160006101000a81548173ffffffffffffffffffffffffffffffffffffffff021916908373ffffffffffffffffffffffffffffffffffffffff16021790555060608201518160010160146101000a81548164ffffffffff021916908364ffffffffff16021790555060808201518160010160196101000a81548160ff02191690831515021790555060a082015181600101601a6101000a81548164ffffffffff021916908364ffffffffff16021790555090505061684b86616800614b4c565b60008a73ffffffffffffffffffffffffffffffffffffffff1673ffffffffffffffffffffffffffffffffffffffff1681526020019081526020016000206168e690919063ffffffff16565b61685857616857619494565b5b8673ffffffffffffffffffffffffffffffffffffffff163373ffffffffffffffffffffffffffffffffffffffff16877ff0cb471f23fb74ea44b8252eb1881a2dca546288d9f6e90d1a0e82fe0ed342ab8c8c6040516168b89291906197e5565b60405180910390a450505050509392505050565b60006168de836000018360001b61782e565b905092915050565b60006168f8836000018360001b617942565b905092915050565b61690a8282611e27565b6169e35760016169186144bc565b600084815260200190815260200160002060000160008373ffffffffffffffffffffffffffffffffffffffff1673ffffffffffffffffffffffffffffffffffffffff16815260200190815260200160002060006101000a81548160ff0219169083151502179055506169886144e9565b73ffffffffffffffffffffffffffffffffffffffff168173ffffffffffffffffffffffffffffffffffffffff16837f2f8788117e7eff1d82e926ec794901d17c78024a50270940304540a733656f0d60405160405180910390a45b5050565b6000616a0f836000018373ffffffffffffffffffffffffffffffffffffffff1660001b617942565b905092915050565b616a218282611e27565b15616afb576000616a306144bc565b600084815260200190815260200160002060000160008373ffffffffffffffffffffffffffffffffffffffff1673ffffffffffffffffffffffffffffffffffffffff16815260200190815260200160002060006101000a81548160ff021916908315150217905550616aa06144e9565b73ffffffffffffffffffffffffffffffffffffffff168173ffffffffffffffffffffffffffffffffffffffff16837ff6391f5c32d9c69d2a47ea670b442974b53935d1edc7fd64eb21e047a839171b60405160405180910390a45b5050565b6000616b27836000018373ffffffffffffffffffffffffffffffffffffffff1660001b61782e565b905092915050565b600080821415616b7657816040517fcee778e2000000000000000000000000000000000000000000000000000000008152600401616b6d9190617f00565b60405180910390fd5b6000616b806116ce565b905080831115616bc757826040517fcee778e2000000000000000000000000000000000000000000000000000000008152600401616bbe9190617f00565b60405180910390fd5b6000616bd1617146565b60008581526020019081526020016000206040518060400160405290816000820154815260200160018201548152505090508060000151851015616c4c57836040517fcee778e2000000000000000000000000000000000000000000000000000000008152600401616c439190617f00565b60405180910390fd5b81841015616ce6576000616c5e617146565b6000600187616c6d9190619112565b815260200190815260200160002060405180604001604052908160008201548152602001600182015481525050905085816000015111616ce457846040517fcee778e2000000000000000000000000000000000000000000000000000000008152600401616cdb9190617f00565b60405180910390fd5b505b6000616cf0614b1f565b6000600188616cff9190619024565b81526020019081526020016000206040518060c00160405290816000820160009054906101000a90046fffffffffffffffffffffffffffffffff166fffffffffffffffffffffffffffffffff166fffffffffffffffffffffffffffffffff1681526020016000820160109054906101000a90046fffffffffffffffffffffffffffffffff166fffffffffffffffffffffffffffffffff166fffffffffffffffffffffffffffffffff1681526020016001820160009054906101000a900473ffffffffffffffffffffffffffffffffffffffff1673ffffffffffffffffffffffffffffffffffffffff1673ffffffffffffffffffffffffffffffffffffffff1681526020016001820160149054906101000a900464ffffffffff1664ffffffffff1664ffffffffff1681526020016001820160199054906101000a900460ff1615151515815260200160018201601a9054906101000a900464ffffffffff1664ffffffffff1664ffffffffff168152505090506000806000616fe2848b6040518060c00160405290816000820160009054906101000a90046fffffffffffffffffffffffffffffffff166fffffffffffffffffffffffffffffffff166fffffffffffffffffffffffffffffffff1681526020016000820160109054906101000a90046fffffffffffffffffffffffffffffffff166fffffffffffffffffffffffffffffffff166fffffffffffffffffffffffffffffffff1681526020016001820160009054906101000a900473ffffffffffffffffffffffffffffffffffffffff1673ffffffffffffffffffffffffffffffffffffffff1673ffffffffffffffffffffffffffffffffffffffff1681526020016001820160149054906101000a900464ffffffffff1664ffffffffff1664ffffffffff1681526020016001820160199054906101000a900460ff1615151515815260200160018201601a9054906101000a900464ffffffffff1664ffffffffff1664ffffffffff1681525050614d9d565b925092509250846020015183111561701e576b033b2e3c9fd0803ce80000008560200151826170119190619058565b61701b91906190e1565b91505b8196505050505050509392505050565b617061817f0e27eaa2e71c8572ab988fef0b54cd45bbd1740de1e22343fb6cda7536edc12f613a5f90919063ffffffff16565b50565b8047101561709e576040517f8a0d377900000000000000000000000000000000000000000000000000000000815260040160405180910390fd5b60008273ffffffffffffffffffffffffffffffffffffffff16826040516170c490619834565b60006040518083038185875af1925050503d8060008114617101576040519150601f19603f3d011682016040523d82523d6000602084013e617106565b606091505b5050905080617141576040517f0f0b498d00000000000000000000000000000000000000000000000000000000815260040160405180910390fd5b505050565b6000807f445f3cbbc114a35d080f2a1953516d74e74d5106860bc2317840ba265f03b51a90508091505090565b600081600001805490509050919050565b6060816000018054806020026020016040519081016040528092919081815260200182805480156171d457602002820191906000526020600020905b8154815260200190600101908083116171c0575b50505050509050919050565b60008260000182815481106171f8576171f7618d55565b5b9060005260206000200154905092915050565b61723e817fe8b012900cb200ee5dfc3b895a32791b67d12891b09f117814f167a237783a02613a5f90919063ffffffff16565b7fffffffffffffffffffffffffffffffffffffffffffffffffffffffffffffffff8114156172c2577f32fb7c9891bc4f963c7de9f1186d2a7755c7d6e9f4604dabe1d8bb3027c2f49e7fffffffffffffffffffffffffffffffffffffffffffffffffffffffffffffffff6040516172b59190617f00565b60405180910390a1617305565b7f32fb7c9891bc4f963c7de9f1186d2a7755c7d6e9f4604dabe1d8bb3027c2f49e42826172ef9190619024565b6040516172fc9190617f00565b60405180910390a15b50565b61733b817f9d8be19d6a54e40bd767aa61b0f462241f5562ef6967d7045485bccac825b240613a5f90919063ffffffff16565b50565b617371817f992f2e0c24ce59a21f2dab8bba13b25c2f872129df7f4d45372155e717db0c48613a5f90919063ffffffff16565b50565b600080823b905060008111915050919050565b6040518060c0016040528060006fffffffffffffffffffffffffffffffff16815260200160006fffffffffffffffffffffffffffffffff168152602001600073ffffffffffffffffffffffffffffffffffffffff1681526020014264ffffffffff168152602001600115158152602001600064ffffffffff1681525061740b614b1f565b600080815260200190815260200160002060008201518160000160006101000a8154816fffffffffffffffffffffffffffffffff02191690836fffffffffffffffffffffffffffffffff16021790555060208201518160000160106101000a8154816fffffffffffffffffffffffffffffffff02191690836fffffffffffffffffffffffffffffffff16021790555060408201518160010160006101000a81548173ffffffffffffffffffffffffffffffffffffffff021916908373ffffffffffffffffffffffffffffffffffffffff16021790555060608201518160010160146101000a81548164ffffffffff021916908364ffffffffff16021790555060808201518160010160196101000a81548160ff02191690831515021790555060a082015181600101601a6101000a81548164ffffffffff021916908364ffffffffff1602179055509050506040518060400160405280600081526020016000815250617575617146565b600061757f6116ce565b81526020019081526020016000206000820151816000015560208201518160010155905050565b60006175b0611dc2565b146175e7576040517f61394a8400000000000000000000000000000000000000000000000000000000815260040160405180910390fd5b6175f0816179b2565b50565b6060600082141561763b576040518060400160405280600181526020017f3000000000000000000000000000000000000000000000000000000000000000815250905061774f565b600082905060005b6000821461766d57808061765690618db3565b915050600a8261766691906190e1565b9150617643565b60008167ffffffffffffffff811115617689576176886185ea565b5b6040519080825280601f01601f1916602001820160405280156176bb5781602001600182028036833780820191505090505b5090505b60008514617748576001826176d49190619024565b9150600a856176e39190619849565b60306176ef9190619112565b60f81b81838151811061770557617704618d55565b5b60200101907effffffffffffffffffffffffffffffffffffffffffffffffffffffffffffff1916908160001a905350600a8561774191906190e1565b94506176bf565b8093505050505b919050565b6000819050919050565b60007f01ffc9a7000000000000000000000000000000000000000000000000000000007bffffffffffffffffffffffffffffffffffffffffffffffffffffffff1916827bffffffffffffffffffffffffffffffffffffffffffffffffffffffff1916149050919050565b6177fb817f8ee26abbbdf533de3953ccf2204279e845eecb5ab51f8398522746e4ea068041613a5f90919063ffffffff16565b50565b60006178297f6825d6bead7081b4d1ac062bbb771f0e4ade13182688453e79955a721d58c4dd614014565b905090565b600080836001016000848152602001908152602001600020549050600081146179365760006001826178609190619024565b90506000600186600001805490506178789190619024565b90508181146178e757600086600001828154811061789957617898618d55565b5b90600052602060002001549050808760000184815481106178bd576178bc618d55565b5b90600052602060002001819055508387600101600083815260200190815260200160002081905550505b856000018054806178fb576178fa61987a565b5b60019003818190600052602060002001600090559055856001016000868152602001908152602001600020600090556001935050505061793c565b60009150505b92915050565b600061794e8383617a1f565b6179a75782600001829080600181540180825580915050600190039060005260206000200160009091909190915055826000018054905083600101600084815260200190815260200160002081905550600190506179ac565b600090505b92915050565b6179e5817f4dd0f6662ba1d6b081f08b350f5e9a6a7b15cf586926ba66f753594928fa64a6613a5f90919063ffffffff16565b7ffddcded6b4f4730c226821172046b48372d3cd963c159701ae1b7c3bcac541bb81604051617a149190617f00565b60405180910390a150565b600080836001016000848152602001908152602001600020541415905092915050565b828054617a4e90618f0e565b90600052602060002090601f016020900481019282617a705760008555617ab7565b82601f10617a8957803560ff1916838001178555617ab7565b82800160010185558215617ab7579182015b82811115617ab6578235825591602001919060010190617a9b565b5b509050617ac49190617bc8565b5090565b6040518060c001604052806000815260200160008152602001600073ffffffffffffffffffffffffffffffffffffffff168152602001600081526020016000151581526020016000151581525090565b604051806080016040528060008152602001600015158152602001617b3b617be5565b8152602001600081525090565b6040518060c0016040528060006fffffffffffffffffffffffffffffffff16815260200160006fffffffffffffffffffffffffffffffff168152602001600073ffffffffffffffffffffffffffffffffffffffff168152602001600064ffffffffff168152602001600015158152602001600064ffffffffff1681525090565b5b80821115617be1576000816000905550600101617bc9565b5090565b604051806104800160405280602490602082028036833780820191505090505090565b6000604051905090565b600080fd5b600080fd5b60007fffffffff0000000000000000000000000000000000000000000000000000000082169050919050565b617c5181617c1c565b8114617c5c57600080fd5b50565b600081359050617c6e81617c48565b92915050565b600060208284031215617c8a57617c89617c12565b5b6000617c9884828501617c5f565b91505092915050565b60008115159050919050565b617cb681617ca1565b82525050565b6000602082019050617cd16000830184617cad565b92915050565b600081519050919050565b600082825260208201905092915050565b60005b83811015617d11578082015181840152602081019050617cf6565b83811115617d20576000848401525b50505050565b6000601f19601f8301169050919050565b6000617d4282617cd7565b617d4c8185617ce2565b9350617d5c818560208601617cf3565b617d6581617d26565b840191505092915050565b60006020820190508181036000830152617d8a8184617d37565b905092915050565b6000819050919050565b617da581617d92565b82525050565b6000602082019050617dc06000830184617d9c565b92915050565b6000819050919050565b617dd981617dc6565b8114617de457600080fd5b50565b600081359050617df681617dd0565b92915050565b600060208284031215617e1257617e11617c12565b5b6000617e2084828501617de7565b91505092915050565b600073ffffffffffffffffffffffffffffffffffffffff82169050919050565b6000617e5482617e29565b9050919050565b617e6481617e49565b82525050565b6000602082019050617e7f6000830184617e5b565b92915050565b617e8e81617e49565b8114617e9957600080fd5b50565b600081359050617eab81617e85565b92915050565b60008060408385031215617ec857617ec7617c12565b5b6000617ed685828601617e9c565b9250506020617ee785828601617de7565b9150509250929050565b617efa81617dc6565b82525050565b6000602082019050617f156000830184617ef1565b92915050565b600080fd5b600080fd5b600080fd5b60008083601f840112617f4057617f3f617f1b565b5b8235905067ffffffffffffffff811115617f5d57617f5c617f20565b5b602083019150836020820283011115617f7957617f78617f25565b5b9250929050565b600080600060408486031215617f9957617f98617c12565b5b600084013567ffffffffffffffff811115617fb757617fb6617c17565b5b617fc386828701617f2a565b93509350506020617fd686828701617e9c565b9150509250925092565b600081519050919050565b600082825260208201905092915050565b6000819050602082019050919050565b61801581617dc6565b82525050565b6000618027838361800c565b60208301905092915050565b6000602082019050919050565b600061804b82617fe0565b6180558185617feb565b935061806083617ffc565b8060005b83811015618091578151618078888261801b565b975061808383618033565b925050600181019050618064565b5085935050505092915050565b600060208201905081810360008301526180b88184618040565b905092915050565b6000806000606084860312156180d9576180d8617c12565b5b60006180e786828701617e9c565b93505060206180f886828701617e9c565b925050604061810986828701617de7565b9150509250925092565b61811c81617d92565b811461812757600080fd5b50565b60008135905061813981618113565b92915050565b60006020828403121561815557618154617c12565b5b60006181638482850161812a565b91505092915050565b6000806040838503121561818357618182617c12565b5b60006181918582860161812a565b92505060206181a285828601617e9c565b9150509250929050565b60008083601f8401126181c2576181c1617f1b565b5b8235905067ffffffffffffffff8111156181df576181de617f20565b5b6020830191508360018202830111156181fb576181fa617f25565b5b9250929050565b6000806020838503121561821957618218617c12565b5b600083013567ffffffffffffffff81111561823757618236617c17565b5b618243858286016181ac565b92509250509250929050565b60008060008060006060868803121561826b5761826a617c12565b5b600086013567ffffffffffffffff81111561828957618288617c17565b5b61829588828901617f2a565b9550955050602086013567ffffffffffffffff8111156182b8576182b7617c17565b5b6182c488828901617f2a565b935093505060406182d788828901617e9c565b9150509295509295909350565b600080600080606085870312156182fe576182fd617c12565b5b600085013567ffffffffffffffff81111561831c5761831b617c17565b5b61832887828801617f2a565b9450945050602061833b87828801617de7565b925050604061834c87828801617de7565b91505092959194509250565b60006020828403121561836e5761836d617c12565b5b600061837c84828501617e9c565b91505092915050565b600080fd5b600060a082840312156183a05761839f618385565b5b81905092915050565b60008060008060e085870312156183c3576183c2617c12565b5b600085013567ffffffffffffffff8111156183e1576183e0617c17565b5b6183ed87828801617f2a565b9450945050602061840087828801617e9c565b92505060406184118782880161838a565b91505092959194509250565b6000806040838503121561843457618433617c12565b5b60006184428582860161812a565b925050602061845385828601617de7565b9150509250929050565b61846681617ca1565b811461847157600080fd5b50565b6000813590506184838161845d565b92915050565b6000806000606084860312156184a2576184a1617c12565b5b60006184b086828701618474565b93505060206184c186828701617de7565b92505060406184d286828701617de7565b9150509250925092565b600080604083850312156184f3576184f2617c12565b5b600061850185828601617e9c565b925050602061851285828601618474565b9150509250929050565b60008060006040848603121561853557618534617c12565b5b600084013567ffffffffffffffff81111561855357618552617c17565b5b61855f86828701617f2a565b9350935050602061857286828701617de7565b9150509250925092565b60006040820190506185916000830185617ef1565b61859e6020830184617ef1565b9392505050565b600080604083850312156185bc576185bb617c12565b5b60006185ca85828601617de7565b92505060206185db85828601617de7565b9150509250929050565b600080fd5b7f4e487b7100000000000000000000000000000000000000000000000000000000600052604160045260246000fd5b61862282617d26565b810181811067ffffffffffffffff82111715618641576186406185ea565b5b80604052505050565b6000618654617c08565b90506186608282618619565b919050565b600067ffffffffffffffff8211156186805761867f6185ea565b5b61868982617d26565b9050602081019050919050565b82818337600083830152505050565b60006186b86186b384618665565b61864a565b9050828152602081018484840111156186d4576186d36185e5565b5b6186df848285618696565b509392505050565b600082601f8301126186fc576186fb617f1b565b5b813561870c8482602086016186a5565b91505092915050565b6000806000806080858703121561872f5761872e617c12565b5b600061873d87828801617e9c565b945050602061874e87828801617e9c565b935050604061875f87828801617de7565b925050606085013567ffffffffffffffff8111156187805761877f617c17565b5b61878c878288016186e7565b91505092959194509250565b600080602083850312156187af576187ae617c12565b5b600083013567ffffffffffffffff8111156187cd576187cc617c17565b5b6187d985828601617f2a565b92509250509250929050565b600081519050919050565b600082825260208201905092915050565b6000819050602082019050919050565b61881a81617e49565b82525050565b61882981617ca1565b82525050565b60c082016000820151618845600085018261800c565b506020820151618858602085018261800c565b50604082015161886b6040850182618811565b50606082015161887e606085018261800c565b5060808201516188916080850182618820565b5060a08201516188a460a0850182618820565b50505050565b60006188b6838361882f565b60c08301905092915050565b6000602082019050919050565b60006188da826187e5565b6188e481856187f0565b93506188ef83618801565b8060005b8381101561892057815161890788826188aa565b9750618912836188c2565b9250506001810190506188f3565b5085935050505092915050565b6000602082019050818103600083015261894781846188cf565b905092915050565b6000806000806040858703121561896957618968617c12565b5b600085013567ffffffffffffffff81111561898757618986617c17565b5b61899387828801617f2a565b9450945050602085013567ffffffffffffffff8111156189b6576189b5617c17565b5b6189c287828801617f2a565b925092505092959194509250565b6000819050919050565b60006189f56189f06189eb84617e29565b6189d0565b617e29565b9050919050565b6000618a07826189da565b9050919050565b6000618a19826189fc565b9050919050565b618a2981618a0e565b82525050565b6000602082019050618a446000830184618a20565b92915050565b6000618a55826189fc565b9050919050565b618a6581618a4a565b82525050565b6000602082019050618a806000830184618a5c565b92915050565b60008060408385031215618a9d57618a9c617c12565b5b6000618aab85828601617e9c565b9250506020618abc85828601617e9c565b9150509250929050565b600080fd5b600067ffffffffffffffff821115618ae657618ae56185ea565b5b602082029050919050565b6000618b04618aff84618acb565b61864a565b90508060208402830185811115618b1e57618b1d617f25565b5b835b81811015618b475780618b338882617de7565b845260208401935050602081019050618b20565b5050509392505050565b600082601f830112618b6657618b65617f1b565b5b6024618b73848285618af1565b91505092915050565b60006104e08284031215618b9357618b92618ac6565b5b618b9d608061864a565b90506000618bad84828501617de7565b6000830152506020618bc184828501618474565b6020830152506040618bd584828501618b51565b6040830152506104c0618bea84828501617de7565b60608301525092915050565b6000806000806105408587031215618c1157618c10617c12565b5b6000618c1f87828801617de7565b9450506020618c3087828801617de7565b9350506040618c4187828801617de7565b9250506060618c5287828801618b7c565b91505092959194509250565b600060249050919050565b600081905092915050565b6000819050919050565b6000602082019050919050565b618c9481618c5e565b618c9e8184618c69565b9250618ca982618c74565b8060005b83811015618cda578151618cc1878261801b565b9650618ccc83618c7e565b925050600181019050618cad565b505050505050565b6104e082016000820151618cf9600085018261800c565b506020820151618d0c6020850182618820565b506040820151618d1f6040850182618c8b565b506060820151618d336104c085018261800c565b50505050565b60006104e082019050618d4f6000830184618ce2565b92915050565b7f4e487b7100000000000000000000000000000000000000000000000000000000600052603260045260246000fd5b7f4e487b7100000000000000000000000000000000000000000000000000000000600052601160045260246000fd5b6000618dbe82617dc6565b91507fffffffffffffffffffffffffffffffffffffffffffffffffffffffffffffffff821415618df157618df0618d84565b5b600182019050919050565b7f416363657373436f6e74726f6c3a2063616e206f6e6c792072656e6f756e636560008201527f20726f6c657320666f722073656c660000000000000000000000000000000000602082015250565b6000618e58602f83617ce2565b9150618e6382618dfc565b604082019050919050565b60006020820190508181036000830152618e8781618e4b565b9050919050565b6000618e9a8385617ce2565b9350618ea7838584618696565b618eb083617d26565b840190509392505050565b60006020820190508181036000830152618ed6818486618e8e565b90509392505050565b7f4e487b7100000000000000000000000000000000000000000000000000000000600052602260045260246000fd5b60006002820490506001821680618f2657607f821691505b60208210811415618f3a57618f39618edf565b5b50919050565b600060ff82169050919050565b618f5681618f40565b8114618f6157600080fd5b50565b600081359050618f7381618f4d565b92915050565b600060208284031215618f8f57618f8e617c12565b5b6000618f9d84828501618f64565b91505092915050565b618faf81618f40565b82525050565b600060e082019050618fca600083018a617e5b565b618fd76020830189617e5b565b618fe46040830188617ef1565b618ff16060830187617ef1565b618ffe6080830186618fa6565b61900b60a0830185617d9c565b61901860c0830184617d9c565b98975050505050505050565b600061902f82617dc6565b915061903a83617dc6565b92508282101561904d5761904c618d84565b5b828203905092915050565b600061906382617dc6565b915061906e83617dc6565b9250817fffffffffffffffffffffffffffffffffffffffffffffffffffffffffffffffff04831182151516156190a7576190a6618d84565b5b828202905092915050565b7f4e487b7100000000000000000000000000000000000000000000000000000000600052601260045260246000fd5b60006190ec82617dc6565b91506190f783617dc6565b925082619107576191066190b2565b5b828204905092915050565b600061911d82617dc6565b915061912883617dc6565b9250827fffffffffffffffffffffffffffffffffffffffffffffffffffffffffffffffff0382111561915d5761915c618d84565b5b828201905092915050565b600067ffffffffffffffff821115619183576191826185ea565b5b61918c82617d26565b9050602081019050919050565b60006191ac6191a784619168565b61864a565b9050828152602081018484840111156191c8576191c76185e5565b5b6191d3848285617cf3565b509392505050565b600082601f8301126191f0576191ef617f1b565b5b8151619200848260208601619199565b91505092915050565b60006020828403121561921f5761921e617c12565b5b600082015167ffffffffffffffff81111561923d5761923c617c17565b5b619249848285016191db565b91505092915050565b60006fffffffffffffffffffffffffffffffff82169050919050565b600061927982619252565b915061928483619252565b92508282101561929757619296618d84565b5b828203905092915050565b600081905092915050565b7f416363657373436f6e74726f6c3a206163636f756e7420000000000000000000600082015250565b60006192e36017836192a2565b91506192ee826192ad565b601782019050919050565b600061930482617cd7565b61930e81856192a2565b935061931e818560208601617cf3565b80840191505092915050565b7f206973206d697373696e6720726f6c6520000000000000000000000000000000600082015250565b60006193606011836192a2565b915061936b8261932a565b601182019050919050565b6000619381826192d6565b915061938d82856192f9565b915061939882619353565b91506193a482846192f9565b91508190509392505050565b60006060820190506193c56000830186617e5b565b6193d26020830185617e5b565b6193df6040830184617ef1565b949350505050565b6000815190506193f68161845d565b92915050565b60006020828403121561941257619411617c12565b5b6000619420848285016193e7565b91505092915050565b60008151905061943881617dd0565b92915050565b60006020828403121561945457619453617c12565b5b600061946284828501619429565b91505092915050565b60006040820190506194806000830185617e5b565b61948d6020830184617e5b565b9392505050565b7f4e487b7100000000000000000000000000000000000000000000000000000000600052600160045260246000fd5b60006194de6194d96194d484619252565b6189d0565b617dc6565b9050919050565b6194ee816194c3565b82525050565b60006040820190506195096000830185617ef1565b61951660208301846194e5565b9392505050565b60006060820190506195326000830186617ef1565b61953f60208301856194e5565b61954c6040830184617ef1565b949350505050565b600081519050919050565b600082825260208201905092915050565b600061957b82619554565b619585818561955f565b9350619595818560208601617cf3565b61959e81617d26565b840191505092915050565b60006080820190506195be6000830187617e5b565b6195cb6020830186617e5b565b6195d86040830185617ef1565b81810360608301526195ea8184619570565b905095945050505050565b60008151905061960481617c48565b92915050565b6000602082840312156196205761961f617c12565b5b600061962e848285016195f5565b91505092915050565b600081905092915050565b600061964d82619554565b6196578185619637565b9350619667818560208601617cf3565b80840191505092915050565b600061967f828a619642565b915061968b8289619642565b91506196978288619642565b91506196a38287619642565b91506196af8286619642565b91506196bb8285619642565b91506196c78284619642565b915081905098975050505050505050565b60006196e48286619642565b91506196f08285619642565b91506196fc8284619642565b9150819050949350505050565b600061971482617dc6565b9150600082141561972857619727618d84565b5b600182039050919050565b7f537472696e67733a20686578206c656e67746820696e73756666696369656e74600082015250565b6000619769602083617ce2565b915061977482619733565b602082019050919050565b600060208201905081810360008301526197988161975c565b9050919050565b60006197aa82619252565b91506197b583619252565b9250826fffffffffffffffffffffffffffffffff038211156197da576197d9618d84565b5b828201905092915050565b60006040820190506197fa60008301856194e5565b61980760208301846194e5565b9392505050565b50565b600061981e600083619637565b91506198298261980e565b600082019050919050565b600061983f82619811565b9150819050919050565b600061985482617dc6565b915061985f83617dc6565b92508261986f5761986e6190b2565b5b828206905092915050565b7f4e487b7100000000000000000000000000000000000000000000000000000000600052603160045260246000fdfea264697066735822122055826ff3eb60caa160dfd3e4e7cd9283f389ee919d709d6dd9bcae8903d5f15e64736f6c63430008090033",
			"opcodes": "PUSH2 0x100 PUSH1 0x40 MSTORE CALLVALUE DUP1 ISZERO PUSH3 0x12 JUMPI PUSH1 0x0 DUP1 REVERT JUMPDEST POP PUSH1 0x40 MLOAD PUSH3 0xA00D CODESIZE SUB DUP1 PUSH3 0xA00D DUP4 CODECOPY DUP2 DUP2 ADD PUSH1 0x40 MSTORE DUP2 ADD SWAP1 PUSH3 0x38 SWAP2 SWAP1 PUSH3 0x478 JUMP JUMPDEST DUP3 PUSH3 0x93 PUSH32 0xFFFFFFFFFFFFFFFFFFFFFFFFFFFFFFFFFFFFFFFFFFFFFFFFFFFFFFFFFFFFFFFF PUSH32 0x4DD0F6662BA1D6B081F08B350F5E9A6A7B15CF586926BA66F753594928FA64A6 PUSH3 0x202 PUSH1 0x20 SHL PUSH3 0x3A5F OR SWAP1 SWAP2 SWAP1 PUSH1 0x20 SHR JUMP JUMPDEST DUP1 PUSH20 0xFFFFFFFFFFFFFFFFFFFFFFFFFFFFFFFFFFFFFFFF AND PUSH1 0xA0 DUP2 PUSH20 0xFFFFFFFFFFFFFFFFFFFFFFFFFFFFFFFFFFFFFFFF AND DUP2 MSTORE POP POP PUSH1 0xA0 MLOAD PUSH20 0xFFFFFFFFFFFFFFFFFFFFFFFFFFFFFFFFFFFFFFFF AND PUSH4 0xC1FE3E48 PUSH1 0x40 MLOAD DUP2 PUSH4 0xFFFFFFFF AND PUSH1 0xE0 SHL DUP2 MSTORE PUSH1 0x4 ADD PUSH1 0x20 PUSH1 0x40 MLOAD DUP1 DUP4 SUB DUP2 DUP7 DUP1 EXTCODESIZE ISZERO DUP1 ISZERO PUSH3 0x110 JUMPI PUSH1 0x0 DUP1 REVERT JUMPDEST POP GAS STATICCALL ISZERO DUP1 ISZERO PUSH3 0x125 JUMPI RETURNDATASIZE PUSH1 0x0 DUP1 RETURNDATACOPY RETURNDATASIZE PUSH1 0x0 REVERT JUMPDEST POP POP POP POP PUSH1 0x40 MLOAD RETURNDATASIZE PUSH1 0x1F NOT PUSH1 0x1F DUP3 ADD AND DUP3 ADD DUP1 PUSH1 0x40 MSTORE POP DUP2 ADD SWAP1 PUSH3 0x14B SWAP2 SWAP1 PUSH3 0x557 JUMP JUMPDEST PUSH20 0xFFFFFFFFFFFFFFFFFFFFFFFFFFFFFFFFFFFFFFFF AND PUSH1 0x80 DUP2 PUSH20 0xFFFFFFFFFFFFFFFFFFFFFFFFFFFFFFFFFFFFFFFF AND DUP2 MSTORE POP POP POP PUSH1 0x0 DUP3 MLOAD EQ DUP1 PUSH3 0x191 JUMPI POP PUSH1 0x0 DUP2 MLOAD EQ JUMPDEST ISZERO PUSH3 0x1C9 JUMPI PUSH1 0x40 MLOAD PUSH32 0x71178D6600000000000000000000000000000000000000000000000000000000 DUP2 MSTORE PUSH1 0x4 ADD PUSH1 0x40 MLOAD DUP1 SWAP2 SUB SWAP1 REVERT JUMPDEST PUSH3 0x1DA DUP3 PUSH3 0x209 PUSH1 0x20 SHL PUSH1 0x20 SHR JUMP JUMPDEST PUSH1 0xC0 DUP2 DUP2 MSTORE POP POP PUSH3 0x1F2 DUP2 PUSH3 0x209 PUSH1 0x20 SHL PUSH1 0x20 SHR JUMP JUMPDEST PUSH1 0xE0 DUP2 DUP2 MSTORE POP POP POP POP POP PUSH3 0x6C3 JUMP JUMPDEST DUP1 DUP3 SSTORE POP POP JUMP JUMPDEST PUSH1 0x0 DUP1 DUP3 SWAP1 POP PUSH1 0x1F DUP2 MLOAD GT ISZERO PUSH3 0x259 JUMPI DUP3 PUSH1 0x40 MLOAD PUSH32 0x305A27A900000000000000000000000000000000000000000000000000000000 DUP2 MSTORE PUSH1 0x4 ADD PUSH3 0x250 SWAP2 SWAP1 PUSH3 0x5E6 JUMP JUMPDEST PUSH1 0x40 MLOAD DUP1 SWAP2 SUB SWAP1 REVERT JUMPDEST DUP1 MLOAD DUP2 PUSH3 0x267 SWAP1 PUSH3 0x653 JUMP JUMPDEST PUSH1 0x0 SHR OR PUSH1 0x0 SHL SWAP2 POP POP SWAP2 SWAP1 POP JUMP JUMPDEST PUSH1 0x0 PUSH1 0x40 MLOAD SWAP1 POP SWAP1 JUMP JUMPDEST PUSH1 0x0 DUP1 REVERT JUMPDEST PUSH1 0x0 DUP1 REVERT JUMPDEST PUSH1 0x0 PUSH20 0xFFFFFFFFFFFFFFFFFFFFFFFFFFFFFFFFFFFFFFFF DUP3 AND SWAP1 POP SWAP2 SWAP1 POP JUMP JUMPDEST PUSH1 0x0 PUSH3 0x2B7 DUP3 PUSH3 0x28A JUMP JUMPDEST SWAP1 POP SWAP2 SWAP1 POP JUMP JUMPDEST PUSH3 0x2C9 DUP2 PUSH3 0x2AA JUMP JUMPDEST DUP2 EQ PUSH3 0x2D5 JUMPI PUSH1 0x0 DUP1 REVERT JUMPDEST POP JUMP JUMPDEST PUSH1 0x0 DUP2 MLOAD SWAP1 POP PUSH3 0x2E9 DUP2 PUSH3 0x2BE JUMP JUMPDEST SWAP3 SWAP2 POP POP JUMP JUMPDEST PUSH1 0x0 DUP1 REVERT JUMPDEST PUSH1 0x0 DUP1 REVERT JUMPDEST PUSH1 0x0 PUSH1 0x1F NOT PUSH1 0x1F DUP4 ADD AND SWAP1 POP SWAP2 SWAP1 POP JUMP JUMPDEST PUSH32 0x4E487B7100000000000000000000000000000000000000000000000000000000 PUSH1 0x0 MSTORE PUSH1 0x41 PUSH1 0x4 MSTORE PUSH1 0x24 PUSH1 0x0 REVERT JUMPDEST PUSH3 0x344 DUP3 PUSH3 0x2F9 JUMP JUMPDEST DUP2 ADD DUP2 DUP2 LT PUSH8 0xFFFFFFFFFFFFFFFF DUP3 GT OR ISZERO PUSH3 0x366 JUMPI PUSH3 0x365 PUSH3 0x30A JUMP JUMPDEST JUMPDEST DUP1 PUSH1 0x40 MSTORE POP POP POP JUMP JUMPDEST PUSH1 0x0 PUSH3 0x37B PUSH3 0x276 JUMP JUMPDEST SWAP1 POP PUSH3 0x389 DUP3 DUP3 PUSH3 0x339 JUMP JUMPDEST SWAP2 SWAP1 POP JUMP JUMPDEST PUSH1 0x0 PUSH8 0xFFFFFFFFFFFFFFFF DUP3 GT ISZERO PUSH3 0x3AC JUMPI PUSH3 0x3AB PUSH3 0x30A JUMP JUMPDEST JUMPDEST PUSH3 0x3B7 DUP3 PUSH3 0x2F9 JUMP JUMPDEST SWAP1 POP PUSH1 0x20 DUP2 ADD SWAP1 POP SWAP2 SWAP1 POP JUMP JUMPDEST PUSH1 0x0 JUMPDEST DUP4 DUP2 LT ISZERO PUSH3 0x3E4 JUMPI DUP1 DUP3 ADD MLOAD DUP2 DUP5 ADD MSTORE PUSH1 0x20 DUP2 ADD SWAP1 POP PUSH3 0x3C7 JUMP JUMPDEST DUP4 DUP2 GT ISZERO PUSH3 0x3F4 JUMPI PUSH1 0x0 DUP5 DUP5 ADD MSTORE JUMPDEST POP POP POP POP JUMP JUMPDEST PUSH1 0x0 PUSH3 0x411 PUSH3 0x40B DUP5 PUSH3 0x38E JUMP JUMPDEST PUSH3 0x36F JUMP JUMPDEST SWAP1 POP DUP3 DUP2 MSTORE PUSH1 0x20 DUP2 ADD DUP5 DUP5 DUP5 ADD GT ISZERO PUSH3 0x430 JUMPI PUSH3 0x42F PUSH3 0x2F4 JUMP JUMPDEST JUMPDEST PUSH3 0x43D DUP5 DUP3 DUP6 PUSH3 0x3C4 JUMP JUMPDEST POP SWAP4 SWAP3 POP POP POP JUMP JUMPDEST PUSH1 0x0 DUP3 PUSH1 0x1F DUP4 ADD SLT PUSH3 0x45D JUMPI PUSH3 0x45C PUSH3 0x2EF JUMP JUMPDEST JUMPDEST DUP2 MLOAD PUSH3 0x46F DUP5 DUP3 PUSH1 0x20 DUP7 ADD PUSH3 0x3FA JUMP JUMPDEST SWAP2 POP POP SWAP3 SWAP2 POP POP JUMP JUMPDEST PUSH1 0x0 DUP1 PUSH1 0x0 PUSH1 0x60 DUP5 DUP7 SUB SLT ISZERO PUSH3 0x494 JUMPI PUSH3 0x493 PUSH3 0x280 JUMP JUMPDEST JUMPDEST PUSH1 0x0 PUSH3 0x4A4 DUP7 DUP3 DUP8 ADD PUSH3 0x2D8 JUMP JUMPDEST SWAP4 POP POP PUSH1 0x20 DUP5 ADD MLOAD PUSH8 0xFFFFFFFFFFFFFFFF DUP2 GT ISZERO PUSH3 0x4C8 JUMPI PUSH3 0x4C7 PUSH3 0x285 JUMP JUMPDEST JUMPDEST PUSH3 0x4D6 DUP7 DUP3 DUP8 ADD PUSH3 0x445 JUMP JUMPDEST SWAP3 POP POP PUSH1 0x40 DUP5 ADD MLOAD PUSH8 0xFFFFFFFFFFFFFFFF DUP2 GT ISZERO PUSH3 0x4FA JUMPI PUSH3 0x4F9 PUSH3 0x285 JUMP JUMPDEST JUMPDEST PUSH3 0x508 DUP7 DUP3 DUP8 ADD PUSH3 0x445 JUMP JUMPDEST SWAP2 POP POP SWAP3 POP SWAP3 POP SWAP3 JUMP JUMPDEST PUSH1 0x0 PUSH3 0x51F DUP3 PUSH3 0x2AA JUMP JUMPDEST SWAP1 POP SWAP2 SWAP1 POP JUMP JUMPDEST PUSH3 0x531 DUP2 PUSH3 0x512 JUMP JUMPDEST DUP2 EQ PUSH3 0x53D JUMPI PUSH1 0x0 DUP1 REVERT JUMPDEST POP JUMP JUMPDEST PUSH1 0x0 DUP2 MLOAD SWAP1 POP PUSH3 0x551 DUP2 PUSH3 0x526 JUMP JUMPDEST SWAP3 SWAP2 POP POP JUMP JUMPDEST PUSH1 0x0 PUSH1 0x20 DUP3 DUP5 SUB SLT ISZERO PUSH3 0x570 JUMPI PUSH3 0x56F PUSH3 0x280 JUMP JUMPDEST JUMPDEST PUSH1 0x0 PUSH3 0x580 DUP5 DUP3 DUP6 ADD PUSH3 0x540 JUMP JUMPDEST SWAP2 POP POP SWAP3 SWAP2 POP POP JUMP JUMPDEST PUSH1 0x0 DUP2 MLOAD SWAP1 POP SWAP2 SWAP1 POP JUMP JUMPDEST PUSH1 0x0 DUP3 DUP3 MSTORE PUSH1 0x20 DUP3 ADD SWAP1 POP SWAP3 SWAP2 POP POP JUMP JUMPDEST PUSH1 0x0 PUSH3 0x5B2 DUP3 PUSH3 0x589 JUMP JUMPDEST PUSH3 0x5BE DUP2 DUP6 PUSH3 0x594 JUMP JUMPDEST SWAP4 POP PUSH3 0x5D0 DUP2 DUP6 PUSH1 0x20 DUP7 ADD PUSH3 0x3C4 JUMP JUMPDEST PUSH3 0x5DB DUP2 PUSH3 0x2F9 JUMP JUMPDEST DUP5 ADD SWAP2 POP POP SWAP3 SWAP2 POP POP JUMP JUMPDEST PUSH1 0x0 PUSH1 0x20 DUP3 ADD SWAP1 POP DUP2 DUP2 SUB PUSH1 0x0 DUP4 ADD MSTORE PUSH3 0x602 DUP2 DUP5 PUSH3 0x5A5 JUMP JUMPDEST SWAP1 POP SWAP3 SWAP2 POP POP JUMP JUMPDEST PUSH1 0x0 DUP2 MLOAD SWAP1 POP SWAP2 SWAP1 POP JUMP JUMPDEST PUSH1 0x0 DUP2 SWAP1 POP PUSH1 0x20 DUP3 ADD SWAP1 POP SWAP2 SWAP1 POP JUMP JUMPDEST PUSH1 0x0 DUP2 SWAP1 POP SWAP2 SWAP1 POP JUMP JUMPDEST PUSH1 0x0 PUSH3 0x63D DUP3 MLOAD PUSH3 0x625 JUMP JUMPDEST DUP1 SWAP2 POP POP SWAP2 SWAP1 POP JUMP JUMPDEST PUSH1 0x0 DUP3 DUP3 SHL SWAP1 POP SWAP3 SWAP2 POP POP JUMP JUMPDEST PUSH1 0x0 PUSH3 0x660 DUP3 PUSH3 0x60A JUMP JUMPDEST DUP3 PUSH3 0x66C DUP5 PUSH3 0x615 JUMP JUMPDEST SWAP1 POP PUSH3 0x679 DUP2 PUSH3 0x62F JUMP JUMPDEST SWAP3 POP PUSH1 0x20 DUP3 LT ISZERO PUSH3 0x6BC JUMPI PUSH3 0x6B7 PUSH32 0xFFFFFFFFFFFFFFFFFFFFFFFFFFFFFFFFFFFFFFFFFFFFFFFFFFFFFFFFFFFFFFFF DUP4 PUSH1 0x20 SUB PUSH1 0x8 MUL PUSH3 0x646 JUMP JUMPDEST DUP4 AND SWAP3 POP JUMPDEST POP POP SWAP2 SWAP1 POP JUMP JUMPDEST PUSH1 0x80 MLOAD PUSH1 0xA0 MLOAD PUSH1 0xC0 MLOAD PUSH1 0xE0 MLOAD PUSH2 0x98DF PUSH3 0x72E PUSH1 0x0 CODECOPY PUSH1 0x0 PUSH2 0x1F3F ADD MSTORE PUSH1 0x0 PUSH2 0x11BA ADD MSTORE PUSH1 0x0 DUP2 DUP2 PUSH2 0x1CA0 ADD MSTORE DUP2 DUP2 PUSH2 0x2F0D ADD MSTORE DUP2 DUP2 PUSH2 0x3DE0 ADD MSTORE PUSH2 0x3E92 ADD MSTORE PUSH1 0x0 DUP2 DUP2 PUSH2 0x2762 ADD MSTORE DUP2 DUP2 PUSH2 0x2F3E ADD MSTORE DUP2 DUP2 PUSH2 0x3F4A ADD MSTORE DUP2 DUP2 PUSH2 0x5EE5 ADD MSTORE PUSH2 0x5F97 ADD MSTORE PUSH2 0x98DF PUSH1 0x0 RETURN INVALID PUSH1 0x80 PUSH1 0x40 MSTORE PUSH1 0x4 CALLDATASIZE LT PUSH2 0x3E4 JUMPI PUSH1 0x0 CALLDATALOAD PUSH1 0xE0 SHR DUP1 PUSH4 0x91D14854 GT PUSH2 0x208 JUMPI DUP1 PUSH4 0xC4D66DE8 GT PUSH2 0x118 JUMPI DUP1 PUSH4 0xDB2296CD GT PUSH2 0xAB JUMPI DUP1 PUSH4 0xE985E9C5 GT PUSH2 0x7A JUMPI DUP1 PUSH4 0xE985E9C5 EQ PUSH2 0xF57 JUMPI DUP1 PUSH4 0xEED53BF5 EQ PUSH2 0xF94 JUMPI DUP1 PUSH4 0xF3F449C7 EQ PUSH2 0xFD1 JUMPI DUP1 PUSH4 0xF6FA8A47 EQ PUSH2 0xFFA JUMPI DUP1 PUSH4 0xF8444436 EQ PUSH2 0x1025 JUMPI PUSH2 0x3E4 JUMP JUMPDEST DUP1 PUSH4 0xDB2296CD EQ PUSH2 0xEAD JUMPI DUP1 PUSH4 0xE00BFE50 EQ PUSH2 0xED8 JUMPI DUP1 PUSH4 0xE3AFE0A3 EQ PUSH2 0xF03 JUMPI DUP1 PUSH4 0xE7C0835D EQ PUSH2 0xF2C JUMPI PUSH2 0x3E4 JUMP JUMPDEST DUP1 PUSH4 0xD0FB84E8 GT PUSH2 0xE7 JUMPI DUP1 PUSH4 0xD0FB84E8 EQ PUSH2 0xDF1 JUMPI DUP1 PUSH4 0xD547741F EQ PUSH2 0xE1C JUMPI DUP1 PUSH4 0xD6681042 EQ PUSH2 0xE45 JUMPI DUP1 PUSH4 0xD9FB643A EQ PUSH2 0xE82 JUMPI PUSH2 0x3E4 JUMP JUMPDEST DUP1 PUSH4 0xC4D66DE8 EQ PUSH2 0xD11 JUMPI DUP1 PUSH4 0xC87B56DD EQ PUSH2 0xD3A JUMPI DUP1 PUSH4 0xC97912D8 EQ PUSH2 0xD77 JUMPI DUP1 PUSH4 0xCA15C873 EQ PUSH2 0xDB4 JUMPI PUSH2 0x3E4 JUMP JUMPDEST DUP1 PUSH4 0xA52E9C9F GT PUSH2 0x19B JUMPI DUP1 PUSH4 0xB6013CEF GT PUSH2 0x16A JUMPI DUP1 PUSH4 0xB6013CEF EQ PUSH2 0xC39 JUMPI DUP1 PUSH4 0xB7BDF748 EQ PUSH2 0xC55 JUMPI DUP1 PUSH4 0xB88D4FDE EQ PUSH2 0xC80 JUMPI DUP1 PUSH4 0xB8C4B85A EQ PUSH2 0xCA9 JUMPI DUP1 PUSH4 0xC2FC7AFF EQ PUSH2 0xCE6 JUMPI PUSH2 0x3E4 JUMP JUMPDEST DUP1 PUSH4 0xA52E9C9F EQ PUSH2 0xB6A JUMPI DUP1 PUSH4 0xABE9CFC8 EQ PUSH2 0xBA8 JUMPI DUP1 PUSH4 0xACF41E4D EQ PUSH2 0xBD1 JUMPI DUP1 PUSH4 0xB187BD26 EQ PUSH2 0xC0E JUMPI PUSH2 0x3E4 JUMP JUMPDEST DUP1 PUSH4 0x9B36BE58 GT PUSH2 0x1D7 JUMPI DUP1 PUSH4 0x9B36BE58 EQ PUSH2 0xAC0 JUMPI DUP1 PUSH4 0xA217FDDF EQ PUSH2 0xAEB JUMPI DUP1 PUSH4 0xA22CB465 EQ PUSH2 0xB16 JUMPI DUP1 PUSH4 0xA302EE38 EQ PUSH2 0xB3F JUMPI PUSH2 0x3E4 JUMP JUMPDEST DUP1 PUSH4 0x91D14854 EQ PUSH2 0xA06 JUMPI DUP1 PUSH4 0x92B18A47 EQ PUSH2 0xA43 JUMPI DUP1 PUSH4 0x95D89B41 EQ PUSH2 0xA6C JUMPI DUP1 PUSH4 0x96992FED EQ PUSH2 0xA97 JUMPI PUSH2 0x3E4 JUMP JUMPDEST DUP1 PUSH4 0x36568ABE GT PUSH2 0x303 JUMPI DUP1 PUSH4 0x5E7EEAD9 GT PUSH2 0x296 JUMPI DUP1 PUSH4 0x714C5398 GT PUSH2 0x265 JUMPI DUP1 PUSH4 0x714C5398 EQ PUSH2 0x8F9 JUMPI DUP1 PUSH4 0x7951B76F EQ PUSH2 0x924 JUMPI DUP1 PUSH4 0x7D031B65 EQ PUSH2 0x961 JUMPI DUP1 PUSH4 0x8AA10435 EQ PUSH2 0x99E JUMPI DUP1 PUSH4 0x9010D07C EQ PUSH2 0x9C9 JUMPI PUSH2 0x3E4 JUMP JUMPDEST DUP1 PUSH4 0x5E7EEAD9 EQ PUSH2 0x819 JUMPI DUP1 PUSH4 0x62ABE3FA EQ PUSH2 0x842 JUMPI DUP1 PUSH4 0x6352211E EQ PUSH2 0x87F JUMPI DUP1 PUSH4 0x70A08231 EQ PUSH2 0x8BC JUMPI PUSH2 0x3E4 JUMP JUMPDEST DUP1 PUSH4 0x4F069A13 GT PUSH2 0x2D2 JUMPI DUP1 PUSH4 0x4F069A13 EQ PUSH2 0x76F JUMPI DUP1 PUSH4 0x526EAE3E EQ PUSH2 0x79A JUMPI DUP1 PUSH4 0x55F804B3 EQ PUSH2 0x7C5 JUMPI DUP1 PUSH4 0x589FF76C EQ PUSH2 0x7EE JUMPI PUSH2 0x3E4 JUMP JUMPDEST DUP1 PUSH4 0x36568ABE EQ PUSH2 0x6C7 JUMPI DUP1 PUSH4 0x389ED267 EQ PUSH2 0x6F0 JUMPI DUP1 PUSH4 0x42842E0E EQ PUSH2 0x71B JUMPI DUP1 PUSH4 0x46A086B4 EQ PUSH2 0x744 JUMPI PUSH2 0x3E4 JUMP JUMPDEST DUP1 PUSH4 0x19C2B4C3 GT PUSH2 0x37B JUMPI DUP1 PUSH4 0x29FD065D GT PUSH2 0x34A JUMPI DUP1 PUSH4 0x29FD065D EQ PUSH2 0x61D JUMPI DUP1 PUSH4 0x2B95B781 EQ PUSH2 0x648 JUMPI DUP1 PUSH4 0x2DE03AA1 EQ PUSH2 0x673 JUMPI DUP1 PUSH4 0x2F2FF15D EQ PUSH2 0x69E JUMPI PUSH2 0x3E4 JUMP JUMPDEST DUP1 PUSH4 0x19C2B4C3 EQ PUSH2 0x561 JUMPI DUP1 PUSH4 0x220CA2F4 EQ PUSH2 0x58C JUMPI DUP1 PUSH4 0x23B872DD EQ PUSH2 0x5B7 JUMPI DUP1 PUSH4 0x248A9CA3 EQ PUSH2 0x5E0 JUMPI PUSH2 0x3E4 JUMP JUMPDEST DUP1 PUSH4 0x81812FC GT PUSH2 0x3B7 JUMPI DUP1 PUSH4 0x81812FC EQ PUSH2 0x493 JUMPI DUP1 PUSH4 0x95EA7B3 EQ PUSH2 0x4D0 JUMPI DUP1 PUSH4 0xD25A957 EQ PUSH2 0x4F9 JUMPI DUP1 PUSH4 0x19AA6257 EQ PUSH2 0x524 JUMPI PUSH2 0x3E4 JUMP JUMPDEST DUP1 PUSH4 0x1FFC9A7 EQ PUSH2 0x3E9 JUMPI DUP1 PUSH4 0x46F7DA2 EQ PUSH2 0x426 JUMPI DUP1 PUSH4 0x6FDDE03 EQ PUSH2 0x43D JUMPI DUP1 PUSH4 0x7E2CEA5 EQ PUSH2 0x468 JUMPI JUMPDEST PUSH1 0x0 DUP1 REVERT JUMPDEST CALLVALUE DUP1 ISZERO PUSH2 0x3F5 JUMPI PUSH1 0x0 DUP1 REVERT JUMPDEST POP PUSH2 0x410 PUSH1 0x4 DUP1 CALLDATASIZE SUB DUP2 ADD SWAP1 PUSH2 0x40B SWAP2 SWAP1 PUSH2 0x7C74 JUMP JUMPDEST PUSH2 0x104E JUMP JUMPDEST PUSH1 0x40 MLOAD PUSH2 0x41D SWAP2 SWAP1 PUSH2 0x7CBC JUMP JUMPDEST PUSH1 0x40 MLOAD DUP1 SWAP2 SUB SWAP1 RETURN JUMPDEST CALLVALUE DUP1 ISZERO PUSH2 0x432 JUMPI PUSH1 0x0 DUP1 REVERT JUMPDEST POP PUSH2 0x43B PUSH2 0x117F JUMP JUMPDEST STOP JUMPDEST CALLVALUE DUP1 ISZERO PUSH2 0x449 JUMPI PUSH1 0x0 DUP1 REVERT JUMPDEST POP PUSH2 0x452 PUSH2 0x11B3 JUMP JUMPDEST PUSH1 0x40 MLOAD PUSH2 0x45F SWAP2 SWAP1 PUSH2 0x7D70 JUMP JUMPDEST PUSH1 0x40 MLOAD DUP1 SWAP2 SUB SWAP1 RETURN JUMPDEST CALLVALUE DUP1 ISZERO PUSH2 0x474 JUMPI PUSH1 0x0 DUP1 REVERT JUMPDEST POP PUSH2 0x47D PUSH2 0x11E3 JUMP JUMPDEST PUSH1 0x40 MLOAD PUSH2 0x48A SWAP2 SWAP1 PUSH2 0x7DAB JUMP JUMPDEST PUSH1 0x40 MLOAD DUP1 SWAP2 SUB SWAP1 RETURN JUMPDEST CALLVALUE DUP1 ISZERO PUSH2 0x49F JUMPI PUSH1 0x0 DUP1 REVERT JUMPDEST POP PUSH2 0x4BA PUSH1 0x4 DUP1 CALLDATASIZE SUB DUP2 ADD SWAP1 PUSH2 0x4B5 SWAP2 SWAP1 PUSH2 0x7DFC JUMP JUMPDEST PUSH2 0x1207 JUMP JUMPDEST PUSH1 0x40 MLOAD PUSH2 0x4C7 SWAP2 SWAP1 PUSH2 0x7E6A JUMP JUMPDEST PUSH1 0x40 MLOAD DUP1 SWAP2 SUB SWAP1 RETURN JUMPDEST CALLVALUE DUP1 ISZERO PUSH2 0x4DC JUMPI PUSH1 0x0 DUP1 REVERT JUMPDEST POP PUSH2 0x4F7 PUSH1 0x4 DUP1 CALLDATASIZE SUB DUP2 ADD SWAP1 PUSH2 0x4F2 SWAP2 SWAP1 PUSH2 0x7EB1 JUMP JUMPDEST PUSH2 0x1294 JUMP JUMPDEST STOP JUMPDEST CALLVALUE DUP1 ISZERO PUSH2 0x505 JUMPI PUSH1 0x0 DUP1 REVERT JUMPDEST POP PUSH2 0x50E PUSH2 0x139B JUMP JUMPDEST PUSH1 0x40 MLOAD PUSH2 0x51B SWAP2 SWAP1 PUSH2 0x7F00 JUMP JUMPDEST PUSH1 0x40 MLOAD DUP1 SWAP2 SUB SWAP1 RETURN JUMPDEST CALLVALUE DUP1 ISZERO PUSH2 0x530 JUMPI PUSH1 0x0 DUP1 REVERT JUMPDEST POP PUSH2 0x54B PUSH1 0x4 DUP1 CALLDATASIZE SUB DUP2 ADD SWAP1 PUSH2 0x546 SWAP2 SWAP1 PUSH2 0x7F80 JUMP JUMPDEST PUSH2 0x13A0 JUMP JUMPDEST PUSH1 0x40 MLOAD PUSH2 0x558 SWAP2 SWAP1 PUSH2 0x809E JUMP JUMPDEST PUSH1 0x40 MLOAD DUP1 SWAP2 SUB SWAP1 RETURN JUMPDEST CALLVALUE DUP1 ISZERO PUSH2 0x56D JUMPI PUSH1 0x0 DUP1 REVERT JUMPDEST POP PUSH2 0x576 PUSH2 0x149A JUMP JUMPDEST PUSH1 0x40 MLOAD PUSH2 0x583 SWAP2 SWAP1 PUSH2 0x7F00 JUMP JUMPDEST PUSH1 0x40 MLOAD DUP1 SWAP2 SUB SWAP1 RETURN JUMPDEST CALLVALUE DUP1 ISZERO PUSH2 0x598 JUMPI PUSH1 0x0 DUP1 REVERT JUMPDEST POP PUSH2 0x5A1 PUSH2 0x14CA JUMP JUMPDEST PUSH1 0x40 MLOAD PUSH2 0x5AE SWAP2 SWAP1 PUSH2 0x7DAB JUMP JUMPDEST PUSH1 0x40 MLOAD DUP1 SWAP2 SUB SWAP1 RETURN JUMPDEST CALLVALUE DUP1 ISZERO PUSH2 0x5C3 JUMPI PUSH1 0x0 DUP1 REVERT JUMPDEST POP PUSH2 0x5DE PUSH1 0x4 DUP1 CALLDATASIZE SUB DUP2 ADD SWAP1 PUSH2 0x5D9 SWAP2 SWAP1 PUSH2 0x80C0 JUMP JUMPDEST PUSH2 0x14EE JUMP JUMPDEST STOP JUMPDEST CALLVALUE DUP1 ISZERO PUSH2 0x5EC JUMPI PUSH1 0x0 DUP1 REVERT JUMPDEST POP PUSH2 0x607 PUSH1 0x4 DUP1 CALLDATASIZE SUB DUP2 ADD SWAP1 PUSH2 0x602 SWAP2 SWAP1 PUSH2 0x813F JUMP JUMPDEST PUSH2 0x14FE JUMP JUMPDEST PUSH1 0x40 MLOAD PUSH2 0x614 SWAP2 SWAP1 PUSH2 0x7DAB JUMP JUMPDEST PUSH1 0x40 MLOAD DUP1 SWAP2 SUB SWAP1 RETURN JUMPDEST CALLVALUE DUP1 ISZERO PUSH2 0x629 JUMPI PUSH1 0x0 DUP1 REVERT JUMPDEST POP PUSH2 0x632 PUSH2 0x1524 JUMP JUMPDEST PUSH1 0x40 MLOAD PUSH2 0x63F SWAP2 SWAP1 PUSH2 0x7F00 JUMP JUMPDEST PUSH1 0x40 MLOAD DUP1 SWAP2 SUB SWAP1 RETURN JUMPDEST CALLVALUE DUP1 ISZERO PUSH2 0x654 JUMPI PUSH1 0x0 DUP1 REVERT JUMPDEST POP PUSH2 0x65D PUSH2 0x1529 JUMP JUMPDEST PUSH1 0x40 MLOAD PUSH2 0x66A SWAP2 SWAP1 PUSH2 0x7CBC JUMP JUMPDEST PUSH1 0x40 MLOAD DUP1 SWAP2 SUB SWAP1 RETURN JUMPDEST CALLVALUE DUP1 ISZERO PUSH2 0x67F JUMPI PUSH1 0x0 DUP1 REVERT JUMPDEST POP PUSH2 0x688 PUSH2 0x155A JUMP JUMPDEST PUSH1 0x40 MLOAD PUSH2 0x695 SWAP2 SWAP1 PUSH2 0x7DAB JUMP JUMPDEST PUSH1 0x40 MLOAD DUP1 SWAP2 SUB SWAP1 RETURN JUMPDEST CALLVALUE DUP1 ISZERO PUSH2 0x6AA JUMPI PUSH1 0x0 DUP1 REVERT JUMPDEST POP PUSH2 0x6C5 PUSH1 0x4 DUP1 CALLDATASIZE SUB DUP2 ADD SWAP1 PUSH2 0x6C0 SWAP2 SWAP1 PUSH2 0x816C JUMP JUMPDEST PUSH2 0x157E JUMP JUMPDEST STOP JUMPDEST CALLVALUE DUP1 ISZERO PUSH2 0x6D3 JUMPI PUSH1 0x0 DUP1 REVERT JUMPDEST POP PUSH2 0x6EE PUSH1 0x4 DUP1 CALLDATASIZE SUB DUP2 ADD SWAP1 PUSH2 0x6E9 SWAP2 SWAP1 PUSH2 0x816C JUMP JUMPDEST PUSH2 0x15A7 JUMP JUMPDEST STOP JUMPDEST CALLVALUE DUP1 ISZERO PUSH2 0x6FC JUMPI PUSH1 0x0 DUP1 REVERT JUMPDEST POP PUSH2 0x705 PUSH2 0x162A JUMP JUMPDEST PUSH1 0x40 MLOAD PUSH2 0x712 SWAP2 SWAP1 PUSH2 0x7DAB JUMP JUMPDEST PUSH1 0x40 MLOAD DUP1 SWAP2 SUB SWAP1 RETURN JUMPDEST CALLVALUE DUP1 ISZERO PUSH2 0x727 JUMPI PUSH1 0x0 DUP1 REVERT JUMPDEST POP PUSH2 0x742 PUSH1 0x4 DUP1 CALLDATASIZE SUB DUP2 ADD SWAP1 PUSH2 0x73D SWAP2 SWAP1 PUSH2 0x80C0 JUMP JUMPDEST PUSH2 0x164E JUMP JUMPDEST STOP JUMPDEST CALLVALUE DUP1 ISZERO PUSH2 0x750 JUMPI PUSH1 0x0 DUP1 REVERT JUMPDEST POP PUSH2 0x759 PUSH2 0x166E JUMP JUMPDEST PUSH1 0x40 MLOAD PUSH2 0x766 SWAP2 SWAP1 PUSH2 0x7E6A JUMP JUMPDEST PUSH1 0x40 MLOAD DUP1 SWAP2 SUB SWAP1 RETURN JUMPDEST CALLVALUE DUP1 ISZERO PUSH2 0x77B JUMPI PUSH1 0x0 DUP1 REVERT JUMPDEST POP PUSH2 0x784 PUSH2 0x169E JUMP JUMPDEST PUSH1 0x40 MLOAD PUSH2 0x791 SWAP2 SWAP1 PUSH2 0x7F00 JUMP JUMPDEST PUSH1 0x40 MLOAD DUP1 SWAP2 SUB SWAP1 RETURN JUMPDEST CALLVALUE DUP1 ISZERO PUSH2 0x7A6 JUMPI PUSH1 0x0 DUP1 REVERT JUMPDEST POP PUSH2 0x7AF PUSH2 0x16CE JUMP JUMPDEST PUSH1 0x40 MLOAD PUSH2 0x7BC SWAP2 SWAP1 PUSH2 0x7F00 JUMP JUMPDEST PUSH1 0x40 MLOAD DUP1 SWAP2 SUB SWAP1 RETURN JUMPDEST CALLVALUE DUP1 ISZERO PUSH2 0x7D1 JUMPI PUSH1 0x0 DUP1 REVERT JUMPDEST POP PUSH2 0x7EC PUSH1 0x4 DUP1 CALLDATASIZE SUB DUP2 ADD SWAP1 PUSH2 0x7E7 SWAP2 SWAP1 PUSH2 0x8202 JUMP JUMPDEST PUSH2 0x16FE JUMP JUMPDEST STOP JUMPDEST CALLVALUE DUP1 ISZERO PUSH2 0x7FA JUMPI PUSH1 0x0 DUP1 REVERT JUMPDEST POP PUSH2 0x803 PUSH2 0x1789 JUMP JUMPDEST PUSH1 0x40 MLOAD PUSH2 0x810 SWAP2 SWAP1 PUSH2 0x7F00 JUMP JUMPDEST PUSH1 0x40 MLOAD DUP1 SWAP2 SUB SWAP1 RETURN JUMPDEST CALLVALUE DUP1 ISZERO PUSH2 0x825 JUMPI PUSH1 0x0 DUP1 REVERT JUMPDEST POP PUSH2 0x840 PUSH1 0x4 DUP1 CALLDATASIZE SUB DUP2 ADD SWAP1 PUSH2 0x83B SWAP2 SWAP1 PUSH2 0x824F JUMP JUMPDEST PUSH2 0x17B9 JUMP JUMPDEST STOP JUMPDEST CALLVALUE DUP1 ISZERO PUSH2 0x84E JUMPI PUSH1 0x0 DUP1 REVERT JUMPDEST POP PUSH2 0x869 PUSH1 0x4 DUP1 CALLDATASIZE SUB DUP2 ADD SWAP1 PUSH2 0x864 SWAP2 SWAP1 PUSH2 0x82E4 JUMP JUMPDEST PUSH2 0x18FB JUMP JUMPDEST PUSH1 0x40 MLOAD PUSH2 0x876 SWAP2 SWAP1 PUSH2 0x809E JUMP JUMPDEST PUSH1 0x40 MLOAD DUP1 SWAP2 SUB SWAP1 RETURN JUMPDEST CALLVALUE DUP1 ISZERO PUSH2 0x88B JUMPI PUSH1 0x0 DUP1 REVERT JUMPDEST POP PUSH2 0x8A6 PUSH1 0x4 DUP1 CALLDATASIZE SUB DUP2 ADD SWAP1 PUSH2 0x8A1 SWAP2 SWAP1 PUSH2 0x7DFC JUMP JUMPDEST PUSH2 0x1A44 JUMP JUMPDEST PUSH1 0x40 MLOAD PUSH2 0x8B3 SWAP2 SWAP1 PUSH2 0x7E6A JUMP JUMPDEST PUSH1 0x40 MLOAD DUP1 SWAP2 SUB SWAP1 RETURN JUMPDEST CALLVALUE DUP1 ISZERO PUSH2 0x8C8 JUMPI PUSH1 0x0 DUP1 REVERT JUMPDEST POP PUSH2 0x8E3 PUSH1 0x4 DUP1 CALLDATASIZE SUB DUP2 ADD SWAP1 PUSH2 0x8DE SWAP2 SWAP1 PUSH2 0x8358 JUMP JUMPDEST PUSH2 0x1B3A JUMP JUMPDEST PUSH1 0x40 MLOAD PUSH2 0x8F0 SWAP2 SWAP1 PUSH2 0x7F00 JUMP JUMPDEST PUSH1 0x40 MLOAD DUP1 SWAP2 SUB SWAP1 RETURN JUMPDEST CALLVALUE DUP1 ISZERO PUSH2 0x905 JUMPI PUSH1 0x0 DUP1 REVERT JUMPDEST POP PUSH2 0x90E PUSH2 0x1C01 JUMP JUMPDEST PUSH1 0x40 MLOAD PUSH2 0x91B SWAP2 SWAP1 PUSH2 0x7D70 JUMP JUMPDEST PUSH1 0x40 MLOAD DUP1 SWAP2 SUB SWAP1 RETURN JUMPDEST CALLVALUE DUP1 ISZERO PUSH2 0x930 JUMPI PUSH1 0x0 DUP1 REVERT JUMPDEST POP PUSH2 0x94B PUSH1 0x4 DUP1 CALLDATASIZE SUB DUP2 ADD SWAP1 PUSH2 0x946 SWAP2 SWAP1 PUSH2 0x83A9 JUMP JUMPDEST PUSH2 0x1C9C JUMP JUMPDEST PUSH1 0x40 MLOAD PUSH2 0x958 SWAP2 SWAP1 PUSH2 0x809E JUMP JUMPDEST PUSH1 0x40 MLOAD DUP1 SWAP2 SUB SWAP1 RETURN JUMPDEST CALLVALUE DUP1 ISZERO PUSH2 0x96D JUMPI PUSH1 0x0 DUP1 REVERT JUMPDEST POP PUSH2 0x988 PUSH1 0x4 DUP1 CALLDATASIZE SUB DUP2 ADD SWAP1 PUSH2 0x983 SWAP2 SWAP1 PUSH2 0x8358 JUMP JUMPDEST PUSH2 0x1D6C JUMP JUMPDEST PUSH1 0x40 MLOAD PUSH2 0x995 SWAP2 SWAP1 PUSH2 0x809E JUMP JUMPDEST PUSH1 0x40 MLOAD DUP1 SWAP2 SUB SWAP1 RETURN JUMPDEST CALLVALUE DUP1 ISZERO PUSH2 0x9AA JUMPI PUSH1 0x0 DUP1 REVERT JUMPDEST POP PUSH2 0x9B3 PUSH2 0x1DC2 JUMP JUMPDEST PUSH1 0x40 MLOAD PUSH2 0x9C0 SWAP2 SWAP1 PUSH2 0x7F00 JUMP JUMPDEST PUSH1 0x40 MLOAD DUP1 SWAP2 SUB SWAP1 RETURN JUMPDEST CALLVALUE DUP1 ISZERO PUSH2 0x9D5 JUMPI PUSH1 0x0 DUP1 REVERT JUMPDEST POP PUSH2 0x9F0 PUSH1 0x4 DUP1 CALLDATASIZE SUB DUP2 ADD SWAP1 PUSH2 0x9EB SWAP2 SWAP1 PUSH2 0x841D JUMP JUMPDEST PUSH2 0x1DF2 JUMP JUMPDEST PUSH1 0x40 MLOAD PUSH2 0x9FD SWAP2 SWAP1 PUSH2 0x7E6A JUMP JUMPDEST PUSH1 0x40 MLOAD DUP1 SWAP2 SUB SWAP1 RETURN JUMPDEST CALLVALUE DUP1 ISZERO PUSH2 0xA12 JUMPI PUSH1 0x0 DUP1 REVERT JUMPDEST POP PUSH2 0xA2D PUSH1 0x4 DUP1 CALLDATASIZE SUB DUP2 ADD SWAP1 PUSH2 0xA28 SWAP2 SWAP1 PUSH2 0x816C JUMP JUMPDEST PUSH2 0x1E27 JUMP JUMPDEST PUSH1 0x40 MLOAD PUSH2 0xA3A SWAP2 SWAP1 PUSH2 0x7CBC JUMP JUMPDEST PUSH1 0x40 MLOAD DUP1 SWAP2 SUB SWAP1 RETURN JUMPDEST CALLVALUE DUP1 ISZERO PUSH2 0xA4F JUMPI PUSH1 0x0 DUP1 REVERT JUMPDEST POP PUSH2 0xA6A PUSH1 0x4 DUP1 CALLDATASIZE SUB DUP2 ADD SWAP1 PUSH2 0xA65 SWAP2 SWAP1 PUSH2 0x8358 JUMP JUMPDEST PUSH2 0x1E98 JUMP JUMPDEST STOP JUMPDEST CALLVALUE DUP1 ISZERO PUSH2 0xA78 JUMPI PUSH1 0x0 DUP1 REVERT JUMPDEST POP PUSH2 0xA81 PUSH2 0x1F38 JUMP JUMPDEST PUSH1 0x40 MLOAD PUSH2 0xA8E SWAP2 SWAP1 PUSH2 0x7D70 JUMP JUMPDEST PUSH1 0x40 MLOAD DUP1 SWAP2 SUB SWAP1 RETURN JUMPDEST CALLVALUE DUP1 ISZERO PUSH2 0xAA3 JUMPI PUSH1 0x0 DUP1 REVERT JUMPDEST POP PUSH2 0xABE PUSH1 0x4 DUP1 CALLDATASIZE SUB DUP2 ADD SWAP1 PUSH2 0xAB9 SWAP2 SWAP1 PUSH2 0x8489 JUMP JUMPDEST PUSH2 0x1F68 JUMP JUMPDEST STOP JUMPDEST CALLVALUE DUP1 ISZERO PUSH2 0xACC JUMPI PUSH1 0x0 DUP1 REVERT JUMPDEST POP PUSH2 0xAD5 PUSH2 0x2120 JUMP JUMPDEST PUSH1 0x40 MLOAD PUSH2 0xAE2 SWAP2 SWAP1 PUSH2 0x7F00 JUMP JUMPDEST PUSH1 0x40 MLOAD DUP1 SWAP2 SUB SWAP1 RETURN JUMPDEST CALLVALUE DUP1 ISZERO PUSH2 0xAF7 JUMPI PUSH1 0x0 DUP1 REVERT JUMPDEST POP PUSH2 0xB00 PUSH2 0x2150 JUMP JUMPDEST PUSH1 0x40 MLOAD PUSH2 0xB0D SWAP2 SWAP1 PUSH2 0x7DAB JUMP JUMPDEST PUSH1 0x40 MLOAD DUP1 SWAP2 SUB SWAP1 RETURN JUMPDEST CALLVALUE DUP1 ISZERO PUSH2 0xB22 JUMPI PUSH1 0x0 DUP1 REVERT JUMPDEST POP PUSH2 0xB3D PUSH1 0x4 DUP1 CALLDATASIZE SUB DUP2 ADD SWAP1 PUSH2 0xB38 SWAP2 SWAP1 PUSH2 0x84DC JUMP JUMPDEST PUSH2 0x2157 JUMP JUMPDEST STOP JUMPDEST CALLVALUE DUP1 ISZERO PUSH2 0xB4B JUMPI PUSH1 0x0 DUP1 REVERT JUMPDEST POP PUSH2 0xB54 PUSH2 0x2166 JUMP JUMPDEST PUSH1 0x40 MLOAD PUSH2 0xB61 SWAP2 SWAP1 PUSH2 0x7F00 JUMP JUMPDEST PUSH1 0x40 MLOAD DUP1 SWAP2 SUB SWAP1 RETURN JUMPDEST CALLVALUE DUP1 ISZERO PUSH2 0xB76 JUMPI PUSH1 0x0 DUP1 REVERT JUMPDEST POP PUSH2 0xB91 PUSH1 0x4 DUP1 CALLDATASIZE SUB DUP2 ADD SWAP1 PUSH2 0xB8C SWAP2 SWAP1 PUSH2 0x851C JUMP JUMPDEST PUSH2 0x218A JUMP JUMPDEST PUSH1 0x40 MLOAD PUSH2 0xB9F SWAP3 SWAP2 SWAP1 PUSH2 0x857C JUMP JUMPDEST PUSH1 0x40 MLOAD DUP1 SWAP2 SUB SWAP1 RETURN JUMPDEST CALLVALUE DUP1 ISZERO PUSH2 0xBB4 JUMPI PUSH1 0x0 DUP1 REVERT JUMPDEST POP PUSH2 0xBCF PUSH1 0x4 DUP1 CALLDATASIZE SUB DUP2 ADD SWAP1 PUSH2 0xBCA SWAP2 SWAP1 PUSH2 0x7DFC JUMP JUMPDEST PUSH2 0x271F JUMP JUMPDEST STOP JUMPDEST CALLVALUE DUP1 ISZERO PUSH2 0xBDD JUMPI PUSH1 0x0 DUP1 REVERT JUMPDEST POP PUSH2 0xBF8 PUSH1 0x4 DUP1 CALLDATASIZE SUB DUP2 ADD SWAP1 PUSH2 0xBF3 SWAP2 SWAP1 PUSH2 0x83A9 JUMP JUMPDEST PUSH2 0x275E JUMP JUMPDEST PUSH1 0x40 MLOAD PUSH2 0xC05 SWAP2 SWAP1 PUSH2 0x809E JUMP JUMPDEST PUSH1 0x40 MLOAD DUP1 SWAP2 SUB SWAP1 RETURN JUMPDEST CALLVALUE DUP1 ISZERO PUSH2 0xC1A JUMPI PUSH1 0x0 DUP1 REVERT JUMPDEST POP PUSH2 0xC23 PUSH2 0x282E JUMP JUMPDEST PUSH1 0x40 MLOAD PUSH2 0xC30 SWAP2 SWAP1 PUSH2 0x7CBC JUMP JUMPDEST PUSH1 0x40 MLOAD DUP1 SWAP2 SUB SWAP1 RETURN JUMPDEST PUSH2 0xC53 PUSH1 0x4 DUP1 CALLDATASIZE SUB DUP2 ADD SWAP1 PUSH2 0xC4E SWAP2 SWAP1 PUSH2 0x85A5 JUMP JUMPDEST PUSH2 0x2860 JUMP JUMPDEST STOP JUMPDEST CALLVALUE DUP1 ISZERO PUSH2 0xC61 JUMPI PUSH1 0x0 DUP1 REVERT JUMPDEST POP PUSH2 0xC6A PUSH2 0x28FA JUMP JUMPDEST PUSH1 0x40 MLOAD PUSH2 0xC77 SWAP2 SWAP1 PUSH2 0x7DAB JUMP JUMPDEST PUSH1 0x40 MLOAD DUP1 SWAP2 SUB SWAP1 RETURN JUMPDEST CALLVALUE DUP1 ISZERO PUSH2 0xC8C JUMPI PUSH1 0x0 DUP1 REVERT JUMPDEST POP PUSH2 0xCA7 PUSH1 0x4 DUP1 CALLDATASIZE SUB DUP2 ADD SWAP1 PUSH2 0xCA2 SWAP2 SWAP1 PUSH2 0x8715 JUMP JUMPDEST PUSH2 0x291E JUMP JUMPDEST STOP JUMPDEST CALLVALUE DUP1 ISZERO PUSH2 0xCB5 JUMPI PUSH1 0x0 DUP1 REVERT JUMPDEST POP PUSH2 0xCD0 PUSH1 0x4 DUP1 CALLDATASIZE SUB DUP2 ADD SWAP1 PUSH2 0xCCB SWAP2 SWAP1 PUSH2 0x8798 JUMP JUMPDEST PUSH2 0x297C JUMP JUMPDEST PUSH1 0x40 MLOAD PUSH2 0xCDD SWAP2 SWAP1 PUSH2 0x892D JUMP JUMPDEST PUSH1 0x40 MLOAD DUP1 SWAP2 SUB SWAP1 RETURN JUMPDEST CALLVALUE DUP1 ISZERO PUSH2 0xCF2 JUMPI PUSH1 0x0 DUP1 REVERT JUMPDEST POP PUSH2 0xCFB PUSH2 0x2A3D JUMP JUMPDEST PUSH1 0x40 MLOAD PUSH2 0xD08 SWAP2 SWAP1 PUSH2 0x7F00 JUMP JUMPDEST PUSH1 0x40 MLOAD DUP1 SWAP2 SUB SWAP1 RETURN JUMPDEST CALLVALUE DUP1 ISZERO PUSH2 0xD1D JUMPI PUSH1 0x0 DUP1 REVERT JUMPDEST POP PUSH2 0xD38 PUSH1 0x4 DUP1 CALLDATASIZE SUB DUP2 ADD SWAP1 PUSH2 0xD33 SWAP2 SWAP1 PUSH2 0x8358 JUMP JUMPDEST PUSH2 0x2A5E JUMP JUMPDEST STOP JUMPDEST CALLVALUE DUP1 ISZERO PUSH2 0xD46 JUMPI PUSH1 0x0 DUP1 REVERT JUMPDEST POP PUSH2 0xD61 PUSH1 0x4 DUP1 CALLDATASIZE SUB DUP2 ADD SWAP1 PUSH2 0xD5C SWAP2 SWAP1 PUSH2 0x7DFC JUMP JUMPDEST PUSH2 0x2AD1 JUMP JUMPDEST PUSH1 0x40 MLOAD PUSH2 0xD6E SWAP2 SWAP1 PUSH2 0x7D70 JUMP JUMPDEST PUSH1 0x40 MLOAD DUP1 SWAP2 SUB SWAP1 RETURN JUMPDEST CALLVALUE DUP1 ISZERO PUSH2 0xD83 JUMPI PUSH1 0x0 DUP1 REVERT JUMPDEST POP PUSH2 0xD9E PUSH1 0x4 DUP1 CALLDATASIZE SUB DUP2 ADD SWAP1 PUSH2 0xD99 SWAP2 SWAP1 PUSH2 0x894F JUMP JUMPDEST PUSH2 0x2C26 JUMP JUMPDEST PUSH1 0x40 MLOAD PUSH2 0xDAB SWAP2 SWAP1 PUSH2 0x809E JUMP JUMPDEST PUSH1 0x40 MLOAD DUP1 SWAP2 SUB SWAP1 RETURN JUMPDEST CALLVALUE DUP1 ISZERO PUSH2 0xDC0 JUMPI PUSH1 0x0 DUP1 REVERT JUMPDEST POP PUSH2 0xDDB PUSH1 0x4 DUP1 CALLDATASIZE SUB DUP2 ADD SWAP1 PUSH2 0xDD6 SWAP2 SWAP1 PUSH2 0x813F JUMP JUMPDEST PUSH2 0x2CF9 JUMP JUMPDEST PUSH1 0x40 MLOAD PUSH2 0xDE8 SWAP2 SWAP1 PUSH2 0x7F00 JUMP JUMPDEST PUSH1 0x40 MLOAD DUP1 SWAP2 SUB SWAP1 RETURN JUMPDEST CALLVALUE DUP1 ISZERO PUSH2 0xDFD JUMPI PUSH1 0x0 DUP1 REVERT JUMPDEST POP PUSH2 0xE06 PUSH2 0x2D23 JUMP JUMPDEST PUSH1 0x40 MLOAD PUSH2 0xE13 SWAP2 SWAP1 PUSH2 0x7F00 JUMP JUMPDEST PUSH1 0x40 MLOAD DUP1 SWAP2 SUB SWAP1 RETURN JUMPDEST CALLVALUE DUP1 ISZERO PUSH2 0xE28 JUMPI PUSH1 0x0 DUP1 REVERT JUMPDEST POP PUSH2 0xE43 PUSH1 0x4 DUP1 CALLDATASIZE SUB DUP2 ADD SWAP1 PUSH2 0xE3E SWAP2 SWAP1 PUSH2 0x816C JUMP JUMPDEST PUSH2 0x2DC6 JUMP JUMPDEST STOP JUMPDEST CALLVALUE DUP1 ISZERO PUSH2 0xE51 JUMPI PUSH1 0x0 DUP1 REVERT JUMPDEST POP PUSH2 0xE6C PUSH1 0x4 DUP1 CALLDATASIZE SUB DUP2 ADD SWAP1 PUSH2 0xE67 SWAP2 SWAP1 PUSH2 0x7F80 JUMP JUMPDEST PUSH2 0x2DEF JUMP JUMPDEST PUSH1 0x40 MLOAD PUSH2 0xE79 SWAP2 SWAP1 PUSH2 0x809E JUMP JUMPDEST PUSH1 0x40 MLOAD DUP1 SWAP2 SUB SWAP1 RETURN JUMPDEST CALLVALUE DUP1 ISZERO PUSH2 0xE8E JUMPI PUSH1 0x0 DUP1 REVERT JUMPDEST POP PUSH2 0xE97 PUSH2 0x2F0B JUMP JUMPDEST PUSH1 0x40 MLOAD PUSH2 0xEA4 SWAP2 SWAP1 PUSH2 0x8A2F JUMP JUMPDEST PUSH1 0x40 MLOAD DUP1 SWAP2 SUB SWAP1 RETURN JUMPDEST CALLVALUE DUP1 ISZERO PUSH2 0xEB9 JUMPI PUSH1 0x0 DUP1 REVERT JUMPDEST POP PUSH2 0xEC2 PUSH2 0x2F2F JUMP JUMPDEST PUSH1 0x40 MLOAD PUSH2 0xECF SWAP2 SWAP1 PUSH2 0x7F00 JUMP JUMPDEST PUSH1 0x40 MLOAD DUP1 SWAP2 SUB SWAP1 RETURN JUMPDEST CALLVALUE DUP1 ISZERO PUSH2 0xEE4 JUMPI PUSH1 0x0 DUP1 REVERT JUMPDEST POP PUSH2 0xEED PUSH2 0x2F3C JUMP JUMPDEST PUSH1 0x40 MLOAD PUSH2 0xEFA SWAP2 SWAP1 PUSH2 0x8A6B JUMP JUMPDEST PUSH1 0x40 MLOAD DUP1 SWAP2 SUB SWAP1 RETURN JUMPDEST CALLVALUE DUP1 ISZERO PUSH2 0xF0F JUMPI PUSH1 0x0 DUP1 REVERT JUMPDEST POP PUSH2 0xF2A PUSH1 0x4 DUP1 CALLDATASIZE SUB DUP2 ADD SWAP1 PUSH2 0xF25 SWAP2 SWAP1 PUSH2 0x894F JUMP JUMPDEST PUSH2 0x2F60 JUMP JUMPDEST STOP JUMPDEST CALLVALUE DUP1 ISZERO PUSH2 0xF38 JUMPI PUSH1 0x0 DUP1 REVERT JUMPDEST POP PUSH2 0xF41 PUSH2 0x303A JUMP JUMPDEST PUSH1 0x40 MLOAD PUSH2 0xF4E SWAP2 SWAP1 PUSH2 0x7F00 JUMP JUMPDEST PUSH1 0x40 MLOAD DUP1 SWAP2 SUB SWAP1 RETURN JUMPDEST CALLVALUE DUP1 ISZERO PUSH2 0xF63 JUMPI PUSH1 0x0 DUP1 REVERT JUMPDEST POP PUSH2 0xF7E PUSH1 0x4 DUP1 CALLDATASIZE SUB DUP2 ADD SWAP1 PUSH2 0xF79 SWAP2 SWAP1 PUSH2 0x8A86 JUMP JUMPDEST PUSH2 0x305E JUMP JUMPDEST PUSH1 0x40 MLOAD PUSH2 0xF8B SWAP2 SWAP1 PUSH2 0x7CBC JUMP JUMPDEST PUSH1 0x40 MLOAD DUP1 SWAP2 SUB SWAP1 RETURN JUMPDEST CALLVALUE DUP1 ISZERO PUSH2 0xFA0 JUMPI PUSH1 0x0 DUP1 REVERT JUMPDEST POP PUSH2 0xFBB PUSH1 0x4 DUP1 CALLDATASIZE SUB DUP2 ADD SWAP1 PUSH2 0xFB6 SWAP2 SWAP1 PUSH2 0x8BF6 JUMP JUMPDEST PUSH2 0x30F8 JUMP JUMPDEST PUSH1 0x40 MLOAD PUSH2 0xFC8 SWAP2 SWAP1 PUSH2 0x8D39 JUMP JUMPDEST PUSH1 0x40 MLOAD DUP1 SWAP2 SUB SWAP1 RETURN JUMPDEST CALLVALUE DUP1 ISZERO PUSH2 0xFDD JUMPI PUSH1 0x0 DUP1 REVERT JUMPDEST POP PUSH2 0xFF8 PUSH1 0x4 DUP1 CALLDATASIZE SUB DUP2 ADD SWAP1 PUSH2 0xFF3 SWAP2 SWAP1 PUSH2 0x7DFC JUMP JUMPDEST PUSH2 0x39C4 JUMP JUMPDEST STOP JUMPDEST CALLVALUE DUP1 ISZERO PUSH2 0x1006 JUMPI PUSH1 0x0 DUP1 REVERT JUMPDEST POP PUSH2 0x100F PUSH2 0x3A03 JUMP JUMPDEST PUSH1 0x40 MLOAD PUSH2 0x101C SWAP2 SWAP1 PUSH2 0x7F00 JUMP JUMPDEST PUSH1 0x40 MLOAD DUP1 SWAP2 SUB SWAP1 RETURN JUMPDEST CALLVALUE DUP1 ISZERO PUSH2 0x1031 JUMPI PUSH1 0x0 DUP1 REVERT JUMPDEST POP PUSH2 0x104C PUSH1 0x4 DUP1 CALLDATASIZE SUB DUP2 ADD SWAP1 PUSH2 0x1047 SWAP2 SWAP1 PUSH2 0x7DFC JUMP JUMPDEST PUSH2 0x3A33 JUMP JUMPDEST STOP JUMPDEST PUSH1 0x0 PUSH32 0x80AC58CD00000000000000000000000000000000000000000000000000000000 PUSH28 0xFFFFFFFFFFFFFFFFFFFFFFFFFFFFFFFFFFFFFFFFFFFFFFFFFFFFFFFF NOT AND DUP3 PUSH28 0xFFFFFFFFFFFFFFFFFFFFFFFFFFFFFFFFFFFFFFFFFFFFFFFFFFFFFFFF NOT AND EQ DUP1 PUSH2 0x1119 JUMPI POP PUSH32 0x5B5E139F00000000000000000000000000000000000000000000000000000000 PUSH28 0xFFFFFFFFFFFFFFFFFFFFFFFFFFFFFFFFFFFFFFFFFFFFFFFFFFFFFFFF NOT AND DUP3 PUSH28 0xFFFFFFFFFFFFFFFFFFFFFFFFFFFFFFFFFFFFFFFFFFFFFFFFFFFFFFFF NOT AND EQ JUMPDEST DUP1 PUSH2 0x1168 JUMPI POP PUSH4 0x49064906 PUSH1 0xE0 SHL PUSH28 0xFFFFFFFFFFFFFFFFFFFFFFFFFFFFFFFFFFFFFFFFFFFFFFFFFFFFFFFF NOT AND DUP3 PUSH28 0xFFFFFFFFFFFFFFFFFFFFFFFFFFFFFFFFFFFFFFFFFFFFFFFFFFFFFFFF NOT AND EQ JUMPDEST DUP1 PUSH2 0x1178 JUMPI POP PUSH2 0x1177 DUP3 PUSH2 0x3A66 JUMP JUMPDEST JUMPDEST SWAP1 POP SWAP2 SWAP1 POP JUMP JUMPDEST PUSH2 0x11A9 PUSH32 0x2FC10CC8AE19568712F7A176FB4978616A610650813C9D05326C34ABB62749C7 CALLER PUSH2 0x3AE0 JUMP JUMPDEST PUSH2 0x11B1 PUSH2 0x3B7D JUMP JUMPDEST JUMP JUMPDEST PUSH1 0x60 PUSH2 0x11DE PUSH32 0x0 PUSH2 0x3BE6 JUMP JUMPDEST SWAP1 POP SWAP1 JUMP JUMPDEST PUSH32 0x68E79A7BF1E0BC45D0A330C573BC367F9CF464FD326078812F301165FBDA4EF1 DUP2 JUMP JUMPDEST PUSH1 0x0 PUSH2 0x1212 DUP3 PUSH2 0x3C5A JUMP JUMPDEST PUSH2 0x1253 JUMPI DUP2 PUSH1 0x40 MLOAD PUSH32 0xC969E0F200000000000000000000000000000000000000000000000000000000 DUP2 MSTORE PUSH1 0x4 ADD PUSH2 0x124A SWAP2 SWAP1 PUSH2 0x7F00 JUMP JUMPDEST PUSH1 0x40 MLOAD DUP1 SWAP2 SUB SWAP1 REVERT JUMPDEST PUSH2 0x125B PUSH2 0x3CAC JUMP JUMPDEST PUSH1 0x0 DUP4 DUP2 MSTORE PUSH1 0x20 ADD SWAP1 DUP2 MSTORE PUSH1 0x20 ADD PUSH1 0x0 KECCAK256 PUSH1 0x0 SWAP1 SLOAD SWAP1 PUSH2 0x100 EXP SWAP1 DIV PUSH20 0xFFFFFFFFFFFFFFFFFFFFFFFFFFFFFFFFFFFFFFFF AND SWAP1 POP SWAP2 SWAP1 POP JUMP JUMPDEST PUSH1 0x0 PUSH2 0x129F DUP3 PUSH2 0x1A44 JUMP JUMPDEST SWAP1 POP DUP1 PUSH20 0xFFFFFFFFFFFFFFFFFFFFFFFFFFFFFFFFFFFFFFFF AND DUP4 PUSH20 0xFFFFFFFFFFFFFFFFFFFFFFFFFFFFFFFFFFFFFFFF AND EQ ISZERO PUSH2 0x1307 JUMPI PUSH1 0x40 MLOAD PUSH32 0x93F5178600000000000000000000000000000000000000000000000000000000 DUP2 MSTORE PUSH1 0x4 ADD PUSH1 0x40 MLOAD DUP1 SWAP2 SUB SWAP1 REVERT JUMPDEST DUP1 PUSH20 0xFFFFFFFFFFFFFFFFFFFFFFFFFFFFFFFFFFFFFFFF AND CALLER PUSH20 0xFFFFFFFFFFFFFFFFFFFFFFFFFFFFFFFFFFFFFFFF AND EQ ISZERO DUP1 ISZERO PUSH2 0x134A JUMPI POP PUSH2 0x1348 DUP2 CALLER PUSH2 0x305E JUMP JUMPDEST ISZERO JUMPDEST ISZERO PUSH2 0x138C JUMPI CALLER PUSH1 0x40 MLOAD PUSH32 0x41AAEFAC00000000000000000000000000000000000000000000000000000000 DUP2 MSTORE PUSH1 0x4 ADD PUSH2 0x1383 SWAP2 SWAP1 PUSH2 0x7E6A JUMP JUMPDEST PUSH1 0x40 MLOAD DUP1 SWAP2 SUB SWAP1 REVERT JUMPDEST PUSH2 0x1396 DUP4 DUP4 PUSH2 0x3CDC JUMP JUMPDEST POP POP POP JUMP JUMPDEST PUSH1 0x64 DUP2 JUMP JUMPDEST PUSH1 0x60 PUSH2 0x13AA PUSH2 0x3D9B JUMP JUMPDEST PUSH1 0x0 PUSH20 0xFFFFFFFFFFFFFFFFFFFFFFFFFFFFFFFFFFFFFFFF AND DUP3 PUSH20 0xFFFFFFFFFFFFFFFFFFFFFFFFFFFFFFFFFFFFFFFF AND EQ ISZERO PUSH2 0x13E3 JUMPI CALLER SWAP2 POP JUMPDEST DUP4 DUP4 SWAP1 POP PUSH8 0xFFFFFFFFFFFFFFFF DUP2 GT ISZERO PUSH2 0x1400 JUMPI PUSH2 0x13FF PUSH2 0x85EA JUMP JUMPDEST JUMPDEST PUSH1 0x40 MLOAD SWAP1 DUP1 DUP3 MSTORE DUP1 PUSH1 0x20 MUL PUSH1 0x20 ADD DUP3 ADD PUSH1 0x40 MSTORE DUP1 ISZERO PUSH2 0x142E JUMPI DUP2 PUSH1 0x20 ADD PUSH1 0x20 DUP3 MUL DUP1 CALLDATASIZE DUP4 CALLDATACOPY DUP1 DUP3 ADD SWAP2 POP POP SWAP1 POP JUMPDEST POP SWAP1 POP PUSH1 0x0 JUMPDEST DUP5 DUP5 SWAP1 POP DUP2 LT ISZERO PUSH2 0x1492 JUMPI PUSH2 0x1462 DUP6 DUP6 DUP4 DUP2 DUP2 LT PUSH2 0x1455 JUMPI PUSH2 0x1454 PUSH2 0x8D55 JUMP JUMPDEST JUMPDEST SWAP1 POP PUSH1 0x20 MUL ADD CALLDATALOAD DUP5 PUSH2 0x3DDC JUMP JUMPDEST DUP3 DUP3 DUP2 MLOAD DUP2 LT PUSH2 0x1475 JUMPI PUSH2 0x1474 PUSH2 0x8D55 JUMP JUMPDEST JUMPDEST PUSH1 0x20 MUL PUSH1 0x20 ADD ADD DUP2 DUP2 MSTORE POP POP DUP1 PUSH2 0x148B SWAP1 PUSH2 0x8DB3 JUMP JUMPDEST SWAP1 POP PUSH2 0x1434 JUMP JUMPDEST POP SWAP4 SWAP3 POP POP POP JUMP JUMPDEST PUSH1 0x0 PUSH2 0x14C5 PUSH32 0x8EE26ABBBDF533DE3953CCF2204279E845EECB5AB51F8398522746E4EA068041 PUSH2 0x4014 JUMP JUMPDEST SWAP1 POP SWAP1 JUMP JUMPDEST PUSH32 0x485191A2EF18512555BD4426D18A716CE8E98C80EC2DE16394DCF86D7D91BC80 DUP2 JUMP JUMPDEST PUSH2 0x14F9 DUP4 DUP4 DUP4 PUSH2 0x401F JUMP JUMPDEST POP POP POP JUMP JUMPDEST PUSH1 0x0 PUSH2 0x1508 PUSH2 0x44BC JUMP JUMPDEST PUSH1 0x0 DUP4 DUP2 MSTORE PUSH1 0x20 ADD SWAP1 DUP2 MSTORE PUSH1 0x20 ADD PUSH1 0x0 KECCAK256 PUSH1 0x1 ADD SLOAD SWAP1 POP SWAP2 SWAP1 POP JUMP JUMPDEST PUSH1 0x24 DUP2 JUMP JUMPDEST PUSH1 0x0 PUSH32 0xFFFFFFFFFFFFFFFFFFFFFFFFFFFFFFFFFFFFFFFFFFFFFFFFFFFFFFFFFFFFFFFF PUSH2 0x1554 PUSH2 0x2120 JUMP JUMPDEST LT SWAP1 POP SWAP1 JUMP JUMPDEST PUSH32 0x2FC10CC8AE19568712F7A176FB4978616A610650813C9D05326C34ABB62749C7 DUP2 JUMP JUMPDEST PUSH2 0x1587 DUP3 PUSH2 0x14FE JUMP JUMPDEST PUSH2 0x1598 DUP2 PUSH2 0x1593 PUSH2 0x44E9 JUMP JUMPDEST PUSH2 0x3AE0 JUMP JUMPDEST PUSH2 0x15A2 DUP4 DUP4 PUSH2 0x44F1 JUMP JUMPDEST POP POP POP JUMP JUMPDEST PUSH2 0x15AF PUSH2 0x44E9 JUMP JUMPDEST PUSH20 0xFFFFFFFFFFFFFFFFFFFFFFFFFFFFFFFFFFFFFFFF AND DUP2 PUSH20 0xFFFFFFFFFFFFFFFFFFFFFFFFFFFFFFFFFFFFFFFF AND EQ PUSH2 0x161C JUMPI PUSH1 0x40 MLOAD PUSH32 0x8C379A000000000000000000000000000000000000000000000000000000000 DUP2 MSTORE PUSH1 0x4 ADD PUSH2 0x1613 SWAP1 PUSH2 0x8E6E JUMP JUMPDEST PUSH1 0x40 MLOAD DUP1 SWAP2 SUB SWAP1 REVERT JUMPDEST PUSH2 0x1626 DUP3 DUP3 PUSH2 0x452B JUMP JUMPDEST POP POP JUMP JUMPDEST PUSH32 0x139C2898040EF16910DC9F44DC697DF79363DA767D8BC92F2E310312B816E46D DUP2 JUMP JUMPDEST PUSH2 0x1669 DUP4 DUP4 DUP4 PUSH1 0x40 MLOAD DUP1 PUSH1 0x20 ADD PUSH1 0x40 MSTORE DUP1 PUSH1 0x0 DUP2 MSTORE POP PUSH2 0x291E JUMP JUMPDEST POP POP POP JUMP JUMPDEST PUSH1 0x0 PUSH2 0x1699 PUSH32 0x2A81836F39B1062C2144EF0B520C964F50C3AF430524CC6F585FF0AA7DD48C72 PUSH2 0x4565 JUMP JUMPDEST SWAP1 POP SWAP1 JUMP JUMPDEST PUSH1 0x0 PUSH2 0x16C9 PUSH32 0x992F2E0C24CE59A21F2DAB8BBA13B25C2F872129DF7F4D45372155E717DB0C48 PUSH2 0x4014 JUMP JUMPDEST SWAP1 POP SWAP1 JUMP JUMPDEST PUSH1 0x0 PUSH2 0x16F9 PUSH32 0x9D8BE19D6A54E40BD767AA61B0F462241F5562EF6967D7045485BCCAC825B240 PUSH2 0x4014 JUMP JUMPDEST SWAP1 POP SWAP1 JUMP JUMPDEST PUSH32 0xBE882725F03F148E7C5A5E63EC45F182F7DCDB6BB8B92311ADE5A6D138E0EE0F PUSH2 0x1730 DUP2 PUSH2 0x172B PUSH2 0x44E9 JUMP JUMPDEST PUSH2 0x3AE0 JUMP JUMPDEST DUP3 DUP3 PUSH2 0x173A PUSH2 0x4570 JUMP JUMPDEST PUSH1 0x0 ADD SWAP2 SWAP1 PUSH2 0x174A SWAP3 SWAP2 SWAP1 PUSH2 0x7A42 JUMP JUMPDEST POP PUSH32 0xF9C7803E94E0D3C02900D8A90893A6D5E90DD04D32A4CFE825520F82BF9F32F6 DUP4 DUP4 PUSH1 0x40 MLOAD PUSH2 0x177C SWAP3 SWAP2 SWAP1 PUSH2 0x8EBB JUMP JUMPDEST PUSH1 0x40 MLOAD DUP1 SWAP2 SUB SWAP1 LOG1 POP POP POP JUMP JUMPDEST PUSH1 0x0 PUSH2 0x17B4 PUSH32 0xE8B012900CB200EE5DFC3B895A32791B67D12891B09F117814F167A237783A02 PUSH2 0x4014 JUMP JUMPDEST SWAP1 POP SWAP1 JUMP JUMPDEST PUSH1 0x0 PUSH20 0xFFFFFFFFFFFFFFFFFFFFFFFFFFFFFFFFFFFFFFFF AND DUP2 PUSH20 0xFFFFFFFFFFFFFFFFFFFFFFFFFFFFFFFFFFFFFFFF AND EQ ISZERO PUSH2 0x1820 JUMPI PUSH1 0x40 MLOAD PUSH32 0xD27B444300000000000000000000000000000000000000000000000000000000 DUP2 MSTORE PUSH1 0x4 ADD PUSH1 0x40 MLOAD DUP1 SWAP2 SUB SWAP1 REVERT JUMPDEST DUP3 DUP3 SWAP1 POP DUP6 DUP6 SWAP1 POP EQ PUSH2 0x1872 JUMPI DUP5 DUP5 SWAP1 POP DUP4 DUP4 SWAP1 POP PUSH1 0x40 MLOAD PUSH32 0x4C59BF2800000000000000000000000000000000000000000000000000000000 DUP2 MSTORE PUSH1 0x4 ADD PUSH2 0x1869 SWAP3 SWAP2 SWAP1 PUSH2 0x857C JUMP JUMPDEST PUSH1 0x40 MLOAD DUP1 SWAP2 SUB SWAP1 REVERT JUMPDEST PUSH1 0x0 JUMPDEST DUP6 DUP6 SWAP1 POP DUP2 LT ISZERO PUSH2 0x18F3 JUMPI PUSH2 0x18BD DUP7 DUP7 DUP4 DUP2 DUP2 LT PUSH2 0x1896 JUMPI PUSH2 0x1895 PUSH2 0x8D55 JUMP JUMPDEST JUMPDEST SWAP1 POP PUSH1 0x20 MUL ADD CALLDATALOAD DUP6 DUP6 DUP5 DUP2 DUP2 LT PUSH2 0x18B0 JUMPI PUSH2 0x18AF PUSH2 0x8D55 JUMP JUMPDEST JUMPDEST SWAP1 POP PUSH1 0x20 MUL ADD CALLDATALOAD DUP5 PUSH2 0x459D JUMP JUMPDEST PUSH2 0x18E2 CALLER PUSH1 0x0 DUP9 DUP9 DUP6 DUP2 DUP2 LT PUSH2 0x18D6 JUMPI PUSH2 0x18D5 PUSH2 0x8D55 JUMP JUMPDEST JUMPDEST SWAP1 POP PUSH1 0x20 MUL ADD CALLDATALOAD PUSH2 0x48A0 JUMP JUMPDEST DUP1 PUSH2 0x18EC SWAP1 PUSH2 0x8DB3 JUMP JUMPDEST SWAP1 POP PUSH2 0x1875 JUMP JUMPDEST POP POP POP POP POP POP JUMP JUMPDEST PUSH1 0x60 DUP5 DUP5 SWAP1 POP PUSH8 0xFFFFFFFFFFFFFFFF DUP2 GT ISZERO PUSH2 0x191A JUMPI PUSH2 0x1919 PUSH2 0x85EA JUMP JUMPDEST JUMPDEST PUSH1 0x40 MLOAD SWAP1 DUP1 DUP3 MSTORE DUP1 PUSH1 0x20 MUL PUSH1 0x20 ADD DUP3 ADD PUSH1 0x40 MSTORE DUP1 ISZERO PUSH2 0x1948 JUMPI DUP2 PUSH1 0x20 ADD PUSH1 0x20 DUP3 MUL DUP1 CALLDATASIZE DUP4 CALLDATACOPY DUP1 DUP3 ADD SWAP2 POP POP SWAP1 POP JUMPDEST POP SWAP1 POP PUSH1 0x0 DUP1 JUMPDEST DUP7 DUP7 SWAP1 POP DUP2 LT ISZERO PUSH2 0x1A3A JUMPI DUP2 DUP8 DUP8 DUP4 DUP2 DUP2 LT PUSH2 0x196E JUMPI PUSH2 0x196D PUSH2 0x8D55 JUMP JUMPDEST JUMPDEST SWAP1 POP PUSH1 0x20 MUL ADD CALLDATALOAD LT ISZERO PUSH2 0x19AD JUMPI PUSH1 0x40 MLOAD PUSH32 0x374E8BD100000000000000000000000000000000000000000000000000000000 DUP2 MSTORE PUSH1 0x4 ADD PUSH1 0x40 MLOAD DUP1 SWAP2 SUB SWAP1 REVERT JUMPDEST PUSH2 0x19D1 DUP8 DUP8 DUP4 DUP2 DUP2 LT PUSH2 0x19C3 JUMPI PUSH2 0x19C2 PUSH2 0x8D55 JUMP JUMPDEST JUMPDEST SWAP1 POP PUSH1 0x20 MUL ADD CALLDATALOAD DUP7 DUP7 PUSH2 0x4900 JUMP JUMPDEST DUP4 DUP3 DUP2 MLOAD DUP2 LT PUSH2 0x19E4 JUMPI PUSH2 0x19E3 PUSH2 0x8D55 JUMP JUMPDEST JUMPDEST PUSH1 0x20 MUL PUSH1 0x20 ADD ADD DUP2 DUP2 MSTORE POP POP DUP3 DUP2 DUP2 MLOAD DUP2 LT PUSH2 0x1A03 JUMPI PUSH2 0x1A02 PUSH2 0x8D55 JUMP JUMPDEST JUMPDEST PUSH1 0x20 MUL PUSH1 0x20 ADD ADD MLOAD SWAP5 POP DUP7 DUP7 DUP3 DUP2 DUP2 LT PUSH2 0x1A20 JUMPI PUSH2 0x1A1F PUSH2 0x8D55 JUMP JUMPDEST JUMPDEST SWAP1 POP PUSH1 0x20 MUL ADD CALLDATALOAD SWAP2 POP DUP1 PUSH2 0x1A33 SWAP1 PUSH2 0x8DB3 JUMP JUMPDEST SWAP1 POP PUSH2 0x194F JUMP JUMPDEST POP POP SWAP5 SWAP4 POP POP POP POP JUMP JUMPDEST PUSH1 0x0 DUP1 DUP3 EQ DUP1 PUSH2 0x1A5A JUMPI POP PUSH2 0x1A57 PUSH2 0x149A JUMP JUMPDEST DUP3 GT JUMPDEST ISZERO PUSH2 0x1A9C JUMPI DUP2 PUSH1 0x40 MLOAD PUSH32 0xC969E0F200000000000000000000000000000000000000000000000000000000 DUP2 MSTORE PUSH1 0x4 ADD PUSH2 0x1A93 SWAP2 SWAP1 PUSH2 0x7F00 JUMP JUMPDEST PUSH1 0x40 MLOAD DUP1 SWAP2 SUB SWAP1 REVERT JUMPDEST PUSH1 0x0 PUSH2 0x1AA6 PUSH2 0x4B1F JUMP JUMPDEST PUSH1 0x0 DUP5 DUP2 MSTORE PUSH1 0x20 ADD SWAP1 DUP2 MSTORE PUSH1 0x20 ADD PUSH1 0x0 KECCAK256 SWAP1 POP DUP1 PUSH1 0x1 ADD PUSH1 0x19 SWAP1 SLOAD SWAP1 PUSH2 0x100 EXP SWAP1 DIV PUSH1 0xFF AND ISZERO PUSH2 0x1B0D JUMPI DUP3 PUSH1 0x40 MLOAD PUSH32 0xF0E0CC2D00000000000000000000000000000000000000000000000000000000 DUP2 MSTORE PUSH1 0x4 ADD PUSH2 0x1B04 SWAP2 SWAP1 PUSH2 0x7F00 JUMP JUMPDEST PUSH1 0x40 MLOAD DUP1 SWAP2 SUB SWAP1 REVERT JUMPDEST DUP1 PUSH1 0x1 ADD PUSH1 0x0 SWAP1 SLOAD SWAP1 PUSH2 0x100 EXP SWAP1 DIV PUSH20 0xFFFFFFFFFFFFFFFFFFFFFFFFFFFFFFFFFFFFFFFF AND SWAP2 POP POP SWAP2 SWAP1 POP JUMP JUMPDEST PUSH1 0x0 DUP1 PUSH20 0xFFFFFFFFFFFFFFFFFFFFFFFFFFFFFFFFFFFFFFFF AND DUP3 PUSH20 0xFFFFFFFFFFFFFFFFFFFFFFFFFFFFFFFFFFFFFFFF AND EQ ISZERO PUSH2 0x1BAD JUMPI DUP2 PUSH1 0x40 MLOAD PUSH32 0x1E4F95400000000000000000000000000000000000000000000000000000000 DUP2 MSTORE PUSH1 0x4 ADD PUSH2 0x1BA4 SWAP2 SWAP1 PUSH2 0x7E6A JUMP JUMPDEST PUSH1 0x40 MLOAD DUP1 SWAP2 SUB SWAP1 REVERT JUMPDEST PUSH2 0x1BFA PUSH2 0x1BB8 PUSH2 0x4B4C JUMP JUMPDEST PUSH1 0x0 DUP5 PUSH20 0xFFFFFFFFFFFFFFFFFFFFFFFFFFFFFFFFFFFFFFFF AND PUSH20 0xFFFFFFFFFFFFFFFFFFFFFFFFFFFFFFFFFFFFFFFF AND DUP2 MSTORE PUSH1 0x20 ADD SWAP1 DUP2 MSTORE PUSH1 0x20 ADD PUSH1 0x0 KECCAK256 PUSH2 0x4B79 JUMP JUMPDEST SWAP1 POP SWAP2 SWAP1 POP JUMP JUMPDEST PUSH1 0x60 PUSH2 0x1C0B PUSH2 0x4570 JUMP JUMPDEST PUSH1 0x0 ADD DUP1 SLOAD PUSH2 0x1C19 SWAP1 PUSH2 0x8F0E JUMP JUMPDEST DUP1 PUSH1 0x1F ADD PUSH1 0x20 DUP1 SWAP2 DIV MUL PUSH1 0x20 ADD PUSH1 0x40 MLOAD SWAP1 DUP2 ADD PUSH1 0x40 MSTORE DUP1 SWAP3 SWAP2 SWAP1 DUP2 DUP2 MSTORE PUSH1 0x20 ADD DUP3 DUP1 SLOAD PUSH2 0x1C45 SWAP1 PUSH2 0x8F0E JUMP JUMPDEST DUP1 ISZERO PUSH2 0x1C92 JUMPI DUP1 PUSH1 0x1F LT PUSH2 0x1C67 JUMPI PUSH2 0x100 DUP1 DUP4 SLOAD DIV MUL DUP4 MSTORE SWAP2 PUSH1 0x20 ADD SWAP2 PUSH2 0x1C92 JUMP JUMPDEST DUP3 ADD SWAP2 SWAP1 PUSH1 0x0 MSTORE PUSH1 0x20 PUSH1 0x0 KECCAK256 SWAP1 JUMPDEST DUP2 SLOAD DUP2 MSTORE SWAP1 PUSH1 0x1 ADD SWAP1 PUSH1 0x20 ADD DUP1 DUP4 GT PUSH2 0x1C75 JUMPI DUP3 SWAP1 SUB PUSH1 0x1F AND DUP3 ADD SWAP2 JUMPDEST POP POP POP POP POP SWAP1 POP SWAP1 JUMP JUMPDEST PUSH1 0x60 PUSH32 0x0 PUSH20 0xFFFFFFFFFFFFFFFFFFFFFFFFFFFFFFFFFFFFFFFF AND PUSH4 0xD505ACCF CALLER ADDRESS DUP6 PUSH1 0x0 ADD CALLDATALOAD DUP7 PUSH1 0x20 ADD CALLDATALOAD DUP8 PUSH1 0x40 ADD PUSH1 0x20 DUP2 ADD SWAP1 PUSH2 0x1CF9 SWAP2 SWAP1 PUSH2 0x8F79 JUMP JUMPDEST DUP9 PUSH1 0x60 ADD CALLDATALOAD DUP10 PUSH1 0x80 ADD CALLDATALOAD PUSH1 0x40 MLOAD DUP9 PUSH4 0xFFFFFFFF AND PUSH1 0xE0 SHL DUP2 MSTORE PUSH1 0x4 ADD PUSH2 0x1D25 SWAP8 SWAP7 SWAP6 SWAP5 SWAP4 SWAP3 SWAP2 SWAP1 PUSH2 0x8FB5 JUMP JUMPDEST PUSH1 0x0 PUSH1 0x40 MLOAD DUP1 DUP4 SUB DUP2 PUSH1 0x0 DUP8 DUP1 EXTCODESIZE ISZERO DUP1 ISZERO PUSH2 0x1D3F JUMPI PUSH1 0x0 DUP1 REVERT JUMPDEST POP GAS CALL ISZERO DUP1 ISZERO PUSH2 0x1D53 JUMPI RETURNDATASIZE PUSH1 0x0 DUP1 RETURNDATACOPY RETURNDATASIZE PUSH1 0x0 REVERT JUMPDEST POP POP POP POP PUSH2 0x1D62 DUP6 DUP6 DUP6 PUSH2 0x13A0 JUMP JUMPDEST SWAP1 POP SWAP5 SWAP4 POP POP POP POP JUMP JUMPDEST PUSH1 0x60 PUSH2 0x1DBB PUSH2 0x1D79 PUSH2 0x4B4C JUMP JUMPDEST PUSH1 0x0 DUP5 PUSH20 0xFFFFFFFFFFFFFFFFFFFFFFFFFFFFFFFFFFFFFFFF AND PUSH20 0xFFFFFFFFFFFFFFFFFFFFFFFFFFFFFFFFFFFFFFFF AND DUP2 MSTORE PUSH1 0x20 ADD SWAP1 DUP2 MSTORE PUSH1 0x20 ADD PUSH1 0x0 KECCAK256 PUSH2 0x4B8E JUMP JUMPDEST SWAP1 POP SWAP2 SWAP1 POP JUMP JUMPDEST PUSH1 0x0 PUSH2 0x1DED PUSH32 0x4DD0F6662BA1D6B081F08B350F5E9A6A7B15CF586926BA66F753594928FA64A6 PUSH2 0x4014 JUMP JUMPDEST SWAP1 POP SWAP1 JUMP JUMPDEST PUSH1 0x0 PUSH2 0x1E1F DUP3 PUSH2 0x1E00 PUSH2 0x4BAF JUMP JUMPDEST PUSH1 0x0 DUP7 DUP2 MSTORE PUSH1 0x20 ADD SWAP1 DUP2 MSTORE PUSH1 0x20 ADD PUSH1 0x0 KECCAK256 PUSH2 0x4BDC SWAP1 SWAP2 SWAP1 PUSH4 0xFFFFFFFF AND JUMP JUMPDEST SWAP1 POP SWAP3 SWAP2 POP POP JUMP JUMPDEST PUSH1 0x0 PUSH2 0x1E31 PUSH2 0x44BC JUMP JUMPDEST PUSH1 0x0 DUP5 DUP2 MSTORE PUSH1 0x20 ADD SWAP1 DUP2 MSTORE PUSH1 0x20 ADD PUSH1 0x0 KECCAK256 PUSH1 0x0 ADD PUSH1 0x0 DUP4 PUSH20 0xFFFFFFFFFFFFFFFFFFFFFFFFFFFFFFFFFFFFFFFF AND PUSH20 0xFFFFFFFFFFFFFFFFFFFFFFFFFFFFFFFFFFFFFFFF AND DUP2 MSTORE PUSH1 0x20 ADD SWAP1 DUP2 MSTORE PUSH1 0x20 ADD PUSH1 0x0 KECCAK256 PUSH1 0x0 SWAP1 SLOAD SWAP1 PUSH2 0x100 EXP SWAP1 DIV PUSH1 0xFF AND SWAP1 POP SWAP3 SWAP2 POP POP JUMP JUMPDEST PUSH32 0xBE882725F03F148E7C5A5E63EC45F182F7DCDB6BB8B92311ADE5A6D138E0EE0F PUSH2 0x1ECA DUP2 PUSH2 0x1EC5 PUSH2 0x44E9 JUMP JUMPDEST PUSH2 0x3AE0 JUMP JUMPDEST PUSH2 0x1EFD DUP3 PUSH32 0x2A81836F39B1062C2144EF0B520C964F50C3AF430524CC6F585FF0AA7DD48C72 PUSH2 0x4BF6 SWAP1 SWAP2 SWAP1 PUSH4 0xFFFFFFFF AND JUMP JUMPDEST PUSH32 0x4EC04AC71C49EEA0A94DC5967B493412A8CDB2934B367713019D3B110E9F0BA8 DUP3 PUSH1 0x40 MLOAD PUSH2 0x1F2C SWAP2 SWAP1 PUSH2 0x7E6A JUMP JUMPDEST PUSH1 0x40 MLOAD DUP1 SWAP2 SUB SWAP1 LOG1 POP POP JUMP JUMPDEST PUSH1 0x60 PUSH2 0x1F63 PUSH32 0x0 PUSH2 0x3BE6 JUMP JUMPDEST SWAP1 POP SWAP1 JUMP JUMPDEST PUSH2 0x1F92 PUSH32 0x68E79A7BF1E0BC45D0A330C573BC367F9CF464FD326078812F301165FBDA4EF1 CALLER PUSH2 0x3AE0 JUMP JUMPDEST TIMESTAMP DUP3 LT PUSH2 0x1FCB JUMPI PUSH1 0x40 MLOAD PUSH32 0x34819C0300000000000000000000000000000000000000000000000000000000 DUP2 MSTORE PUSH1 0x4 ADD PUSH1 0x40 MLOAD DUP1 SWAP2 SUB SWAP1 REVERT JUMPDEST TIMESTAMP DUP2 LT PUSH2 0x2004 JUMPI PUSH1 0x40 MLOAD PUSH32 0x34819C0300000000000000000000000000000000000000000000000000000000 DUP2 MSTORE PUSH1 0x4 ADD PUSH1 0x40 MLOAD DUP1 SWAP2 SUB SWAP1 REVERT JUMPDEST PUSH2 0x200D DUP2 PUSH2 0x4BFD JUMP JUMPDEST PUSH1 0x0 PUSH2 0x2017 PUSH2 0x1529 JUMP JUMPDEST SWAP1 POP DUP1 ISZERO ISZERO DUP5 ISZERO ISZERO EQ PUSH2 0x211A JUMPI DUP4 ISZERO PUSH2 0x2099 JUMPI PUSH2 0x205D DUP4 PUSH32 0x1450EB8D0693284079F6627B2C1C6BB2E076066E44DF1B18BA6EA7CC507E9BCB PUSH2 0x3A5F SWAP1 SWAP2 SWAP1 PUSH4 0xFFFFFFFF AND JUMP JUMPDEST PUSH32 0x47F03B07E5B5377F871539BB2942F5ECB72733BE9FC9D55A17B6D6A05D418345 DUP4 PUSH1 0x40 MLOAD PUSH2 0x208C SWAP2 SWAP1 PUSH2 0x7F00 JUMP JUMPDEST PUSH1 0x40 MLOAD DUP1 SWAP2 SUB SWAP1 LOG1 PUSH2 0x2119 JUMP JUMPDEST PUSH2 0x20EC PUSH32 0xFFFFFFFFFFFFFFFFFFFFFFFFFFFFFFFFFFFFFFFFFFFFFFFFFFFFFFFFFFFFFFFF PUSH32 0x1450EB8D0693284079F6627B2C1C6BB2E076066E44DF1B18BA6EA7CC507E9BCB PUSH2 0x3A5F SWAP1 SWAP2 SWAP1 PUSH4 0xFFFFFFFF AND JUMP JUMPDEST PUSH32 0xD1F8A2998C0CAF73E09434AA93D273A599060D789407C6F70CCD4C9C9F32C8F4 PUSH1 0x40 MLOAD PUSH1 0x40 MLOAD DUP1 SWAP2 SUB SWAP1 LOG1 JUMPDEST JUMPDEST POP POP POP POP JUMP JUMPDEST PUSH1 0x0 PUSH2 0x214B PUSH32 0x1450EB8D0693284079F6627B2C1C6BB2E076066E44DF1B18BA6EA7CC507E9BCB PUSH2 0x4014 JUMP JUMPDEST SWAP1 POP SWAP1 JUMP JUMPDEST PUSH1 0x0 DUP1 SHL DUP2 JUMP JUMPDEST PUSH2 0x2162 CALLER DUP4 DUP4 PUSH2 0x4C33 JUMP JUMPDEST POP POP JUMP JUMPDEST PUSH32 0xFFFFFFFFFFFFFFFFFFFFFFFFFFFFFFFFFFFFFFFFFFFFFFFFFFFFFFFFFFFFFFFF DUP2 JUMP JUMPDEST PUSH1 0x0 DUP1 PUSH1 0x0 DUP4 EQ ISZERO PUSH2 0x21C8 JUMPI PUSH1 0x40 MLOAD PUSH32 0xE4E9735700000000000000000000000000000000000000000000000000000000 DUP2 MSTORE PUSH1 0x4 ADD PUSH1 0x40 MLOAD DUP1 SWAP2 SUB SWAP1 REVERT JUMPDEST PUSH1 0x0 DUP6 DUP6 SWAP1 POP EQ ISZERO PUSH2 0x2206 JUMPI PUSH1 0x40 MLOAD PUSH32 0x12DE1DF300000000000000000000000000000000000000000000000000000000 DUP2 MSTORE PUSH1 0x4 ADD PUSH1 0x40 MLOAD DUP1 SWAP2 SUB SWAP1 REVERT JUMPDEST PUSH2 0x220E PUSH2 0x169E JUMP JUMPDEST DUP6 DUP6 PUSH1 0x0 DUP2 DUP2 LT PUSH2 0x2222 JUMPI PUSH2 0x2221 PUSH2 0x8D55 JUMP JUMPDEST JUMPDEST SWAP1 POP PUSH1 0x20 MUL ADD CALLDATALOAD GT PUSH2 0x2285 JUMPI DUP5 DUP5 PUSH1 0x0 DUP2 DUP2 LT PUSH2 0x2242 JUMPI PUSH2 0x2241 PUSH2 0x8D55 JUMP JUMPDEST JUMPDEST SWAP1 POP PUSH1 0x20 MUL ADD CALLDATALOAD PUSH1 0x40 MLOAD PUSH32 0xC969E0F200000000000000000000000000000000000000000000000000000000 DUP2 MSTORE PUSH1 0x4 ADD PUSH2 0x227C SWAP2 SWAP1 PUSH2 0x7F00 JUMP JUMPDEST PUSH1 0x40 MLOAD DUP1 SWAP2 SUB SWAP1 REVERT JUMPDEST PUSH2 0x228D PUSH2 0x149A JUMP JUMPDEST DUP6 DUP6 PUSH1 0x1 DUP9 DUP9 SWAP1 POP PUSH2 0x229F SWAP2 SWAP1 PUSH2 0x9024 JUMP JUMPDEST DUP2 DUP2 LT PUSH2 0x22AF JUMPI PUSH2 0x22AE PUSH2 0x8D55 JUMP JUMPDEST JUMPDEST SWAP1 POP PUSH1 0x20 MUL ADD CALLDATALOAD GT ISZERO PUSH2 0x2321 JUMPI DUP5 DUP5 PUSH1 0x1 DUP8 DUP8 SWAP1 POP PUSH2 0x22CE SWAP2 SWAP1 PUSH2 0x9024 JUMP JUMPDEST DUP2 DUP2 LT PUSH2 0x22DE JUMPI PUSH2 0x22DD PUSH2 0x8D55 JUMP JUMPDEST JUMPDEST SWAP1 POP PUSH1 0x20 MUL ADD CALLDATALOAD PUSH1 0x40 MLOAD PUSH32 0xC969E0F200000000000000000000000000000000000000000000000000000000 DUP2 MSTORE PUSH1 0x4 ADD PUSH2 0x2318 SWAP2 SWAP1 PUSH2 0x7F00 JUMP JUMPDEST PUSH1 0x40 MLOAD DUP1 SWAP2 SUB SWAP1 REVERT JUMPDEST PUSH1 0x0 DUP1 PUSH2 0x232C PUSH2 0x169E JUMP JUMPDEST SWAP1 POP PUSH1 0x0 PUSH2 0x2338 PUSH2 0x4B1F JUMP JUMPDEST PUSH1 0x0 DUP4 DUP2 MSTORE PUSH1 0x20 ADD SWAP1 DUP2 MSTORE PUSH1 0x20 ADD PUSH1 0x0 KECCAK256 PUSH1 0x40 MLOAD DUP1 PUSH1 0xC0 ADD PUSH1 0x40 MSTORE SWAP1 DUP2 PUSH1 0x0 DUP3 ADD PUSH1 0x0 SWAP1 SLOAD SWAP1 PUSH2 0x100 EXP SWAP1 DIV PUSH16 0xFFFFFFFFFFFFFFFFFFFFFFFFFFFFFFFF AND PUSH16 0xFFFFFFFFFFFFFFFFFFFFFFFFFFFFFFFF AND PUSH16 0xFFFFFFFFFFFFFFFFFFFFFFFFFFFFFFFF AND DUP2 MSTORE PUSH1 0x20 ADD PUSH1 0x0 DUP3 ADD PUSH1 0x10 SWAP1 SLOAD SWAP1 PUSH2 0x100 EXP SWAP1 DIV PUSH16 0xFFFFFFFFFFFFFFFFFFFFFFFFFFFFFFFF AND PUSH16 0xFFFFFFFFFFFFFFFFFFFFFFFFFFFFFFFF AND PUSH16 0xFFFFFFFFFFFFFFFFFFFFFFFFFFFFFFFF AND DUP2 MSTORE PUSH1 0x20 ADD PUSH1 0x1 DUP3 ADD PUSH1 0x0 SWAP1 SLOAD SWAP1 PUSH2 0x100 EXP SWAP1 DIV PUSH20 0xFFFFFFFFFFFFFFFFFFFFFFFFFFFFFFFFFFFFFFFF AND PUSH20 0xFFFFFFFFFFFFFFFFFFFFFFFFFFFFFFFFFFFFFFFF AND PUSH20 0xFFFFFFFFFFFFFFFFFFFFFFFFFFFFFFFFFFFFFFFF AND DUP2 MSTORE PUSH1 0x20 ADD PUSH1 0x1 DUP3 ADD PUSH1 0x14 SWAP1 SLOAD SWAP1 PUSH2 0x100 EXP SWAP1 DIV PUSH5 0xFFFFFFFFFF AND PUSH5 0xFFFFFFFFFF AND PUSH5 0xFFFFFFFFFF AND DUP2 MSTORE PUSH1 0x20 ADD PUSH1 0x1 DUP3 ADD PUSH1 0x19 SWAP1 SLOAD SWAP1 PUSH2 0x100 EXP SWAP1 DIV PUSH1 0xFF AND ISZERO ISZERO ISZERO ISZERO DUP2 MSTORE PUSH1 0x20 ADD PUSH1 0x1 DUP3 ADD PUSH1 0x1A SWAP1 SLOAD SWAP1 PUSH2 0x100 EXP SWAP1 DIV PUSH5 0xFFFFFFFFFF AND PUSH5 0xFFFFFFFFFF AND PUSH5 0xFFFFFFFFFF AND DUP2 MSTORE POP POP SWAP1 POP JUMPDEST DUP8 DUP8 SWAP1 POP DUP4 LT ISZERO PUSH2 0x2714 JUMPI PUSH1 0x0 DUP9 DUP9 DUP6 DUP2 DUP2 LT PUSH2 0x24CE JUMPI PUSH2 0x24CD PUSH2 0x8D55 JUMP JUMPDEST JUMPDEST SWAP1 POP PUSH1 0x20 MUL ADD CALLDATALOAD SWAP1 POP DUP3 DUP2 GT PUSH2 0x2510 JUMPI PUSH1 0x40 MLOAD PUSH32 0xCDF129C400000000000000000000000000000000000000000000000000000000 DUP2 MSTORE PUSH1 0x4 ADD PUSH1 0x40 MLOAD DUP1 SWAP2 SUB SWAP1 REVERT JUMPDEST PUSH1 0x0 PUSH2 0x251A PUSH2 0x4B1F JUMP JUMPDEST PUSH1 0x0 DUP4 DUP2 MSTORE PUSH1 0x20 ADD SWAP1 DUP2 MSTORE PUSH1 0x20 ADD PUSH1 0x0 KECCAK256 PUSH1 0x40 MLOAD DUP1 PUSH1 0xC0 ADD PUSH1 0x40 MSTORE SWAP1 DUP2 PUSH1 0x0 DUP3 ADD PUSH1 0x0 SWAP1 SLOAD SWAP1 PUSH2 0x100 EXP SWAP1 DIV PUSH16 0xFFFFFFFFFFFFFFFFFFFFFFFFFFFFFFFF AND PUSH16 0xFFFFFFFFFFFFFFFFFFFFFFFFFFFFFFFF AND PUSH16 0xFFFFFFFFFFFFFFFFFFFFFFFFFFFFFFFF AND DUP2 MSTORE PUSH1 0x20 ADD PUSH1 0x0 DUP3 ADD PUSH1 0x10 SWAP1 SLOAD SWAP1 PUSH2 0x100 EXP SWAP1 DIV PUSH16 0xFFFFFFFFFFFFFFFFFFFFFFFFFFFFFFFF AND PUSH16 0xFFFFFFFFFFFFFFFFFFFFFFFFFFFFFFFF AND PUSH16 0xFFFFFFFFFFFFFFFFFFFFFFFFFFFFFFFF AND DUP2 MSTORE PUSH1 0x20 ADD PUSH1 0x1 DUP3 ADD PUSH1 0x0 SWAP1 SLOAD SWAP1 PUSH2 0x100 EXP SWAP1 DIV PUSH20 0xFFFFFFFFFFFFFFFFFFFFFFFFFFFFFFFFFFFFFFFF AND PUSH20 0xFFFFFFFFFFFFFFFFFFFFFFFFFFFFFFFFFFFFFFFF AND PUSH20 0xFFFFFFFFFFFFFFFFFFFFFFFFFFFFFFFFFFFFFFFF AND DUP2 MSTORE PUSH1 0x20 ADD PUSH1 0x1 DUP3 ADD PUSH1 0x14 SWAP1 SLOAD SWAP1 PUSH2 0x100 EXP SWAP1 DIV PUSH5 0xFFFFFFFFFF AND PUSH5 0xFFFFFFFFFF AND PUSH5 0xFFFFFFFFFF AND DUP2 MSTORE PUSH1 0x20 ADD PUSH1 0x1 DUP3 ADD PUSH1 0x19 SWAP1 SLOAD SWAP1 PUSH2 0x100 EXP SWAP1 DIV PUSH1 0xFF AND ISZERO ISZERO ISZERO ISZERO DUP2 MSTORE PUSH1 0x20 ADD PUSH1 0x1 DUP3 ADD PUSH1 0x1A SWAP1 SLOAD SWAP1 PUSH2 0x100 EXP SWAP1 DIV PUSH5 0xFFFFFFFFFF AND PUSH5 0xFFFFFFFFFF AND PUSH5 0xFFFFFFFFFF AND DUP2 MSTORE POP POP SWAP1 POP PUSH1 0x0 DUP1 PUSH1 0x0 PUSH2 0x269E DUP7 DUP6 PUSH2 0x4D9D JUMP JUMPDEST SWAP3 POP SWAP3 POP SWAP3 POP DUP11 DUP4 GT ISZERO PUSH2 0x26E1 JUMPI PUSH12 0x33B2E3C9FD0803CE8000000 DUP12 DUP3 PUSH2 0x26C5 SWAP2 SWAP1 PUSH2 0x9058 JUMP JUMPDEST PUSH2 0x26CF SWAP2 SWAP1 PUSH2 0x90E1 JUMP JUMPDEST DUP11 PUSH2 0x26DA SWAP2 SWAP1 PUSH2 0x9112 JUMP JUMPDEST SWAP10 POP PUSH2 0x26F0 JUMP JUMPDEST DUP2 DUP11 PUSH2 0x26ED SWAP2 SWAP1 PUSH2 0x9112 JUMP JUMPDEST SWAP10 POP JUMPDEST DUP1 DUP10 PUSH2 0x26FC SWAP2 SWAP1 PUSH2 0x9112 JUMP JUMPDEST SWAP9 POP DUP5 SWAP7 POP DUP4 SWAP6 POP DUP8 PUSH1 0x1 ADD SWAP8 POP POP POP POP POP POP PUSH2 0x24AE JUMP JUMPDEST POP POP POP SWAP4 POP SWAP4 SWAP2 POP POP JUMP JUMPDEST PUSH32 0x139C2898040EF16910DC9F44DC697DF79363DA767D8BC92F2E310312B816E46D PUSH2 0x2751 DUP2 PUSH2 0x274C PUSH2 0x44E9 JUMP JUMPDEST PUSH2 0x3AE0 JUMP JUMPDEST PUSH2 0x275A DUP3 PUSH2 0x4E1E JUMP JUMPDEST POP POP JUMP JUMPDEST PUSH1 0x60 PUSH32 0x0 PUSH20 0xFFFFFFFFFFFFFFFFFFFFFFFFFFFFFFFFFFFFFFFF AND PUSH4 0xD505ACCF CALLER ADDRESS DUP6 PUSH1 0x0 ADD CALLDATALOAD DUP7 PUSH1 0x20 ADD CALLDATALOAD DUP8 PUSH1 0x40 ADD PUSH1 0x20 DUP2 ADD SWAP1 PUSH2 0x27BB SWAP2 SWAP1 PUSH2 0x8F79 JUMP JUMPDEST DUP9 PUSH1 0x60 ADD CALLDATALOAD DUP10 PUSH1 0x80 ADD CALLDATALOAD PUSH1 0x40 MLOAD DUP9 PUSH4 0xFFFFFFFF AND PUSH1 0xE0 SHL DUP2 MSTORE PUSH1 0x4 ADD PUSH2 0x27E7 SWAP8 SWAP7 SWAP6 SWAP5 SWAP4 SWAP3 SWAP2 SWAP1 PUSH2 0x8FB5 JUMP JUMPDEST PUSH1 0x0 PUSH1 0x40 MLOAD DUP1 DUP4 SUB DUP2 PUSH1 0x0 DUP8 DUP1 EXTCODESIZE ISZERO DUP1 ISZERO PUSH2 0x2801 JUMPI PUSH1 0x0 DUP1 REVERT JUMPDEST POP GAS CALL ISZERO DUP1 ISZERO PUSH2 0x2815 JUMPI RETURNDATASIZE PUSH1 0x0 DUP1 RETURNDATACOPY RETURNDATASIZE PUSH1 0x0 REVERT JUMPDEST POP POP POP POP PUSH2 0x2824 DUP6 DUP6 DUP6 PUSH2 0x2DEF JUMP JUMPDEST SWAP1 POP SWAP5 SWAP4 POP POP POP POP JUMP JUMPDEST PUSH1 0x0 PUSH2 0x2859 PUSH32 0xE8B012900CB200EE5DFC3B895A32791B67D12891B09F117814F167A237783A02 PUSH2 0x4014 JUMP JUMPDEST TIMESTAMP LT SWAP1 POP SWAP1 JUMP JUMPDEST PUSH2 0x2868 PUSH2 0x3D9B JUMP JUMPDEST PUSH2 0x2892 PUSH32 0x485191A2EF18512555BD4426D18A716CE8E98C80EC2DE16394DCF86D7D91BC80 CALLER PUSH2 0x3AE0 JUMP JUMPDEST PUSH1 0x0 PUSH1 0x1 PUSH2 0x289E PUSH2 0x169E JUMP JUMPDEST PUSH2 0x28A8 SWAP2 SWAP1 PUSH2 0x9112 JUMP JUMPDEST SWAP1 POP PUSH2 0x28B5 DUP4 CALLVALUE DUP5 PUSH2 0x4ECE JUMP JUMPDEST PUSH32 0x6BD5C950A8D8DF17F772F5AF37CB3655737899CBF903264B9795592DA439661C DUP2 PUSH2 0x28DF PUSH2 0x149A JUMP JUMPDEST PUSH1 0x40 MLOAD PUSH2 0x28ED SWAP3 SWAP2 SWAP1 PUSH2 0x857C JUMP JUMPDEST PUSH1 0x40 MLOAD DUP1 SWAP2 SUB SWAP1 LOG1 POP POP POP JUMP JUMPDEST PUSH32 0xBE882725F03F148E7C5A5E63EC45F182F7DCDB6BB8B92311ADE5A6D138E0EE0F DUP2 JUMP JUMPDEST PUSH2 0x2929 DUP5 DUP5 DUP5 PUSH2 0x401F JUMP JUMPDEST PUSH2 0x2935 DUP5 DUP5 DUP5 DUP5 PUSH2 0x53DB JUMP JUMPDEST PUSH2 0x2976 JUMPI DUP3 PUSH1 0x40 MLOAD PUSH32 0x9F844E300000000000000000000000000000000000000000000000000000000 DUP2 MSTORE PUSH1 0x4 ADD PUSH2 0x296D SWAP2 SWAP1 PUSH2 0x7E6A JUMP JUMPDEST PUSH1 0x40 MLOAD DUP1 SWAP2 SUB SWAP1 REVERT JUMPDEST POP POP POP POP JUMP JUMPDEST PUSH1 0x60 DUP3 DUP3 SWAP1 POP PUSH8 0xFFFFFFFFFFFFFFFF DUP2 GT ISZERO PUSH2 0x299B JUMPI PUSH2 0x299A PUSH2 0x85EA JUMP JUMPDEST JUMPDEST PUSH1 0x40 MLOAD SWAP1 DUP1 DUP3 MSTORE DUP1 PUSH1 0x20 MUL PUSH1 0x20 ADD DUP3 ADD PUSH1 0x40 MSTORE DUP1 ISZERO PUSH2 0x29D4 JUMPI DUP2 PUSH1 0x20 ADD JUMPDEST PUSH2 0x29C1 PUSH2 0x7AC8 JUMP JUMPDEST DUP2 MSTORE PUSH1 0x20 ADD SWAP1 PUSH1 0x1 SWAP1 SUB SWAP1 DUP2 PUSH2 0x29B9 JUMPI SWAP1 POP JUMPDEST POP SWAP1 POP PUSH1 0x0 JUMPDEST DUP4 DUP4 SWAP1 POP DUP2 LT ISZERO PUSH2 0x2A36 JUMPI PUSH2 0x2A07 DUP5 DUP5 DUP4 DUP2 DUP2 LT PUSH2 0x29FB JUMPI PUSH2 0x29FA PUSH2 0x8D55 JUMP JUMPDEST JUMPDEST SWAP1 POP PUSH1 0x20 MUL ADD CALLDATALOAD PUSH2 0x556D JUMP JUMPDEST DUP3 DUP3 DUP2 MLOAD DUP2 LT PUSH2 0x2A1A JUMPI PUSH2 0x2A19 PUSH2 0x8D55 JUMP JUMPDEST JUMPDEST PUSH1 0x20 MUL PUSH1 0x20 ADD ADD DUP2 SWAP1 MSTORE POP DUP1 PUSH2 0x2A2F SWAP1 PUSH2 0x8DB3 JUMP JUMPDEST SWAP1 POP PUSH2 0x29DA JUMP JUMPDEST POP SWAP3 SWAP2 POP POP JUMP JUMPDEST PUSH1 0x0 PUSH2 0x2A47 PUSH2 0x169E JUMP JUMPDEST PUSH2 0x2A4F PUSH2 0x149A JUMP JUMPDEST PUSH2 0x2A59 SWAP2 SWAP1 PUSH2 0x9024 JUMP JUMPDEST SWAP1 POP SWAP1 JUMP JUMPDEST PUSH1 0x0 PUSH20 0xFFFFFFFFFFFFFFFFFFFFFFFFFFFFFFFFFFFFFFFF AND DUP2 PUSH20 0xFFFFFFFFFFFFFFFFFFFFFFFFFFFFFFFFFFFFFFFF AND EQ ISZERO PUSH2 0x2AC5 JUMPI PUSH1 0x40 MLOAD PUSH32 0x2D715C200000000000000000000000000000000000000000000000000000000 DUP2 MSTORE PUSH1 0x4 ADD PUSH1 0x40 MLOAD DUP1 SWAP2 SUB SWAP1 REVERT JUMPDEST PUSH2 0x2ACE DUP2 PUSH2 0x598D JUMP JUMPDEST POP JUMP JUMPDEST PUSH1 0x60 PUSH2 0x2ADC DUP3 PUSH2 0x3C5A JUMP JUMPDEST PUSH2 0x2B1D JUMPI DUP2 PUSH1 0x40 MLOAD PUSH32 0xC969E0F200000000000000000000000000000000000000000000000000000000 DUP2 MSTORE PUSH1 0x4 ADD PUSH2 0x2B14 SWAP2 SWAP1 PUSH2 0x7F00 JUMP JUMPDEST PUSH1 0x40 MLOAD DUP1 SWAP2 SUB SWAP1 REVERT JUMPDEST PUSH1 0x0 PUSH2 0x2B48 PUSH32 0x2A81836F39B1062C2144EF0B520C964F50C3AF430524CC6F585FF0AA7DD48C72 PUSH2 0x4565 JUMP JUMPDEST SWAP1 POP PUSH1 0x0 PUSH20 0xFFFFFFFFFFFFFFFFFFFFFFFFFFFFFFFFFFFFFFFF AND DUP2 PUSH20 0xFFFFFFFFFFFFFFFFFFFFFFFFFFFFFFFFFFFFFFFF AND EQ PUSH2 0x2C14 JUMPI DUP1 PUSH20 0xFFFFFFFFFFFFFFFFFFFFFFFFFFFFFFFFFFFFFFFF AND PUSH4 0x894B4C2E DUP5 PUSH1 0x40 MLOAD DUP3 PUSH4 0xFFFFFFFF AND PUSH1 0xE0 SHL DUP2 MSTORE PUSH1 0x4 ADD PUSH2 0x2BB7 SWAP2 SWAP1 PUSH2 0x7F00 JUMP JUMPDEST PUSH1 0x0 PUSH1 0x40 MLOAD DUP1 DUP4 SUB DUP2 DUP7 DUP1 EXTCODESIZE ISZERO DUP1 ISZERO PUSH2 0x2BCF JUMPI PUSH1 0x0 DUP1 REVERT JUMPDEST POP GAS STATICCALL ISZERO DUP1 ISZERO PUSH2 0x2BE3 JUMPI RETURNDATASIZE PUSH1 0x0 DUP1 RETURNDATACOPY RETURNDATASIZE PUSH1 0x0 REVERT JUMPDEST POP POP POP POP PUSH1 0x40 MLOAD RETURNDATASIZE PUSH1 0x0 DUP3 RETURNDATACOPY RETURNDATASIZE PUSH1 0x1F NOT PUSH1 0x1F DUP3 ADD AND DUP3 ADD DUP1 PUSH1 0x40 MSTORE POP DUP2 ADD SWAP1 PUSH2 0x2C0C SWAP2 SWAP1 PUSH2 0x9209 JUMP JUMPDEST SWAP2 POP POP PUSH2 0x2C21 JUMP JUMPDEST PUSH2 0x2C1D DUP4 PUSH2 0x5A62 JUMP JUMPDEST SWAP2 POP POP JUMPDEST SWAP2 SWAP1 POP JUMP JUMPDEST PUSH1 0x60 DUP5 DUP5 SWAP1 POP PUSH8 0xFFFFFFFFFFFFFFFF DUP2 GT ISZERO PUSH2 0x2C45 JUMPI PUSH2 0x2C44 PUSH2 0x85EA JUMP JUMPDEST JUMPDEST PUSH1 0x40 MLOAD SWAP1 DUP1 DUP3 MSTORE DUP1 PUSH1 0x20 MUL PUSH1 0x20 ADD DUP3 ADD PUSH1 0x40 MSTORE DUP1 ISZERO PUSH2 0x2C73 JUMPI DUP2 PUSH1 0x20 ADD PUSH1 0x20 DUP3 MUL DUP1 CALLDATASIZE DUP4 CALLDATACOPY DUP1 DUP3 ADD SWAP2 POP POP SWAP1 POP JUMPDEST POP SWAP1 POP PUSH1 0x0 JUMPDEST DUP6 DUP6 SWAP1 POP DUP2 LT ISZERO PUSH2 0x2CF0 JUMPI PUSH2 0x2CC0 DUP7 DUP7 DUP4 DUP2 DUP2 LT PUSH2 0x2C9A JUMPI PUSH2 0x2C99 PUSH2 0x8D55 JUMP JUMPDEST JUMPDEST SWAP1 POP PUSH1 0x20 MUL ADD CALLDATALOAD DUP6 DUP6 DUP5 DUP2 DUP2 LT PUSH2 0x2CB4 JUMPI PUSH2 0x2CB3 PUSH2 0x8D55 JUMP JUMPDEST JUMPDEST SWAP1 POP PUSH1 0x20 MUL ADD CALLDATALOAD PUSH2 0x5D72 JUMP JUMPDEST DUP3 DUP3 DUP2 MLOAD DUP2 LT PUSH2 0x2CD3 JUMPI PUSH2 0x2CD2 PUSH2 0x8D55 JUMP JUMPDEST JUMPDEST PUSH1 0x20 MUL PUSH1 0x20 ADD ADD DUP2 DUP2 MSTORE POP POP DUP1 PUSH2 0x2CE9 SWAP1 PUSH2 0x8DB3 JUMP JUMPDEST SWAP1 POP PUSH2 0x2C79 JUMP JUMPDEST POP SWAP5 SWAP4 POP POP POP POP JUMP JUMPDEST PUSH1 0x0 PUSH2 0x2D1C PUSH2 0x2D06 PUSH2 0x4BAF JUMP JUMPDEST PUSH1 0x0 DUP5 DUP2 MSTORE PUSH1 0x20 ADD SWAP1 DUP2 MSTORE PUSH1 0x20 ADD PUSH1 0x0 KECCAK256 PUSH2 0x5E35 JUMP JUMPDEST SWAP1 POP SWAP2 SWAP1 POP JUMP JUMPDEST PUSH1 0x0 PUSH2 0x2D2D PUSH2 0x4B1F JUMP JUMPDEST PUSH1 0x0 PUSH2 0x2D37 PUSH2 0x169E JUMP JUMPDEST DUP2 MSTORE PUSH1 0x20 ADD SWAP1 DUP2 MSTORE PUSH1 0x20 ADD PUSH1 0x0 KECCAK256 PUSH1 0x0 ADD PUSH1 0x0 SWAP1 SLOAD SWAP1 PUSH2 0x100 EXP SWAP1 DIV PUSH16 0xFFFFFFFFFFFFFFFFFFFFFFFFFFFFFFFF AND PUSH2 0x2D6D PUSH2 0x4B1F JUMP JUMPDEST PUSH1 0x0 PUSH2 0x2D77 PUSH2 0x149A JUMP JUMPDEST DUP2 MSTORE PUSH1 0x20 ADD SWAP1 DUP2 MSTORE PUSH1 0x20 ADD PUSH1 0x0 KECCAK256 PUSH1 0x0 ADD PUSH1 0x0 SWAP1 SLOAD SWAP1 PUSH2 0x100 EXP SWAP1 DIV PUSH16 0xFFFFFFFFFFFFFFFFFFFFFFFFFFFFFFFF AND PUSH2 0x2DAF SWAP2 SWAP1 PUSH2 0x926E JUMP JUMPDEST PUSH16 0xFFFFFFFFFFFFFFFFFFFFFFFFFFFFFFFF AND SWAP1 POP SWAP1 JUMP JUMPDEST PUSH2 0x2DCF DUP3 PUSH2 0x14FE JUMP JUMPDEST PUSH2 0x2DE0 DUP2 PUSH2 0x2DDB PUSH2 0x44E9 JUMP JUMPDEST PUSH2 0x3AE0 JUMP JUMPDEST PUSH2 0x2DEA DUP4 DUP4 PUSH2 0x452B JUMP JUMPDEST POP POP POP JUMP JUMPDEST PUSH1 0x60 PUSH2 0x2DF9 PUSH2 0x3D9B JUMP JUMPDEST PUSH1 0x0 PUSH20 0xFFFFFFFFFFFFFFFFFFFFFFFFFFFFFFFFFFFFFFFF AND DUP3 PUSH20 0xFFFFFFFFFFFFFFFFFFFFFFFFFFFFFFFFFFFFFFFF AND EQ ISZERO PUSH2 0x2E32 JUMPI CALLER SWAP2 POP JUMPDEST DUP4 DUP4 SWAP1 POP PUSH8 0xFFFFFFFFFFFFFFFF DUP2 GT ISZERO PUSH2 0x2E4F JUMPI PUSH2 0x2E4E PUSH2 0x85EA JUMP JUMPDEST JUMPDEST PUSH1 0x40 MLOAD SWAP1 DUP1 DUP3 MSTORE DUP1 PUSH1 0x20 MUL PUSH1 0x20 ADD DUP3 ADD PUSH1 0x40 MSTORE DUP1 ISZERO PUSH2 0x2E7D JUMPI DUP2 PUSH1 0x20 ADD PUSH1 0x20 DUP3 MUL DUP1 CALLDATASIZE DUP4 CALLDATACOPY DUP1 DUP3 ADD SWAP2 POP POP SWAP1 POP JUMPDEST POP SWAP1 POP PUSH1 0x0 JUMPDEST DUP5 DUP5 SWAP1 POP DUP2 LT ISZERO PUSH2 0x2F03 JUMPI PUSH2 0x2EB0 DUP6 DUP6 DUP4 DUP2 DUP2 LT PUSH2 0x2EA4 JUMPI PUSH2 0x2EA3 PUSH2 0x8D55 JUMP JUMPDEST JUMPDEST SWAP1 POP PUSH1 0x20 MUL ADD CALLDATALOAD PUSH2 0x5E4A JUMP JUMPDEST PUSH2 0x2ED3 DUP6 DUP6 DUP4 DUP2 DUP2 LT PUSH2 0x2EC6 JUMPI PUSH2 0x2EC5 PUSH2 0x8D55 JUMP JUMPDEST JUMPDEST SWAP1 POP PUSH1 0x20 MUL ADD CALLDATALOAD DUP5 PUSH2 0x5EE1 JUMP JUMPDEST DUP3 DUP3 DUP2 MLOAD DUP2 LT PUSH2 0x2EE6 JUMPI PUSH2 0x2EE5 PUSH2 0x8D55 JUMP JUMPDEST JUMPDEST PUSH1 0x20 MUL PUSH1 0x20 ADD ADD DUP2 DUP2 MSTORE POP POP DUP1 PUSH2 0x2EFC SWAP1 PUSH2 0x8DB3 JUMP JUMPDEST SWAP1 POP PUSH2 0x2E83 JUMP JUMPDEST POP SWAP4 SWAP3 POP POP POP JUMP JUMPDEST PUSH32 0x0 DUP2 JUMP JUMPDEST PUSH9 0x3635C9ADC5DEA00000 DUP2 JUMP JUMPDEST PUSH32 0x0 DUP2 JUMP JUMPDEST DUP2 DUP2 SWAP1 POP DUP5 DUP5 SWAP1 POP EQ PUSH2 0x2FB2 JUMPI DUP4 DUP4 SWAP1 POP DUP3 DUP3 SWAP1 POP PUSH1 0x40 MLOAD PUSH32 0x4C59BF2800000000000000000000000000000000000000000000000000000000 DUP2 MSTORE PUSH1 0x4 ADD PUSH2 0x2FA9 SWAP3 SWAP2 SWAP1 PUSH2 0x857C JUMP JUMPDEST PUSH1 0x40 MLOAD DUP1 SWAP2 SUB SWAP1 REVERT JUMPDEST PUSH1 0x0 JUMPDEST DUP5 DUP5 SWAP1 POP DUP2 LT ISZERO PUSH2 0x3033 JUMPI PUSH2 0x2FFD DUP6 DUP6 DUP4 DUP2 DUP2 LT PUSH2 0x2FD6 JUMPI PUSH2 0x2FD5 PUSH2 0x8D55 JUMP JUMPDEST JUMPDEST SWAP1 POP PUSH1 0x20 MUL ADD CALLDATALOAD DUP5 DUP5 DUP5 DUP2 DUP2 LT PUSH2 0x2FF0 JUMPI PUSH2 0x2FEF PUSH2 0x8D55 JUMP JUMPDEST JUMPDEST SWAP1 POP PUSH1 0x20 MUL ADD CALLDATALOAD CALLER PUSH2 0x459D JUMP JUMPDEST PUSH2 0x3022 CALLER PUSH1 0x0 DUP8 DUP8 DUP6 DUP2 DUP2 LT PUSH2 0x3016 JUMPI PUSH2 0x3015 PUSH2 0x8D55 JUMP JUMPDEST JUMPDEST SWAP1 POP PUSH1 0x20 MUL ADD CALLDATALOAD PUSH2 0x48A0 JUMP JUMPDEST DUP1 PUSH2 0x302C SWAP1 PUSH2 0x8DB3 JUMP JUMPDEST SWAP1 POP PUSH2 0x2FB5 JUMP JUMPDEST POP POP POP POP POP JUMP JUMPDEST PUSH32 0xFFFFFFFFFFFFFFFFFFFFFFFFFFFFFFFFFFFFFFFFFFFFFFFFFFFFFFFFFFFFFFFF DUP2 JUMP JUMPDEST PUSH1 0x0 PUSH2 0x3068 PUSH2 0x6060 JUMP JUMPDEST PUSH1 0x0 DUP5 PUSH20 0xFFFFFFFFFFFFFFFFFFFFFFFFFFFFFFFFFFFFFFFF AND PUSH20 0xFFFFFFFFFFFFFFFFFFFFFFFFFFFFFFFFFFFFFFFF AND DUP2 MSTORE PUSH1 0x20 ADD SWAP1 DUP2 MSTORE PUSH1 0x20 ADD PUSH1 0x0 KECCAK256 PUSH1 0x0 DUP4 PUSH20 0xFFFFFFFFFFFFFFFFFFFFFFFFFFFFFFFFFFFFFFFF AND PUSH20 0xFFFFFFFFFFFFFFFFFFFFFFFFFFFFFFFFFFFFFFFF AND DUP2 MSTORE PUSH1 0x20 ADD SWAP1 DUP2 MSTORE PUSH1 0x20 ADD PUSH1 0x0 KECCAK256 PUSH1 0x0 SWAP1 SLOAD SWAP1 PUSH2 0x100 EXP SWAP1 DIV PUSH1 0xFF AND SWAP1 POP SWAP3 SWAP2 POP POP JUMP JUMPDEST PUSH2 0x3100 PUSH2 0x7B18 JUMP JUMPDEST DUP2 PUSH1 0x20 ADD MLOAD DUP1 PUSH2 0x3114 JUMPI POP PUSH1 0x0 DUP3 PUSH1 0x0 ADD MLOAD EQ JUMPDEST ISZERO PUSH2 0x314B JUMPI PUSH1 0x40 MLOAD PUSH32 0xBAF3F0F700000000000000000000000000000000000000000000000000000000 DUP2 MSTORE PUSH1 0x4 ADD PUSH1 0x40 MLOAD DUP1 SWAP2 SUB SWAP1 REVERT JUMPDEST PUSH1 0x0 PUSH2 0x3155 PUSH2 0x7B48 JUMP JUMPDEST PUSH1 0x0 DUP1 DUP6 PUSH1 0x60 ADD MLOAD EQ ISZERO PUSH2 0x3307 JUMPI PUSH1 0x1 PUSH2 0x316D PUSH2 0x169E JUMP JUMPDEST PUSH2 0x3177 SWAP2 SWAP1 PUSH2 0x9112 JUMP JUMPDEST SWAP3 POP PUSH2 0x3181 PUSH2 0x4B1F JUMP JUMPDEST PUSH1 0x0 PUSH1 0x1 DUP6 PUSH2 0x3190 SWAP2 SWAP1 PUSH2 0x9024 JUMP JUMPDEST DUP2 MSTORE PUSH1 0x20 ADD SWAP1 DUP2 MSTORE PUSH1 0x20 ADD PUSH1 0x0 KECCAK256 PUSH1 0x40 MLOAD DUP1 PUSH1 0xC0 ADD PUSH1 0x40 MSTORE SWAP1 DUP2 PUSH1 0x0 DUP3 ADD PUSH1 0x0 SWAP1 SLOAD SWAP1 PUSH2 0x100 EXP SWAP1 DIV PUSH16 0xFFFFFFFFFFFFFFFFFFFFFFFFFFFFFFFF AND PUSH16 0xFFFFFFFFFFFFFFFFFFFFFFFFFFFFFFFF AND PUSH16 0xFFFFFFFFFFFFFFFFFFFFFFFFFFFFFFFF AND DUP2 MSTORE PUSH1 0x20 ADD PUSH1 0x0 DUP3 ADD PUSH1 0x10 SWAP1 SLOAD SWAP1 PUSH2 0x100 EXP SWAP1 DIV PUSH16 0xFFFFFFFFFFFFFFFFFFFFFFFFFFFFFFFF AND PUSH16 0xFFFFFFFFFFFFFFFFFFFFFFFFFFFFFFFF AND PUSH16 0xFFFFFFFFFFFFFFFFFFFFFFFFFFFFFFFF AND DUP2 MSTORE PUSH1 0x20 ADD PUSH1 0x1 DUP3 ADD PUSH1 0x0 SWAP1 SLOAD SWAP1 PUSH2 0x100 EXP SWAP1 DIV PUSH20 0xFFFFFFFFFFFFFFFFFFFFFFFFFFFFFFFFFFFFFFFF AND PUSH20 0xFFFFFFFFFFFFFFFFFFFFFFFFFFFFFFFFFFFFFFFF AND PUSH20 0xFFFFFFFFFFFFFFFFFFFFFFFFFFFFFFFFFFFFFFFF AND DUP2 MSTORE PUSH1 0x20 ADD PUSH1 0x1 DUP3 ADD PUSH1 0x14 SWAP1 SLOAD SWAP1 PUSH2 0x100 EXP SWAP1 DIV PUSH5 0xFFFFFFFFFF AND PUSH5 0xFFFFFFFFFF AND PUSH5 0xFFFFFFFFFF AND DUP2 MSTORE PUSH1 0x20 ADD PUSH1 0x1 DUP3 ADD PUSH1 0x19 SWAP1 SLOAD SWAP1 PUSH2 0x100 EXP SWAP1 DIV PUSH1 0xFF AND ISZERO ISZERO ISZERO ISZERO DUP2 MSTORE PUSH1 0x20 ADD PUSH1 0x1 DUP3 ADD PUSH1 0x1A SWAP1 SLOAD SWAP1 PUSH2 0x100 EXP SWAP1 DIV PUSH5 0xFFFFFFFFFF AND PUSH5 0xFFFFFFFFFF AND PUSH5 0xFFFFFFFFFF AND DUP2 MSTORE POP POP SWAP2 POP PUSH2 0x365C JUMP JUMPDEST PUSH1 0x0 DUP6 PUSH1 0x40 ADD MLOAD PUSH1 0x1 DUP8 PUSH1 0x60 ADD MLOAD PUSH2 0x331F SWAP2 SWAP1 PUSH2 0x9024 JUMP JUMPDEST PUSH1 0x24 DUP2 LT PUSH2 0x3330 JUMPI PUSH2 0x332F PUSH2 0x8D55 JUMP JUMPDEST JUMPDEST PUSH1 0x20 MUL ADD MLOAD SWAP1 POP PUSH1 0x1 DUP2 PUSH2 0x3344 SWAP2 SWAP1 PUSH2 0x9112 JUMP JUMPDEST SWAP4 POP PUSH2 0x334E PUSH2 0x4B1F JUMP JUMPDEST PUSH1 0x0 DUP3 DUP2 MSTORE PUSH1 0x20 ADD SWAP1 DUP2 MSTORE PUSH1 0x20 ADD PUSH1 0x0 KECCAK256 PUSH1 0x40 MLOAD DUP1 PUSH1 0xC0 ADD PUSH1 0x40 MSTORE SWAP1 DUP2 PUSH1 0x0 DUP3 ADD PUSH1 0x0 SWAP1 SLOAD SWAP1 PUSH2 0x100 EXP SWAP1 DIV PUSH16 0xFFFFFFFFFFFFFFFFFFFFFFFFFFFFFFFF AND PUSH16 0xFFFFFFFFFFFFFFFFFFFFFFFFFFFFFFFF AND PUSH16 0xFFFFFFFFFFFFFFFFFFFFFFFFFFFFFFFF AND DUP2 MSTORE PUSH1 0x20 ADD PUSH1 0x0 DUP3 ADD PUSH1 0x10 SWAP1 SLOAD SWAP1 PUSH2 0x100 EXP SWAP1 DIV PUSH16 0xFFFFFFFFFFFFFFFFFFFFFFFFFFFFFFFF AND PUSH16 0xFFFFFFFFFFFFFFFFFFFFFFFFFFFFFFFF AND PUSH16 0xFFFFFFFFFFFFFFFFFFFFFFFFFFFFFFFF AND DUP2 MSTORE PUSH1 0x20 ADD PUSH1 0x1 DUP3 ADD PUSH1 0x0 SWAP1 SLOAD SWAP1 PUSH2 0x100 EXP SWAP1 DIV PUSH20 0xFFFFFFFFFFFFFFFFFFFFFFFFFFFFFFFFFFFFFFFF AND PUSH20 0xFFFFFFFFFFFFFFFFFFFFFFFFFFFFFFFFFFFFFFFF AND PUSH20 0xFFFFFFFFFFFFFFFFFFFFFFFFFFFFFFFFFFFFFFFF AND DUP2 MSTORE PUSH1 0x20 ADD PUSH1 0x1 DUP3 ADD PUSH1 0x14 SWAP1 SLOAD SWAP1 PUSH2 0x100 EXP SWAP1 DIV PUSH5 0xFFFFFFFFFF AND PUSH5 0xFFFFFFFFFF AND PUSH5 0xFFFFFFFFFF AND DUP2 MSTORE PUSH1 0x20 ADD PUSH1 0x1 DUP3 ADD PUSH1 0x19 SWAP1 SLOAD SWAP1 PUSH2 0x100 EXP SWAP1 DIV PUSH1 0xFF AND ISZERO ISZERO ISZERO ISZERO DUP2 MSTORE PUSH1 0x20 ADD PUSH1 0x1 DUP3 ADD PUSH1 0x1A SWAP1 SLOAD SWAP1 PUSH2 0x100 EXP SWAP1 DIV PUSH5 0xFFFFFFFFFF AND PUSH5 0xFFFFFFFFFF AND PUSH5 0xFFFFFFFFFF AND DUP2 MSTORE POP POP SWAP3 POP PUSH2 0x3653 PUSH2 0x34CE PUSH2 0x4B1F JUMP JUMPDEST PUSH1 0x0 PUSH1 0x1 DUP5 PUSH2 0x34DD SWAP2 SWAP1 PUSH2 0x9024 JUMP JUMPDEST DUP2 MSTORE PUSH1 0x20 ADD SWAP1 DUP2 MSTORE PUSH1 0x20 ADD PUSH1 0x0 KECCAK256 PUSH1 0x40 MLOAD DUP1 PUSH1 0xC0 ADD PUSH1 0x40 MSTORE SWAP1 DUP2 PUSH1 0x0 DUP3 ADD PUSH1 0x0 SWAP1 SLOAD SWAP1 PUSH2 0x100 EXP SWAP1 DIV PUSH16 0xFFFFFFFFFFFFFFFFFFFFFFFFFFFFFFFF AND PUSH16 0xFFFFFFFFFFFFFFFFFFFFFFFFFFFFFFFF AND PUSH16 0xFFFFFFFFFFFFFFFFFFFFFFFFFFFFFFFF AND DUP2 MSTORE PUSH1 0x20 ADD PUSH1 0x0 DUP3 ADD PUSH1 0x10 SWAP1 SLOAD SWAP1 PUSH2 0x100 EXP SWAP1 DIV PUSH16 0xFFFFFFFFFFFFFFFFFFFFFFFFFFFFFFFF AND PUSH16 0xFFFFFFFFFFFFFFFFFFFFFFFFFFFFFFFF AND PUSH16 0xFFFFFFFFFFFFFFFFFFFFFFFFFFFFFFFF AND DUP2 MSTORE PUSH1 0x20 ADD PUSH1 0x1 DUP3 ADD PUSH1 0x0 SWAP1 SLOAD SWAP1 PUSH2 0x100 EXP SWAP1 DIV PUSH20 0xFFFFFFFFFFFFFFFFFFFFFFFFFFFFFFFFFFFFFFFF AND PUSH20 0xFFFFFFFFFFFFFFFFFFFFFFFFFFFFFFFFFFFFFFFF AND PUSH20 0xFFFFFFFFFFFFFFFFFFFFFFFFFFFFFFFFFFFFFFFF AND DUP2 MSTORE PUSH1 0x20 ADD PUSH1 0x1 DUP3 ADD PUSH1 0x14 SWAP1 SLOAD SWAP1 PUSH2 0x100 EXP SWAP1 DIV PUSH5 0xFFFFFFFFFF AND PUSH5 0xFFFFFFFFFF AND PUSH5 0xFFFFFFFFFF AND DUP2 MSTORE PUSH1 0x20 ADD PUSH1 0x1 DUP3 ADD PUSH1 0x19 SWAP1 SLOAD SWAP1 PUSH2 0x100 EXP SWAP1 DIV PUSH1 0xFF AND ISZERO ISZERO ISZERO ISZERO DUP2 MSTORE PUSH1 0x20 ADD PUSH1 0x1 DUP3 ADD PUSH1 0x1A SWAP1 SLOAD SWAP1 PUSH2 0x100 EXP SWAP1 DIV PUSH5 0xFFFFFFFFFF AND PUSH5 0xFFFFFFFFFF AND PUSH5 0xFFFFFFFFFF AND DUP2 MSTORE POP POP DUP5 PUSH2 0x4D9D JUMP JUMPDEST SWAP1 POP POP DUP1 SWAP3 POP POP POP JUMPDEST PUSH1 0x0 DUP7 DUP5 PUSH2 0x366A SWAP2 SWAP1 PUSH2 0x9112 JUMP JUMPDEST SWAP1 POP PUSH1 0x0 PUSH1 0x1 PUSH2 0x3678 PUSH2 0x149A JUMP JUMPDEST PUSH2 0x3682 SWAP2 SWAP1 PUSH2 0x9112 JUMP JUMPDEST SWAP1 POP JUMPDEST DUP1 DUP6 LT DUP1 ISZERO PUSH2 0x3693 JUMPI POP DUP2 DUP6 LT JUMPDEST ISZERO PUSH2 0x3998 JUMPI PUSH1 0x0 PUSH2 0x36A2 PUSH2 0x4B1F JUMP JUMPDEST PUSH1 0x0 DUP8 DUP2 MSTORE PUSH1 0x20 ADD SWAP1 DUP2 MSTORE PUSH1 0x20 ADD PUSH1 0x0 KECCAK256 PUSH1 0x40 MLOAD DUP1 PUSH1 0xC0 ADD PUSH1 0x40 MSTORE SWAP1 DUP2 PUSH1 0x0 DUP3 ADD PUSH1 0x0 SWAP1 SLOAD SWAP1 PUSH2 0x100 EXP SWAP1 DIV PUSH16 0xFFFFFFFFFFFFFFFFFFFFFFFFFFFFFFFF AND PUSH16 0xFFFFFFFFFFFFFFFFFFFFFFFFFFFFFFFF AND PUSH16 0xFFFFFFFFFFFFFFFFFFFFFFFFFFFFFFFF AND DUP2 MSTORE PUSH1 0x20 ADD PUSH1 0x0 DUP3 ADD PUSH1 0x10 SWAP1 SLOAD SWAP1 PUSH2 0x100 EXP SWAP1 DIV PUSH16 0xFFFFFFFFFFFFFFFFFFFFFFFFFFFFFFFF AND PUSH16 0xFFFFFFFFFFFFFFFFFFFFFFFFFFFFFFFF AND PUSH16 0xFFFFFFFFFFFFFFFFFFFFFFFFFFFFFFFF AND DUP2 MSTORE PUSH1 0x20 ADD PUSH1 0x1 DUP3 ADD PUSH1 0x0 SWAP1 SLOAD SWAP1 PUSH2 0x100 EXP SWAP1 DIV PUSH20 0xFFFFFFFFFFFFFFFFFFFFFFFFFFFFFFFFFFFFFFFF AND PUSH20 0xFFFFFFFFFFFFFFFFFFFFFFFFFFFFFFFFFFFFFFFF AND PUSH20 0xFFFFFFFFFFFFFFFFFFFFFFFFFFFFFFFFFFFFFFFF AND DUP2 MSTORE PUSH1 0x20 ADD PUSH1 0x1 DUP3 ADD PUSH1 0x14 SWAP1 SLOAD SWAP1 PUSH2 0x100 EXP SWAP1 DIV PUSH5 0xFFFFFFFFFF AND PUSH5 0xFFFFFFFFFF AND PUSH5 0xFFFFFFFFFF AND DUP2 MSTORE PUSH1 0x20 ADD PUSH1 0x1 DUP3 ADD PUSH1 0x19 SWAP1 SLOAD SWAP1 PUSH2 0x100 EXP SWAP1 DIV PUSH1 0xFF AND ISZERO ISZERO ISZERO ISZERO DUP2 MSTORE PUSH1 0x20 ADD PUSH1 0x1 DUP3 ADD PUSH1 0x1A SWAP1 SLOAD SWAP1 PUSH2 0x100 EXP SWAP1 DIV PUSH5 0xFFFFFFFFFF AND PUSH5 0xFFFFFFFFFF AND PUSH5 0xFFFFFFFFFF AND DUP2 MSTORE POP POP SWAP1 POP DUP10 DUP2 PUSH1 0x60 ADD MLOAD PUSH5 0xFFFFFFFFFF AND GT ISZERO PUSH2 0x3830 JUMPI POP PUSH2 0x3998 JUMP JUMPDEST PUSH1 0x0 DUP1 PUSH1 0x0 PUSH2 0x383F DUP9 DUP6 PUSH2 0x4D9D JUMP JUMPDEST SWAP3 POP SWAP3 POP SWAP3 POP DUP14 DUP4 GT ISZERO PUSH2 0x3873 JUMPI PUSH12 0x33B2E3C9FD0803CE8000000 DUP15 DUP3 PUSH2 0x3866 SWAP2 SWAP1 PUSH2 0x9058 JUMP JUMPDEST PUSH2 0x3870 SWAP2 SWAP1 PUSH2 0x90E1 JUMP JUMPDEST SWAP2 POP JUMPDEST DUP11 PUSH1 0x0 ADD MLOAD DUP3 GT ISZERO PUSH2 0x3888 JUMPI POP POP POP POP PUSH2 0x3998 JUMP JUMPDEST DUP2 DUP12 PUSH1 0x0 ADD DUP2 DUP2 MLOAD PUSH2 0x389A SWAP2 SWAP1 PUSH2 0x9024 JUMP JUMPDEST SWAP2 POP DUP2 DUP2 MSTORE POP POP PUSH1 0x0 DUP12 PUSH1 0x60 ADD MLOAD EQ ISZERO DUP1 ISZERO PUSH2 0x38F7 JUMPI POP DUP4 PUSH1 0xA0 ADD MLOAD PUSH5 0xFFFFFFFFFF AND DUP9 PUSH1 0xA0 ADD MLOAD PUSH5 0xFFFFFFFFFF AND EQ DUP1 PUSH2 0x38E1 JUMPI POP DUP14 DUP8 GT ISZERO DUP1 ISZERO PUSH2 0x38E0 JUMPI POP DUP14 DUP4 GT ISZERO JUMPDEST JUMPDEST DUP1 PUSH2 0x38F6 JUMPI POP DUP14 DUP8 GT DUP1 ISZERO PUSH2 0x38F5 JUMPI POP DUP14 DUP4 GT JUMPDEST JUMPDEST JUMPDEST ISZERO PUSH2 0x3932 JUMPI DUP9 DUP12 PUSH1 0x40 ADD MLOAD PUSH1 0x1 DUP14 PUSH1 0x60 ADD MLOAD PUSH2 0x3913 SWAP2 SWAP1 PUSH2 0x9024 JUMP JUMPDEST PUSH1 0x24 DUP2 LT PUSH2 0x3924 JUMPI PUSH2 0x3923 PUSH2 0x8D55 JUMP JUMPDEST JUMPDEST PUSH1 0x20 MUL ADD DUP2 DUP2 MSTORE POP POP PUSH2 0x3983 JUMP JUMPDEST PUSH1 0x24 DUP12 PUSH1 0x60 ADD MLOAD EQ ISZERO PUSH2 0x3948 JUMPI POP POP POP POP PUSH2 0x3998 JUMP JUMPDEST DUP9 DUP12 PUSH1 0x40 ADD MLOAD DUP13 PUSH1 0x60 ADD MLOAD PUSH1 0x24 DUP2 LT PUSH2 0x3964 JUMPI PUSH2 0x3963 PUSH2 0x8D55 JUMP JUMPDEST JUMPDEST PUSH1 0x20 MUL ADD DUP2 DUP2 MSTORE POP POP DUP11 PUSH1 0x60 ADD DUP1 MLOAD PUSH2 0x397C SWAP1 PUSH2 0x8DB3 JUMP JUMPDEST SWAP1 DUP2 DUP2 MSTORE POP POP JUMPDEST DUP3 SWAP7 POP DUP4 SWAP8 POP DUP9 PUSH1 0x1 ADD SWAP9 POP POP POP POP POP PUSH2 0x3685 JUMP JUMPDEST DUP1 DUP6 EQ DUP1 PUSH2 0x39A5 JUMPI POP DUP2 DUP6 LT JUMPDEST DUP8 PUSH1 0x20 ADD SWAP1 ISZERO ISZERO SWAP1 DUP2 ISZERO ISZERO DUP2 MSTORE POP POP DUP7 SWAP6 POP POP POP POP POP POP SWAP5 SWAP4 POP POP POP POP JUMP JUMPDEST PUSH32 0x139C2898040EF16910DC9F44DC697DF79363DA767D8BC92F2E310312B816E46D PUSH2 0x39F6 DUP2 PUSH2 0x39F1 PUSH2 0x44E9 JUMP JUMPDEST PUSH2 0x3AE0 JUMP JUMPDEST PUSH2 0x39FF DUP3 PUSH2 0x6090 JUMP JUMPDEST POP POP JUMP JUMPDEST PUSH1 0x0 PUSH2 0x3A2E PUSH32 0xE27EAA2E71C8572AB988FEF0B54CD45BBD1740DE1E22343FB6CDA7536EDC12F PUSH2 0x4014 JUMP JUMPDEST SWAP1 POP SWAP1 JUMP JUMPDEST PUSH2 0x3A50 DUP2 PUSH2 0x3A4A DUP4 PUSH1 0x1 PUSH2 0x3A45 PUSH2 0x16CE JUMP JUMPDEST PUSH2 0x4900 JUMP JUMPDEST CALLER PUSH2 0x459D JUMP JUMPDEST PUSH2 0x3A5C CALLER PUSH1 0x0 DUP4 PUSH2 0x48A0 JUMP JUMPDEST POP JUMP JUMPDEST DUP1 DUP3 SSTORE POP POP JUMP JUMPDEST PUSH1 0x0 PUSH32 0x5A05180F00000000000000000000000000000000000000000000000000000000 PUSH28 0xFFFFFFFFFFFFFFFFFFFFFFFFFFFFFFFFFFFFFFFFFFFFFFFFFFFFFFFF NOT AND DUP3 PUSH28 0xFFFFFFFFFFFFFFFFFFFFFFFFFFFFFFFFFFFFFFFFFFFFFFFFFFFFFFFF NOT AND EQ DUP1 PUSH2 0x3AD9 JUMPI POP PUSH2 0x3AD8 DUP3 PUSH2 0x6141 JUMP JUMPDEST JUMPDEST SWAP1 POP SWAP2 SWAP1 POP JUMP JUMPDEST PUSH2 0x3AEA DUP3 DUP3 PUSH2 0x1E27 JUMP JUMPDEST PUSH2 0x3B79 JUMPI PUSH2 0x3B0F DUP2 PUSH20 0xFFFFFFFFFFFFFFFFFFFFFFFFFFFFFFFFFFFFFFFF AND PUSH1 0x14 PUSH2 0x61BB JUMP JUMPDEST PUSH2 0x3B1D DUP4 PUSH1 0x0 SHR PUSH1 0x20 PUSH2 0x61BB JUMP JUMPDEST PUSH1 0x40 MLOAD PUSH1 0x20 ADD PUSH2 0x3B2E SWAP3 SWAP2 SWAP1 PUSH2 0x9376 JUMP JUMPDEST PUSH1 0x40 MLOAD PUSH1 0x20 DUP2 DUP4 SUB SUB DUP2 MSTORE SWAP1 PUSH1 0x40 MSTORE PUSH1 0x40 MLOAD PUSH32 0x8C379A000000000000000000000000000000000000000000000000000000000 DUP2 MSTORE PUSH1 0x4 ADD PUSH2 0x3B70 SWAP2 SWAP1 PUSH2 0x7D70 JUMP JUMPDEST PUSH1 0x40 MLOAD DUP1 SWAP2 SUB SWAP1 REVERT JUMPDEST POP POP JUMP JUMPDEST PUSH2 0x3B85 PUSH2 0x63F7 JUMP JUMPDEST PUSH2 0x3BB8 TIMESTAMP PUSH32 0xE8B012900CB200EE5DFC3B895A32791B67D12891B09F117814F167A237783A02 PUSH2 0x3A5F SWAP1 SWAP2 SWAP1 PUSH4 0xFFFFFFFF AND JUMP JUMPDEST PUSH32 0x62451D457BC659158BE6E6247F56EC1DF424A5C7597F71C20C2BC44E0965C8F9 PUSH1 0x40 MLOAD PUSH1 0x40 MLOAD DUP1 SWAP2 SUB SWAP1 LOG1 JUMP JUMPDEST PUSH1 0x60 PUSH1 0x0 PUSH2 0x3BF3 DUP4 PUSH2 0x6437 JUMP JUMPDEST SWAP1 POP PUSH1 0x0 PUSH1 0x20 PUSH8 0xFFFFFFFFFFFFFFFF DUP2 GT ISZERO PUSH2 0x3C12 JUMPI PUSH2 0x3C11 PUSH2 0x85EA JUMP JUMPDEST JUMPDEST PUSH1 0x40 MLOAD SWAP1 DUP1 DUP3 MSTORE DUP1 PUSH1 0x1F ADD PUSH1 0x1F NOT AND PUSH1 0x20 ADD DUP3 ADD PUSH1 0x40 MSTORE DUP1 ISZERO PUSH2 0x3C44 JUMPI DUP2 PUSH1 0x20 ADD PUSH1 0x1 DUP3 MUL DUP1 CALLDATASIZE DUP4 CALLDATACOPY DUP1 DUP3 ADD SWAP2 POP POP SWAP1 POP JUMPDEST POP SWAP1 POP DUP2 DUP2 MSTORE DUP4 PUSH1 0x20 DUP3 ADD MSTORE DUP1 SWAP3 POP POP POP SWAP2 SWAP1 POP JUMP JUMPDEST PUSH1 0x0 DUP1 DUP3 GT DUP1 ISZERO PUSH2 0x3C72 JUMPI POP PUSH2 0x3C6E PUSH2 0x149A JUMP JUMPDEST DUP3 GT ISZERO JUMPDEST DUP1 ISZERO PUSH2 0x3CA5 JUMPI POP PUSH2 0x3C81 PUSH2 0x4B1F JUMP JUMPDEST PUSH1 0x0 DUP4 DUP2 MSTORE PUSH1 0x20 ADD SWAP1 DUP2 MSTORE PUSH1 0x20 ADD PUSH1 0x0 KECCAK256 PUSH1 0x1 ADD PUSH1 0x19 SWAP1 SLOAD SWAP1 PUSH2 0x100 EXP SWAP1 DIV PUSH1 0xFF AND ISZERO JUMPDEST SWAP1 POP SWAP2 SWAP1 POP JUMP JUMPDEST PUSH1 0x0 PUSH2 0x3CD7 PUSH32 0x528F2B9D45274BE04589D1A9E644321EE1435A867D38A1359D022AF391CF7D75 PUSH2 0x6447 JUMP JUMPDEST SWAP1 POP SWAP1 JUMP JUMPDEST DUP2 PUSH2 0x3CE5 PUSH2 0x3CAC JUMP JUMPDEST PUSH1 0x0 DUP4 DUP2 MSTORE PUSH1 0x20 ADD SWAP1 DUP2 MSTORE PUSH1 0x20 ADD PUSH1 0x0 KECCAK256 PUSH1 0x0 PUSH2 0x100 EXP DUP2 SLOAD DUP2 PUSH20 0xFFFFFFFFFFFFFFFFFFFFFFFFFFFFFFFFFFFFFFFF MUL NOT AND SWAP1 DUP4 PUSH20 0xFFFFFFFFFFFFFFFFFFFFFFFFFFFFFFFFFFFFFFFF AND MUL OR SWAP1 SSTORE POP DUP1 DUP3 PUSH20 0xFFFFFFFFFFFFFFFFFFFFFFFFFFFFFFFFFFFFFFFF AND PUSH2 0x3D55 DUP4 PUSH2 0x1A44 JUMP JUMPDEST PUSH20 0xFFFFFFFFFFFFFFFFFFFFFFFFFFFFFFFFFFFFFFFF AND PUSH32 0x8C5BE1E5EBEC7D5BD14F71427D1E84F3DD0314C0F7B2291E5B200AC8C7C3B925 PUSH1 0x40 MLOAD PUSH1 0x40 MLOAD DUP1 SWAP2 SUB SWAP1 LOG4 POP POP JUMP JUMPDEST PUSH2 0x3DA3 PUSH2 0x282E JUMP JUMPDEST ISZERO PUSH2 0x3DDA JUMPI PUSH1 0x40 MLOAD PUSH32 0x1437839800000000000000000000000000000000000000000000000000000000 DUP2 MSTORE PUSH1 0x4 ADD PUSH1 0x40 MLOAD DUP1 SWAP2 SUB SWAP1 REVERT JUMPDEST JUMP JUMPDEST PUSH1 0x0 PUSH32 0x0 PUSH20 0xFFFFFFFFFFFFFFFFFFFFFFFFFFFFFFFFFFFFFFFF AND PUSH4 0x23B872DD CALLER ADDRESS DUP7 PUSH1 0x40 MLOAD DUP5 PUSH4 0xFFFFFFFF AND PUSH1 0xE0 SHL DUP2 MSTORE PUSH1 0x4 ADD PUSH2 0x3E3B SWAP4 SWAP3 SWAP2 SWAP1 PUSH2 0x93B0 JUMP JUMPDEST PUSH1 0x20 PUSH1 0x40 MLOAD DUP1 DUP4 SUB DUP2 PUSH1 0x0 DUP8 DUP1 EXTCODESIZE ISZERO DUP1 ISZERO PUSH2 0x3E55 JUMPI PUSH1 0x0 DUP1 REVERT JUMPDEST POP GAS CALL ISZERO DUP1 ISZERO PUSH2 0x3E69 JUMPI RETURNDATASIZE PUSH1 0x0 DUP1 RETURNDATACOPY RETURNDATASIZE PUSH1 0x0 REVERT JUMPDEST POP POP POP POP PUSH1 0x40 MLOAD RETURNDATASIZE PUSH1 0x1F NOT PUSH1 0x1F DUP3 ADD AND DUP3 ADD DUP1 PUSH1 0x40 MSTORE POP DUP2 ADD SWAP1 PUSH2 0x3E8D SWAP2 SWAP1 PUSH2 0x93FC JUMP JUMPDEST POP PUSH1 0x0 PUSH32 0x0 PUSH20 0xFFFFFFFFFFFFFFFFFFFFFFFFFFFFFFFFFFFFFFFF AND PUSH4 0xDE0E9A3E DUP6 PUSH1 0x40 MLOAD DUP3 PUSH4 0xFFFFFFFF AND PUSH1 0xE0 SHL DUP2 MSTORE PUSH1 0x4 ADD PUSH2 0x3EE9 SWAP2 SWAP1 PUSH2 0x7F00 JUMP JUMPDEST PUSH1 0x20 PUSH1 0x40 MLOAD DUP1 DUP4 SUB DUP2 PUSH1 0x0 DUP8 DUP1 EXTCODESIZE ISZERO DUP1 ISZERO PUSH2 0x3F03 JUMPI PUSH1 0x0 DUP1 REVERT JUMPDEST POP GAS CALL ISZERO DUP1 ISZERO PUSH2 0x3F17 JUMPI RETURNDATASIZE PUSH1 0x0 DUP1 RETURNDATACOPY RETURNDATASIZE PUSH1 0x0 REVERT JUMPDEST POP POP POP POP PUSH1 0x40 MLOAD RETURNDATASIZE PUSH1 0x1F NOT PUSH1 0x1F DUP3 ADD AND DUP3 ADD DUP1 PUSH1 0x40 MSTORE POP DUP2 ADD SWAP1 PUSH2 0x3F3B SWAP2 SWAP1 PUSH2 0x943E JUMP JUMPDEST SWAP1 POP PUSH2 0x3F46 DUP2 PUSH2 0x5E4A JUMP JUMPDEST PUSH1 0x0 PUSH32 0x0 PUSH20 0xFFFFFFFFFFFFFFFFFFFFFFFFFFFFFFFFFFFFFFFF AND PUSH4 0x19208451 DUP4 PUSH1 0x40 MLOAD DUP3 PUSH4 0xFFFFFFFF AND PUSH1 0xE0 SHL DUP2 MSTORE PUSH1 0x4 ADD PUSH2 0x3FA1 SWAP2 SWAP1 PUSH2 0x7F00 JUMP JUMPDEST PUSH1 0x20 PUSH1 0x40 MLOAD DUP1 DUP4 SUB DUP2 DUP7 DUP1 EXTCODESIZE ISZERO DUP1 ISZERO PUSH2 0x3FB9 JUMPI PUSH1 0x0 DUP1 REVERT JUMPDEST POP GAS STATICCALL ISZERO DUP1 ISZERO PUSH2 0x3FCD JUMPI RETURNDATASIZE PUSH1 0x0 DUP1 RETURNDATACOPY RETURNDATASIZE PUSH1 0x0 REVERT JUMPDEST POP POP POP POP PUSH1 0x40 MLOAD RETURNDATASIZE PUSH1 0x1F NOT PUSH1 0x1F DUP3 ADD AND DUP3 ADD DUP1 PUSH1 0x40 MSTORE POP DUP2 ADD SWAP1 PUSH2 0x3FF1 SWAP2 SWAP1 PUSH2 0x943E JUMP JUMPDEST SWAP1 POP PUSH2 0x3FFE DUP3 DUP3 DUP7 PUSH2 0x6451 JUMP JUMPDEST SWAP3 POP PUSH2 0x400C PUSH1 0x0 DUP6 DUP6 PUSH2 0x48A0 JUMP JUMPDEST POP POP SWAP3 SWAP2 POP POP JUMP JUMPDEST PUSH1 0x0 DUP2 SLOAD SWAP1 POP SWAP2 SWAP1 POP JUMP JUMPDEST PUSH1 0x0 PUSH20 0xFFFFFFFFFFFFFFFFFFFFFFFFFFFFFFFFFFFFFFFF AND DUP3 PUSH20 0xFFFFFFFFFFFFFFFFFFFFFFFFFFFFFFFFFFFFFFFF AND EQ ISZERO PUSH2 0x4086 JUMPI PUSH1 0x40 MLOAD PUSH32 0xEA553B3400000000000000000000000000000000000000000000000000000000 DUP2 MSTORE PUSH1 0x4 ADD PUSH1 0x40 MLOAD DUP1 SWAP2 SUB SWAP1 REVERT JUMPDEST DUP3 PUSH20 0xFFFFFFFFFFFFFFFFFFFFFFFFFFFFFFFFFFFFFFFF AND DUP3 PUSH20 0xFFFFFFFFFFFFFFFFFFFFFFFFFFFFFFFFFFFFFFFF AND EQ ISZERO PUSH2 0x40EC JUMPI PUSH1 0x40 MLOAD PUSH32 0x52CE6F2100000000000000000000000000000000000000000000000000000000 DUP2 MSTORE PUSH1 0x4 ADD PUSH1 0x40 MLOAD DUP1 SWAP2 SUB SWAP1 REVERT JUMPDEST PUSH1 0x0 DUP2 EQ DUP1 PUSH2 0x4101 JUMPI POP PUSH2 0x40FE PUSH2 0x149A JUMP JUMPDEST DUP2 GT JUMPDEST ISZERO PUSH2 0x4143 JUMPI DUP1 PUSH1 0x40 MLOAD PUSH32 0xC969E0F200000000000000000000000000000000000000000000000000000000 DUP2 MSTORE PUSH1 0x4 ADD PUSH2 0x413A SWAP2 SWAP1 PUSH2 0x7F00 JUMP JUMPDEST PUSH1 0x40 MLOAD DUP1 SWAP2 SUB SWAP1 REVERT JUMPDEST PUSH1 0x0 PUSH2 0x414D PUSH2 0x4B1F JUMP JUMPDEST PUSH1 0x0 DUP4 DUP2 MSTORE PUSH1 0x20 ADD SWAP1 DUP2 MSTORE PUSH1 0x20 ADD PUSH1 0x0 KECCAK256 SWAP1 POP DUP1 PUSH1 0x1 ADD PUSH1 0x19 SWAP1 SLOAD SWAP1 PUSH2 0x100 EXP SWAP1 DIV PUSH1 0xFF AND ISZERO PUSH2 0x41B4 JUMPI DUP2 PUSH1 0x40 MLOAD PUSH32 0xF0E0CC2D00000000000000000000000000000000000000000000000000000000 DUP2 MSTORE PUSH1 0x4 ADD PUSH2 0x41AB SWAP2 SWAP1 PUSH2 0x7F00 JUMP JUMPDEST PUSH1 0x40 MLOAD DUP1 SWAP2 SUB SWAP1 REVERT JUMPDEST DUP1 PUSH1 0x1 ADD PUSH1 0x0 SWAP1 SLOAD SWAP1 PUSH2 0x100 EXP SWAP1 DIV PUSH20 0xFFFFFFFFFFFFFFFFFFFFFFFFFFFFFFFFFFFFFFFF AND PUSH20 0xFFFFFFFFFFFFFFFFFFFFFFFFFFFFFFFFFFFFFFFF AND DUP5 PUSH20 0xFFFFFFFFFFFFFFFFFFFFFFFFFFFFFFFFFFFFFFFF AND EQ PUSH2 0x426E JUMPI DUP4 DUP2 PUSH1 0x1 ADD PUSH1 0x0 SWAP1 SLOAD SWAP1 PUSH2 0x100 EXP SWAP1 DIV PUSH20 0xFFFFFFFFFFFFFFFFFFFFFFFFFFFFFFFFFFFFFFFF AND PUSH1 0x40 MLOAD PUSH32 0xC0EEAA6100000000000000000000000000000000000000000000000000000000 DUP2 MSTORE PUSH1 0x4 ADD PUSH2 0x4265 SWAP3 SWAP2 SWAP1 PUSH2 0x946B JUMP JUMPDEST PUSH1 0x40 MLOAD DUP1 SWAP2 SUB SWAP1 REVERT JUMPDEST PUSH1 0x0 CALLER SWAP1 POP DUP1 PUSH20 0xFFFFFFFFFFFFFFFFFFFFFFFFFFFFFFFFFFFFFFFF AND DUP6 PUSH20 0xFFFFFFFFFFFFFFFFFFFFFFFFFFFFFFFFFFFFFFFF AND EQ DUP1 PUSH2 0x42B3 JUMPI POP PUSH2 0x42B2 DUP6 DUP3 PUSH2 0x305E JUMP JUMPDEST JUMPDEST DUP1 PUSH2 0x4322 JUMPI POP DUP1 PUSH20 0xFFFFFFFFFFFFFFFFFFFFFFFFFFFFFFFFFFFFFFFF AND PUSH2 0x42D8 PUSH2 0x3CAC JUMP JUMPDEST PUSH1 0x0 DUP6 DUP2 MSTORE PUSH1 0x20 ADD SWAP1 DUP2 MSTORE PUSH1 0x20 ADD PUSH1 0x0 KECCAK256 PUSH1 0x0 SWAP1 SLOAD SWAP1 PUSH2 0x100 EXP SWAP1 DIV PUSH20 0xFFFFFFFFFFFFFFFFFFFFFFFFFFFFFFFFFFFFFFFF AND PUSH20 0xFFFFFFFFFFFFFFFFFFFFFFFFFFFFFFFFFFFFFFFF AND EQ JUMPDEST PUSH2 0x4363 JUMPI DUP1 PUSH1 0x40 MLOAD PUSH32 0xAEE697E700000000000000000000000000000000000000000000000000000000 DUP2 MSTORE PUSH1 0x4 ADD PUSH2 0x435A SWAP2 SWAP1 PUSH2 0x7E6A JUMP JUMPDEST PUSH1 0x40 MLOAD DUP1 SWAP2 SUB SWAP1 REVERT JUMPDEST PUSH2 0x436B PUSH2 0x3CAC JUMP JUMPDEST PUSH1 0x0 DUP5 DUP2 MSTORE PUSH1 0x20 ADD SWAP1 DUP2 MSTORE PUSH1 0x20 ADD PUSH1 0x0 KECCAK256 PUSH1 0x0 PUSH2 0x100 EXP DUP2 SLOAD SWAP1 PUSH20 0xFFFFFFFFFFFFFFFFFFFFFFFFFFFFFFFFFFFFFFFF MUL NOT AND SWAP1 SSTORE DUP4 DUP3 PUSH1 0x1 ADD PUSH1 0x0 PUSH2 0x100 EXP DUP2 SLOAD DUP2 PUSH20 0xFFFFFFFFFFFFFFFFFFFFFFFFFFFFFFFFFFFFFFFF MUL NOT AND SWAP1 DUP4 PUSH20 0xFFFFFFFFFFFFFFFFFFFFFFFFFFFFFFFFFFFFFFFF AND MUL OR SWAP1 SSTORE POP PUSH2 0x4439 DUP4 PUSH2 0x43EE PUSH2 0x4B4C JUMP JUMPDEST PUSH1 0x0 DUP9 PUSH20 0xFFFFFFFFFFFFFFFFFFFFFFFFFFFFFFFFFFFFFFFF AND PUSH20 0xFFFFFFFFFFFFFFFFFFFFFFFFFFFFFFFFFFFFFFFF AND DUP2 MSTORE PUSH1 0x20 ADD SWAP1 DUP2 MSTORE PUSH1 0x20 ADD PUSH1 0x0 KECCAK256 PUSH2 0x68CC SWAP1 SWAP2 SWAP1 PUSH4 0xFFFFFFFF AND JUMP JUMPDEST PUSH2 0x4446 JUMPI PUSH2 0x4445 PUSH2 0x9494 JUMP JUMPDEST JUMPDEST PUSH2 0x449D DUP4 PUSH2 0x4452 PUSH2 0x4B4C JUMP JUMPDEST PUSH1 0x0 DUP8 PUSH20 0xFFFFFFFFFFFFFFFFFFFFFFFFFFFFFFFFFFFFFFFF AND PUSH20 0xFFFFFFFFFFFFFFFFFFFFFFFFFFFFFFFFFFFFFFFF AND DUP2 MSTORE PUSH1 0x20 ADD SWAP1 DUP2 MSTORE PUSH1 0x20 ADD PUSH1 0x0 KECCAK256 PUSH2 0x68E6 SWAP1 SWAP2 SWAP1 PUSH4 0xFFFFFFFF AND JUMP JUMPDEST PUSH2 0x44AA JUMPI PUSH2 0x44A9 PUSH2 0x9494 JUMP JUMPDEST JUMPDEST PUSH2 0x44B5 DUP6 DUP6 DUP6 PUSH2 0x48A0 JUMP JUMPDEST POP POP POP POP POP JUMP JUMPDEST PUSH1 0x0 DUP1 PUSH32 0x9A627A5D4AA7C17F87FF26E3FE9A42C2B6C559E8B41A42282D0ECEBB17C0E4D3 SWAP1 POP DUP1 SWAP2 POP POP SWAP1 JUMP JUMPDEST PUSH1 0x0 CALLER SWAP1 POP SWAP1 JUMP JUMPDEST PUSH2 0x44FB DUP3 DUP3 PUSH2 0x6900 JUMP JUMPDEST PUSH2 0x4526 DUP2 PUSH2 0x4507 PUSH2 0x4BAF JUMP JUMPDEST PUSH1 0x0 DUP6 DUP2 MSTORE PUSH1 0x20 ADD SWAP1 DUP2 MSTORE PUSH1 0x20 ADD PUSH1 0x0 KECCAK256 PUSH2 0x69E7 SWAP1 SWAP2 SWAP1 PUSH4 0xFFFFFFFF AND JUMP JUMPDEST POP POP POP JUMP JUMPDEST PUSH2 0x4535 DUP3 DUP3 PUSH2 0x6A17 JUMP JUMPDEST PUSH2 0x4560 DUP2 PUSH2 0x4541 PUSH2 0x4BAF JUMP JUMPDEST PUSH1 0x0 DUP6 DUP2 MSTORE PUSH1 0x20 ADD SWAP1 DUP2 MSTORE PUSH1 0x20 ADD PUSH1 0x0 KECCAK256 PUSH2 0x6AFF SWAP1 SWAP2 SWAP1 PUSH4 0xFFFFFFFF AND JUMP JUMPDEST POP POP POP JUMP JUMPDEST PUSH1 0x0 DUP2 SLOAD SWAP1 POP SWAP2 SWAP1 POP JUMP JUMPDEST PUSH1 0x0 DUP1 PUSH32 0x5ED9590A548C88BA856B4395A6A115927662FDE6FC45814F1C0FA2B078693943 SWAP1 POP DUP1 SWAP2 POP POP SWAP1 JUMP JUMPDEST PUSH1 0x0 DUP4 EQ ISZERO PUSH2 0x45E3 JUMPI DUP3 PUSH1 0x40 MLOAD PUSH32 0xC969E0F200000000000000000000000000000000000000000000000000000000 DUP2 MSTORE PUSH1 0x4 ADD PUSH2 0x45DA SWAP2 SWAP1 PUSH2 0x7F00 JUMP JUMPDEST PUSH1 0x40 MLOAD DUP1 SWAP2 SUB SWAP1 REVERT JUMPDEST PUSH2 0x45EB PUSH2 0x169E JUMP JUMPDEST DUP4 GT ISZERO PUSH2 0x462F JUMPI DUP3 PUSH1 0x40 MLOAD PUSH32 0x4AE5022800000000000000000000000000000000000000000000000000000000 DUP2 MSTORE PUSH1 0x4 ADD PUSH2 0x4626 SWAP2 SWAP1 PUSH2 0x7F00 JUMP JUMPDEST PUSH1 0x40 MLOAD DUP1 SWAP2 SUB SWAP1 REVERT JUMPDEST PUSH1 0x0 PUSH2 0x4639 PUSH2 0x4B1F JUMP JUMPDEST PUSH1 0x0 DUP6 DUP2 MSTORE PUSH1 0x20 ADD SWAP1 DUP2 MSTORE PUSH1 0x20 ADD PUSH1 0x0 KECCAK256 SWAP1 POP DUP1 PUSH1 0x1 ADD PUSH1 0x19 SWAP1 SLOAD SWAP1 PUSH2 0x100 EXP SWAP1 DIV PUSH1 0xFF AND ISZERO PUSH2 0x46A0 JUMPI DUP4 PUSH1 0x40 MLOAD PUSH32 0xF0E0CC2D00000000000000000000000000000000000000000000000000000000 DUP2 MSTORE PUSH1 0x4 ADD PUSH2 0x4697 SWAP2 SWAP1 PUSH2 0x7F00 JUMP JUMPDEST PUSH1 0x40 MLOAD DUP1 SWAP2 SUB SWAP1 REVERT JUMPDEST CALLER PUSH20 0xFFFFFFFFFFFFFFFFFFFFFFFFFFFFFFFFFFFFFFFF AND DUP2 PUSH1 0x1 ADD PUSH1 0x0 SWAP1 SLOAD SWAP1 PUSH2 0x100 EXP SWAP1 DIV PUSH20 0xFFFFFFFFFFFFFFFFFFFFFFFFFFFFFFFFFFFFFFFF AND PUSH20 0xFFFFFFFFFFFFFFFFFFFFFFFFFFFFFFFFFFFFFFFF AND EQ PUSH2 0x475A JUMPI CALLER DUP2 PUSH1 0x1 ADD PUSH1 0x0 SWAP1 SLOAD SWAP1 PUSH2 0x100 EXP SWAP1 DIV PUSH20 0xFFFFFFFFFFFFFFFFFFFFFFFFFFFFFFFFFFFFFFFF AND PUSH1 0x40 MLOAD PUSH32 0x23295F0E00000000000000000000000000000000000000000000000000000000 DUP2 MSTORE PUSH1 0x4 ADD PUSH2 0x4751 SWAP3 SWAP2 SWAP1 PUSH2 0x946B JUMP JUMPDEST PUSH1 0x40 MLOAD DUP1 SWAP2 SUB SWAP1 REVERT JUMPDEST PUSH1 0x1 DUP2 PUSH1 0x1 ADD PUSH1 0x19 PUSH2 0x100 EXP DUP2 SLOAD DUP2 PUSH1 0xFF MUL NOT AND SWAP1 DUP4 ISZERO ISZERO MUL OR SWAP1 SSTORE POP PUSH2 0x47F2 DUP5 PUSH2 0x4783 PUSH2 0x4B4C JUMP JUMPDEST PUSH1 0x0 DUP5 PUSH1 0x1 ADD PUSH1 0x0 SWAP1 SLOAD SWAP1 PUSH2 0x100 EXP SWAP1 DIV PUSH20 0xFFFFFFFFFFFFFFFFFFFFFFFFFFFFFFFFFFFFFFFF AND PUSH20 0xFFFFFFFFFFFFFFFFFFFFFFFFFFFFFFFFFFFFFFFF AND PUSH20 0xFFFFFFFFFFFFFFFFFFFFFFFFFFFFFFFFFFFFFFFF AND DUP2 MSTORE PUSH1 0x20 ADD SWAP1 DUP2 MSTORE PUSH1 0x20 ADD PUSH1 0x0 KECCAK256 PUSH2 0x68CC SWAP1 SWAP2 SWAP1 PUSH4 0xFFFFFFFF AND JUMP JUMPDEST PUSH2 0x47FF JUMPI PUSH2 0x47FE PUSH2 0x9494 JUMP JUMPDEST JUMPDEST PUSH1 0x0 PUSH2 0x480C DUP3 DUP7 DUP7 PUSH2 0x6B2F JUMP JUMPDEST SWAP1 POP PUSH2 0x4829 DUP2 PUSH2 0x481A PUSH2 0x3A03 JUMP JUMPDEST PUSH2 0x4824 SWAP2 SWAP1 PUSH2 0x9024 JUMP JUMPDEST PUSH2 0x702E JUMP JUMPDEST PUSH2 0x4833 DUP4 DUP3 PUSH2 0x7064 JUMP JUMPDEST DUP3 PUSH20 0xFFFFFFFFFFFFFFFFFFFFFFFFFFFFFFFFFFFFFFFF AND CALLER PUSH20 0xFFFFFFFFFFFFFFFFFFFFFFFFFFFFFFFFFFFFFFFF AND DUP7 PUSH32 0x6AD26C5E238E7D002799F9A5DB07E81EF14E37386AE03496D7A7EF04713E145B DUP5 PUSH1 0x40 MLOAD PUSH2 0x4891 SWAP2 SWAP1 PUSH2 0x7F00 JUMP JUMPDEST PUSH1 0x40 MLOAD DUP1 SWAP2 SUB SWAP1 LOG4 POP POP POP POP POP JUMP JUMPDEST DUP1 DUP3 PUSH20 0xFFFFFFFFFFFFFFFFFFFFFFFFFFFFFFFFFFFFFFFF AND DUP5 PUSH20 0xFFFFFFFFFFFFFFFFFFFFFFFFFFFFFFFFFFFFFFFF AND PUSH32 0xDDF252AD1BE2C89B69C2B068FC378DAA952BA7F163C4A11628F55A4DF523B3EF PUSH1 0x40 MLOAD PUSH1 0x40 MLOAD DUP1 SWAP2 SUB SWAP1 LOG4 POP POP POP JUMP JUMPDEST PUSH1 0x0 DUP1 DUP5 EQ DUP1 PUSH2 0x4916 JUMPI POP PUSH2 0x4913 PUSH2 0x149A JUMP JUMPDEST DUP5 GT JUMPDEST ISZERO PUSH2 0x4958 JUMPI DUP4 PUSH1 0x40 MLOAD PUSH32 0xC969E0F200000000000000000000000000000000000000000000000000000000 DUP2 MSTORE PUSH1 0x4 ADD PUSH2 0x494F SWAP2 SWAP1 PUSH2 0x7F00 JUMP JUMPDEST PUSH1 0x40 MLOAD DUP1 SWAP2 SUB SWAP1 REVERT JUMPDEST PUSH1 0x0 PUSH2 0x4962 PUSH2 0x16CE JUMP JUMPDEST SWAP1 POP PUSH1 0x0 DUP5 EQ DUP1 PUSH2 0x4972 JUMPI POP DUP1 DUP4 GT JUMPDEST ISZERO PUSH2 0x49B6 JUMPI DUP4 DUP4 PUSH1 0x40 MLOAD PUSH32 0x7189425700000000000000000000000000000000000000000000000000000000 DUP2 MSTORE PUSH1 0x4 ADD PUSH2 0x49AD SWAP3 SWAP2 SWAP1 PUSH2 0x857C JUMP JUMPDEST PUSH1 0x40 MLOAD DUP1 SWAP2 SUB SWAP1 REVERT JUMPDEST PUSH1 0x0 DUP2 EQ DUP1 PUSH2 0x49CB JUMPI POP PUSH2 0x49C8 PUSH2 0x169E JUMP JUMPDEST DUP6 GT JUMPDEST DUP1 PUSH2 0x49D5 JUMPI POP DUP3 DUP5 GT JUMPDEST ISZERO PUSH2 0x49E4 JUMPI PUSH1 0x0 SWAP2 POP POP PUSH2 0x4B18 JUMP JUMPDEST PUSH2 0x49EC PUSH2 0x7146 JUMP JUMPDEST PUSH1 0x0 DUP5 DUP2 MSTORE PUSH1 0x20 ADD SWAP1 DUP2 MSTORE PUSH1 0x20 ADD PUSH1 0x0 KECCAK256 PUSH1 0x0 ADD SLOAD DUP6 LT PUSH2 0x4A5B JUMPI DUP1 DUP4 EQ ISZERO PUSH2 0x4A18 JUMPI DUP3 SWAP2 POP POP PUSH2 0x4B18 JUMP JUMPDEST PUSH2 0x4A20 PUSH2 0x7146 JUMP JUMPDEST PUSH1 0x0 PUSH1 0x1 DUP6 PUSH2 0x4A2F SWAP2 SWAP1 PUSH2 0x9112 JUMP JUMPDEST DUP2 MSTORE PUSH1 0x20 ADD SWAP1 DUP2 MSTORE PUSH1 0x20 ADD PUSH1 0x0 KECCAK256 PUSH1 0x0 ADD SLOAD DUP6 LT ISZERO PUSH2 0x4A51 JUMPI DUP3 SWAP2 POP POP PUSH2 0x4B18 JUMP JUMPDEST PUSH1 0x0 SWAP2 POP POP PUSH2 0x4B18 JUMP JUMPDEST PUSH2 0x4A63 PUSH2 0x7146 JUMP JUMPDEST PUSH1 0x0 DUP6 DUP2 MSTORE PUSH1 0x20 ADD SWAP1 DUP2 MSTORE PUSH1 0x20 ADD PUSH1 0x0 KECCAK256 PUSH1 0x0 ADD SLOAD DUP6 LT ISZERO PUSH2 0x4A89 JUMPI PUSH1 0x0 SWAP2 POP POP PUSH2 0x4B18 JUMP JUMPDEST PUSH1 0x0 DUP5 SWAP1 POP PUSH1 0x0 PUSH1 0x1 DUP6 PUSH2 0x4A9D SWAP2 SWAP1 PUSH2 0x9024 JUMP JUMPDEST SWAP1 POP JUMPDEST DUP2 DUP2 GT ISZERO PUSH2 0x4B11 JUMPI PUSH1 0x0 PUSH1 0x2 PUSH1 0x1 DUP5 DUP5 PUSH2 0x4ABA SWAP2 SWAP1 PUSH2 0x9112 JUMP JUMPDEST PUSH2 0x4AC4 SWAP2 SWAP1 PUSH2 0x9112 JUMP JUMPDEST PUSH2 0x4ACE SWAP2 SWAP1 PUSH2 0x90E1 JUMP JUMPDEST SWAP1 POP DUP8 PUSH2 0x4AD9 PUSH2 0x7146 JUMP JUMPDEST PUSH1 0x0 DUP4 DUP2 MSTORE PUSH1 0x20 ADD SWAP1 DUP2 MSTORE PUSH1 0x20 ADD PUSH1 0x0 KECCAK256 PUSH1 0x0 ADD SLOAD GT PUSH2 0x4AFB JUMPI DUP1 SWAP3 POP PUSH2 0x4B0B JUMP JUMPDEST PUSH1 0x1 DUP2 PUSH2 0x4B08 SWAP2 SWAP1 PUSH2 0x9024 JUMP JUMPDEST SWAP2 POP JUMPDEST POP PUSH2 0x4AA0 JUMP JUMPDEST DUP2 SWAP4 POP POP POP POP JUMPDEST SWAP4 SWAP3 POP POP POP JUMP JUMPDEST PUSH1 0x0 DUP1 PUSH32 0xE21B95C4EB1B99FD548B219E3B5C175A8EFB31F910CB76456B20E14EBA8CFE43 SWAP1 POP DUP1 SWAP2 POP POP SWAP1 JUMP JUMPDEST PUSH1 0x0 DUP1 PUSH32 0x4B9BFE0774F05AB288BD50BD23F74AE80A797F1D0C82D419D43EBDA4FDC2FE1F SWAP1 POP DUP1 SWAP2 POP POP SWAP1 JUMP JUMPDEST PUSH1 0x0 PUSH2 0x4B87 DUP3 PUSH1 0x0 ADD PUSH2 0x7173 JUMP JUMPDEST SWAP1 POP SWAP2 SWAP1 POP JUMP JUMPDEST PUSH1 0x60 PUSH1 0x0 PUSH2 0x4B9E DUP4 PUSH1 0x0 ADD PUSH2 0x7184 JUMP JUMPDEST SWAP1 POP PUSH1 0x60 DUP2 SWAP1 POP DUP1 SWAP3 POP POP POP SWAP2 SWAP1 POP JUMP JUMPDEST PUSH1 0x0 DUP1 PUSH32 0x8F8C450DAE5029CD48CD91DD9DB65DA48FB742893EDFC7941250F6721D93CBBE SWAP1 POP DUP1 SWAP2 POP POP SWAP1 JUMP JUMPDEST PUSH1 0x0 PUSH2 0x4BEB DUP4 PUSH1 0x0 ADD DUP4 PUSH2 0x71E0 JUMP JUMPDEST PUSH1 0x0 SHR SWAP1 POP SWAP3 SWAP2 POP POP JUMP JUMPDEST DUP1 DUP3 SSTORE POP POP JUMP JUMPDEST PUSH2 0x4C30 DUP2 PUSH32 0x6825D6BEAD7081B4D1AC062BBB771F0E4ADE13182688453E79955A721D58C4DD PUSH2 0x3A5F SWAP1 SWAP2 SWAP1 PUSH4 0xFFFFFFFF AND JUMP JUMPDEST POP JUMP JUMPDEST DUP2 PUSH20 0xFFFFFFFFFFFFFFFFFFFFFFFFFFFFFFFFFFFFFFFF AND DUP4 PUSH20 0xFFFFFFFFFFFFFFFFFFFFFFFFFFFFFFFFFFFFFFFF AND EQ ISZERO PUSH2 0x4C99 JUMPI PUSH1 0x40 MLOAD PUSH32 0xB06307DB00000000000000000000000000000000000000000000000000000000 DUP2 MSTORE PUSH1 0x4 ADD PUSH1 0x40 MLOAD DUP1 SWAP2 SUB SWAP1 REVERT JUMPDEST DUP1 PUSH2 0x4CA2 PUSH2 0x6060 JUMP JUMPDEST PUSH1 0x0 DUP6 PUSH20 0xFFFFFFFFFFFFFFFFFFFFFFFFFFFFFFFFFFFFFFFF AND PUSH20 0xFFFFFFFFFFFFFFFFFFFFFFFFFFFFFFFFFFFFFFFF AND DUP2 MSTORE PUSH1 0x20 ADD SWAP1 DUP2 MSTORE PUSH1 0x20 ADD PUSH1 0x0 KECCAK256 PUSH1 0x0 DUP5 PUSH20 0xFFFFFFFFFFFFFFFFFFFFFFFFFFFFFFFFFFFFFFFF AND PUSH20 0xFFFFFFFFFFFFFFFFFFFFFFFFFFFFFFFFFFFFFFFF AND DUP2 MSTORE PUSH1 0x20 ADD SWAP1 DUP2 MSTORE PUSH1 0x20 ADD PUSH1 0x0 KECCAK256 PUSH1 0x0 PUSH2 0x100 EXP DUP2 SLOAD DUP2 PUSH1 0xFF MUL NOT AND SWAP1 DUP4 ISZERO ISZERO MUL OR SWAP1 SSTORE POP DUP2 PUSH20 0xFFFFFFFFFFFFFFFFFFFFFFFFFFFFFFFFFFFFFFFF AND DUP4 PUSH20 0xFFFFFFFFFFFFFFFFFFFFFFFFFFFFFFFFFFFFFFFF AND PUSH32 0x17307EAB39AB6107E8899845AD3D59BD9653F200F220920489CA2B5937696C31 DUP4 PUSH1 0x40 MLOAD PUSH2 0x4D90 SWAP2 SWAP1 PUSH2 0x7CBC JUMP JUMPDEST PUSH1 0x40 MLOAD DUP1 SWAP2 SUB SWAP1 LOG3 POP POP POP JUMP JUMPDEST PUSH1 0x0 DUP1 PUSH1 0x0 DUP5 PUSH1 0x0 ADD MLOAD DUP5 PUSH1 0x0 ADD MLOAD PUSH2 0x4DB6 SWAP2 SWAP1 PUSH2 0x926E JUMP JUMPDEST PUSH16 0xFFFFFFFFFFFFFFFFFFFFFFFFFFFFFFFF AND SWAP2 POP DUP5 PUSH1 0x20 ADD MLOAD DUP5 PUSH1 0x20 ADD MLOAD PUSH2 0x4DDE SWAP2 SWAP1 PUSH2 0x926E JUMP JUMPDEST PUSH16 0xFFFFFFFFFFFFFFFFFFFFFFFFFFFFFFFF AND SWAP1 POP DUP1 PUSH12 0x33B2E3C9FD0803CE8000000 DUP4 PUSH2 0x4E0B SWAP2 SWAP1 PUSH2 0x9058 JUMP JUMPDEST PUSH2 0x4E15 SWAP2 SWAP1 PUSH2 0x90E1 JUMP JUMPDEST SWAP3 POP SWAP3 POP SWAP3 POP SWAP3 JUMP JUMPDEST PUSH2 0x4E26 PUSH2 0x3D9B JUMP JUMPDEST TIMESTAMP DUP2 LT ISZERO PUSH2 0x4E60 JUMPI PUSH1 0x40 MLOAD PUSH32 0x73C5D8A600000000000000000000000000000000000000000000000000000000 DUP2 MSTORE PUSH1 0x4 ADD PUSH1 0x40 MLOAD DUP1 SWAP2 SUB SWAP1 REVERT JUMPDEST PUSH1 0x0 PUSH32 0xFFFFFFFFFFFFFFFFFFFFFFFFFFFFFFFFFFFFFFFFFFFFFFFFFFFFFFFFFFFFFFFF DUP3 EQ PUSH2 0x4E9D JUMPI PUSH1 0x1 DUP3 PUSH2 0x4E96 SWAP2 SWAP1 PUSH2 0x9112 JUMP JUMPDEST SWAP1 POP PUSH2 0x4EC1 JUMP JUMPDEST PUSH32 0xFFFFFFFFFFFFFFFFFFFFFFFFFFFFFFFFFFFFFFFFFFFFFFFFFFFFFFFFFFFFFFFF SWAP1 POP JUMPDEST PUSH2 0x4ECA DUP2 PUSH2 0x720B JUMP JUMPDEST POP POP JUMP JUMPDEST PUSH2 0x4ED6 PUSH2 0x149A JUMP JUMPDEST DUP4 GT ISZERO PUSH2 0x4F1A JUMPI DUP3 PUSH1 0x40 MLOAD PUSH32 0xC969E0F200000000000000000000000000000000000000000000000000000000 DUP2 MSTORE PUSH1 0x4 ADD PUSH2 0x4F11 SWAP2 SWAP1 PUSH2 0x7F00 JUMP JUMPDEST PUSH1 0x40 MLOAD DUP1 SWAP2 SUB SWAP1 REVERT JUMPDEST PUSH1 0x0 PUSH2 0x4F24 PUSH2 0x169E JUMP JUMPDEST SWAP1 POP DUP1 DUP5 GT PUSH2 0x4F6A JUMPI DUP4 PUSH1 0x40 MLOAD PUSH32 0xC969E0F200000000000000000000000000000000000000000000000000000000 DUP2 MSTORE PUSH1 0x4 ADD PUSH2 0x4F61 SWAP2 SWAP1 PUSH2 0x7F00 JUMP JUMPDEST PUSH1 0x40 MLOAD DUP1 SWAP2 SUB SWAP1 REVERT JUMPDEST PUSH1 0x0 PUSH2 0x4F74 PUSH2 0x4B1F JUMP JUMPDEST PUSH1 0x0 DUP4 DUP2 MSTORE PUSH1 0x20 ADD SWAP1 DUP2 MSTORE PUSH1 0x20 ADD PUSH1 0x0 KECCAK256 PUSH1 0x40 MLOAD DUP1 PUSH1 0xC0 ADD PUSH1 0x40 MSTORE SWAP1 DUP2 PUSH1 0x0 DUP3 ADD PUSH1 0x0 SWAP1 SLOAD SWAP1 PUSH2 0x100 EXP SWAP1 DIV PUSH16 0xFFFFFFFFFFFFFFFFFFFFFFFFFFFFFFFF AND PUSH16 0xFFFFFFFFFFFFFFFFFFFFFFFFFFFFFFFF AND PUSH16 0xFFFFFFFFFFFFFFFFFFFFFFFFFFFFFFFF AND DUP2 MSTORE PUSH1 0x20 ADD PUSH1 0x0 DUP3 ADD PUSH1 0x10 SWAP1 SLOAD SWAP1 PUSH2 0x100 EXP SWAP1 DIV PUSH16 0xFFFFFFFFFFFFFFFFFFFFFFFFFFFFFFFF AND PUSH16 0xFFFFFFFFFFFFFFFFFFFFFFFFFFFFFFFF AND PUSH16 0xFFFFFFFFFFFFFFFFFFFFFFFFFFFFFFFF AND DUP2 MSTORE PUSH1 0x20 ADD PUSH1 0x1 DUP3 ADD PUSH1 0x0 SWAP1 SLOAD SWAP1 PUSH2 0x100 EXP SWAP1 DIV PUSH20 0xFFFFFFFFFFFFFFFFFFFFFFFFFFFFFFFFFFFFFFFF AND PUSH20 0xFFFFFFFFFFFFFFFFFFFFFFFFFFFFFFFFFFFFFFFF AND PUSH20 0xFFFFFFFFFFFFFFFFFFFFFFFFFFFFFFFFFFFFFFFF AND DUP2 MSTORE PUSH1 0x20 ADD PUSH1 0x1 DUP3 ADD PUSH1 0x14 SWAP1 SLOAD SWAP1 PUSH2 0x100 EXP SWAP1 DIV PUSH5 0xFFFFFFFFFF AND PUSH5 0xFFFFFFFFFF AND PUSH5 0xFFFFFFFFFF AND DUP2 MSTORE PUSH1 0x20 ADD PUSH1 0x1 DUP3 ADD PUSH1 0x19 SWAP1 SLOAD SWAP1 PUSH2 0x100 EXP SWAP1 DIV PUSH1 0xFF AND ISZERO ISZERO ISZERO ISZERO DUP2 MSTORE PUSH1 0x20 ADD PUSH1 0x1 DUP3 ADD PUSH1 0x1A SWAP1 SLOAD SWAP1 PUSH2 0x100 EXP SWAP1 DIV PUSH5 0xFFFFFFFFFF AND PUSH5 0xFFFFFFFFFF AND PUSH5 0xFFFFFFFFFF AND DUP2 MSTORE POP POP SWAP1 POP PUSH1 0x0 PUSH2 0x50F3 PUSH2 0x4B1F JUMP JUMPDEST PUSH1 0x0 DUP8 DUP2 MSTORE PUSH1 0x20 ADD SWAP1 DUP2 MSTORE PUSH1 0x20 ADD PUSH1 0x0 KECCAK256 PUSH1 0x40 MLOAD DUP1 PUSH1 0xC0 ADD PUSH1 0x40 MSTORE SWAP1 DUP2 PUSH1 0x0 DUP3 ADD PUSH1 0x0 SWAP1 SLOAD SWAP1 PUSH2 0x100 EXP SWAP1 DIV PUSH16 0xFFFFFFFFFFFFFFFFFFFFFFFFFFFFFFFF AND PUSH16 0xFFFFFFFFFFFFFFFFFFFFFFFFFFFFFFFF AND PUSH16 0xFFFFFFFFFFFFFFFFFFFFFFFFFFFFFFFF AND DUP2 MSTORE PUSH1 0x20 ADD PUSH1 0x0 DUP3 ADD PUSH1 0x10 SWAP1 SLOAD SWAP1 PUSH2 0x100 EXP SWAP1 DIV PUSH16 0xFFFFFFFFFFFFFFFFFFFFFFFFFFFFFFFF AND PUSH16 0xFFFFFFFFFFFFFFFFFFFFFFFFFFFFFFFF AND PUSH16 0xFFFFFFFFFFFFFFFFFFFFFFFFFFFFFFFF AND DUP2 MSTORE PUSH1 0x20 ADD PUSH1 0x1 DUP3 ADD PUSH1 0x0 SWAP1 SLOAD SWAP1 PUSH2 0x100 EXP SWAP1 DIV PUSH20 0xFFFFFFFFFFFFFFFFFFFFFFFFFFFFFFFFFFFFFFFF AND PUSH20 0xFFFFFFFFFFFFFFFFFFFFFFFFFFFFFFFFFFFFFFFF AND PUSH20 0xFFFFFFFFFFFFFFFFFFFFFFFFFFFFFFFFFFFFFFFF AND DUP2 MSTORE PUSH1 0x20 ADD PUSH1 0x1 DUP3 ADD PUSH1 0x14 SWAP1 SLOAD SWAP1 PUSH2 0x100 EXP SWAP1 DIV PUSH5 0xFFFFFFFFFF AND PUSH5 0xFFFFFFFFFF AND PUSH5 0xFFFFFFFFFF AND DUP2 MSTORE PUSH1 0x20 ADD PUSH1 0x1 DUP3 ADD PUSH1 0x19 SWAP1 SLOAD SWAP1 PUSH2 0x100 EXP SWAP1 DIV PUSH1 0xFF AND ISZERO ISZERO ISZERO ISZERO DUP2 MSTORE PUSH1 0x20 ADD PUSH1 0x1 DUP3 ADD PUSH1 0x1A SWAP1 SLOAD SWAP1 PUSH2 0x100 EXP SWAP1 DIV PUSH5 0xFFFFFFFFFF AND PUSH5 0xFFFFFFFFFF AND PUSH5 0xFFFFFFFFFF AND DUP2 MSTORE POP POP SWAP1 POP PUSH1 0x0 DUP3 PUSH1 0x0 ADD MLOAD DUP3 PUSH1 0x0 ADD MLOAD PUSH2 0x527E SWAP2 SWAP1 PUSH2 0x926E JUMP JUMPDEST SWAP1 POP DUP1 PUSH16 0xFFFFFFFFFFFFFFFFFFFFFFFFFFFFFFFF AND DUP7 GT ISZERO PUSH2 0x52D9 JUMPI DUP6 DUP2 PUSH1 0x40 MLOAD PUSH32 0x252DFE8100000000000000000000000000000000000000000000000000000000 DUP2 MSTORE PUSH1 0x4 ADD PUSH2 0x52D0 SWAP3 SWAP2 SWAP1 PUSH2 0x94F4 JUMP JUMPDEST PUSH1 0x40 MLOAD DUP1 SWAP2 SUB SWAP1 REVERT JUMPDEST PUSH1 0x0 PUSH1 0x1 DUP6 PUSH2 0x52E8 SWAP2 SWAP1 PUSH2 0x9112 JUMP JUMPDEST SWAP1 POP PUSH1 0x0 PUSH2 0x52F4 PUSH2 0x16CE JUMP JUMPDEST SWAP1 POP PUSH1 0x40 MLOAD DUP1 PUSH1 0x40 ADD PUSH1 0x40 MSTORE DUP1 DUP4 DUP2 MSTORE PUSH1 0x20 ADD DUP9 DUP2 MSTORE POP PUSH2 0x5313 PUSH2 0x7146 JUMP JUMPDEST PUSH1 0x0 PUSH1 0x1 DUP5 PUSH2 0x5322 SWAP2 SWAP1 PUSH2 0x9112 JUMP JUMPDEST DUP2 MSTORE PUSH1 0x20 ADD SWAP1 DUP2 MSTORE PUSH1 0x20 ADD PUSH1 0x0 KECCAK256 PUSH1 0x0 DUP3 ADD MLOAD DUP2 PUSH1 0x0 ADD SSTORE PUSH1 0x20 DUP3 ADD MLOAD DUP2 PUSH1 0x1 ADD SSTORE SWAP1 POP POP PUSH2 0x535C PUSH1 0x1 DUP3 PUSH2 0x5357 SWAP2 SWAP1 PUSH2 0x9112 JUMP JUMPDEST PUSH2 0x7308 JUMP JUMPDEST PUSH2 0x5377 DUP9 PUSH2 0x5368 PUSH2 0x3A03 JUMP JUMPDEST PUSH2 0x5372 SWAP2 SWAP1 PUSH2 0x9112 JUMP JUMPDEST PUSH2 0x702E JUMP JUMPDEST PUSH2 0x5380 DUP10 PUSH2 0x733E JUMP JUMPDEST DUP9 DUP3 PUSH32 0x197874C72AF6A06FB0AA4FAB45FD39C7CB61AC0992159872DC3295207DA7E9EB DUP11 DUP9 PUSH1 0x20 ADD MLOAD DUP9 PUSH1 0x20 ADD MLOAD PUSH2 0x53B8 SWAP2 SWAP1 PUSH2 0x926E JUMP JUMPDEST TIMESTAMP PUSH1 0x40 MLOAD PUSH2 0x53C8 SWAP4 SWAP3 SWAP2 SWAP1 PUSH2 0x951D JUMP JUMPDEST PUSH1 0x40 MLOAD DUP1 SWAP2 SUB SWAP1 LOG3 POP POP POP POP POP POP POP POP POP JUMP JUMPDEST PUSH1 0x0 PUSH2 0x53FC DUP5 PUSH20 0xFFFFFFFFFFFFFFFFFFFFFFFFFFFFFFFFFFFFFFFF AND PUSH2 0x7374 JUMP JUMPDEST ISZERO PUSH2 0x5560 JUMPI DUP4 PUSH20 0xFFFFFFFFFFFFFFFFFFFFFFFFFFFFFFFFFFFFFFFF AND PUSH4 0x150B7A02 CALLER DUP8 DUP7 DUP7 PUSH1 0x40 MLOAD DUP6 PUSH4 0xFFFFFFFF AND PUSH1 0xE0 SHL DUP2 MSTORE PUSH1 0x4 ADD PUSH2 0x5440 SWAP5 SWAP4 SWAP3 SWAP2 SWAP1 PUSH2 0x95A9 JUMP JUMPDEST PUSH1 0x20 PUSH1 0x40 MLOAD DUP1 DUP4 SUB DUP2 PUSH1 0x0 DUP8 DUP1 EXTCODESIZE ISZERO DUP1 ISZERO PUSH2 0x545A JUMPI PUSH1 0x0 DUP1 REVERT JUMPDEST POP GAS CALL SWAP3 POP POP POP DUP1 ISZERO PUSH2 0x548B JUMPI POP PUSH1 0x40 MLOAD RETURNDATASIZE PUSH1 0x1F NOT PUSH1 0x1F DUP3 ADD AND DUP3 ADD DUP1 PUSH1 0x40 MSTORE POP DUP2 ADD SWAP1 PUSH2 0x5488 SWAP2 SWAP1 PUSH2 0x960A JUMP JUMPDEST PUSH1 0x1 JUMPDEST PUSH2 0x5510 JUMPI RETURNDATASIZE DUP1 PUSH1 0x0 DUP2 EQ PUSH2 0x54BB JUMPI PUSH1 0x40 MLOAD SWAP2 POP PUSH1 0x1F NOT PUSH1 0x3F RETURNDATASIZE ADD AND DUP3 ADD PUSH1 0x40 MSTORE RETURNDATASIZE DUP3 MSTORE RETURNDATASIZE PUSH1 0x0 PUSH1 0x20 DUP5 ADD RETURNDATACOPY PUSH2 0x54C0 JUMP JUMPDEST PUSH1 0x60 SWAP2 POP JUMPDEST POP PUSH1 0x0 DUP2 MLOAD EQ ISZERO PUSH2 0x5508 JUMPI DUP5 PUSH1 0x40 MLOAD PUSH32 0x9F844E300000000000000000000000000000000000000000000000000000000 DUP2 MSTORE PUSH1 0x4 ADD PUSH2 0x54FF SWAP2 SWAP1 PUSH2 0x7E6A JUMP JUMPDEST PUSH1 0x40 MLOAD DUP1 SWAP2 SUB SWAP1 REVERT JUMPDEST DUP1 MLOAD DUP2 PUSH1 0x20 ADD REVERT JUMPDEST PUSH4 0x150B7A02 PUSH1 0xE0 SHL PUSH28 0xFFFFFFFFFFFFFFFFFFFFFFFFFFFFFFFFFFFFFFFFFFFFFFFFFFFFFFFF NOT AND DUP2 PUSH28 0xFFFFFFFFFFFFFFFFFFFFFFFFFFFFFFFFFFFFFFFFFFFFFFFFFFFFFFFF NOT AND EQ SWAP2 POP POP PUSH2 0x5565 JUMP JUMPDEST PUSH1 0x1 SWAP1 POP JUMPDEST SWAP5 SWAP4 POP POP POP POP JUMP JUMPDEST PUSH2 0x5575 PUSH2 0x7AC8 JUMP JUMPDEST PUSH1 0x0 DUP3 EQ DUP1 PUSH2 0x558A JUMPI POP PUSH2 0x5587 PUSH2 0x149A JUMP JUMPDEST DUP3 GT JUMPDEST ISZERO PUSH2 0x55CC JUMPI DUP2 PUSH1 0x40 MLOAD PUSH32 0xC969E0F200000000000000000000000000000000000000000000000000000000 DUP2 MSTORE PUSH1 0x4 ADD PUSH2 0x55C3 SWAP2 SWAP1 PUSH2 0x7F00 JUMP JUMPDEST PUSH1 0x40 MLOAD DUP1 SWAP2 SUB SWAP1 REVERT JUMPDEST PUSH1 0x0 PUSH2 0x55D6 PUSH2 0x4B1F JUMP JUMPDEST PUSH1 0x0 DUP5 DUP2 MSTORE PUSH1 0x20 ADD SWAP1 DUP2 MSTORE PUSH1 0x20 ADD PUSH1 0x0 KECCAK256 PUSH1 0x40 MLOAD DUP1 PUSH1 0xC0 ADD PUSH1 0x40 MSTORE SWAP1 DUP2 PUSH1 0x0 DUP3 ADD PUSH1 0x0 SWAP1 SLOAD SWAP1 PUSH2 0x100 EXP SWAP1 DIV PUSH16 0xFFFFFFFFFFFFFFFFFFFFFFFFFFFFFFFF AND PUSH16 0xFFFFFFFFFFFFFFFFFFFFFFFFFFFFFFFF AND PUSH16 0xFFFFFFFFFFFFFFFFFFFFFFFFFFFFFFFF AND DUP2 MSTORE PUSH1 0x20 ADD PUSH1 0x0 DUP3 ADD PUSH1 0x10 SWAP1 SLOAD SWAP1 PUSH2 0x100 EXP SWAP1 DIV PUSH16 0xFFFFFFFFFFFFFFFFFFFFFFFFFFFFFFFF AND PUSH16 0xFFFFFFFFFFFFFFFFFFFFFFFFFFFFFFFF AND PUSH16 0xFFFFFFFFFFFFFFFFFFFFFFFFFFFFFFFF AND DUP2 MSTORE PUSH1 0x20 ADD PUSH1 0x1 DUP3 ADD PUSH1 0x0 SWAP1 SLOAD SWAP1 PUSH2 0x100 EXP SWAP1 DIV PUSH20 0xFFFFFFFFFFFFFFFFFFFFFFFFFFFFFFFFFFFFFFFF AND PUSH20 0xFFFFFFFFFFFFFFFFFFFFFFFFFFFFFFFFFFFFFFFF AND PUSH20 0xFFFFFFFFFFFFFFFFFFFFFFFFFFFFFFFFFFFFFFFF AND DUP2 MSTORE PUSH1 0x20 ADD PUSH1 0x1 DUP3 ADD PUSH1 0x14 SWAP1 SLOAD SWAP1 PUSH2 0x100 EXP SWAP1 DIV PUSH5 0xFFFFFFFFFF AND PUSH5 0xFFFFFFFFFF AND PUSH5 0xFFFFFFFFFF AND DUP2 MSTORE PUSH1 0x20 ADD PUSH1 0x1 DUP3 ADD PUSH1 0x19 SWAP1 SLOAD SWAP1 PUSH2 0x100 EXP SWAP1 DIV PUSH1 0xFF AND ISZERO ISZERO ISZERO ISZERO DUP2 MSTORE PUSH1 0x20 ADD PUSH1 0x1 DUP3 ADD PUSH1 0x1A SWAP1 SLOAD SWAP1 PUSH2 0x100 EXP SWAP1 DIV PUSH5 0xFFFFFFFFFF AND PUSH5 0xFFFFFFFFFF AND PUSH5 0xFFFFFFFFFF AND DUP2 MSTORE POP POP SWAP1 POP PUSH1 0x0 PUSH2 0x5755 PUSH2 0x4B1F JUMP JUMPDEST PUSH1 0x0 PUSH1 0x1 DUP7 PUSH2 0x5764 SWAP2 SWAP1 PUSH2 0x9024 JUMP JUMPDEST DUP2 MSTORE PUSH1 0x20 ADD SWAP1 DUP2 MSTORE PUSH1 0x20 ADD PUSH1 0x0 KECCAK256 PUSH1 0x40 MLOAD DUP1 PUSH1 0xC0 ADD PUSH1 0x40 MSTORE SWAP1 DUP2 PUSH1 0x0 DUP3 ADD PUSH1 0x0 SWAP1 SLOAD SWAP1 PUSH2 0x100 EXP SWAP1 DIV PUSH16 0xFFFFFFFFFFFFFFFFFFFFFFFFFFFFFFFF AND PUSH16 0xFFFFFFFFFFFFFFFFFFFFFFFFFFFFFFFF AND PUSH16 0xFFFFFFFFFFFFFFFFFFFFFFFFFFFFFFFF AND DUP2 MSTORE PUSH1 0x20 ADD PUSH1 0x0 DUP3 ADD PUSH1 0x10 SWAP1 SLOAD SWAP1 PUSH2 0x100 EXP SWAP1 DIV PUSH16 0xFFFFFFFFFFFFFFFFFFFFFFFFFFFFFFFF AND PUSH16 0xFFFFFFFFFFFFFFFFFFFFFFFFFFFFFFFF AND PUSH16 0xFFFFFFFFFFFFFFFFFFFFFFFFFFFFFFFF AND DUP2 MSTORE PUSH1 0x20 ADD PUSH1 0x1 DUP3 ADD PUSH1 0x0 SWAP1 SLOAD SWAP1 PUSH2 0x100 EXP SWAP1 DIV PUSH20 0xFFFFFFFFFFFFFFFFFFFFFFFFFFFFFFFFFFFFFFFF AND PUSH20 0xFFFFFFFFFFFFFFFFFFFFFFFFFFFFFFFFFFFFFFFF AND PUSH20 0xFFFFFFFFFFFFFFFFFFFFFFFFFFFFFFFFFFFFFFFF AND DUP2 MSTORE PUSH1 0x20 ADD PUSH1 0x1 DUP3 ADD PUSH1 0x14 SWAP1 SLOAD SWAP1 PUSH2 0x100 EXP SWAP1 DIV PUSH5 0xFFFFFFFFFF AND PUSH5 0xFFFFFFFFFF AND PUSH5 0xFFFFFFFFFF AND DUP2 MSTORE PUSH1 0x20 ADD PUSH1 0x1 DUP3 ADD PUSH1 0x19 SWAP1 SLOAD SWAP1 PUSH2 0x100 EXP SWAP1 DIV PUSH1 0xFF AND ISZERO ISZERO ISZERO ISZERO DUP2 MSTORE PUSH1 0x20 ADD PUSH1 0x1 DUP3 ADD PUSH1 0x1A SWAP1 SLOAD SWAP1 PUSH2 0x100 EXP SWAP1 DIV PUSH5 0xFFFFFFFFFF AND PUSH5 0xFFFFFFFFFF AND PUSH5 0xFFFFFFFFFF AND DUP2 MSTORE POP POP SWAP1 POP PUSH1 0x40 MLOAD DUP1 PUSH1 0xC0 ADD PUSH1 0x40 MSTORE DUP1 DUP3 PUSH1 0x0 ADD MLOAD DUP5 PUSH1 0x0 ADD MLOAD PUSH2 0x58F5 SWAP2 SWAP1 PUSH2 0x926E JUMP JUMPDEST PUSH16 0xFFFFFFFFFFFFFFFFFFFFFFFFFFFFFFFF AND DUP2 MSTORE PUSH1 0x20 ADD DUP3 PUSH1 0x20 ADD MLOAD DUP5 PUSH1 0x20 ADD MLOAD PUSH2 0x5920 SWAP2 SWAP1 PUSH2 0x926E JUMP JUMPDEST PUSH16 0xFFFFFFFFFFFFFFFFFFFFFFFFFFFFFFFF AND DUP2 MSTORE PUSH1 0x20 ADD DUP4 PUSH1 0x40 ADD MLOAD PUSH20 0xFFFFFFFFFFFFFFFFFFFFFFFFFFFFFFFFFFFFFFFF AND DUP2 MSTORE PUSH1 0x20 ADD DUP4 PUSH1 0x60 ADD MLOAD PUSH5 0xFFFFFFFFFF AND DUP2 MSTORE PUSH1 0x20 ADD PUSH2 0x5970 PUSH2 0x169E JUMP JUMPDEST DUP7 GT ISZERO ISZERO ISZERO DUP2 MSTORE PUSH1 0x20 ADD DUP4 PUSH1 0x80 ADD MLOAD ISZERO ISZERO DUP2 MSTORE POP SWAP3 POP POP POP SWAP2 SWAP1 POP JUMP JUMPDEST PUSH2 0x5995 PUSH2 0x7387 JUMP JUMPDEST PUSH2 0x59BE PUSH32 0xFFFFFFFFFFFFFFFFFFFFFFFFFFFFFFFFFFFFFFFFFFFFFFFFFFFFFFFFFFFFFFFF PUSH2 0x6090 JUMP JUMPDEST PUSH2 0x59C8 PUSH1 0x1 PUSH2 0x75A6 JUMP JUMPDEST PUSH2 0x59D5 PUSH1 0x0 DUP1 SHL DUP3 PUSH2 0x44F1 JUMP JUMPDEST PUSH2 0x5A28 PUSH32 0xFFFFFFFFFFFFFFFFFFFFFFFFFFFFFFFFFFFFFFFFFFFFFFFFFFFFFFFFFFFFFFFF PUSH32 0x1450EB8D0693284079F6627B2C1C6BB2E076066E44DF1B18BA6EA7CC507E9BCB PUSH2 0x3A5F SWAP1 SWAP2 SWAP1 PUSH4 0xFFFFFFFF AND JUMP JUMPDEST PUSH32 0x20B34D2AAAF6ACB4FBBC9C4846858BB824053AB11FF44A59DFBA1E22CEB8A509 DUP2 PUSH1 0x40 MLOAD PUSH2 0x5A57 SWAP2 SWAP1 PUSH2 0x7E6A JUMP JUMPDEST PUSH1 0x40 MLOAD DUP1 SWAP2 SUB SWAP1 LOG1 POP JUMP JUMPDEST PUSH1 0x60 PUSH1 0x0 PUSH2 0x5A6E PUSH2 0x4570 JUMP JUMPDEST PUSH1 0x0 ADD DUP1 SLOAD PUSH2 0x5A7C SWAP1 PUSH2 0x8F0E JUMP JUMPDEST DUP1 PUSH1 0x1F ADD PUSH1 0x20 DUP1 SWAP2 DIV MUL PUSH1 0x20 ADD PUSH1 0x40 MLOAD SWAP1 DUP2 ADD PUSH1 0x40 MSTORE DUP1 SWAP3 SWAP2 SWAP1 DUP2 DUP2 MSTORE PUSH1 0x20 ADD DUP3 DUP1 SLOAD PUSH2 0x5AA8 SWAP1 PUSH2 0x8F0E JUMP JUMPDEST DUP1 ISZERO PUSH2 0x5AF5 JUMPI DUP1 PUSH1 0x1F LT PUSH2 0x5ACA JUMPI PUSH2 0x100 DUP1 DUP4 SLOAD DIV MUL DUP4 MSTORE SWAP2 PUSH1 0x20 ADD SWAP2 PUSH2 0x5AF5 JUMP JUMPDEST DUP3 ADD SWAP2 SWAP1 PUSH1 0x0 MSTORE PUSH1 0x20 PUSH1 0x0 KECCAK256 SWAP1 JUMPDEST DUP2 SLOAD DUP2 MSTORE SWAP1 PUSH1 0x1 ADD SWAP1 PUSH1 0x20 ADD DUP1 DUP4 GT PUSH2 0x5AD8 JUMPI DUP3 SWAP1 SUB PUSH1 0x1F AND DUP3 ADD SWAP2 JUMPDEST POP POP POP POP POP SWAP1 POP PUSH1 0x0 DUP2 MLOAD EQ ISZERO PUSH2 0x5B1E JUMPI PUSH1 0x40 MLOAD DUP1 PUSH1 0x20 ADD PUSH1 0x40 MSTORE DUP1 PUSH1 0x0 DUP2 MSTORE POP SWAP2 POP POP PUSH2 0x5D6D JUMP JUMPDEST PUSH1 0x0 DUP2 PUSH1 0x40 MLOAD DUP1 PUSH1 0x40 ADD PUSH1 0x40 MSTORE DUP1 PUSH1 0x1 DUP2 MSTORE PUSH1 0x20 ADD PUSH32 0x2F00000000000000000000000000000000000000000000000000000000000000 DUP2 MSTORE POP PUSH2 0x5B60 DUP7 PUSH2 0x75F3 JUMP JUMPDEST PUSH1 0x40 MLOAD DUP1 PUSH1 0x40 ADD PUSH1 0x40 MSTORE DUP1 PUSH1 0xB DUP2 MSTORE PUSH1 0x20 ADD PUSH32 0x3F7265717565737465643D000000000000000000000000000000000000000000 DUP2 MSTORE POP PUSH2 0x5C38 PUSH2 0x5BA1 PUSH2 0x4B1F JUMP JUMPDEST PUSH1 0x0 PUSH1 0x1 DUP12 PUSH2 0x5BB0 SWAP2 SWAP1 PUSH2 0x9024 JUMP JUMPDEST DUP2 MSTORE PUSH1 0x20 ADD SWAP1 DUP2 MSTORE PUSH1 0x20 ADD PUSH1 0x0 KECCAK256 PUSH1 0x0 ADD PUSH1 0x0 SWAP1 SLOAD SWAP1 PUSH2 0x100 EXP SWAP1 DIV PUSH16 0xFFFFFFFFFFFFFFFFFFFFFFFFFFFFFFFF AND PUSH2 0x5BE6 PUSH2 0x4B1F JUMP JUMPDEST PUSH1 0x0 DUP12 DUP2 MSTORE PUSH1 0x20 ADD SWAP1 DUP2 MSTORE PUSH1 0x20 ADD PUSH1 0x0 KECCAK256 PUSH1 0x0 ADD PUSH1 0x0 SWAP1 SLOAD SWAP1 PUSH2 0x100 EXP SWAP1 DIV PUSH16 0xFFFFFFFFFFFFFFFFFFFFFFFFFFFFFFFF AND PUSH2 0x5C21 SWAP2 SWAP1 PUSH2 0x926E JUMP JUMPDEST PUSH16 0xFFFFFFFFFFFFFFFFFFFFFFFFFFFFFFFF AND PUSH2 0x75F3 JUMP JUMPDEST PUSH1 0x40 MLOAD DUP1 PUSH1 0x40 ADD PUSH1 0x40 MSTORE DUP1 PUSH1 0xC DUP2 MSTORE PUSH1 0x20 ADD PUSH32 0x26637265617465645F61743D0000000000000000000000000000000000000000 DUP2 MSTORE POP PUSH2 0x5CAB PUSH2 0x5C79 PUSH2 0x4B1F JUMP JUMPDEST PUSH1 0x0 DUP13 DUP2 MSTORE PUSH1 0x20 ADD SWAP1 DUP2 MSTORE PUSH1 0x20 ADD PUSH1 0x0 KECCAK256 PUSH1 0x1 ADD PUSH1 0x14 SWAP1 SLOAD SWAP1 PUSH2 0x100 EXP SWAP1 DIV PUSH5 0xFFFFFFFFFF AND PUSH5 0xFFFFFFFFFF AND PUSH2 0x75F3 JUMP JUMPDEST PUSH1 0x40 MLOAD PUSH1 0x20 ADD PUSH2 0x5CC1 SWAP8 SWAP7 SWAP6 SWAP5 SWAP4 SWAP3 SWAP2 SWAP1 PUSH2 0x9673 JUMP JUMPDEST PUSH1 0x40 MLOAD PUSH1 0x20 DUP2 DUP4 SUB SUB DUP2 MSTORE SWAP1 PUSH1 0x40 MSTORE SWAP1 POP PUSH1 0x0 PUSH2 0x5CDC PUSH2 0x169E JUMP JUMPDEST DUP6 GT ISZERO SWAP1 POP DUP1 ISZERO PUSH2 0x5D66 JUMPI DUP2 PUSH1 0x40 MLOAD DUP1 PUSH1 0x40 ADD PUSH1 0x40 MSTORE DUP1 PUSH1 0xB DUP2 MSTORE PUSH1 0x20 ADD PUSH32 0x2666696E616C697A65643D000000000000000000000000000000000000000000 DUP2 MSTORE POP PUSH2 0x5D42 PUSH2 0x5D3D DUP9 PUSH2 0x5D38 DUP11 PUSH1 0x1 PUSH2 0x5D33 PUSH2 0x16CE JUMP JUMPDEST PUSH2 0x4900 JUMP JUMPDEST PUSH2 0x5D72 JUMP JUMPDEST PUSH2 0x75F3 JUMP JUMPDEST PUSH1 0x40 MLOAD PUSH1 0x20 ADD PUSH2 0x5D54 SWAP4 SWAP3 SWAP2 SWAP1 PUSH2 0x96D8 JUMP JUMPDEST PUSH1 0x40 MLOAD PUSH1 0x20 DUP2 DUP4 SUB SUB DUP2 MSTORE SWAP1 PUSH1 0x40 MSTORE SWAP2 POP JUMPDEST DUP2 SWAP4 POP POP POP POP JUMPDEST SWAP2 SWAP1 POP JUMP JUMPDEST PUSH1 0x0 DUP1 DUP4 EQ DUP1 PUSH2 0x5D88 JUMPI POP PUSH2 0x5D85 PUSH2 0x149A JUMP JUMPDEST DUP4 GT JUMPDEST ISZERO PUSH2 0x5DCA JUMPI DUP3 PUSH1 0x40 MLOAD PUSH32 0xC969E0F200000000000000000000000000000000000000000000000000000000 DUP2 MSTORE PUSH1 0x4 ADD PUSH2 0x5DC1 SWAP2 SWAP1 PUSH2 0x7F00 JUMP JUMPDEST PUSH1 0x40 MLOAD DUP1 SWAP2 SUB SWAP1 REVERT JUMPDEST PUSH2 0x5DD2 PUSH2 0x169E JUMP JUMPDEST DUP4 GT ISZERO PUSH2 0x5DE2 JUMPI PUSH1 0x0 SWAP1 POP PUSH2 0x5E2F JUMP JUMPDEST PUSH1 0x0 PUSH2 0x5DEC PUSH2 0x4B1F JUMP JUMPDEST PUSH1 0x0 DUP6 DUP2 MSTORE PUSH1 0x20 ADD SWAP1 DUP2 MSTORE PUSH1 0x20 ADD PUSH1 0x0 KECCAK256 SWAP1 POP DUP1 PUSH1 0x1 ADD PUSH1 0x19 SWAP1 SLOAD SWAP1 PUSH2 0x100 EXP SWAP1 DIV PUSH1 0xFF AND ISZERO PUSH2 0x5E20 JUMPI PUSH1 0x0 SWAP2 POP POP PUSH2 0x5E2F JUMP JUMPDEST PUSH2 0x5E2B DUP2 DUP6 DUP6 PUSH2 0x6B2F JUMP JUMPDEST SWAP2 POP POP JUMPDEST SWAP3 SWAP2 POP POP JUMP JUMPDEST PUSH1 0x0 PUSH2 0x5E43 DUP3 PUSH1 0x0 ADD PUSH2 0x7173 JUMP JUMPDEST SWAP1 POP SWAP2 SWAP1 POP JUMP JUMPDEST PUSH1 0x64 DUP2 LT ISZERO PUSH2 0x5E90 JUMPI DUP1 PUSH1 0x40 MLOAD PUSH32 0xB89B87C800000000000000000000000000000000000000000000000000000000 DUP2 MSTORE PUSH1 0x4 ADD PUSH2 0x5E87 SWAP2 SWAP1 PUSH2 0x7F00 JUMP JUMPDEST PUSH1 0x40 MLOAD DUP1 SWAP2 SUB SWAP1 REVERT JUMPDEST PUSH9 0x3635C9ADC5DEA00000 DUP2 GT ISZERO PUSH2 0x5EDE JUMPI DUP1 PUSH1 0x40 MLOAD PUSH32 0x8EBFB78D00000000000000000000000000000000000000000000000000000000 DUP2 MSTORE PUSH1 0x4 ADD PUSH2 0x5ED5 SWAP2 SWAP1 PUSH2 0x7F00 JUMP JUMPDEST PUSH1 0x40 MLOAD DUP1 SWAP2 SUB SWAP1 REVERT JUMPDEST POP JUMP JUMPDEST PUSH1 0x0 PUSH32 0x0 PUSH20 0xFFFFFFFFFFFFFFFFFFFFFFFFFFFFFFFFFFFFFFFF AND PUSH4 0x23B872DD CALLER ADDRESS DUP7 PUSH1 0x40 MLOAD DUP5 PUSH4 0xFFFFFFFF AND PUSH1 0xE0 SHL DUP2 MSTORE PUSH1 0x4 ADD PUSH2 0x5F40 SWAP4 SWAP3 SWAP2 SWAP1 PUSH2 0x93B0 JUMP JUMPDEST PUSH1 0x20 PUSH1 0x40 MLOAD DUP1 DUP4 SUB DUP2 PUSH1 0x0 DUP8 DUP1 EXTCODESIZE ISZERO DUP1 ISZERO PUSH2 0x5F5A JUMPI PUSH1 0x0 DUP1 REVERT JUMPDEST POP GAS CALL ISZERO DUP1 ISZERO PUSH2 0x5F6E JUMPI RETURNDATASIZE PUSH1 0x0 DUP1 RETURNDATACOPY RETURNDATASIZE PUSH1 0x0 REVERT JUMPDEST POP POP POP POP PUSH1 0x40 MLOAD RETURNDATASIZE PUSH1 0x1F NOT PUSH1 0x1F DUP3 ADD AND DUP3 ADD DUP1 PUSH1 0x40 MSTORE POP DUP2 ADD SWAP1 PUSH2 0x5F92 SWAP2 SWAP1 PUSH2 0x93FC JUMP JUMPDEST POP PUSH1 0x0 PUSH32 0x0 PUSH20 0xFFFFFFFFFFFFFFFFFFFFFFFFFFFFFFFFFFFFFFFF AND PUSH4 0x19208451 DUP6 PUSH1 0x40 MLOAD DUP3 PUSH4 0xFFFFFFFF AND PUSH1 0xE0 SHL DUP2 MSTORE PUSH1 0x4 ADD PUSH2 0x5FEE SWAP2 SWAP1 PUSH2 0x7F00 JUMP JUMPDEST PUSH1 0x20 PUSH1 0x40 MLOAD DUP1 DUP4 SUB DUP2 DUP7 DUP1 EXTCODESIZE ISZERO DUP1 ISZERO PUSH2 0x6006 JUMPI PUSH1 0x0 DUP1 REVERT JUMPDEST POP GAS STATICCALL ISZERO DUP1 ISZERO PUSH2 0x601A JUMPI RETURNDATASIZE PUSH1 0x0 DUP1 RETURNDATACOPY RETURNDATASIZE PUSH1 0x0 REVERT JUMPDEST POP POP POP POP PUSH1 0x40 MLOAD RETURNDATASIZE PUSH1 0x1F NOT PUSH1 0x1F DUP3 ADD AND DUP3 ADD DUP1 PUSH1 0x40 MSTORE POP DUP2 ADD SWAP1 PUSH2 0x603E SWAP2 SWAP1 PUSH2 0x943E JUMP JUMPDEST SWAP1 POP PUSH2 0x604B DUP5 DUP3 DUP6 PUSH2 0x6451 JUMP JUMPDEST SWAP2 POP PUSH2 0x6059 PUSH1 0x0 DUP5 DUP5 PUSH2 0x48A0 JUMP JUMPDEST POP SWAP3 SWAP2 POP POP JUMP JUMPDEST PUSH1 0x0 PUSH2 0x608B PUSH32 0xE6A0E71D546599DAB4B90490502C456CF7C806A5710690DDE406C1A77D7F25E7 PUSH2 0x7754 JUMP JUMPDEST SWAP1 POP SWAP1 JUMP JUMPDEST PUSH2 0x6098 PUSH2 0x3D9B JUMP JUMPDEST PUSH1 0x0 DUP2 EQ ISZERO PUSH2 0x60D3 JUMPI PUSH1 0x40 MLOAD PUSH32 0xAD58BFC700000000000000000000000000000000000000000000000000000000 DUP2 MSTORE PUSH1 0x4 ADD PUSH1 0x40 MLOAD DUP1 SWAP2 SUB SWAP1 REVERT JUMPDEST PUSH1 0x0 PUSH32 0xFFFFFFFFFFFFFFFFFFFFFFFFFFFFFFFFFFFFFFFFFFFFFFFFFFFFFFFFFFFFFFFF DUP3 EQ ISZERO PUSH2 0x6125 JUMPI PUSH32 0xFFFFFFFFFFFFFFFFFFFFFFFFFFFFFFFFFFFFFFFFFFFFFFFFFFFFFFFFFFFFFFFF SWAP1 POP PUSH2 0x6134 JUMP JUMPDEST DUP2 TIMESTAMP PUSH2 0x6131 SWAP2 SWAP1 PUSH2 0x9112 JUMP JUMPDEST SWAP1 POP JUMPDEST PUSH2 0x613D DUP2 PUSH2 0x720B JUMP JUMPDEST POP POP JUMP JUMPDEST PUSH1 0x0 PUSH32 0x7965DB0B00000000000000000000000000000000000000000000000000000000 PUSH28 0xFFFFFFFFFFFFFFFFFFFFFFFFFFFFFFFFFFFFFFFFFFFFFFFFFFFFFFFF NOT AND DUP3 PUSH28 0xFFFFFFFFFFFFFFFFFFFFFFFFFFFFFFFFFFFFFFFFFFFFFFFFFFFFFFFF NOT AND EQ DUP1 PUSH2 0x61B4 JUMPI POP PUSH2 0x61B3 DUP3 PUSH2 0x775E JUMP JUMPDEST JUMPDEST SWAP1 POP SWAP2 SWAP1 POP JUMP JUMPDEST PUSH1 0x60 PUSH1 0x0 PUSH1 0x2 DUP4 PUSH1 0x2 PUSH2 0x61CE SWAP2 SWAP1 PUSH2 0x9058 JUMP JUMPDEST PUSH2 0x61D8 SWAP2 SWAP1 PUSH2 0x9112 JUMP JUMPDEST PUSH8 0xFFFFFFFFFFFFFFFF DUP2 GT ISZERO PUSH2 0x61F1 JUMPI PUSH2 0x61F0 PUSH2 0x85EA JUMP JUMPDEST JUMPDEST PUSH1 0x40 MLOAD SWAP1 DUP1 DUP3 MSTORE DUP1 PUSH1 0x1F ADD PUSH1 0x1F NOT AND PUSH1 0x20 ADD DUP3 ADD PUSH1 0x40 MSTORE DUP1 ISZERO PUSH2 0x6223 JUMPI DUP2 PUSH1 0x20 ADD PUSH1 0x1 DUP3 MUL DUP1 CALLDATASIZE DUP4 CALLDATACOPY DUP1 DUP3 ADD SWAP2 POP POP SWAP1 POP JUMPDEST POP SWAP1 POP PUSH32 0x3000000000000000000000000000000000000000000000000000000000000000 DUP2 PUSH1 0x0 DUP2 MLOAD DUP2 LT PUSH2 0x625B JUMPI PUSH2 0x625A PUSH2 0x8D55 JUMP JUMPDEST JUMPDEST PUSH1 0x20 ADD ADD SWAP1 PUSH31 0xFFFFFFFFFFFFFFFFFFFFFFFFFFFFFFFFFFFFFFFFFFFFFFFFFFFFFFFFFFFFFF NOT AND SWAP1 DUP2 PUSH1 0x0 BYTE SWAP1 MSTORE8 POP PUSH32 0x7800000000000000000000000000000000000000000000000000000000000000 DUP2 PUSH1 0x1 DUP2 MLOAD DUP2 LT PUSH2 0x62BF JUMPI PUSH2 0x62BE PUSH2 0x8D55 JUMP JUMPDEST JUMPDEST PUSH1 0x20 ADD ADD SWAP1 PUSH31 0xFFFFFFFFFFFFFFFFFFFFFFFFFFFFFFFFFFFFFFFFFFFFFFFFFFFFFFFFFFFFFF NOT AND SWAP1 DUP2 PUSH1 0x0 BYTE SWAP1 MSTORE8 POP PUSH1 0x0 PUSH1 0x1 DUP5 PUSH1 0x2 PUSH2 0x62FF SWAP2 SWAP1 PUSH2 0x9058 JUMP JUMPDEST PUSH2 0x6309 SWAP2 SWAP1 PUSH2 0x9112 JUMP JUMPDEST SWAP1 POP JUMPDEST PUSH1 0x1 DUP2 GT ISZERO PUSH2 0x63A9 JUMPI PUSH32 0x3031323334353637383961626364656600000000000000000000000000000000 PUSH1 0xF DUP7 AND PUSH1 0x10 DUP2 LT PUSH2 0x634B JUMPI PUSH2 0x634A PUSH2 0x8D55 JUMP JUMPDEST JUMPDEST BYTE PUSH1 0xF8 SHL DUP3 DUP3 DUP2 MLOAD DUP2 LT PUSH2 0x6362 JUMPI PUSH2 0x6361 PUSH2 0x8D55 JUMP JUMPDEST JUMPDEST PUSH1 0x20 ADD ADD SWAP1 PUSH31 0xFFFFFFFFFFFFFFFFFFFFFFFFFFFFFFFFFFFFFFFFFFFFFFFFFFFFFFFFFFFFFF NOT AND SWAP1 DUP2 PUSH1 0x0 BYTE SWAP1 MSTORE8 POP PUSH1 0x4 DUP6 SWAP1 SHR SWAP5 POP DUP1 PUSH2 0x63A2 SWAP1 PUSH2 0x9709 JUMP JUMPDEST SWAP1 POP PUSH2 0x630C JUMP JUMPDEST POP PUSH1 0x0 DUP5 EQ PUSH2 0x63ED JUMPI PUSH1 0x40 MLOAD PUSH32 0x8C379A000000000000000000000000000000000000000000000000000000000 DUP2 MSTORE PUSH1 0x4 ADD PUSH2 0x63E4 SWAP1 PUSH2 0x977F JUMP JUMPDEST PUSH1 0x40 MLOAD DUP1 SWAP2 SUB SWAP1 REVERT JUMPDEST DUP1 SWAP2 POP POP SWAP3 SWAP2 POP POP JUMP JUMPDEST PUSH2 0x63FF PUSH2 0x282E JUMP JUMPDEST PUSH2 0x6435 JUMPI PUSH1 0x40 MLOAD PUSH32 0xB047186B00000000000000000000000000000000000000000000000000000000 DUP2 MSTORE PUSH1 0x4 ADD PUSH1 0x40 MLOAD DUP1 SWAP2 SUB SWAP1 REVERT JUMPDEST JUMP JUMPDEST PUSH1 0x0 PUSH1 0xFF DUP3 PUSH1 0x0 SHR AND SWAP1 POP SWAP2 SWAP1 POP JUMP JUMPDEST PUSH1 0x0 DUP2 SWAP1 POP SWAP2 SWAP1 POP JUMP JUMPDEST PUSH1 0x0 DUP1 PUSH2 0x645C PUSH2 0x149A JUMP JUMPDEST SWAP1 POP PUSH1 0x0 PUSH2 0x6468 PUSH2 0x4B1F JUMP JUMPDEST PUSH1 0x0 DUP4 DUP2 MSTORE PUSH1 0x20 ADD SWAP1 DUP2 MSTORE PUSH1 0x20 ADD PUSH1 0x0 KECCAK256 PUSH1 0x40 MLOAD DUP1 PUSH1 0xC0 ADD PUSH1 0x40 MSTORE SWAP1 DUP2 PUSH1 0x0 DUP3 ADD PUSH1 0x0 SWAP1 SLOAD SWAP1 PUSH2 0x100 EXP SWAP1 DIV PUSH16 0xFFFFFFFFFFFFFFFFFFFFFFFFFFFFFFFF AND PUSH16 0xFFFFFFFFFFFFFFFFFFFFFFFFFFFFFFFF AND PUSH16 0xFFFFFFFFFFFFFFFFFFFFFFFFFFFFFFFF AND DUP2 MSTORE PUSH1 0x20 ADD PUSH1 0x0 DUP3 ADD PUSH1 0x10 SWAP1 SLOAD SWAP1 PUSH2 0x100 EXP SWAP1 DIV PUSH16 0xFFFFFFFFFFFFFFFFFFFFFFFFFFFFFFFF AND PUSH16 0xFFFFFFFFFFFFFFFFFFFFFFFFFFFFFFFF AND PUSH16 0xFFFFFFFFFFFFFFFFFFFFFFFFFFFFFFFF AND DUP2 MSTORE PUSH1 0x20 ADD PUSH1 0x1 DUP3 ADD PUSH1 0x0 SWAP1 SLOAD SWAP1 PUSH2 0x100 EXP SWAP1 DIV PUSH20 0xFFFFFFFFFFFFFFFFFFFFFFFFFFFFFFFFFFFFFFFF AND PUSH20 0xFFFFFFFFFFFFFFFFFFFFFFFFFFFFFFFFFFFFFFFF AND PUSH20 0xFFFFFFFFFFFFFFFFFFFFFFFFFFFFFFFFFFFFFFFF AND DUP2 MSTORE PUSH1 0x20 ADD PUSH1 0x1 DUP3 ADD PUSH1 0x14 SWAP1 SLOAD SWAP1 PUSH2 0x100 EXP SWAP1 DIV PUSH5 0xFFFFFFFFFF AND PUSH5 0xFFFFFFFFFF AND PUSH5 0xFFFFFFFFFF AND DUP2 MSTORE PUSH1 0x20 ADD PUSH1 0x1 DUP3 ADD PUSH1 0x19 SWAP1 SLOAD SWAP1 PUSH2 0x100 EXP SWAP1 DIV PUSH1 0xFF AND ISZERO ISZERO ISZERO ISZERO DUP2 MSTORE PUSH1 0x20 ADD PUSH1 0x1 DUP3 ADD PUSH1 0x1A SWAP1 SLOAD SWAP1 PUSH2 0x100 EXP SWAP1 DIV PUSH5 0xFFFFFFFFFF AND PUSH5 0xFFFFFFFFFF AND PUSH5 0xFFFFFFFFFF AND DUP2 MSTORE POP POP SWAP1 POP PUSH1 0x0 DUP6 DUP3 PUSH1 0x20 ADD MLOAD PUSH2 0x65EF SWAP2 SWAP1 PUSH2 0x979F JUMP JUMPDEST SWAP1 POP PUSH1 0x0 DUP8 DUP4 PUSH1 0x0 ADD MLOAD PUSH2 0x6603 SWAP2 SWAP1 PUSH2 0x979F JUMP JUMPDEST SWAP1 POP PUSH1 0x1 DUP5 PUSH2 0x6612 SWAP2 SWAP1 PUSH2 0x9112 JUMP JUMPDEST SWAP5 POP PUSH2 0x661D DUP6 PUSH2 0x77C8 JUMP JUMPDEST PUSH1 0x0 PUSH1 0x40 MLOAD DUP1 PUSH1 0xC0 ADD PUSH1 0x40 MSTORE DUP1 DUP4 PUSH16 0xFFFFFFFFFFFFFFFFFFFFFFFFFFFFFFFF AND DUP2 MSTORE PUSH1 0x20 ADD DUP5 PUSH16 0xFFFFFFFFFFFFFFFFFFFFFFFFFFFFFFFF AND DUP2 MSTORE PUSH1 0x20 ADD DUP9 PUSH20 0xFFFFFFFFFFFFFFFFFFFFFFFFFFFFFFFFFFFFFFFF AND DUP2 MSTORE PUSH1 0x20 ADD TIMESTAMP PUSH5 0xFFFFFFFFFF AND DUP2 MSTORE PUSH1 0x20 ADD PUSH1 0x0 ISZERO ISZERO DUP2 MSTORE PUSH1 0x20 ADD PUSH2 0x6694 PUSH2 0x77FE JUMP JUMPDEST PUSH5 0xFFFFFFFFFF AND DUP2 MSTORE POP SWAP1 POP DUP1 PUSH2 0x66A9 PUSH2 0x4B1F JUMP JUMPDEST PUSH1 0x0 DUP9 DUP2 MSTORE PUSH1 0x20 ADD SWAP1 DUP2 MSTORE PUSH1 0x20 ADD PUSH1 0x0 KECCAK256 PUSH1 0x0 DUP3 ADD MLOAD DUP2 PUSH1 0x0 ADD PUSH1 0x0 PUSH2 0x100 EXP DUP2 SLOAD DUP2 PUSH16 0xFFFFFFFFFFFFFFFFFFFFFFFFFFFFFFFF MUL NOT AND SWAP1 DUP4 PUSH16 0xFFFFFFFFFFFFFFFFFFFFFFFFFFFFFFFF AND MUL OR SWAP1 SSTORE POP PUSH1 0x20 DUP3 ADD MLOAD DUP2 PUSH1 0x0 ADD PUSH1 0x10 PUSH2 0x100 EXP DUP2 SLOAD DUP2 PUSH16 0xFFFFFFFFFFFFFFFFFFFFFFFFFFFFFFFF MUL NOT AND SWAP1 DUP4 PUSH16 0xFFFFFFFFFFFFFFFFFFFFFFFFFFFFFFFF AND MUL OR SWAP1 SSTORE POP PUSH1 0x40 DUP3 ADD MLOAD DUP2 PUSH1 0x1 ADD PUSH1 0x0 PUSH2 0x100 EXP DUP2 SLOAD DUP2 PUSH20 0xFFFFFFFFFFFFFFFFFFFFFFFFFFFFFFFFFFFFFFFF MUL NOT AND SWAP1 DUP4 PUSH20 0xFFFFFFFFFFFFFFFFFFFFFFFFFFFFFFFFFFFFFFFF AND MUL OR SWAP1 SSTORE POP PUSH1 0x60 DUP3 ADD MLOAD DUP2 PUSH1 0x1 ADD PUSH1 0x14 PUSH2 0x100 EXP DUP2 SLOAD DUP2 PUSH5 0xFFFFFFFFFF MUL NOT AND SWAP1 DUP4 PUSH5 0xFFFFFFFFFF AND MUL OR SWAP1 SSTORE POP PUSH1 0x80 DUP3 ADD MLOAD DUP2 PUSH1 0x1 ADD PUSH1 0x19 PUSH2 0x100 EXP DUP2 SLOAD DUP2 PUSH1 0xFF MUL NOT AND SWAP1 DUP4 ISZERO ISZERO MUL OR SWAP1 SSTORE POP PUSH1 0xA0 DUP3 ADD MLOAD DUP2 PUSH1 0x1 ADD PUSH1 0x1A PUSH2 0x100 EXP DUP2 SLOAD DUP2 PUSH5 0xFFFFFFFFFF MUL NOT AND SWAP1 DUP4 PUSH5 0xFFFFFFFFFF AND MUL OR SWAP1 SSTORE POP SWAP1 POP POP PUSH2 0x684B DUP7 PUSH2 0x6800 PUSH2 0x4B4C JUMP JUMPDEST PUSH1 0x0 DUP11 PUSH20 0xFFFFFFFFFFFFFFFFFFFFFFFFFFFFFFFFFFFFFFFF AND PUSH20 0xFFFFFFFFFFFFFFFFFFFFFFFFFFFFFFFFFFFFFFFF AND DUP2 MSTORE PUSH1 0x20 ADD SWAP1 DUP2 MSTORE PUSH1 0x20 ADD PUSH1 0x0 KECCAK256 PUSH2 0x68E6 SWAP1 SWAP2 SWAP1 PUSH4 0xFFFFFFFF AND JUMP JUMPDEST PUSH2 0x6858 JUMPI PUSH2 0x6857 PUSH2 0x9494 JUMP JUMPDEST JUMPDEST DUP7 PUSH20 0xFFFFFFFFFFFFFFFFFFFFFFFFFFFFFFFFFFFFFFFF AND CALLER PUSH20 0xFFFFFFFFFFFFFFFFFFFFFFFFFFFFFFFFFFFFFFFF AND DUP8 PUSH32 0xF0CB471F23FB74EA44B8252EB1881A2DCA546288D9F6E90D1A0E82FE0ED342AB DUP13 DUP13 PUSH1 0x40 MLOAD PUSH2 0x68B8 SWAP3 SWAP2 SWAP1 PUSH2 0x97E5 JUMP JUMPDEST PUSH1 0x40 MLOAD DUP1 SWAP2 SUB SWAP1 LOG4 POP POP POP POP POP SWAP4 SWAP3 POP POP POP JUMP JUMPDEST PUSH1 0x0 PUSH2 0x68DE DUP4 PUSH1 0x0 ADD DUP4 PUSH1 0x0 SHL PUSH2 0x782E JUMP JUMPDEST SWAP1 POP SWAP3 SWAP2 POP POP JUMP JUMPDEST PUSH1 0x0 PUSH2 0x68F8 DUP4 PUSH1 0x0 ADD DUP4 PUSH1 0x0 SHL PUSH2 0x7942 JUMP JUMPDEST SWAP1 POP SWAP3 SWAP2 POP POP JUMP JUMPDEST PUSH2 0x690A DUP3 DUP3 PUSH2 0x1E27 JUMP JUMPDEST PUSH2 0x69E3 JUMPI PUSH1 0x1 PUSH2 0x6918 PUSH2 0x44BC JUMP JUMPDEST PUSH1 0x0 DUP5 DUP2 MSTORE PUSH1 0x20 ADD SWAP1 DUP2 MSTORE PUSH1 0x20 ADD PUSH1 0x0 KECCAK256 PUSH1 0x0 ADD PUSH1 0x0 DUP4 PUSH20 0xFFFFFFFFFFFFFFFFFFFFFFFFFFFFFFFFFFFFFFFF AND PUSH20 0xFFFFFFFFFFFFFFFFFFFFFFFFFFFFFFFFFFFFFFFF AND DUP2 MSTORE PUSH1 0x20 ADD SWAP1 DUP2 MSTORE PUSH1 0x20 ADD PUSH1 0x0 KECCAK256 PUSH1 0x0 PUSH2 0x100 EXP DUP2 SLOAD DUP2 PUSH1 0xFF MUL NOT AND SWAP1 DUP4 ISZERO ISZERO MUL OR SWAP1 SSTORE POP PUSH2 0x6988 PUSH2 0x44E9 JUMP JUMPDEST PUSH20 0xFFFFFFFFFFFFFFFFFFFFFFFFFFFFFFFFFFFFFFFF AND DUP2 PUSH20 0xFFFFFFFFFFFFFFFFFFFFFFFFFFFFFFFFFFFFFFFF AND DUP4 PUSH32 0x2F8788117E7EFF1D82E926EC794901D17C78024A50270940304540A733656F0D PUSH1 0x40 MLOAD PUSH1 0x40 MLOAD DUP1 SWAP2 SUB SWAP1 LOG4 JUMPDEST POP POP JUMP JUMPDEST PUSH1 0x0 PUSH2 0x6A0F DUP4 PUSH1 0x0 ADD DUP4 PUSH20 0xFFFFFFFFFFFFFFFFFFFFFFFFFFFFFFFFFFFFFFFF AND PUSH1 0x0 SHL PUSH2 0x7942 JUMP JUMPDEST SWAP1 POP SWAP3 SWAP2 POP POP JUMP JUMPDEST PUSH2 0x6A21 DUP3 DUP3 PUSH2 0x1E27 JUMP JUMPDEST ISZERO PUSH2 0x6AFB JUMPI PUSH1 0x0 PUSH2 0x6A30 PUSH2 0x44BC JUMP JUMPDEST PUSH1 0x0 DUP5 DUP2 MSTORE PUSH1 0x20 ADD SWAP1 DUP2 MSTORE PUSH1 0x20 ADD PUSH1 0x0 KECCAK256 PUSH1 0x0 ADD PUSH1 0x0 DUP4 PUSH20 0xFFFFFFFFFFFFFFFFFFFFFFFFFFFFFFFFFFFFFFFF AND PUSH20 0xFFFFFFFFFFFFFFFFFFFFFFFFFFFFFFFFFFFFFFFF AND DUP2 MSTORE PUSH1 0x20 ADD SWAP1 DUP2 MSTORE PUSH1 0x20 ADD PUSH1 0x0 KECCAK256 PUSH1 0x0 PUSH2 0x100 EXP DUP2 SLOAD DUP2 PUSH1 0xFF MUL NOT AND SWAP1 DUP4 ISZERO ISZERO MUL OR SWAP1 SSTORE POP PUSH2 0x6AA0 PUSH2 0x44E9 JUMP JUMPDEST PUSH20 0xFFFFFFFFFFFFFFFFFFFFFFFFFFFFFFFFFFFFFFFF AND DUP2 PUSH20 0xFFFFFFFFFFFFFFFFFFFFFFFFFFFFFFFFFFFFFFFF AND DUP4 PUSH32 0xF6391F5C32D9C69D2A47EA670B442974B53935D1EDC7FD64EB21E047A839171B PUSH1 0x40 MLOAD PUSH1 0x40 MLOAD DUP1 SWAP2 SUB SWAP1 LOG4 JUMPDEST POP POP JUMP JUMPDEST PUSH1 0x0 PUSH2 0x6B27 DUP4 PUSH1 0x0 ADD DUP4 PUSH20 0xFFFFFFFFFFFFFFFFFFFFFFFFFFFFFFFFFFFFFFFF AND PUSH1 0x0 SHL PUSH2 0x782E JUMP JUMPDEST SWAP1 POP SWAP3 SWAP2 POP POP JUMP JUMPDEST PUSH1 0x0 DUP1 DUP3 EQ ISZERO PUSH2 0x6B76 JUMPI DUP2 PUSH1 0x40 MLOAD PUSH32 0xCEE778E200000000000000000000000000000000000000000000000000000000 DUP2 MSTORE PUSH1 0x4 ADD PUSH2 0x6B6D SWAP2 SWAP1 PUSH2 0x7F00 JUMP JUMPDEST PUSH1 0x40 MLOAD DUP1 SWAP2 SUB SWAP1 REVERT JUMPDEST PUSH1 0x0 PUSH2 0x6B80 PUSH2 0x16CE JUMP JUMPDEST SWAP1 POP DUP1 DUP4 GT ISZERO PUSH2 0x6BC7 JUMPI DUP3 PUSH1 0x40 MLOAD PUSH32 0xCEE778E200000000000000000000000000000000000000000000000000000000 DUP2 MSTORE PUSH1 0x4 ADD PUSH2 0x6BBE SWAP2 SWAP1 PUSH2 0x7F00 JUMP JUMPDEST PUSH1 0x40 MLOAD DUP1 SWAP2 SUB SWAP1 REVERT JUMPDEST PUSH1 0x0 PUSH2 0x6BD1 PUSH2 0x7146 JUMP JUMPDEST PUSH1 0x0 DUP6 DUP2 MSTORE PUSH1 0x20 ADD SWAP1 DUP2 MSTORE PUSH1 0x20 ADD PUSH1 0x0 KECCAK256 PUSH1 0x40 MLOAD DUP1 PUSH1 0x40 ADD PUSH1 0x40 MSTORE SWAP1 DUP2 PUSH1 0x0 DUP3 ADD SLOAD DUP2 MSTORE PUSH1 0x20 ADD PUSH1 0x1 DUP3 ADD SLOAD DUP2 MSTORE POP POP SWAP1 POP DUP1 PUSH1 0x0 ADD MLOAD DUP6 LT ISZERO PUSH2 0x6C4C JUMPI DUP4 PUSH1 0x40 MLOAD PUSH32 0xCEE778E200000000000000000000000000000000000000000000000000000000 DUP2 MSTORE PUSH1 0x4 ADD PUSH2 0x6C43 SWAP2 SWAP1 PUSH2 0x7F00 JUMP JUMPDEST PUSH1 0x40 MLOAD DUP1 SWAP2 SUB SWAP1 REVERT JUMPDEST DUP2 DUP5 LT ISZERO PUSH2 0x6CE6 JUMPI PUSH1 0x0 PUSH2 0x6C5E PUSH2 0x7146 JUMP JUMPDEST PUSH1 0x0 PUSH1 0x1 DUP8 PUSH2 0x6C6D SWAP2 SWAP1 PUSH2 0x9112 JUMP JUMPDEST DUP2 MSTORE PUSH1 0x20 ADD SWAP1 DUP2 MSTORE PUSH1 0x20 ADD PUSH1 0x0 KECCAK256 PUSH1 0x40 MLOAD DUP1 PUSH1 0x40 ADD PUSH1 0x40 MSTORE SWAP1 DUP2 PUSH1 0x0 DUP3 ADD SLOAD DUP2 MSTORE PUSH1 0x20 ADD PUSH1 0x1 DUP3 ADD SLOAD DUP2 MSTORE POP POP SWAP1 POP DUP6 DUP2 PUSH1 0x0 ADD MLOAD GT PUSH2 0x6CE4 JUMPI DUP5 PUSH1 0x40 MLOAD PUSH32 0xCEE778E200000000000000000000000000000000000000000000000000000000 DUP2 MSTORE PUSH1 0x4 ADD PUSH2 0x6CDB SWAP2 SWAP1 PUSH2 0x7F00 JUMP JUMPDEST PUSH1 0x40 MLOAD DUP1 SWAP2 SUB SWAP1 REVERT JUMPDEST POP JUMPDEST PUSH1 0x0 PUSH2 0x6CF0 PUSH2 0x4B1F JUMP JUMPDEST PUSH1 0x0 PUSH1 0x1 DUP9 PUSH2 0x6CFF SWAP2 SWAP1 PUSH2 0x9024 JUMP JUMPDEST DUP2 MSTORE PUSH1 0x20 ADD SWAP1 DUP2 MSTORE PUSH1 0x20 ADD PUSH1 0x0 KECCAK256 PUSH1 0x40 MLOAD DUP1 PUSH1 0xC0 ADD PUSH1 0x40 MSTORE SWAP1 DUP2 PUSH1 0x0 DUP3 ADD PUSH1 0x0 SWAP1 SLOAD SWAP1 PUSH2 0x100 EXP SWAP1 DIV PUSH16 0xFFFFFFFFFFFFFFFFFFFFFFFFFFFFFFFF AND PUSH16 0xFFFFFFFFFFFFFFFFFFFFFFFFFFFFFFFF AND PUSH16 0xFFFFFFFFFFFFFFFFFFFFFFFFFFFFFFFF AND DUP2 MSTORE PUSH1 0x20 ADD PUSH1 0x0 DUP3 ADD PUSH1 0x10 SWAP1 SLOAD SWAP1 PUSH2 0x100 EXP SWAP1 DIV PUSH16 0xFFFFFFFFFFFFFFFFFFFFFFFFFFFFFFFF AND PUSH16 0xFFFFFFFFFFFFFFFFFFFFFFFFFFFFFFFF AND PUSH16 0xFFFFFFFFFFFFFFFFFFFFFFFFFFFFFFFF AND DUP2 MSTORE PUSH1 0x20 ADD PUSH1 0x1 DUP3 ADD PUSH1 0x0 SWAP1 SLOAD SWAP1 PUSH2 0x100 EXP SWAP1 DIV PUSH20 0xFFFFFFFFFFFFFFFFFFFFFFFFFFFFFFFFFFFFFFFF AND PUSH20 0xFFFFFFFFFFFFFFFFFFFFFFFFFFFFFFFFFFFFFFFF AND PUSH20 0xFFFFFFFFFFFFFFFFFFFFFFFFFFFFFFFFFFFFFFFF AND DUP2 MSTORE PUSH1 0x20 ADD PUSH1 0x1 DUP3 ADD PUSH1 0x14 SWAP1 SLOAD SWAP1 PUSH2 0x100 EXP SWAP1 DIV PUSH5 0xFFFFFFFFFF AND PUSH5 0xFFFFFFFFFF AND PUSH5 0xFFFFFFFFFF AND DUP2 MSTORE PUSH1 0x20 ADD PUSH1 0x1 DUP3 ADD PUSH1 0x19 SWAP1 SLOAD SWAP1 PUSH2 0x100 EXP SWAP1 DIV PUSH1 0xFF AND ISZERO ISZERO ISZERO ISZERO DUP2 MSTORE PUSH1 0x20 ADD PUSH1 0x1 DUP3 ADD PUSH1 0x1A SWAP1 SLOAD SWAP1 PUSH2 0x100 EXP SWAP1 DIV PUSH5 0xFFFFFFFFFF AND PUSH5 0xFFFFFFFFFF AND PUSH5 0xFFFFFFFFFF AND DUP2 MSTORE POP POP SWAP1 POP PUSH1 0x0 DUP1 PUSH1 0x0 PUSH2 0x6FE2 DUP5 DUP12 PUSH1 0x40 MLOAD DUP1 PUSH1 0xC0 ADD PUSH1 0x40 MSTORE SWAP1 DUP2 PUSH1 0x0 DUP3 ADD PUSH1 0x0 SWAP1 SLOAD SWAP1 PUSH2 0x100 EXP SWAP1 DIV PUSH16 0xFFFFFFFFFFFFFFFFFFFFFFFFFFFFFFFF AND PUSH16 0xFFFFFFFFFFFFFFFFFFFFFFFFFFFFFFFF AND PUSH16 0xFFFFFFFFFFFFFFFFFFFFFFFFFFFFFFFF AND DUP2 MSTORE PUSH1 0x20 ADD PUSH1 0x0 DUP3 ADD PUSH1 0x10 SWAP1 SLOAD SWAP1 PUSH2 0x100 EXP SWAP1 DIV PUSH16 0xFFFFFFFFFFFFFFFFFFFFFFFFFFFFFFFF AND PUSH16 0xFFFFFFFFFFFFFFFFFFFFFFFFFFFFFFFF AND PUSH16 0xFFFFFFFFFFFFFFFFFFFFFFFFFFFFFFFF AND DUP2 MSTORE PUSH1 0x20 ADD PUSH1 0x1 DUP3 ADD PUSH1 0x0 SWAP1 SLOAD SWAP1 PUSH2 0x100 EXP SWAP1 DIV PUSH20 0xFFFFFFFFFFFFFFFFFFFFFFFFFFFFFFFFFFFFFFFF AND PUSH20 0xFFFFFFFFFFFFFFFFFFFFFFFFFFFFFFFFFFFFFFFF AND PUSH20 0xFFFFFFFFFFFFFFFFFFFFFFFFFFFFFFFFFFFFFFFF AND DUP2 MSTORE PUSH1 0x20 ADD PUSH1 0x1 DUP3 ADD PUSH1 0x14 SWAP1 SLOAD SWAP1 PUSH2 0x100 EXP SWAP1 DIV PUSH5 0xFFFFFFFFFF AND PUSH5 0xFFFFFFFFFF AND PUSH5 0xFFFFFFFFFF AND DUP2 MSTORE PUSH1 0x20 ADD PUSH1 0x1 DUP3 ADD PUSH1 0x19 SWAP1 SLOAD SWAP1 PUSH2 0x100 EXP SWAP1 DIV PUSH1 0xFF AND ISZERO ISZERO ISZERO ISZERO DUP2 MSTORE PUSH1 0x20 ADD PUSH1 0x1 DUP3 ADD PUSH1 0x1A SWAP1 SLOAD SWAP1 PUSH2 0x100 EXP SWAP1 DIV PUSH5 0xFFFFFFFFFF AND PUSH5 0xFFFFFFFFFF AND PUSH5 0xFFFFFFFFFF AND DUP2 MSTORE POP POP PUSH2 0x4D9D JUMP JUMPDEST SWAP3 POP SWAP3 POP SWAP3 POP DUP5 PUSH1 0x20 ADD MLOAD DUP4 GT ISZERO PUSH2 0x701E JUMPI PUSH12 0x33B2E3C9FD0803CE8000000 DUP6 PUSH1 0x20 ADD MLOAD DUP3 PUSH2 0x7011 SWAP2 SWAP1 PUSH2 0x9058 JUMP JUMPDEST PUSH2 0x701B SWAP2 SWAP1 PUSH2 0x90E1 JUMP JUMPDEST SWAP2 POP JUMPDEST DUP2 SWAP7 POP POP POP POP POP POP POP SWAP4 SWAP3 POP POP POP JUMP JUMPDEST PUSH2 0x7061 DUP2 PUSH32 0xE27EAA2E71C8572AB988FEF0B54CD45BBD1740DE1E22343FB6CDA7536EDC12F PUSH2 0x3A5F SWAP1 SWAP2 SWAP1 PUSH4 0xFFFFFFFF AND JUMP JUMPDEST POP JUMP JUMPDEST DUP1 SELFBALANCE LT ISZERO PUSH2 0x709E JUMPI PUSH1 0x40 MLOAD PUSH32 0x8A0D377900000000000000000000000000000000000000000000000000000000 DUP2 MSTORE PUSH1 0x4 ADD PUSH1 0x40 MLOAD DUP1 SWAP2 SUB SWAP1 REVERT JUMPDEST PUSH1 0x0 DUP3 PUSH20 0xFFFFFFFFFFFFFFFFFFFFFFFFFFFFFFFFFFFFFFFF AND DUP3 PUSH1 0x40 MLOAD PUSH2 0x70C4 SWAP1 PUSH2 0x9834 JUMP JUMPDEST PUSH1 0x0 PUSH1 0x40 MLOAD DUP1 DUP4 SUB DUP2 DUP6 DUP8 GAS CALL SWAP3 POP POP POP RETURNDATASIZE DUP1 PUSH1 0x0 DUP2 EQ PUSH2 0x7101 JUMPI PUSH1 0x40 MLOAD SWAP2 POP PUSH1 0x1F NOT PUSH1 0x3F RETURNDATASIZE ADD AND DUP3 ADD PUSH1 0x40 MSTORE RETURNDATASIZE DUP3 MSTORE RETURNDATASIZE PUSH1 0x0 PUSH1 0x20 DUP5 ADD RETURNDATACOPY PUSH2 0x7106 JUMP JUMPDEST PUSH1 0x60 SWAP2 POP JUMPDEST POP POP SWAP1 POP DUP1 PUSH2 0x7141 JUMPI PUSH1 0x40 MLOAD PUSH32 0xF0B498D00000000000000000000000000000000000000000000000000000000 DUP2 MSTORE PUSH1 0x4 ADD PUSH1 0x40 MLOAD DUP1 SWAP2 SUB SWAP1 REVERT JUMPDEST POP POP POP JUMP JUMPDEST PUSH1 0x0 DUP1 PUSH32 0x445F3CBBC114A35D080F2A1953516D74E74D5106860BC2317840BA265F03B51A SWAP1 POP DUP1 SWAP2 POP POP SWAP1 JUMP JUMPDEST PUSH1 0x0 DUP2 PUSH1 0x0 ADD DUP1 SLOAD SWAP1 POP SWAP1 POP SWAP2 SWAP1 POP JUMP JUMPDEST PUSH1 0x60 DUP2 PUSH1 0x0 ADD DUP1 SLOAD DUP1 PUSH1 0x20 MUL PUSH1 0x20 ADD PUSH1 0x40 MLOAD SWAP1 DUP2 ADD PUSH1 0x40 MSTORE DUP1 SWAP3 SWAP2 SWAP1 DUP2 DUP2 MSTORE PUSH1 0x20 ADD DUP3 DUP1 SLOAD DUP1 ISZERO PUSH2 0x71D4 JUMPI PUSH1 0x20 MUL DUP3 ADD SWAP2 SWAP1 PUSH1 0x0 MSTORE PUSH1 0x20 PUSH1 0x0 KECCAK256 SWAP1 JUMPDEST DUP2 SLOAD DUP2 MSTORE PUSH1 0x20 ADD SWAP1 PUSH1 0x1 ADD SWAP1 DUP1 DUP4 GT PUSH2 0x71C0 JUMPI JUMPDEST POP POP POP POP POP SWAP1 POP SWAP2 SWAP1 POP JUMP JUMPDEST PUSH1 0x0 DUP3 PUSH1 0x0 ADD DUP3 DUP2 SLOAD DUP2 LT PUSH2 0x71F8 JUMPI PUSH2 0x71F7 PUSH2 0x8D55 JUMP JUMPDEST JUMPDEST SWAP1 PUSH1 0x0 MSTORE PUSH1 0x20 PUSH1 0x0 KECCAK256 ADD SLOAD SWAP1 POP SWAP3 SWAP2 POP POP JUMP JUMPDEST PUSH2 0x723E DUP2 PUSH32 0xE8B012900CB200EE5DFC3B895A32791B67D12891B09F117814F167A237783A02 PUSH2 0x3A5F SWAP1 SWAP2 SWAP1 PUSH4 0xFFFFFFFF AND JUMP JUMPDEST PUSH32 0xFFFFFFFFFFFFFFFFFFFFFFFFFFFFFFFFFFFFFFFFFFFFFFFFFFFFFFFFFFFFFFFF DUP2 EQ ISZERO PUSH2 0x72C2 JUMPI PUSH32 0x32FB7C9891BC4F963C7DE9F1186D2A7755C7D6E9F4604DABE1D8BB3027C2F49E PUSH32 0xFFFFFFFFFFFFFFFFFFFFFFFFFFFFFFFFFFFFFFFFFFFFFFFFFFFFFFFFFFFFFFFF PUSH1 0x40 MLOAD PUSH2 0x72B5 SWAP2 SWAP1 PUSH2 0x7F00 JUMP JUMPDEST PUSH1 0x40 MLOAD DUP1 SWAP2 SUB SWAP1 LOG1 PUSH2 0x7305 JUMP JUMPDEST PUSH32 0x32FB7C9891BC4F963C7DE9F1186D2A7755C7D6E9F4604DABE1D8BB3027C2F49E TIMESTAMP DUP3 PUSH2 0x72EF SWAP2 SWAP1 PUSH2 0x9024 JUMP JUMPDEST PUSH1 0x40 MLOAD PUSH2 0x72FC SWAP2 SWAP1 PUSH2 0x7F00 JUMP JUMPDEST PUSH1 0x40 MLOAD DUP1 SWAP2 SUB SWAP1 LOG1 JUMPDEST POP JUMP JUMPDEST PUSH2 0x733B DUP2 PUSH32 0x9D8BE19D6A54E40BD767AA61B0F462241F5562EF6967D7045485BCCAC825B240 PUSH2 0x3A5F SWAP1 SWAP2 SWAP1 PUSH4 0xFFFFFFFF AND JUMP JUMPDEST POP JUMP JUMPDEST PUSH2 0x7371 DUP2 PUSH32 0x992F2E0C24CE59A21F2DAB8BBA13B25C2F872129DF7F4D45372155E717DB0C48 PUSH2 0x3A5F SWAP1 SWAP2 SWAP1 PUSH4 0xFFFFFFFF AND JUMP JUMPDEST POP JUMP JUMPDEST PUSH1 0x0 DUP1 DUP3 EXTCODESIZE SWAP1 POP PUSH1 0x0 DUP2 GT SWAP2 POP POP SWAP2 SWAP1 POP JUMP JUMPDEST PUSH1 0x40 MLOAD DUP1 PUSH1 0xC0 ADD PUSH1 0x40 MSTORE DUP1 PUSH1 0x0 PUSH16 0xFFFFFFFFFFFFFFFFFFFFFFFFFFFFFFFF AND DUP2 MSTORE PUSH1 0x20 ADD PUSH1 0x0 PUSH16 0xFFFFFFFFFFFFFFFFFFFFFFFFFFFFFFFF AND DUP2 MSTORE PUSH1 0x20 ADD PUSH1 0x0 PUSH20 0xFFFFFFFFFFFFFFFFFFFFFFFFFFFFFFFFFFFFFFFF AND DUP2 MSTORE PUSH1 0x20 ADD TIMESTAMP PUSH5 0xFFFFFFFFFF AND DUP2 MSTORE PUSH1 0x20 ADD PUSH1 0x1 ISZERO ISZERO DUP2 MSTORE PUSH1 0x20 ADD PUSH1 0x0 PUSH5 0xFFFFFFFFFF AND DUP2 MSTORE POP PUSH2 0x740B PUSH2 0x4B1F JUMP JUMPDEST PUSH1 0x0 DUP1 DUP2 MSTORE PUSH1 0x20 ADD SWAP1 DUP2 MSTORE PUSH1 0x20 ADD PUSH1 0x0 KECCAK256 PUSH1 0x0 DUP3 ADD MLOAD DUP2 PUSH1 0x0 ADD PUSH1 0x0 PUSH2 0x100 EXP DUP2 SLOAD DUP2 PUSH16 0xFFFFFFFFFFFFFFFFFFFFFFFFFFFFFFFF MUL NOT AND SWAP1 DUP4 PUSH16 0xFFFFFFFFFFFFFFFFFFFFFFFFFFFFFFFF AND MUL OR SWAP1 SSTORE POP PUSH1 0x20 DUP3 ADD MLOAD DUP2 PUSH1 0x0 ADD PUSH1 0x10 PUSH2 0x100 EXP DUP2 SLOAD DUP2 PUSH16 0xFFFFFFFFFFFFFFFFFFFFFFFFFFFFFFFF MUL NOT AND SWAP1 DUP4 PUSH16 0xFFFFFFFFFFFFFFFFFFFFFFFFFFFFFFFF AND MUL OR SWAP1 SSTORE POP PUSH1 0x40 DUP3 ADD MLOAD DUP2 PUSH1 0x1 ADD PUSH1 0x0 PUSH2 0x100 EXP DUP2 SLOAD DUP2 PUSH20 0xFFFFFFFFFFFFFFFFFFFFFFFFFFFFFFFFFFFFFFFF MUL NOT AND SWAP1 DUP4 PUSH20 0xFFFFFFFFFFFFFFFFFFFFFFFFFFFFFFFFFFFFFFFF AND MUL OR SWAP1 SSTORE POP PUSH1 0x60 DUP3 ADD MLOAD DUP2 PUSH1 0x1 ADD PUSH1 0x14 PUSH2 0x100 EXP DUP2 SLOAD DUP2 PUSH5 0xFFFFFFFFFF MUL NOT AND SWAP1 DUP4 PUSH5 0xFFFFFFFFFF AND MUL OR SWAP1 SSTORE POP PUSH1 0x80 DUP3 ADD MLOAD DUP2 PUSH1 0x1 ADD PUSH1 0x19 PUSH2 0x100 EXP DUP2 SLOAD DUP2 PUSH1 0xFF MUL NOT AND SWAP1 DUP4 ISZERO ISZERO MUL OR SWAP1 SSTORE POP PUSH1 0xA0 DUP3 ADD MLOAD DUP2 PUSH1 0x1 ADD PUSH1 0x1A PUSH2 0x100 EXP DUP2 SLOAD DUP2 PUSH5 0xFFFFFFFFFF MUL NOT AND SWAP1 DUP4 PUSH5 0xFFFFFFFFFF AND MUL OR SWAP1 SSTORE POP SWAP1 POP POP PUSH1 0x40 MLOAD DUP1 PUSH1 0x40 ADD PUSH1 0x40 MSTORE DUP1 PUSH1 0x0 DUP2 MSTORE PUSH1 0x20 ADD PUSH1 0x0 DUP2 MSTORE POP PUSH2 0x7575 PUSH2 0x7146 JUMP JUMPDEST PUSH1 0x0 PUSH2 0x757F PUSH2 0x16CE JUMP JUMPDEST DUP2 MSTORE PUSH1 0x20 ADD SWAP1 DUP2 MSTORE PUSH1 0x20 ADD PUSH1 0x0 KECCAK256 PUSH1 0x0 DUP3 ADD MLOAD DUP2 PUSH1 0x0 ADD SSTORE PUSH1 0x20 DUP3 ADD MLOAD DUP2 PUSH1 0x1 ADD SSTORE SWAP1 POP POP JUMP JUMPDEST PUSH1 0x0 PUSH2 0x75B0 PUSH2 0x1DC2 JUMP JUMPDEST EQ PUSH2 0x75E7 JUMPI PUSH1 0x40 MLOAD PUSH32 0x61394A8400000000000000000000000000000000000000000000000000000000 DUP2 MSTORE PUSH1 0x4 ADD PUSH1 0x40 MLOAD DUP1 SWAP2 SUB SWAP1 REVERT JUMPDEST PUSH2 0x75F0 DUP2 PUSH2 0x79B2 JUMP JUMPDEST POP JUMP JUMPDEST PUSH1 0x60 PUSH1 0x0 DUP3 EQ ISZERO PUSH2 0x763B JUMPI PUSH1 0x40 MLOAD DUP1 PUSH1 0x40 ADD PUSH1 0x40 MSTORE DUP1 PUSH1 0x1 DUP2 MSTORE PUSH1 0x20 ADD PUSH32 0x3000000000000000000000000000000000000000000000000000000000000000 DUP2 MSTORE POP SWAP1 POP PUSH2 0x774F JUMP JUMPDEST PUSH1 0x0 DUP3 SWAP1 POP PUSH1 0x0 JUMPDEST PUSH1 0x0 DUP3 EQ PUSH2 0x766D JUMPI DUP1 DUP1 PUSH2 0x7656 SWAP1 PUSH2 0x8DB3 JUMP JUMPDEST SWAP2 POP POP PUSH1 0xA DUP3 PUSH2 0x7666 SWAP2 SWAP1 PUSH2 0x90E1 JUMP JUMPDEST SWAP2 POP PUSH2 0x7643 JUMP JUMPDEST PUSH1 0x0 DUP2 PUSH8 0xFFFFFFFFFFFFFFFF DUP2 GT ISZERO PUSH2 0x7689 JUMPI PUSH2 0x7688 PUSH2 0x85EA JUMP JUMPDEST JUMPDEST PUSH1 0x40 MLOAD SWAP1 DUP1 DUP3 MSTORE DUP1 PUSH1 0x1F ADD PUSH1 0x1F NOT AND PUSH1 0x20 ADD DUP3 ADD PUSH1 0x40 MSTORE DUP1 ISZERO PUSH2 0x76BB JUMPI DUP2 PUSH1 0x20 ADD PUSH1 0x1 DUP3 MUL DUP1 CALLDATASIZE DUP4 CALLDATACOPY DUP1 DUP3 ADD SWAP2 POP POP SWAP1 POP JUMPDEST POP SWAP1 POP JUMPDEST PUSH1 0x0 DUP6 EQ PUSH2 0x7748 JUMPI PUSH1 0x1 DUP3 PUSH2 0x76D4 SWAP2 SWAP1 PUSH2 0x9024 JUMP JUMPDEST SWAP2 POP PUSH1 0xA DUP6 PUSH2 0x76E3 SWAP2 SWAP1 PUSH2 0x9849 JUMP JUMPDEST PUSH1 0x30 PUSH2 0x76EF SWAP2 SWAP1 PUSH2 0x9112 JUMP JUMPDEST PUSH1 0xF8 SHL DUP2 DUP4 DUP2 MLOAD DUP2 LT PUSH2 0x7705 JUMPI PUSH2 0x7704 PUSH2 0x8D55 JUMP JUMPDEST JUMPDEST PUSH1 0x20 ADD ADD SWAP1 PUSH31 0xFFFFFFFFFFFFFFFFFFFFFFFFFFFFFFFFFFFFFFFFFFFFFFFFFFFFFFFFFFFFFF NOT AND SWAP1 DUP2 PUSH1 0x0 BYTE SWAP1 MSTORE8 POP PUSH1 0xA DUP6 PUSH2 0x7741 SWAP2 SWAP1 PUSH2 0x90E1 JUMP JUMPDEST SWAP5 POP PUSH2 0x76BF JUMP JUMPDEST DUP1 SWAP4 POP POP POP POP JUMPDEST SWAP2 SWAP1 POP JUMP JUMPDEST PUSH1 0x0 DUP2 SWAP1 POP SWAP2 SWAP1 POP JUMP JUMPDEST PUSH1 0x0 PUSH32 0x1FFC9A700000000000000000000000000000000000000000000000000000000 PUSH28 0xFFFFFFFFFFFFFFFFFFFFFFFFFFFFFFFFFFFFFFFFFFFFFFFFFFFFFFFF NOT AND DUP3 PUSH28 0xFFFFFFFFFFFFFFFFFFFFFFFFFFFFFFFFFFFFFFFFFFFFFFFFFFFFFFFF NOT AND EQ SWAP1 POP SWAP2 SWAP1 POP JUMP JUMPDEST PUSH2 0x77FB DUP2 PUSH32 0x8EE26ABBBDF533DE3953CCF2204279E845EECB5AB51F8398522746E4EA068041 PUSH2 0x3A5F SWAP1 SWAP2 SWAP1 PUSH4 0xFFFFFFFF AND JUMP JUMPDEST POP JUMP JUMPDEST PUSH1 0x0 PUSH2 0x7829 PUSH32 0x6825D6BEAD7081B4D1AC062BBB771F0E4ADE13182688453E79955A721D58C4DD PUSH2 0x4014 JUMP JUMPDEST SWAP1 POP SWAP1 JUMP JUMPDEST PUSH1 0x0 DUP1 DUP4 PUSH1 0x1 ADD PUSH1 0x0 DUP5 DUP2 MSTORE PUSH1 0x20 ADD SWAP1 DUP2 MSTORE PUSH1 0x20 ADD PUSH1 0x0 KECCAK256 SLOAD SWAP1 POP PUSH1 0x0 DUP2 EQ PUSH2 0x7936 JUMPI PUSH1 0x0 PUSH1 0x1 DUP3 PUSH2 0x7860 SWAP2 SWAP1 PUSH2 0x9024 JUMP JUMPDEST SWAP1 POP PUSH1 0x0 PUSH1 0x1 DUP7 PUSH1 0x0 ADD DUP1 SLOAD SWAP1 POP PUSH2 0x7878 SWAP2 SWAP1 PUSH2 0x9024 JUMP JUMPDEST SWAP1 POP DUP2 DUP2 EQ PUSH2 0x78E7 JUMPI PUSH1 0x0 DUP7 PUSH1 0x0 ADD DUP3 DUP2 SLOAD DUP2 LT PUSH2 0x7899 JUMPI PUSH2 0x7898 PUSH2 0x8D55 JUMP JUMPDEST JUMPDEST SWAP1 PUSH1 0x0 MSTORE PUSH1 0x20 PUSH1 0x0 KECCAK256 ADD SLOAD SWAP1 POP DUP1 DUP8 PUSH1 0x0 ADD DUP5 DUP2 SLOAD DUP2 LT PUSH2 0x78BD JUMPI PUSH2 0x78BC PUSH2 0x8D55 JUMP JUMPDEST JUMPDEST SWAP1 PUSH1 0x0 MSTORE PUSH1 0x20 PUSH1 0x0 KECCAK256 ADD DUP2 SWAP1 SSTORE POP DUP4 DUP8 PUSH1 0x1 ADD PUSH1 0x0 DUP4 DUP2 MSTORE PUSH1 0x20 ADD SWAP1 DUP2 MSTORE PUSH1 0x20 ADD PUSH1 0x0 KECCAK256 DUP2 SWAP1 SSTORE POP POP JUMPDEST DUP6 PUSH1 0x0 ADD DUP1 SLOAD DUP1 PUSH2 0x78FB JUMPI PUSH2 0x78FA PUSH2 0x987A JUMP JUMPDEST JUMPDEST PUSH1 0x1 SWAP1 SUB DUP2 DUP2 SWAP1 PUSH1 0x0 MSTORE PUSH1 0x20 PUSH1 0x0 KECCAK256 ADD PUSH1 0x0 SWAP1 SSTORE SWAP1 SSTORE DUP6 PUSH1 0x1 ADD PUSH1 0x0 DUP7 DUP2 MSTORE PUSH1 0x20 ADD SWAP1 DUP2 MSTORE PUSH1 0x20 ADD PUSH1 0x0 KECCAK256 PUSH1 0x0 SWAP1 SSTORE PUSH1 0x1 SWAP4 POP POP POP POP PUSH2 0x793C JUMP JUMPDEST PUSH1 0x0 SWAP2 POP POP JUMPDEST SWAP3 SWAP2 POP POP JUMP JUMPDEST PUSH1 0x0 PUSH2 0x794E DUP4 DUP4 PUSH2 0x7A1F JUMP JUMPDEST PUSH2 0x79A7 JUMPI DUP3 PUSH1 0x0 ADD DUP3 SWAP1 DUP1 PUSH1 0x1 DUP2 SLOAD ADD DUP1 DUP3 SSTORE DUP1 SWAP2 POP POP PUSH1 0x1 SWAP1 SUB SWAP1 PUSH1 0x0 MSTORE PUSH1 0x20 PUSH1 0x0 KECCAK256 ADD PUSH1 0x0 SWAP1 SWAP2 SWAP1 SWAP2 SWAP1 SWAP2 POP SSTORE DUP3 PUSH1 0x0 ADD DUP1 SLOAD SWAP1 POP DUP4 PUSH1 0x1 ADD PUSH1 0x0 DUP5 DUP2 MSTORE PUSH1 0x20 ADD SWAP1 DUP2 MSTORE PUSH1 0x20 ADD PUSH1 0x0 KECCAK256 DUP2 SWAP1 SSTORE POP PUSH1 0x1 SWAP1 POP PUSH2 0x79AC JUMP JUMPDEST PUSH1 0x0 SWAP1 POP JUMPDEST SWAP3 SWAP2 POP POP JUMP JUMPDEST PUSH2 0x79E5 DUP2 PUSH32 0x4DD0F6662BA1D6B081F08B350F5E9A6A7B15CF586926BA66F753594928FA64A6 PUSH2 0x3A5F SWAP1 SWAP2 SWAP1 PUSH4 0xFFFFFFFF AND JUMP JUMPDEST PUSH32 0xFDDCDED6B4F4730C226821172046B48372D3CD963C159701AE1B7C3BCAC541BB DUP2 PUSH1 0x40 MLOAD PUSH2 0x7A14 SWAP2 SWAP1 PUSH2 0x7F00 JUMP JUMPDEST PUSH1 0x40 MLOAD DUP1 SWAP2 SUB SWAP1 LOG1 POP JUMP JUMPDEST PUSH1 0x0 DUP1 DUP4 PUSH1 0x1 ADD PUSH1 0x0 DUP5 DUP2 MSTORE PUSH1 0x20 ADD SWAP1 DUP2 MSTORE PUSH1 0x20 ADD PUSH1 0x0 KECCAK256 SLOAD EQ ISZERO SWAP1 POP SWAP3 SWAP2 POP POP JUMP JUMPDEST DUP3 DUP1 SLOAD PUSH2 0x7A4E SWAP1 PUSH2 0x8F0E JUMP JUMPDEST SWAP1 PUSH1 0x0 MSTORE PUSH1 0x20 PUSH1 0x0 KECCAK256 SWAP1 PUSH1 0x1F ADD PUSH1 0x20 SWAP1 DIV DUP2 ADD SWAP3 DUP3 PUSH2 0x7A70 JUMPI PUSH1 0x0 DUP6 SSTORE PUSH2 0x7AB7 JUMP JUMPDEST DUP3 PUSH1 0x1F LT PUSH2 0x7A89 JUMPI DUP1 CALLDATALOAD PUSH1 0xFF NOT AND DUP4 DUP1 ADD OR DUP6 SSTORE PUSH2 0x7AB7 JUMP JUMPDEST DUP3 DUP1 ADD PUSH1 0x1 ADD DUP6 SSTORE DUP3 ISZERO PUSH2 0x7AB7 JUMPI SWAP2 DUP3 ADD JUMPDEST DUP3 DUP2 GT ISZERO PUSH2 0x7AB6 JUMPI DUP3 CALLDATALOAD DUP3 SSTORE SWAP2 PUSH1 0x20 ADD SWAP2 SWAP1 PUSH1 0x1 ADD SWAP1 PUSH2 0x7A9B JUMP JUMPDEST JUMPDEST POP SWAP1 POP PUSH2 0x7AC4 SWAP2 SWAP1 PUSH2 0x7BC8 JUMP JUMPDEST POP SWAP1 JUMP JUMPDEST PUSH1 0x40 MLOAD DUP1 PUSH1 0xC0 ADD PUSH1 0x40 MSTORE DUP1 PUSH1 0x0 DUP2 MSTORE PUSH1 0x20 ADD PUSH1 0x0 DUP2 MSTORE PUSH1 0x20 ADD PUSH1 0x0 PUSH20 0xFFFFFFFFFFFFFFFFFFFFFFFFFFFFFFFFFFFFFFFF AND DUP2 MSTORE PUSH1 0x20 ADD PUSH1 0x0 DUP2 MSTORE PUSH1 0x20 ADD PUSH1 0x0 ISZERO ISZERO DUP2 MSTORE PUSH1 0x20 ADD PUSH1 0x0 ISZERO ISZERO DUP2 MSTORE POP SWAP1 JUMP JUMPDEST PUSH1 0x40 MLOAD DUP1 PUSH1 0x80 ADD PUSH1 0x40 MSTORE DUP1 PUSH1 0x0 DUP2 MSTORE PUSH1 0x20 ADD PUSH1 0x0 ISZERO ISZERO DUP2 MSTORE PUSH1 0x20 ADD PUSH2 0x7B3B PUSH2 0x7BE5 JUMP JUMPDEST DUP2 MSTORE PUSH1 0x20 ADD PUSH1 0x0 DUP2 MSTORE POP SWAP1 JUMP JUMPDEST PUSH1 0x40 MLOAD DUP1 PUSH1 0xC0 ADD PUSH1 0x40 MSTORE DUP1 PUSH1 0x0 PUSH16 0xFFFFFFFFFFFFFFFFFFFFFFFFFFFFFFFF AND DUP2 MSTORE PUSH1 0x20 ADD PUSH1 0x0 PUSH16 0xFFFFFFFFFFFFFFFFFFFFFFFFFFFFFFFF AND DUP2 MSTORE PUSH1 0x20 ADD PUSH1 0x0 PUSH20 0xFFFFFFFFFFFFFFFFFFFFFFFFFFFFFFFFFFFFFFFF AND DUP2 MSTORE PUSH1 0x20 ADD PUSH1 0x0 PUSH5 0xFFFFFFFFFF AND DUP2 MSTORE PUSH1 0x20 ADD PUSH1 0x0 ISZERO ISZERO DUP2 MSTORE PUSH1 0x20 ADD PUSH1 0x0 PUSH5 0xFFFFFFFFFF AND DUP2 MSTORE POP SWAP1 JUMP JUMPDEST JUMPDEST DUP1 DUP3 GT ISZERO PUSH2 0x7BE1 JUMPI PUSH1 0x0 DUP2 PUSH1 0x0 SWAP1 SSTORE POP PUSH1 0x1 ADD PUSH2 0x7BC9 JUMP JUMPDEST POP SWAP1 JUMP JUMPDEST PUSH1 0x40 MLOAD DUP1 PUSH2 0x480 ADD PUSH1 0x40 MSTORE DUP1 PUSH1 0x24 SWAP1 PUSH1 0x20 DUP3 MUL DUP1 CALLDATASIZE DUP4 CALLDATACOPY DUP1 DUP3 ADD SWAP2 POP POP SWAP1 POP POP SWAP1 JUMP JUMPDEST PUSH1 0x0 PUSH1 0x40 MLOAD SWAP1 POP SWAP1 JUMP JUMPDEST PUSH1 0x0 DUP1 REVERT JUMPDEST PUSH1 0x0 DUP1 REVERT JUMPDEST PUSH1 0x0 PUSH32 0xFFFFFFFF00000000000000000000000000000000000000000000000000000000 DUP3 AND SWAP1 POP SWAP2 SWAP1 POP JUMP JUMPDEST PUSH2 0x7C51 DUP2 PUSH2 0x7C1C JUMP JUMPDEST DUP2 EQ PUSH2 0x7C5C JUMPI PUSH1 0x0 DUP1 REVERT JUMPDEST POP JUMP JUMPDEST PUSH1 0x0 DUP2 CALLDATALOAD SWAP1 POP PUSH2 0x7C6E DUP2 PUSH2 0x7C48 JUMP JUMPDEST SWAP3 SWAP2 POP POP JUMP JUMPDEST PUSH1 0x0 PUSH1 0x20 DUP3 DUP5 SUB SLT ISZERO PUSH2 0x7C8A JUMPI PUSH2 0x7C89 PUSH2 0x7C12 JUMP JUMPDEST JUMPDEST PUSH1 0x0 PUSH2 0x7C98 DUP5 DUP3 DUP6 ADD PUSH2 0x7C5F JUMP JUMPDEST SWAP2 POP POP SWAP3 SWAP2 POP POP JUMP JUMPDEST PUSH1 0x0 DUP2 ISZERO ISZERO SWAP1 POP SWAP2 SWAP1 POP JUMP JUMPDEST PUSH2 0x7CB6 DUP2 PUSH2 0x7CA1 JUMP JUMPDEST DUP3 MSTORE POP POP JUMP JUMPDEST PUSH1 0x0 PUSH1 0x20 DUP3 ADD SWAP1 POP PUSH2 0x7CD1 PUSH1 0x0 DUP4 ADD DUP5 PUSH2 0x7CAD JUMP JUMPDEST SWAP3 SWAP2 POP POP JUMP JUMPDEST PUSH1 0x0 DUP2 MLOAD SWAP1 POP SWAP2 SWAP1 POP JUMP JUMPDEST PUSH1 0x0 DUP3 DUP3 MSTORE PUSH1 0x20 DUP3 ADD SWAP1 POP SWAP3 SWAP2 POP POP JUMP JUMPDEST PUSH1 0x0 JUMPDEST DUP4 DUP2 LT ISZERO PUSH2 0x7D11 JUMPI DUP1 DUP3 ADD MLOAD DUP2 DUP5 ADD MSTORE PUSH1 0x20 DUP2 ADD SWAP1 POP PUSH2 0x7CF6 JUMP JUMPDEST DUP4 DUP2 GT ISZERO PUSH2 0x7D20 JUMPI PUSH1 0x0 DUP5 DUP5 ADD MSTORE JUMPDEST POP POP POP POP JUMP JUMPDEST PUSH1 0x0 PUSH1 0x1F NOT PUSH1 0x1F DUP4 ADD AND SWAP1 POP SWAP2 SWAP1 POP JUMP JUMPDEST PUSH1 0x0 PUSH2 0x7D42 DUP3 PUSH2 0x7CD7 JUMP JUMPDEST PUSH2 0x7D4C DUP2 DUP6 PUSH2 0x7CE2 JUMP JUMPDEST SWAP4 POP PUSH2 0x7D5C DUP2 DUP6 PUSH1 0x20 DUP7 ADD PUSH2 0x7CF3 JUMP JUMPDEST PUSH2 0x7D65 DUP2 PUSH2 0x7D26 JUMP JUMPDEST DUP5 ADD SWAP2 POP POP SWAP3 SWAP2 POP POP JUMP JUMPDEST PUSH1 0x0 PUSH1 0x20 DUP3 ADD SWAP1 POP DUP2 DUP2 SUB PUSH1 0x0 DUP4 ADD MSTORE PUSH2 0x7D8A DUP2 DUP5 PUSH2 0x7D37 JUMP JUMPDEST SWAP1 POP SWAP3 SWAP2 POP POP JUMP JUMPDEST PUSH1 0x0 DUP2 SWAP1 POP SWAP2 SWAP1 POP JUMP JUMPDEST PUSH2 0x7DA5 DUP2 PUSH2 0x7D92 JUMP JUMPDEST DUP3 MSTORE POP POP JUMP JUMPDEST PUSH1 0x0 PUSH1 0x20 DUP3 ADD SWAP1 POP PUSH2 0x7DC0 PUSH1 0x0 DUP4 ADD DUP5 PUSH2 0x7D9C JUMP JUMPDEST SWAP3 SWAP2 POP POP JUMP JUMPDEST PUSH1 0x0 DUP2 SWAP1 POP SWAP2 SWAP1 POP JUMP JUMPDEST PUSH2 0x7DD9 DUP2 PUSH2 0x7DC6 JUMP JUMPDEST DUP2 EQ PUSH2 0x7DE4 JUMPI PUSH1 0x0 DUP1 REVERT JUMPDEST POP JUMP JUMPDEST PUSH1 0x0 DUP2 CALLDATALOAD SWAP1 POP PUSH2 0x7DF6 DUP2 PUSH2 0x7DD0 JUMP JUMPDEST SWAP3 SWAP2 POP POP JUMP JUMPDEST PUSH1 0x0 PUSH1 0x20 DUP3 DUP5 SUB SLT ISZERO PUSH2 0x7E12 JUMPI PUSH2 0x7E11 PUSH2 0x7C12 JUMP JUMPDEST JUMPDEST PUSH1 0x0 PUSH2 0x7E20 DUP5 DUP3 DUP6 ADD PUSH2 0x7DE7 JUMP JUMPDEST SWAP2 POP POP SWAP3 SWAP2 POP POP JUMP JUMPDEST PUSH1 0x0 PUSH20 0xFFFFFFFFFFFFFFFFFFFFFFFFFFFFFFFFFFFFFFFF DUP3 AND SWAP1 POP SWAP2 SWAP1 POP JUMP JUMPDEST PUSH1 0x0 PUSH2 0x7E54 DUP3 PUSH2 0x7E29 JUMP JUMPDEST SWAP1 POP SWAP2 SWAP1 POP JUMP JUMPDEST PUSH2 0x7E64 DUP2 PUSH2 0x7E49 JUMP JUMPDEST DUP3 MSTORE POP POP JUMP JUMPDEST PUSH1 0x0 PUSH1 0x20 DUP3 ADD SWAP1 POP PUSH2 0x7E7F PUSH1 0x0 DUP4 ADD DUP5 PUSH2 0x7E5B JUMP JUMPDEST SWAP3 SWAP2 POP POP JUMP JUMPDEST PUSH2 0x7E8E DUP2 PUSH2 0x7E49 JUMP JUMPDEST DUP2 EQ PUSH2 0x7E99 JUMPI PUSH1 0x0 DUP1 REVERT JUMPDEST POP JUMP JUMPDEST PUSH1 0x0 DUP2 CALLDATALOAD SWAP1 POP PUSH2 0x7EAB DUP2 PUSH2 0x7E85 JUMP JUMPDEST SWAP3 SWAP2 POP POP JUMP JUMPDEST PUSH1 0x0 DUP1 PUSH1 0x40 DUP4 DUP6 SUB SLT ISZERO PUSH2 0x7EC8 JUMPI PUSH2 0x7EC7 PUSH2 0x7C12 JUMP JUMPDEST JUMPDEST PUSH1 0x0 PUSH2 0x7ED6 DUP6 DUP3 DUP7 ADD PUSH2 0x7E9C JUMP JUMPDEST SWAP3 POP POP PUSH1 0x20 PUSH2 0x7EE7 DUP6 DUP3 DUP7 ADD PUSH2 0x7DE7 JUMP JUMPDEST SWAP2 POP POP SWAP3 POP SWAP3 SWAP1 POP JUMP JUMPDEST PUSH2 0x7EFA DUP2 PUSH2 0x7DC6 JUMP JUMPDEST DUP3 MSTORE POP POP JUMP JUMPDEST PUSH1 0x0 PUSH1 0x20 DUP3 ADD SWAP1 POP PUSH2 0x7F15 PUSH1 0x0 DUP4 ADD DUP5 PUSH2 0x7EF1 JUMP JUMPDEST SWAP3 SWAP2 POP POP JUMP JUMPDEST PUSH1 0x0 DUP1 REVERT JUMPDEST PUSH1 0x0 DUP1 REVERT JUMPDEST PUSH1 0x0 DUP1 REVERT JUMPDEST PUSH1 0x0 DUP1 DUP4 PUSH1 0x1F DUP5 ADD SLT PUSH2 0x7F40 JUMPI PUSH2 0x7F3F PUSH2 0x7F1B JUMP JUMPDEST JUMPDEST DUP3 CALLDATALOAD SWAP1 POP PUSH8 0xFFFFFFFFFFFFFFFF DUP2 GT ISZERO PUSH2 0x7F5D JUMPI PUSH2 0x7F5C PUSH2 0x7F20 JUMP JUMPDEST JUMPDEST PUSH1 0x20 DUP4 ADD SWAP2 POP DUP4 PUSH1 0x20 DUP3 MUL DUP4 ADD GT ISZERO PUSH2 0x7F79 JUMPI PUSH2 0x7F78 PUSH2 0x7F25 JUMP JUMPDEST JUMPDEST SWAP3 POP SWAP3 SWAP1 POP JUMP JUMPDEST PUSH1 0x0 DUP1 PUSH1 0x0 PUSH1 0x40 DUP5 DUP7 SUB SLT ISZERO PUSH2 0x7F99 JUMPI PUSH2 0x7F98 PUSH2 0x7C12 JUMP JUMPDEST JUMPDEST PUSH1 0x0 DUP5 ADD CALLDATALOAD PUSH8 0xFFFFFFFFFFFFFFFF DUP2 GT ISZERO PUSH2 0x7FB7 JUMPI PUSH2 0x7FB6 PUSH2 0x7C17 JUMP JUMPDEST JUMPDEST PUSH2 0x7FC3 DUP7 DUP3 DUP8 ADD PUSH2 0x7F2A JUMP JUMPDEST SWAP4 POP SWAP4 POP POP PUSH1 0x20 PUSH2 0x7FD6 DUP7 DUP3 DUP8 ADD PUSH2 0x7E9C JUMP JUMPDEST SWAP2 POP POP SWAP3 POP SWAP3 POP SWAP3 JUMP JUMPDEST PUSH1 0x0 DUP2 MLOAD SWAP1 POP SWAP2 SWAP1 POP JUMP JUMPDEST PUSH1 0x0 DUP3 DUP3 MSTORE PUSH1 0x20 DUP3 ADD SWAP1 POP SWAP3 SWAP2 POP POP JUMP JUMPDEST PUSH1 0x0 DUP2 SWAP1 POP PUSH1 0x20 DUP3 ADD SWAP1 POP SWAP2 SWAP1 POP JUMP JUMPDEST PUSH2 0x8015 DUP2 PUSH2 0x7DC6 JUMP JUMPDEST DUP3 MSTORE POP POP JUMP JUMPDEST PUSH1 0x0 PUSH2 0x8027 DUP4 DUP4 PUSH2 0x800C JUMP JUMPDEST PUSH1 0x20 DUP4 ADD SWAP1 POP SWAP3 SWAP2 POP POP JUMP JUMPDEST PUSH1 0x0 PUSH1 0x20 DUP3 ADD SWAP1 POP SWAP2 SWAP1 POP JUMP JUMPDEST PUSH1 0x0 PUSH2 0x804B DUP3 PUSH2 0x7FE0 JUMP JUMPDEST PUSH2 0x8055 DUP2 DUP6 PUSH2 0x7FEB JUMP JUMPDEST SWAP4 POP PUSH2 0x8060 DUP4 PUSH2 0x7FFC JUMP JUMPDEST DUP1 PUSH1 0x0 JUMPDEST DUP4 DUP2 LT ISZERO PUSH2 0x8091 JUMPI DUP2 MLOAD PUSH2 0x8078 DUP9 DUP3 PUSH2 0x801B JUMP JUMPDEST SWAP8 POP PUSH2 0x8083 DUP4 PUSH2 0x8033 JUMP JUMPDEST SWAP3 POP POP PUSH1 0x1 DUP2 ADD SWAP1 POP PUSH2 0x8064 JUMP JUMPDEST POP DUP6 SWAP4 POP POP POP POP SWAP3 SWAP2 POP POP JUMP JUMPDEST PUSH1 0x0 PUSH1 0x20 DUP3 ADD SWAP1 POP DUP2 DUP2 SUB PUSH1 0x0 DUP4 ADD MSTORE PUSH2 0x80B8 DUP2 DUP5 PUSH2 0x8040 JUMP JUMPDEST SWAP1 POP SWAP3 SWAP2 POP POP JUMP JUMPDEST PUSH1 0x0 DUP1 PUSH1 0x0 PUSH1 0x60 DUP5 DUP7 SUB SLT ISZERO PUSH2 0x80D9 JUMPI PUSH2 0x80D8 PUSH2 0x7C12 JUMP JUMPDEST JUMPDEST PUSH1 0x0 PUSH2 0x80E7 DUP7 DUP3 DUP8 ADD PUSH2 0x7E9C JUMP JUMPDEST SWAP4 POP POP PUSH1 0x20 PUSH2 0x80F8 DUP7 DUP3 DUP8 ADD PUSH2 0x7E9C JUMP JUMPDEST SWAP3 POP POP PUSH1 0x40 PUSH2 0x8109 DUP7 DUP3 DUP8 ADD PUSH2 0x7DE7 JUMP JUMPDEST SWAP2 POP POP SWAP3 POP SWAP3 POP SWAP3 JUMP JUMPDEST PUSH2 0x811C DUP2 PUSH2 0x7D92 JUMP JUMPDEST DUP2 EQ PUSH2 0x8127 JUMPI PUSH1 0x0 DUP1 REVERT JUMPDEST POP JUMP JUMPDEST PUSH1 0x0 DUP2 CALLDATALOAD SWAP1 POP PUSH2 0x8139 DUP2 PUSH2 0x8113 JUMP JUMPDEST SWAP3 SWAP2 POP POP JUMP JUMPDEST PUSH1 0x0 PUSH1 0x20 DUP3 DUP5 SUB SLT ISZERO PUSH2 0x8155 JUMPI PUSH2 0x8154 PUSH2 0x7C12 JUMP JUMPDEST JUMPDEST PUSH1 0x0 PUSH2 0x8163 DUP5 DUP3 DUP6 ADD PUSH2 0x812A JUMP JUMPDEST SWAP2 POP POP SWAP3 SWAP2 POP POP JUMP JUMPDEST PUSH1 0x0 DUP1 PUSH1 0x40 DUP4 DUP6 SUB SLT ISZERO PUSH2 0x8183 JUMPI PUSH2 0x8182 PUSH2 0x7C12 JUMP JUMPDEST JUMPDEST PUSH1 0x0 PUSH2 0x8191 DUP6 DUP3 DUP7 ADD PUSH2 0x812A JUMP JUMPDEST SWAP3 POP POP PUSH1 0x20 PUSH2 0x81A2 DUP6 DUP3 DUP7 ADD PUSH2 0x7E9C JUMP JUMPDEST SWAP2 POP POP SWAP3 POP SWAP3 SWAP1 POP JUMP JUMPDEST PUSH1 0x0 DUP1 DUP4 PUSH1 0x1F DUP5 ADD SLT PUSH2 0x81C2 JUMPI PUSH2 0x81C1 PUSH2 0x7F1B JUMP JUMPDEST JUMPDEST DUP3 CALLDATALOAD SWAP1 POP PUSH8 0xFFFFFFFFFFFFFFFF DUP2 GT ISZERO PUSH2 0x81DF JUMPI PUSH2 0x81DE PUSH2 0x7F20 JUMP JUMPDEST JUMPDEST PUSH1 0x20 DUP4 ADD SWAP2 POP DUP4 PUSH1 0x1 DUP3 MUL DUP4 ADD GT ISZERO PUSH2 0x81FB JUMPI PUSH2 0x81FA PUSH2 0x7F25 JUMP JUMPDEST JUMPDEST SWAP3 POP SWAP3 SWAP1 POP JUMP JUMPDEST PUSH1 0x0 DUP1 PUSH1 0x20 DUP4 DUP6 SUB SLT ISZERO PUSH2 0x8219 JUMPI PUSH2 0x8218 PUSH2 0x7C12 JUMP JUMPDEST JUMPDEST PUSH1 0x0 DUP4 ADD CALLDATALOAD PUSH8 0xFFFFFFFFFFFFFFFF DUP2 GT ISZERO PUSH2 0x8237 JUMPI PUSH2 0x8236 PUSH2 0x7C17 JUMP JUMPDEST JUMPDEST PUSH2 0x8243 DUP6 DUP3 DUP7 ADD PUSH2 0x81AC JUMP JUMPDEST SWAP3 POP SWAP3 POP POP SWAP3 POP SWAP3 SWAP1 POP JUMP JUMPDEST PUSH1 0x0 DUP1 PUSH1 0x0 DUP1 PUSH1 0x0 PUSH1 0x60 DUP7 DUP9 SUB SLT ISZERO PUSH2 0x826B JUMPI PUSH2 0x826A PUSH2 0x7C12 JUMP JUMPDEST JUMPDEST PUSH1 0x0 DUP7 ADD CALLDATALOAD PUSH8 0xFFFFFFFFFFFFFFFF DUP2 GT ISZERO PUSH2 0x8289 JUMPI PUSH2 0x8288 PUSH2 0x7C17 JUMP JUMPDEST JUMPDEST PUSH2 0x8295 DUP9 DUP3 DUP10 ADD PUSH2 0x7F2A JUMP JUMPDEST SWAP6 POP SWAP6 POP POP PUSH1 0x20 DUP7 ADD CALLDATALOAD PUSH8 0xFFFFFFFFFFFFFFFF DUP2 GT ISZERO PUSH2 0x82B8 JUMPI PUSH2 0x82B7 PUSH2 0x7C17 JUMP JUMPDEST JUMPDEST PUSH2 0x82C4 DUP9 DUP3 DUP10 ADD PUSH2 0x7F2A JUMP JUMPDEST SWAP4 POP SWAP4 POP POP PUSH1 0x40 PUSH2 0x82D7 DUP9 DUP3 DUP10 ADD PUSH2 0x7E9C JUMP JUMPDEST SWAP2 POP POP SWAP3 SWAP6 POP SWAP3 SWAP6 SWAP1 SWAP4 POP JUMP JUMPDEST PUSH1 0x0 DUP1 PUSH1 0x0 DUP1 PUSH1 0x60 DUP6 DUP8 SUB SLT ISZERO PUSH2 0x82FE JUMPI PUSH2 0x82FD PUSH2 0x7C12 JUMP JUMPDEST JUMPDEST PUSH1 0x0 DUP6 ADD CALLDATALOAD PUSH8 0xFFFFFFFFFFFFFFFF DUP2 GT ISZERO PUSH2 0x831C JUMPI PUSH2 0x831B PUSH2 0x7C17 JUMP JUMPDEST JUMPDEST PUSH2 0x8328 DUP8 DUP3 DUP9 ADD PUSH2 0x7F2A JUMP JUMPDEST SWAP5 POP SWAP5 POP POP PUSH1 0x20 PUSH2 0x833B DUP8 DUP3 DUP9 ADD PUSH2 0x7DE7 JUMP JUMPDEST SWAP3 POP POP PUSH1 0x40 PUSH2 0x834C DUP8 DUP3 DUP9 ADD PUSH2 0x7DE7 JUMP JUMPDEST SWAP2 POP POP SWAP3 SWAP6 SWAP2 SWAP5 POP SWAP3 POP JUMP JUMPDEST PUSH1 0x0 PUSH1 0x20 DUP3 DUP5 SUB SLT ISZERO PUSH2 0x836E JUMPI PUSH2 0x836D PUSH2 0x7C12 JUMP JUMPDEST JUMPDEST PUSH1 0x0 PUSH2 0x837C DUP5 DUP3 DUP6 ADD PUSH2 0x7E9C JUMP JUMPDEST SWAP2 POP POP SWAP3 SWAP2 POP POP JUMP JUMPDEST PUSH1 0x0 DUP1 REVERT JUMPDEST PUSH1 0x0 PUSH1 0xA0 DUP3 DUP5 SUB SLT ISZERO PUSH2 0x83A0 JUMPI PUSH2 0x839F PUSH2 0x8385 JUMP JUMPDEST JUMPDEST DUP2 SWAP1 POP SWAP3 SWAP2 POP POP JUMP JUMPDEST PUSH1 0x0 DUP1 PUSH1 0x0 DUP1 PUSH1 0xE0 DUP6 DUP8 SUB SLT ISZERO PUSH2 0x83C3 JUMPI PUSH2 0x83C2 PUSH2 0x7C12 JUMP JUMPDEST JUMPDEST PUSH1 0x0 DUP6 ADD CALLDATALOAD PUSH8 0xFFFFFFFFFFFFFFFF DUP2 GT ISZERO PUSH2 0x83E1 JUMPI PUSH2 0x83E0 PUSH2 0x7C17 JUMP JUMPDEST JUMPDEST PUSH2 0x83ED DUP8 DUP3 DUP9 ADD PUSH2 0x7F2A JUMP JUMPDEST SWAP5 POP SWAP5 POP POP PUSH1 0x20 PUSH2 0x8400 DUP8 DUP3 DUP9 ADD PUSH2 0x7E9C JUMP JUMPDEST SWAP3 POP POP PUSH1 0x40 PUSH2 0x8411 DUP8 DUP3 DUP9 ADD PUSH2 0x838A JUMP JUMPDEST SWAP2 POP POP SWAP3 SWAP6 SWAP2 SWAP5 POP SWAP3 POP JUMP JUMPDEST PUSH1 0x0 DUP1 PUSH1 0x40 DUP4 DUP6 SUB SLT ISZERO PUSH2 0x8434 JUMPI PUSH2 0x8433 PUSH2 0x7C12 JUMP JUMPDEST JUMPDEST PUSH1 0x0 PUSH2 0x8442 DUP6 DUP3 DUP7 ADD PUSH2 0x812A JUMP JUMPDEST SWAP3 POP POP PUSH1 0x20 PUSH2 0x8453 DUP6 DUP3 DUP7 ADD PUSH2 0x7DE7 JUMP JUMPDEST SWAP2 POP POP SWAP3 POP SWAP3 SWAP1 POP JUMP JUMPDEST PUSH2 0x8466 DUP2 PUSH2 0x7CA1 JUMP JUMPDEST DUP2 EQ PUSH2 0x8471 JUMPI PUSH1 0x0 DUP1 REVERT JUMPDEST POP JUMP JUMPDEST PUSH1 0x0 DUP2 CALLDATALOAD SWAP1 POP PUSH2 0x8483 DUP2 PUSH2 0x845D JUMP JUMPDEST SWAP3 SWAP2 POP POP JUMP JUMPDEST PUSH1 0x0 DUP1 PUSH1 0x0 PUSH1 0x60 DUP5 DUP7 SUB SLT ISZERO PUSH2 0x84A2 JUMPI PUSH2 0x84A1 PUSH2 0x7C12 JUMP JUMPDEST JUMPDEST PUSH1 0x0 PUSH2 0x84B0 DUP7 DUP3 DUP8 ADD PUSH2 0x8474 JUMP JUMPDEST SWAP4 POP POP PUSH1 0x20 PUSH2 0x84C1 DUP7 DUP3 DUP8 ADD PUSH2 0x7DE7 JUMP JUMPDEST SWAP3 POP POP PUSH1 0x40 PUSH2 0x84D2 DUP7 DUP3 DUP8 ADD PUSH2 0x7DE7 JUMP JUMPDEST SWAP2 POP POP SWAP3 POP SWAP3 POP SWAP3 JUMP JUMPDEST PUSH1 0x0 DUP1 PUSH1 0x40 DUP4 DUP6 SUB SLT ISZERO PUSH2 0x84F3 JUMPI PUSH2 0x84F2 PUSH2 0x7C12 JUMP JUMPDEST JUMPDEST PUSH1 0x0 PUSH2 0x8501 DUP6 DUP3 DUP7 ADD PUSH2 0x7E9C JUMP JUMPDEST SWAP3 POP POP PUSH1 0x20 PUSH2 0x8512 DUP6 DUP3 DUP7 ADD PUSH2 0x8474 JUMP JUMPDEST SWAP2 POP POP SWAP3 POP SWAP3 SWAP1 POP JUMP JUMPDEST PUSH1 0x0 DUP1 PUSH1 0x0 PUSH1 0x40 DUP5 DUP7 SUB SLT ISZERO PUSH2 0x8535 JUMPI PUSH2 0x8534 PUSH2 0x7C12 JUMP JUMPDEST JUMPDEST PUSH1 0x0 DUP5 ADD CALLDATALOAD PUSH8 0xFFFFFFFFFFFFFFFF DUP2 GT ISZERO PUSH2 0x8553 JUMPI PUSH2 0x8552 PUSH2 0x7C17 JUMP JUMPDEST JUMPDEST PUSH2 0x855F DUP7 DUP3 DUP8 ADD PUSH2 0x7F2A JUMP JUMPDEST SWAP4 POP SWAP4 POP POP PUSH1 0x20 PUSH2 0x8572 DUP7 DUP3 DUP8 ADD PUSH2 0x7DE7 JUMP JUMPDEST SWAP2 POP POP SWAP3 POP SWAP3 POP SWAP3 JUMP JUMPDEST PUSH1 0x0 PUSH1 0x40 DUP3 ADD SWAP1 POP PUSH2 0x8591 PUSH1 0x0 DUP4 ADD DUP6 PUSH2 0x7EF1 JUMP JUMPDEST PUSH2 0x859E PUSH1 0x20 DUP4 ADD DUP5 PUSH2 0x7EF1 JUMP JUMPDEST SWAP4 SWAP3 POP POP POP JUMP JUMPDEST PUSH1 0x0 DUP1 PUSH1 0x40 DUP4 DUP6 SUB SLT ISZERO PUSH2 0x85BC JUMPI PUSH2 0x85BB PUSH2 0x7C12 JUMP JUMPDEST JUMPDEST PUSH1 0x0 PUSH2 0x85CA DUP6 DUP3 DUP7 ADD PUSH2 0x7DE7 JUMP JUMPDEST SWAP3 POP POP PUSH1 0x20 PUSH2 0x85DB DUP6 DUP3 DUP7 ADD PUSH2 0x7DE7 JUMP JUMPDEST SWAP2 POP POP SWAP3 POP SWAP3 SWAP1 POP JUMP JUMPDEST PUSH1 0x0 DUP1 REVERT JUMPDEST PUSH32 0x4E487B7100000000000000000000000000000000000000000000000000000000 PUSH1 0x0 MSTORE PUSH1 0x41 PUSH1 0x4 MSTORE PUSH1 0x24 PUSH1 0x0 REVERT JUMPDEST PUSH2 0x8622 DUP3 PUSH2 0x7D26 JUMP JUMPDEST DUP2 ADD DUP2 DUP2 LT PUSH8 0xFFFFFFFFFFFFFFFF DUP3 GT OR ISZERO PUSH2 0x8641 JUMPI PUSH2 0x8640 PUSH2 0x85EA JUMP JUMPDEST JUMPDEST DUP1 PUSH1 0x40 MSTORE POP POP POP JUMP JUMPDEST PUSH1 0x0 PUSH2 0x8654 PUSH2 0x7C08 JUMP JUMPDEST SWAP1 POP PUSH2 0x8660 DUP3 DUP3 PUSH2 0x8619 JUMP JUMPDEST SWAP2 SWAP1 POP JUMP JUMPDEST PUSH1 0x0 PUSH8 0xFFFFFFFFFFFFFFFF DUP3 GT ISZERO PUSH2 0x8680 JUMPI PUSH2 0x867F PUSH2 0x85EA JUMP JUMPDEST JUMPDEST PUSH2 0x8689 DUP3 PUSH2 0x7D26 JUMP JUMPDEST SWAP1 POP PUSH1 0x20 DUP2 ADD SWAP1 POP SWAP2 SWAP1 POP JUMP JUMPDEST DUP3 DUP2 DUP4 CALLDATACOPY PUSH1 0x0 DUP4 DUP4 ADD MSTORE POP POP POP JUMP JUMPDEST PUSH1 0x0 PUSH2 0x86B8 PUSH2 0x86B3 DUP5 PUSH2 0x8665 JUMP JUMPDEST PUSH2 0x864A JUMP JUMPDEST SWAP1 POP DUP3 DUP2 MSTORE PUSH1 0x20 DUP2 ADD DUP5 DUP5 DUP5 ADD GT ISZERO PUSH2 0x86D4 JUMPI PUSH2 0x86D3 PUSH2 0x85E5 JUMP JUMPDEST JUMPDEST PUSH2 0x86DF DUP5 DUP3 DUP6 PUSH2 0x8696 JUMP JUMPDEST POP SWAP4 SWAP3 POP POP POP JUMP JUMPDEST PUSH1 0x0 DUP3 PUSH1 0x1F DUP4 ADD SLT PUSH2 0x86FC JUMPI PUSH2 0x86FB PUSH2 0x7F1B JUMP JUMPDEST JUMPDEST DUP2 CALLDATALOAD PUSH2 0x870C DUP5 DUP3 PUSH1 0x20 DUP7 ADD PUSH2 0x86A5 JUMP JUMPDEST SWAP2 POP POP SWAP3 SWAP2 POP POP JUMP JUMPDEST PUSH1 0x0 DUP1 PUSH1 0x0 DUP1 PUSH1 0x80 DUP6 DUP8 SUB SLT ISZERO PUSH2 0x872F JUMPI PUSH2 0x872E PUSH2 0x7C12 JUMP JUMPDEST JUMPDEST PUSH1 0x0 PUSH2 0x873D DUP8 DUP3 DUP9 ADD PUSH2 0x7E9C JUMP JUMPDEST SWAP5 POP POP PUSH1 0x20 PUSH2 0x874E DUP8 DUP3 DUP9 ADD PUSH2 0x7E9C JUMP JUMPDEST SWAP4 POP POP PUSH1 0x40 PUSH2 0x875F DUP8 DUP3 DUP9 ADD PUSH2 0x7DE7 JUMP JUMPDEST SWAP3 POP POP PUSH1 0x60 DUP6 ADD CALLDATALOAD PUSH8 0xFFFFFFFFFFFFFFFF DUP2 GT ISZERO PUSH2 0x8780 JUMPI PUSH2 0x877F PUSH2 0x7C17 JUMP JUMPDEST JUMPDEST PUSH2 0x878C DUP8 DUP3 DUP9 ADD PUSH2 0x86E7 JUMP JUMPDEST SWAP2 POP POP SWAP3 SWAP6 SWAP2 SWAP5 POP SWAP3 POP JUMP JUMPDEST PUSH1 0x0 DUP1 PUSH1 0x20 DUP4 DUP6 SUB SLT ISZERO PUSH2 0x87AF JUMPI PUSH2 0x87AE PUSH2 0x7C12 JUMP JUMPDEST JUMPDEST PUSH1 0x0 DUP4 ADD CALLDATALOAD PUSH8 0xFFFFFFFFFFFFFFFF DUP2 GT ISZERO PUSH2 0x87CD JUMPI PUSH2 0x87CC PUSH2 0x7C17 JUMP JUMPDEST JUMPDEST PUSH2 0x87D9 DUP6 DUP3 DUP7 ADD PUSH2 0x7F2A JUMP JUMPDEST SWAP3 POP SWAP3 POP POP SWAP3 POP SWAP3 SWAP1 POP JUMP JUMPDEST PUSH1 0x0 DUP2 MLOAD SWAP1 POP SWAP2 SWAP1 POP JUMP JUMPDEST PUSH1 0x0 DUP3 DUP3 MSTORE PUSH1 0x20 DUP3 ADD SWAP1 POP SWAP3 SWAP2 POP POP JUMP JUMPDEST PUSH1 0x0 DUP2 SWAP1 POP PUSH1 0x20 DUP3 ADD SWAP1 POP SWAP2 SWAP1 POP JUMP JUMPDEST PUSH2 0x881A DUP2 PUSH2 0x7E49 JUMP JUMPDEST DUP3 MSTORE POP POP JUMP JUMPDEST PUSH2 0x8829 DUP2 PUSH2 0x7CA1 JUMP JUMPDEST DUP3 MSTORE POP POP JUMP JUMPDEST PUSH1 0xC0 DUP3 ADD PUSH1 0x0 DUP3 ADD MLOAD PUSH2 0x8845 PUSH1 0x0 DUP6 ADD DUP3 PUSH2 0x800C JUMP JUMPDEST POP PUSH1 0x20 DUP3 ADD MLOAD PUSH2 0x8858 PUSH1 0x20 DUP6 ADD DUP3 PUSH2 0x800C JUMP JUMPDEST POP PUSH1 0x40 DUP3 ADD MLOAD PUSH2 0x886B PUSH1 0x40 DUP6 ADD DUP3 PUSH2 0x8811 JUMP JUMPDEST POP PUSH1 0x60 DUP3 ADD MLOAD PUSH2 0x887E PUSH1 0x60 DUP6 ADD DUP3 PUSH2 0x800C JUMP JUMPDEST POP PUSH1 0x80 DUP3 ADD MLOAD PUSH2 0x8891 PUSH1 0x80 DUP6 ADD DUP3 PUSH2 0x8820 JUMP JUMPDEST POP PUSH1 0xA0 DUP3 ADD MLOAD PUSH2 0x88A4 PUSH1 0xA0 DUP6 ADD DUP3 PUSH2 0x8820 JUMP JUMPDEST POP POP POP POP JUMP JUMPDEST PUSH1 0x0 PUSH2 0x88B6 DUP4 DUP4 PUSH2 0x882F JUMP JUMPDEST PUSH1 0xC0 DUP4 ADD SWAP1 POP SWAP3 SWAP2 POP POP JUMP JUMPDEST PUSH1 0x0 PUSH1 0x20 DUP3 ADD SWAP1 POP SWAP2 SWAP1 POP JUMP JUMPDEST PUSH1 0x0 PUSH2 0x88DA DUP3 PUSH2 0x87E5 JUMP JUMPDEST PUSH2 0x88E4 DUP2 DUP6 PUSH2 0x87F0 JUMP JUMPDEST SWAP4 POP PUSH2 0x88EF DUP4 PUSH2 0x8801 JUMP JUMPDEST DUP1 PUSH1 0x0 JUMPDEST DUP4 DUP2 LT ISZERO PUSH2 0x8920 JUMPI DUP2 MLOAD PUSH2 0x8907 DUP9 DUP3 PUSH2 0x88AA JUMP JUMPDEST SWAP8 POP PUSH2 0x8912 DUP4 PUSH2 0x88C2 JUMP JUMPDEST SWAP3 POP POP PUSH1 0x1 DUP2 ADD SWAP1 POP PUSH2 0x88F3 JUMP JUMPDEST POP DUP6 SWAP4 POP POP POP POP SWAP3 SWAP2 POP POP JUMP JUMPDEST PUSH1 0x0 PUSH1 0x20 DUP3 ADD SWAP1 POP DUP2 DUP2 SUB PUSH1 0x0 DUP4 ADD MSTORE PUSH2 0x8947 DUP2 DUP5 PUSH2 0x88CF JUMP JUMPDEST SWAP1 POP SWAP3 SWAP2 POP POP JUMP JUMPDEST PUSH1 0x0 DUP1 PUSH1 0x0 DUP1 PUSH1 0x40 DUP6 DUP8 SUB SLT ISZERO PUSH2 0x8969 JUMPI PUSH2 0x8968 PUSH2 0x7C12 JUMP JUMPDEST JUMPDEST PUSH1 0x0 DUP6 ADD CALLDATALOAD PUSH8 0xFFFFFFFFFFFFFFFF DUP2 GT ISZERO PUSH2 0x8987 JUMPI PUSH2 0x8986 PUSH2 0x7C17 JUMP JUMPDEST JUMPDEST PUSH2 0x8993 DUP8 DUP3 DUP9 ADD PUSH2 0x7F2A JUMP JUMPDEST SWAP5 POP SWAP5 POP POP PUSH1 0x20 DUP6 ADD CALLDATALOAD PUSH8 0xFFFFFFFFFFFFFFFF DUP2 GT ISZERO PUSH2 0x89B6 JUMPI PUSH2 0x89B5 PUSH2 0x7C17 JUMP JUMPDEST JUMPDEST PUSH2 0x89C2 DUP8 DUP3 DUP9 ADD PUSH2 0x7F2A JUMP JUMPDEST SWAP3 POP SWAP3 POP POP SWAP3 SWAP6 SWAP2 SWAP5 POP SWAP3 POP JUMP JUMPDEST PUSH1 0x0 DUP2 SWAP1 POP SWAP2 SWAP1 POP JUMP JUMPDEST PUSH1 0x0 PUSH2 0x89F5 PUSH2 0x89F0 PUSH2 0x89EB DUP5 PUSH2 0x7E29 JUMP JUMPDEST PUSH2 0x89D0 JUMP JUMPDEST PUSH2 0x7E29 JUMP JUMPDEST SWAP1 POP SWAP2 SWAP1 POP JUMP JUMPDEST PUSH1 0x0 PUSH2 0x8A07 DUP3 PUSH2 0x89DA JUMP JUMPDEST SWAP1 POP SWAP2 SWAP1 POP JUMP JUMPDEST PUSH1 0x0 PUSH2 0x8A19 DUP3 PUSH2 0x89FC JUMP JUMPDEST SWAP1 POP SWAP2 SWAP1 POP JUMP JUMPDEST PUSH2 0x8A29 DUP2 PUSH2 0x8A0E JUMP JUMPDEST DUP3 MSTORE POP POP JUMP JUMPDEST PUSH1 0x0 PUSH1 0x20 DUP3 ADD SWAP1 POP PUSH2 0x8A44 PUSH1 0x0 DUP4 ADD DUP5 PUSH2 0x8A20 JUMP JUMPDEST SWAP3 SWAP2 POP POP JUMP JUMPDEST PUSH1 0x0 PUSH2 0x8A55 DUP3 PUSH2 0x89FC JUMP JUMPDEST SWAP1 POP SWAP2 SWAP1 POP JUMP JUMPDEST PUSH2 0x8A65 DUP2 PUSH2 0x8A4A JUMP JUMPDEST DUP3 MSTORE POP POP JUMP JUMPDEST PUSH1 0x0 PUSH1 0x20 DUP3 ADD SWAP1 POP PUSH2 0x8A80 PUSH1 0x0 DUP4 ADD DUP5 PUSH2 0x8A5C JUMP JUMPDEST SWAP3 SWAP2 POP POP JUMP JUMPDEST PUSH1 0x0 DUP1 PUSH1 0x40 DUP4 DUP6 SUB SLT ISZERO PUSH2 0x8A9D JUMPI PUSH2 0x8A9C PUSH2 0x7C12 JUMP JUMPDEST JUMPDEST PUSH1 0x0 PUSH2 0x8AAB DUP6 DUP3 DUP7 ADD PUSH2 0x7E9C JUMP JUMPDEST SWAP3 POP POP PUSH1 0x20 PUSH2 0x8ABC DUP6 DUP3 DUP7 ADD PUSH2 0x7E9C JUMP JUMPDEST SWAP2 POP POP SWAP3 POP SWAP3 SWAP1 POP JUMP JUMPDEST PUSH1 0x0 DUP1 REVERT JUMPDEST PUSH1 0x0 PUSH8 0xFFFFFFFFFFFFFFFF DUP3 GT ISZERO PUSH2 0x8AE6 JUMPI PUSH2 0x8AE5 PUSH2 0x85EA JUMP JUMPDEST JUMPDEST PUSH1 0x20 DUP3 MUL SWAP1 POP SWAP2 SWAP1 POP JUMP JUMPDEST PUSH1 0x0 PUSH2 0x8B04 PUSH2 0x8AFF DUP5 PUSH2 0x8ACB JUMP JUMPDEST PUSH2 0x864A JUMP JUMPDEST SWAP1 POP DUP1 PUSH1 0x20 DUP5 MUL DUP4 ADD DUP6 DUP2 GT ISZERO PUSH2 0x8B1E JUMPI PUSH2 0x8B1D PUSH2 0x7F25 JUMP JUMPDEST JUMPDEST DUP4 JUMPDEST DUP2 DUP2 LT ISZERO PUSH2 0x8B47 JUMPI DUP1 PUSH2 0x8B33 DUP9 DUP3 PUSH2 0x7DE7 JUMP JUMPDEST DUP5 MSTORE PUSH1 0x20 DUP5 ADD SWAP4 POP POP PUSH1 0x20 DUP2 ADD SWAP1 POP PUSH2 0x8B20 JUMP JUMPDEST POP POP POP SWAP4 SWAP3 POP POP POP JUMP JUMPDEST PUSH1 0x0 DUP3 PUSH1 0x1F DUP4 ADD SLT PUSH2 0x8B66 JUMPI PUSH2 0x8B65 PUSH2 0x7F1B JUMP JUMPDEST JUMPDEST PUSH1 0x24 PUSH2 0x8B73 DUP5 DUP3 DUP6 PUSH2 0x8AF1 JUMP JUMPDEST SWAP2 POP POP SWAP3 SWAP2 POP POP JUMP JUMPDEST PUSH1 0x0 PUSH2 0x4E0 DUP3 DUP5 SUB SLT ISZERO PUSH2 0x8B93 JUMPI PUSH2 0x8B92 PUSH2 0x8AC6 JUMP JUMPDEST JUMPDEST PUSH2 0x8B9D PUSH1 0x80 PUSH2 0x864A JUMP JUMPDEST SWAP1 POP PUSH1 0x0 PUSH2 0x8BAD DUP5 DUP3 DUP6 ADD PUSH2 0x7DE7 JUMP JUMPDEST PUSH1 0x0 DUP4 ADD MSTORE POP PUSH1 0x20 PUSH2 0x8BC1 DUP5 DUP3 DUP6 ADD PUSH2 0x8474 JUMP JUMPDEST PUSH1 0x20 DUP4 ADD MSTORE POP PUSH1 0x40 PUSH2 0x8BD5 DUP5 DUP3 DUP6 ADD PUSH2 0x8B51 JUMP JUMPDEST PUSH1 0x40 DUP4 ADD MSTORE POP PUSH2 0x4C0 PUSH2 0x8BEA DUP5 DUP3 DUP6 ADD PUSH2 0x7DE7 JUMP JUMPDEST PUSH1 0x60 DUP4 ADD MSTORE POP SWAP3 SWAP2 POP POP JUMP JUMPDEST PUSH1 0x0 DUP1 PUSH1 0x0 DUP1 PUSH2 0x540 DUP6 DUP8 SUB SLT ISZERO PUSH2 0x8C11 JUMPI PUSH2 0x8C10 PUSH2 0x7C12 JUMP JUMPDEST JUMPDEST PUSH1 0x0 PUSH2 0x8C1F DUP8 DUP3 DUP9 ADD PUSH2 0x7DE7 JUMP JUMPDEST SWAP5 POP POP PUSH1 0x20 PUSH2 0x8C30 DUP8 DUP3 DUP9 ADD PUSH2 0x7DE7 JUMP JUMPDEST SWAP4 POP POP PUSH1 0x40 PUSH2 0x8C41 DUP8 DUP3 DUP9 ADD PUSH2 0x7DE7 JUMP JUMPDEST SWAP3 POP POP PUSH1 0x60 PUSH2 0x8C52 DUP8 DUP3 DUP9 ADD PUSH2 0x8B7C JUMP JUMPDEST SWAP2 POP POP SWAP3 SWAP6 SWAP2 SWAP5 POP SWAP3 POP JUMP JUMPDEST PUSH1 0x0 PUSH1 0x24 SWAP1 POP SWAP2 SWAP1 POP JUMP JUMPDEST PUSH1 0x0 DUP2 SWAP1 POP SWAP3 SWAP2 POP POP JUMP JUMPDEST PUSH1 0x0 DUP2 SWAP1 POP SWAP2 SWAP1 POP JUMP JUMPDEST PUSH1 0x0 PUSH1 0x20 DUP3 ADD SWAP1 POP SWAP2 SWAP1 POP JUMP JUMPDEST PUSH2 0x8C94 DUP2 PUSH2 0x8C5E JUMP JUMPDEST PUSH2 0x8C9E DUP2 DUP5 PUSH2 0x8C69 JUMP JUMPDEST SWAP3 POP PUSH2 0x8CA9 DUP3 PUSH2 0x8C74 JUMP JUMPDEST DUP1 PUSH1 0x0 JUMPDEST DUP4 DUP2 LT ISZERO PUSH2 0x8CDA JUMPI DUP2 MLOAD PUSH2 0x8CC1 DUP8 DUP3 PUSH2 0x801B JUMP JUMPDEST SWAP7 POP PUSH2 0x8CCC DUP4 PUSH2 0x8C7E JUMP JUMPDEST SWAP3 POP POP PUSH1 0x1 DUP2 ADD SWAP1 POP PUSH2 0x8CAD JUMP JUMPDEST POP POP POP POP POP POP JUMP JUMPDEST PUSH2 0x4E0 DUP3 ADD PUSH1 0x0 DUP3 ADD MLOAD PUSH2 0x8CF9 PUSH1 0x0 DUP6 ADD DUP3 PUSH2 0x800C JUMP JUMPDEST POP PUSH1 0x20 DUP3 ADD MLOAD PUSH2 0x8D0C PUSH1 0x20 DUP6 ADD DUP3 PUSH2 0x8820 JUMP JUMPDEST POP PUSH1 0x40 DUP3 ADD MLOAD PUSH2 0x8D1F PUSH1 0x40 DUP6 ADD DUP3 PUSH2 0x8C8B JUMP JUMPDEST POP PUSH1 0x60 DUP3 ADD MLOAD PUSH2 0x8D33 PUSH2 0x4C0 DUP6 ADD DUP3 PUSH2 0x800C JUMP JUMPDEST POP POP POP POP JUMP JUMPDEST PUSH1 0x0 PUSH2 0x4E0 DUP3 ADD SWAP1 POP PUSH2 0x8D4F PUSH1 0x0 DUP4 ADD DUP5 PUSH2 0x8CE2 JUMP JUMPDEST SWAP3 SWAP2 POP POP JUMP JUMPDEST PUSH32 0x4E487B7100000000000000000000000000000000000000000000000000000000 PUSH1 0x0 MSTORE PUSH1 0x32 PUSH1 0x4 MSTORE PUSH1 0x24 PUSH1 0x0 REVERT JUMPDEST PUSH32 0x4E487B7100000000000000000000000000000000000000000000000000000000 PUSH1 0x0 MSTORE PUSH1 0x11 PUSH1 0x4 MSTORE PUSH1 0x24 PUSH1 0x0 REVERT JUMPDEST PUSH1 0x0 PUSH2 0x8DBE DUP3 PUSH2 0x7DC6 JUMP JUMPDEST SWAP2 POP PUSH32 0xFFFFFFFFFFFFFFFFFFFFFFFFFFFFFFFFFFFFFFFFFFFFFFFFFFFFFFFFFFFFFFFF DUP3 EQ ISZERO PUSH2 0x8DF1 JUMPI PUSH2 0x8DF0 PUSH2 0x8D84 JUMP JUMPDEST JUMPDEST PUSH1 0x1 DUP3 ADD SWAP1 POP SWAP2 SWAP1 POP JUMP JUMPDEST PUSH32 0x416363657373436F6E74726F6C3A2063616E206F6E6C792072656E6F756E6365 PUSH1 0x0 DUP3 ADD MSTORE PUSH32 0x20726F6C657320666F722073656C660000000000000000000000000000000000 PUSH1 0x20 DUP3 ADD MSTORE POP JUMP JUMPDEST PUSH1 0x0 PUSH2 0x8E58 PUSH1 0x2F DUP4 PUSH2 0x7CE2 JUMP JUMPDEST SWAP2 POP PUSH2 0x8E63 DUP3 PUSH2 0x8DFC JUMP JUMPDEST PUSH1 0x40 DUP3 ADD SWAP1 POP SWAP2 SWAP1 POP JUMP JUMPDEST PUSH1 0x0 PUSH1 0x20 DUP3 ADD SWAP1 POP DUP2 DUP2 SUB PUSH1 0x0 DUP4 ADD MSTORE PUSH2 0x8E87 DUP2 PUSH2 0x8E4B JUMP JUMPDEST SWAP1 POP SWAP2 SWAP1 POP JUMP JUMPDEST PUSH1 0x0 PUSH2 0x8E9A DUP4 DUP6 PUSH2 0x7CE2 JUMP JUMPDEST SWAP4 POP PUSH2 0x8EA7 DUP4 DUP6 DUP5 PUSH2 0x8696 JUMP JUMPDEST PUSH2 0x8EB0 DUP4 PUSH2 0x7D26 JUMP JUMPDEST DUP5 ADD SWAP1 POP SWAP4 SWAP3 POP POP POP JUMP JUMPDEST PUSH1 0x0 PUSH1 0x20 DUP3 ADD SWAP1 POP DUP2 DUP2 SUB PUSH1 0x0 DUP4 ADD MSTORE PUSH2 0x8ED6 DUP2 DUP5 DUP7 PUSH2 0x8E8E JUMP JUMPDEST SWAP1 POP SWAP4 SWAP3 POP POP POP JUMP JUMPDEST PUSH32 0x4E487B7100000000000000000000000000000000000000000000000000000000 PUSH1 0x0 MSTORE PUSH1 0x22 PUSH1 0x4 MSTORE PUSH1 0x24 PUSH1 0x0 REVERT JUMPDEST PUSH1 0x0 PUSH1 0x2 DUP3 DIV SWAP1 POP PUSH1 0x1 DUP3 AND DUP1 PUSH2 0x8F26 JUMPI PUSH1 0x7F DUP3 AND SWAP2 POP JUMPDEST PUSH1 0x20 DUP3 LT DUP2 EQ ISZERO PUSH2 0x8F3A JUMPI PUSH2 0x8F39 PUSH2 0x8EDF JUMP JUMPDEST JUMPDEST POP SWAP2 SWAP1 POP JUMP JUMPDEST PUSH1 0x0 PUSH1 0xFF DUP3 AND SWAP1 POP SWAP2 SWAP1 POP JUMP JUMPDEST PUSH2 0x8F56 DUP2 PUSH2 0x8F40 JUMP JUMPDEST DUP2 EQ PUSH2 0x8F61 JUMPI PUSH1 0x0 DUP1 REVERT JUMPDEST POP JUMP JUMPDEST PUSH1 0x0 DUP2 CALLDATALOAD SWAP1 POP PUSH2 0x8F73 DUP2 PUSH2 0x8F4D JUMP JUMPDEST SWAP3 SWAP2 POP POP JUMP JUMPDEST PUSH1 0x0 PUSH1 0x20 DUP3 DUP5 SUB SLT ISZERO PUSH2 0x8F8F JUMPI PUSH2 0x8F8E PUSH2 0x7C12 JUMP JUMPDEST JUMPDEST PUSH1 0x0 PUSH2 0x8F9D DUP5 DUP3 DUP6 ADD PUSH2 0x8F64 JUMP JUMPDEST SWAP2 POP POP SWAP3 SWAP2 POP POP JUMP JUMPDEST PUSH2 0x8FAF DUP2 PUSH2 0x8F40 JUMP JUMPDEST DUP3 MSTORE POP POP JUMP JUMPDEST PUSH1 0x0 PUSH1 0xE0 DUP3 ADD SWAP1 POP PUSH2 0x8FCA PUSH1 0x0 DUP4 ADD DUP11 PUSH2 0x7E5B JUMP JUMPDEST PUSH2 0x8FD7 PUSH1 0x20 DUP4 ADD DUP10 PUSH2 0x7E5B JUMP JUMPDEST PUSH2 0x8FE4 PUSH1 0x40 DUP4 ADD DUP9 PUSH2 0x7EF1 JUMP JUMPDEST PUSH2 0x8FF1 PUSH1 0x60 DUP4 ADD DUP8 PUSH2 0x7EF1 JUMP JUMPDEST PUSH2 0x8FFE PUSH1 0x80 DUP4 ADD DUP7 PUSH2 0x8FA6 JUMP JUMPDEST PUSH2 0x900B PUSH1 0xA0 DUP4 ADD DUP6 PUSH2 0x7D9C JUMP JUMPDEST PUSH2 0x9018 PUSH1 0xC0 DUP4 ADD DUP5 PUSH2 0x7D9C JUMP JUMPDEST SWAP9 SWAP8 POP POP POP POP POP POP POP POP JUMP JUMPDEST PUSH1 0x0 PUSH2 0x902F DUP3 PUSH2 0x7DC6 JUMP JUMPDEST SWAP2 POP PUSH2 0x903A DUP4 PUSH2 0x7DC6 JUMP JUMPDEST SWAP3 POP DUP3 DUP3 LT ISZERO PUSH2 0x904D JUMPI PUSH2 0x904C PUSH2 0x8D84 JUMP JUMPDEST JUMPDEST DUP3 DUP3 SUB SWAP1 POP SWAP3 SWAP2 POP POP JUMP JUMPDEST PUSH1 0x0 PUSH2 0x9063 DUP3 PUSH2 0x7DC6 JUMP JUMPDEST SWAP2 POP PUSH2 0x906E DUP4 PUSH2 0x7DC6 JUMP JUMPDEST SWAP3 POP DUP2 PUSH32 0xFFFFFFFFFFFFFFFFFFFFFFFFFFFFFFFFFFFFFFFFFFFFFFFFFFFFFFFFFFFFFFFF DIV DUP4 GT DUP3 ISZERO ISZERO AND ISZERO PUSH2 0x90A7 JUMPI PUSH2 0x90A6 PUSH2 0x8D84 JUMP JUMPDEST JUMPDEST DUP3 DUP3 MUL SWAP1 POP SWAP3 SWAP2 POP POP JUMP JUMPDEST PUSH32 0x4E487B7100000000000000000000000000000000000000000000000000000000 PUSH1 0x0 MSTORE PUSH1 0x12 PUSH1 0x4 MSTORE PUSH1 0x24 PUSH1 0x0 REVERT JUMPDEST PUSH1 0x0 PUSH2 0x90EC DUP3 PUSH2 0x7DC6 JUMP JUMPDEST SWAP2 POP PUSH2 0x90F7 DUP4 PUSH2 0x7DC6 JUMP JUMPDEST SWAP3 POP DUP3 PUSH2 0x9107 JUMPI PUSH2 0x9106 PUSH2 0x90B2 JUMP JUMPDEST JUMPDEST DUP3 DUP3 DIV SWAP1 POP SWAP3 SWAP2 POP POP JUMP JUMPDEST PUSH1 0x0 PUSH2 0x911D DUP3 PUSH2 0x7DC6 JUMP JUMPDEST SWAP2 POP PUSH2 0x9128 DUP4 PUSH2 0x7DC6 JUMP JUMPDEST SWAP3 POP DUP3 PUSH32 0xFFFFFFFFFFFFFFFFFFFFFFFFFFFFFFFFFFFFFFFFFFFFFFFFFFFFFFFFFFFFFFFF SUB DUP3 GT ISZERO PUSH2 0x915D JUMPI PUSH2 0x915C PUSH2 0x8D84 JUMP JUMPDEST JUMPDEST DUP3 DUP3 ADD SWAP1 POP SWAP3 SWAP2 POP POP JUMP JUMPDEST PUSH1 0x0 PUSH8 0xFFFFFFFFFFFFFFFF DUP3 GT ISZERO PUSH2 0x9183 JUMPI PUSH2 0x9182 PUSH2 0x85EA JUMP JUMPDEST JUMPDEST PUSH2 0x918C DUP3 PUSH2 0x7D26 JUMP JUMPDEST SWAP1 POP PUSH1 0x20 DUP2 ADD SWAP1 POP SWAP2 SWAP1 POP JUMP JUMPDEST PUSH1 0x0 PUSH2 0x91AC PUSH2 0x91A7 DUP5 PUSH2 0x9168 JUMP JUMPDEST PUSH2 0x864A JUMP JUMPDEST SWAP1 POP DUP3 DUP2 MSTORE PUSH1 0x20 DUP2 ADD DUP5 DUP5 DUP5 ADD GT ISZERO PUSH2 0x91C8 JUMPI PUSH2 0x91C7 PUSH2 0x85E5 JUMP JUMPDEST JUMPDEST PUSH2 0x91D3 DUP5 DUP3 DUP6 PUSH2 0x7CF3 JUMP JUMPDEST POP SWAP4 SWAP3 POP POP POP JUMP JUMPDEST PUSH1 0x0 DUP3 PUSH1 0x1F DUP4 ADD SLT PUSH2 0x91F0 JUMPI PUSH2 0x91EF PUSH2 0x7F1B JUMP JUMPDEST JUMPDEST DUP2 MLOAD PUSH2 0x9200 DUP5 DUP3 PUSH1 0x20 DUP7 ADD PUSH2 0x9199 JUMP JUMPDEST SWAP2 POP POP SWAP3 SWAP2 POP POP JUMP JUMPDEST PUSH1 0x0 PUSH1 0x20 DUP3 DUP5 SUB SLT ISZERO PUSH2 0x921F JUMPI PUSH2 0x921E PUSH2 0x7C12 JUMP JUMPDEST JUMPDEST PUSH1 0x0 DUP3 ADD MLOAD PUSH8 0xFFFFFFFFFFFFFFFF DUP2 GT ISZERO PUSH2 0x923D JUMPI PUSH2 0x923C PUSH2 0x7C17 JUMP JUMPDEST JUMPDEST PUSH2 0x9249 DUP5 DUP3 DUP6 ADD PUSH2 0x91DB JUMP JUMPDEST SWAP2 POP POP SWAP3 SWAP2 POP POP JUMP JUMPDEST PUSH1 0x0 PUSH16 0xFFFFFFFFFFFFFFFFFFFFFFFFFFFFFFFF DUP3 AND SWAP1 POP SWAP2 SWAP1 POP JUMP JUMPDEST PUSH1 0x0 PUSH2 0x9279 DUP3 PUSH2 0x9252 JUMP JUMPDEST SWAP2 POP PUSH2 0x9284 DUP4 PUSH2 0x9252 JUMP JUMPDEST SWAP3 POP DUP3 DUP3 LT ISZERO PUSH2 0x9297 JUMPI PUSH2 0x9296 PUSH2 0x8D84 JUMP JUMPDEST JUMPDEST DUP3 DUP3 SUB SWAP1 POP SWAP3 SWAP2 POP POP JUMP JUMPDEST PUSH1 0x0 DUP2 SWAP1 POP SWAP3 SWAP2 POP POP JUMP JUMPDEST PUSH32 0x416363657373436F6E74726F6C3A206163636F756E7420000000000000000000 PUSH1 0x0 DUP3 ADD MSTORE POP JUMP JUMPDEST PUSH1 0x0 PUSH2 0x92E3 PUSH1 0x17 DUP4 PUSH2 0x92A2 JUMP JUMPDEST SWAP2 POP PUSH2 0x92EE DUP3 PUSH2 0x92AD JUMP JUMPDEST PUSH1 0x17 DUP3 ADD SWAP1 POP SWAP2 SWAP1 POP JUMP JUMPDEST PUSH1 0x0 PUSH2 0x9304 DUP3 PUSH2 0x7CD7 JUMP JUMPDEST PUSH2 0x930E DUP2 DUP6 PUSH2 0x92A2 JUMP JUMPDEST SWAP4 POP PUSH2 0x931E DUP2 DUP6 PUSH1 0x20 DUP7 ADD PUSH2 0x7CF3 JUMP JUMPDEST DUP1 DUP5 ADD SWAP2 POP POP SWAP3 SWAP2 POP POP JUMP JUMPDEST PUSH32 0x206973206D697373696E6720726F6C6520000000000000000000000000000000 PUSH1 0x0 DUP3 ADD MSTORE POP JUMP JUMPDEST PUSH1 0x0 PUSH2 0x9360 PUSH1 0x11 DUP4 PUSH2 0x92A2 JUMP JUMPDEST SWAP2 POP PUSH2 0x936B DUP3 PUSH2 0x932A JUMP JUMPDEST PUSH1 0x11 DUP3 ADD SWAP1 POP SWAP2 SWAP1 POP JUMP JUMPDEST PUSH1 0x0 PUSH2 0x9381 DUP3 PUSH2 0x92D6 JUMP JUMPDEST SWAP2 POP PUSH2 0x938D DUP3 DUP6 PUSH2 0x92F9 JUMP JUMPDEST SWAP2 POP PUSH2 0x9398 DUP3 PUSH2 0x9353 JUMP JUMPDEST SWAP2 POP PUSH2 0x93A4 DUP3 DUP5 PUSH2 0x92F9 JUMP JUMPDEST SWAP2 POP DUP2 SWAP1 POP SWAP4 SWAP3 POP POP POP JUMP JUMPDEST PUSH1 0x0 PUSH1 0x60 DUP3 ADD SWAP1 POP PUSH2 0x93C5 PUSH1 0x0 DUP4 ADD DUP7 PUSH2 0x7E5B JUMP JUMPDEST PUSH2 0x93D2 PUSH1 0x20 DUP4 ADD DUP6 PUSH2 0x7E5B JUMP JUMPDEST PUSH2 0x93DF PUSH1 0x40 DUP4 ADD DUP5 PUSH2 0x7EF1 JUMP JUMPDEST SWAP5 SWAP4 POP POP POP POP JUMP JUMPDEST PUSH1 0x0 DUP2 MLOAD SWAP1 POP PUSH2 0x93F6 DUP2 PUSH2 0x845D JUMP JUMPDEST SWAP3 SWAP2 POP POP JUMP JUMPDEST PUSH1 0x0 PUSH1 0x20 DUP3 DUP5 SUB SLT ISZERO PUSH2 0x9412 JUMPI PUSH2 0x9411 PUSH2 0x7C12 JUMP JUMPDEST JUMPDEST PUSH1 0x0 PUSH2 0x9420 DUP5 DUP3 DUP6 ADD PUSH2 0x93E7 JUMP JUMPDEST SWAP2 POP POP SWAP3 SWAP2 POP POP JUMP JUMPDEST PUSH1 0x0 DUP2 MLOAD SWAP1 POP PUSH2 0x9438 DUP2 PUSH2 0x7DD0 JUMP JUMPDEST SWAP3 SWAP2 POP POP JUMP JUMPDEST PUSH1 0x0 PUSH1 0x20 DUP3 DUP5 SUB SLT ISZERO PUSH2 0x9454 JUMPI PUSH2 0x9453 PUSH2 0x7C12 JUMP JUMPDEST JUMPDEST PUSH1 0x0 PUSH2 0x9462 DUP5 DUP3 DUP6 ADD PUSH2 0x9429 JUMP JUMPDEST SWAP2 POP POP SWAP3 SWAP2 POP POP JUMP JUMPDEST PUSH1 0x0 PUSH1 0x40 DUP3 ADD SWAP1 POP PUSH2 0x9480 PUSH1 0x0 DUP4 ADD DUP6 PUSH2 0x7E5B JUMP JUMPDEST PUSH2 0x948D PUSH1 0x20 DUP4 ADD DUP5 PUSH2 0x7E5B JUMP JUMPDEST SWAP4 SWAP3 POP POP POP JUMP JUMPDEST PUSH32 0x4E487B7100000000000000000000000000000000000000000000000000000000 PUSH1 0x0 MSTORE PUSH1 0x1 PUSH1 0x4 MSTORE PUSH1 0x24 PUSH1 0x0 REVERT JUMPDEST PUSH1 0x0 PUSH2 0x94DE PUSH2 0x94D9 PUSH2 0x94D4 DUP5 PUSH2 0x9252 JUMP JUMPDEST PUSH2 0x89D0 JUMP JUMPDEST PUSH2 0x7DC6 JUMP JUMPDEST SWAP1 POP SWAP2 SWAP1 POP JUMP JUMPDEST PUSH2 0x94EE DUP2 PUSH2 0x94C3 JUMP JUMPDEST DUP3 MSTORE POP POP JUMP JUMPDEST PUSH1 0x0 PUSH1 0x40 DUP3 ADD SWAP1 POP PUSH2 0x9509 PUSH1 0x0 DUP4 ADD DUP6 PUSH2 0x7EF1 JUMP JUMPDEST PUSH2 0x9516 PUSH1 0x20 DUP4 ADD DUP5 PUSH2 0x94E5 JUMP JUMPDEST SWAP4 SWAP3 POP POP POP JUMP JUMPDEST PUSH1 0x0 PUSH1 0x60 DUP3 ADD SWAP1 POP PUSH2 0x9532 PUSH1 0x0 DUP4 ADD DUP7 PUSH2 0x7EF1 JUMP JUMPDEST PUSH2 0x953F PUSH1 0x20 DUP4 ADD DUP6 PUSH2 0x94E5 JUMP JUMPDEST PUSH2 0x954C PUSH1 0x40 DUP4 ADD DUP5 PUSH2 0x7EF1 JUMP JUMPDEST SWAP5 SWAP4 POP POP POP POP JUMP JUMPDEST PUSH1 0x0 DUP2 MLOAD SWAP1 POP SWAP2 SWAP1 POP JUMP JUMPDEST PUSH1 0x0 DUP3 DUP3 MSTORE PUSH1 0x20 DUP3 ADD SWAP1 POP SWAP3 SWAP2 POP POP JUMP JUMPDEST PUSH1 0x0 PUSH2 0x957B DUP3 PUSH2 0x9554 JUMP JUMPDEST PUSH2 0x9585 DUP2 DUP6 PUSH2 0x955F JUMP JUMPDEST SWAP4 POP PUSH2 0x9595 DUP2 DUP6 PUSH1 0x20 DUP7 ADD PUSH2 0x7CF3 JUMP JUMPDEST PUSH2 0x959E DUP2 PUSH2 0x7D26 JUMP JUMPDEST DUP5 ADD SWAP2 POP POP SWAP3 SWAP2 POP POP JUMP JUMPDEST PUSH1 0x0 PUSH1 0x80 DUP3 ADD SWAP1 POP PUSH2 0x95BE PUSH1 0x0 DUP4 ADD DUP8 PUSH2 0x7E5B JUMP JUMPDEST PUSH2 0x95CB PUSH1 0x20 DUP4 ADD DUP7 PUSH2 0x7E5B JUMP JUMPDEST PUSH2 0x95D8 PUSH1 0x40 DUP4 ADD DUP6 PUSH2 0x7EF1 JUMP JUMPDEST DUP2 DUP2 SUB PUSH1 0x60 DUP4 ADD MSTORE PUSH2 0x95EA DUP2 DUP5 PUSH2 0x9570 JUMP JUMPDEST SWAP1 POP SWAP6 SWAP5 POP POP POP POP POP JUMP JUMPDEST PUSH1 0x0 DUP2 MLOAD SWAP1 POP PUSH2 0x9604 DUP2 PUSH2 0x7C48 JUMP JUMPDEST SWAP3 SWAP2 POP POP JUMP JUMPDEST PUSH1 0x0 PUSH1 0x20 DUP3 DUP5 SUB SLT ISZERO PUSH2 0x9620 JUMPI PUSH2 0x961F PUSH2 0x7C12 JUMP JUMPDEST JUMPDEST PUSH1 0x0 PUSH2 0x962E DUP5 DUP3 DUP6 ADD PUSH2 0x95F5 JUMP JUMPDEST SWAP2 POP POP SWAP3 SWAP2 POP POP JUMP JUMPDEST PUSH1 0x0 DUP2 SWAP1 POP SWAP3 SWAP2 POP POP JUMP JUMPDEST PUSH1 0x0 PUSH2 0x964D DUP3 PUSH2 0x9554 JUMP JUMPDEST PUSH2 0x9657 DUP2 DUP6 PUSH2 0x9637 JUMP JUMPDEST SWAP4 POP PUSH2 0x9667 DUP2 DUP6 PUSH1 0x20 DUP7 ADD PUSH2 0x7CF3 JUMP JUMPDEST DUP1 DUP5 ADD SWAP2 POP POP SWAP3 SWAP2 POP POP JUMP JUMPDEST PUSH1 0x0 PUSH2 0x967F DUP3 DUP11 PUSH2 0x9642 JUMP JUMPDEST SWAP2 POP PUSH2 0x968B DUP3 DUP10 PUSH2 0x9642 JUMP JUMPDEST SWAP2 POP PUSH2 0x9697 DUP3 DUP9 PUSH2 0x9642 JUMP JUMPDEST SWAP2 POP PUSH2 0x96A3 DUP3 DUP8 PUSH2 0x9642 JUMP JUMPDEST SWAP2 POP PUSH2 0x96AF DUP3 DUP7 PUSH2 0x9642 JUMP JUMPDEST SWAP2 POP PUSH2 0x96BB DUP3 DUP6 PUSH2 0x9642 JUMP JUMPDEST SWAP2 POP PUSH2 0x96C7 DUP3 DUP5 PUSH2 0x9642 JUMP JUMPDEST SWAP2 POP DUP2 SWAP1 POP SWAP9 SWAP8 POP POP POP POP POP POP POP POP JUMP JUMPDEST PUSH1 0x0 PUSH2 0x96E4 DUP3 DUP7 PUSH2 0x9642 JUMP JUMPDEST SWAP2 POP PUSH2 0x96F0 DUP3 DUP6 PUSH2 0x9642 JUMP JUMPDEST SWAP2 POP PUSH2 0x96FC DUP3 DUP5 PUSH2 0x9642 JUMP JUMPDEST SWAP2 POP DUP2 SWAP1 POP SWAP5 SWAP4 POP POP POP POP JUMP JUMPDEST PUSH1 0x0 PUSH2 0x9714 DUP3 PUSH2 0x7DC6 JUMP JUMPDEST SWAP2 POP PUSH1 0x0 DUP3 EQ ISZERO PUSH2 0x9728 JUMPI PUSH2 0x9727 PUSH2 0x8D84 JUMP JUMPDEST JUMPDEST PUSH1 0x1 DUP3 SUB SWAP1 POP SWAP2 SWAP1 POP JUMP JUMPDEST PUSH32 0x537472696E67733A20686578206C656E67746820696E73756666696369656E74 PUSH1 0x0 DUP3 ADD MSTORE POP JUMP JUMPDEST PUSH1 0x0 PUSH2 0x9769 PUSH1 0x20 DUP4 PUSH2 0x7CE2 JUMP JUMPDEST SWAP2 POP PUSH2 0x9774 DUP3 PUSH2 0x9733 JUMP JUMPDEST PUSH1 0x20 DUP3 ADD SWAP1 POP SWAP2 SWAP1 POP JUMP JUMPDEST PUSH1 0x0 PUSH1 0x20 DUP3 ADD SWAP1 POP DUP2 DUP2 SUB PUSH1 0x0 DUP4 ADD MSTORE PUSH2 0x9798 DUP2 PUSH2 0x975C JUMP JUMPDEST SWAP1 POP SWAP2 SWAP1 POP JUMP JUMPDEST PUSH1 0x0 PUSH2 0x97AA DUP3 PUSH2 0x9252 JUMP JUMPDEST SWAP2 POP PUSH2 0x97B5 DUP4 PUSH2 0x9252 JUMP JUMPDEST SWAP3 POP DUP3 PUSH16 0xFFFFFFFFFFFFFFFFFFFFFFFFFFFFFFFF SUB DUP3 GT ISZERO PUSH2 0x97DA JUMPI PUSH2 0x97D9 PUSH2 0x8D84 JUMP JUMPDEST JUMPDEST DUP3 DUP3 ADD SWAP1 POP SWAP3 SWAP2 POP POP JUMP JUMPDEST PUSH1 0x0 PUSH1 0x40 DUP3 ADD SWAP1 POP PUSH2 0x97FA PUSH1 0x0 DUP4 ADD DUP6 PUSH2 0x94E5 JUMP JUMPDEST PUSH2 0x9807 PUSH1 0x20 DUP4 ADD DUP5 PUSH2 0x94E5 JUMP JUMPDEST SWAP4 SWAP3 POP POP POP JUMP JUMPDEST POP JUMP JUMPDEST PUSH1 0x0 PUSH2 0x981E PUSH1 0x0 DUP4 PUSH2 0x9637 JUMP JUMPDEST SWAP2 POP PUSH2 0x9829 DUP3 PUSH2 0x980E JUMP JUMPDEST PUSH1 0x0 DUP3 ADD SWAP1 POP SWAP2 SWAP1 POP JUMP JUMPDEST PUSH1 0x0 PUSH2 0x983F DUP3 PUSH2 0x9811 JUMP JUMPDEST SWAP2 POP DUP2 SWAP1 POP SWAP2 SWAP1 POP JUMP JUMPDEST PUSH1 0x0 PUSH2 0x9854 DUP3 PUSH2 0x7DC6 JUMP JUMPDEST SWAP2 POP PUSH2 0x985F DUP4 PUSH2 0x7DC6 JUMP JUMPDEST SWAP3 POP DUP3 PUSH2 0x986F JUMPI PUSH2 0x986E PUSH2 0x90B2 JUMP JUMPDEST JUMPDEST DUP3 DUP3 MOD SWAP1 POP SWAP3 SWAP2 POP POP JUMP JUMPDEST PUSH32 0x4E487B7100000000000000000000000000000000000000000000000000000000 PUSH1 0x0 MSTORE PUSH1 0x31 PUSH1 0x4 MSTORE PUSH1 0x24 PUSH1 0x0 REVERT INVALID LOG2 PUSH5 0x6970667358 0x22 SLT KECCAK256 SSTORE DUP3 PUSH16 0xF3EB60CAA160DFD3E4E7CD9283F389EE SWAP2 SWAP14 PUSH17 0x9D6DD9BCAE8903D5F15E64736F6C634300 ADDMOD MULMOD STOP CALLER "
		},
		"gasEstimates": {
			"creation": {
				"codeDepositCost": "7827000",
				"executionCost": "infinite",
				"totalCost": "infinite"
			},
			"external": {
				"BUNKER_MODE_DISABLED_TIMESTAMP()": "462",
				"DEFAULT_ADMIN_ROLE()": "425",
				"FINALIZE_ROLE()": "420",
				"MANAGE_TOKEN_URI_ROLE()": "418",
				"MAX_BATCHES_LENGTH()": "397",
				"MAX_STETH_WITHDRAWAL_AMOUNT()": "396",
				"MIN_STETH_WITHDRAWAL_AMOUNT()": "442",
				"ORACLE_ROLE()": "465",
				"PAUSE_INFINITELY()": "463",
				"PAUSE_ROLE()": "420",
				"RESUME_ROLE()": "441",
				"STETH()": "infinite",
				"WSTETH()": "infinite",
				"approve(address,uint256)": "infinite",
				"balanceOf(address)": "infinite",
				"bunkerModeSinceTimestamp()": "2548",
				"calculateFinalizationBatches(uint256,uint256,uint256,(uint256,bool,uint256[36],uint256))": "infinite",
				"claimWithdrawal(uint256)": "infinite",
				"claimWithdrawals(uint256[],uint256[])": "infinite",
				"claimWithdrawalsTo(uint256[],uint256[],address)": "infinite",
				"finalize(uint256,uint256)": "infinite",
				"findCheckpointHints(uint256[],uint256,uint256)": "infinite",
				"getApproved(uint256)": "infinite",
				"getBaseURI()": "infinite",
				"getClaimableEther(uint256[],uint256[])": "infinite",
				"getContractVersion()": "2613",
				"getLastCheckpointIndex()": "2570",
				"getLastFinalizedRequestId()": "2548",
				"getLastRequestId()": "2549",
				"getLockedEtherAmount()": "2612",
				"getNFTDescriptorAddress()": "2664",
				"getResumeSinceTimestamp()": "2614",
				"getRoleAdmin(bytes32)": "infinite",
				"getRoleMember(bytes32,uint256)": "infinite",
				"getRoleMemberCount(bytes32)": "3068",
				"getWithdrawalRequests(address)": "infinite",
				"getWithdrawalStatus(uint256[])": "infinite",
				"grantRole(bytes32,address)": "infinite",
				"hasRole(bytes32,address)": "3257",
				"initialize(address)": "infinite",
				"isApprovedForAll(address,address)": "infinite",
				"isBunkerModeActive()": "2617",
				"isPaused()": "2625",
				"name()": "infinite",
				"onOracleReport(bool,uint256,uint256)": "infinite",
				"ownerOf(uint256)": "infinite",
				"pauseFor(uint256)": "infinite",
				"pauseUntil(uint256)": "infinite",
				"prefinalize(uint256[],uint256)": "infinite",
				"renounceRole(bytes32,address)": "infinite",
				"requestWithdrawals(uint256[],address)": "infinite",
				"requestWithdrawalsWithPermit(uint256[],address,(uint256,uint256,uint8,bytes32,bytes32))": "infinite",
				"requestWithdrawalsWstETH(uint256[],address)": "infinite",
				"requestWithdrawalsWstETHWithPermit(uint256[],address,(uint256,uint256,uint8,bytes32,bytes32))": "infinite",
				"resume()": "infinite",
				"revokeRole(bytes32,address)": "infinite",
				"safeTransferFrom(address,address,uint256)": "infinite",
				"safeTransferFrom(address,address,uint256,bytes)": "infinite",
				"setApprovalForAll(address,bool)": "infinite",
				"setBaseURI(string)": "infinite",
				"setNFTDescriptorAddress(address)": "infinite",
				"supportsInterface(bytes4)": "1073",
				"symbol()": "infinite",
				"tokenURI(uint256)": "infinite",
				"transferFrom(address,address,uint256)": "infinite",
				"unfinalizedRequestNumber()": "infinite",
				"unfinalizedStETH()": "infinite"
			},
			"internal": {
				"_approve(address,uint256)": "infinite",
				"_checkOnERC721Received(address,address,uint256,bytes memory)": "infinite",
				"_constructTokenUri(uint256)": "infinite",
				"_emitTransfer(address,address,uint256)": "1947",
				"_existsAndNotClaimed(uint256)": "4598",
				"_getBaseURI()": "36",
				"_getOperatorApprovals()": "66",
				"_getTokenApprovals()": "66",
				"_length(bytes32)": "40",
				"_setApprovalForAll(address,address,bool)": "infinite",
				"_toBytes32(string memory)": "infinite",
				"_toString(bytes32)": "infinite",
				"_transfer(address,address,uint256)": "infinite"
			}
		},
		"methodIdentifiers": {
			"BUNKER_MODE_DISABLED_TIMESTAMP()": "e7c0835d",
			"DEFAULT_ADMIN_ROLE()": "a217fddf",
			"FINALIZE_ROLE()": "220ca2f4",
			"MANAGE_TOKEN_URI_ROLE()": "b7bdf748",
			"MAX_BATCHES_LENGTH()": "29fd065d",
			"MAX_STETH_WITHDRAWAL_AMOUNT()": "db2296cd",
			"MIN_STETH_WITHDRAWAL_AMOUNT()": "0d25a957",
			"ORACLE_ROLE()": "07e2cea5",
			"PAUSE_INFINITELY()": "a302ee38",
			"PAUSE_ROLE()": "389ed267",
			"RESUME_ROLE()": "2de03aa1",
			"STETH()": "e00bfe50",
			"WSTETH()": "d9fb643a",
			"approve(address,uint256)": "095ea7b3",
			"balanceOf(address)": "70a08231",
			"bunkerModeSinceTimestamp()": "9b36be58",
			"calculateFinalizationBatches(uint256,uint256,uint256,(uint256,bool,uint256[36],uint256))": "eed53bf5",
			"claimWithdrawal(uint256)": "f8444436",
			"claimWithdrawals(uint256[],uint256[])": "e3afe0a3",
			"claimWithdrawalsTo(uint256[],uint256[],address)": "5e7eead9",
			"finalize(uint256,uint256)": "b6013cef",
			"findCheckpointHints(uint256[],uint256,uint256)": "62abe3fa",
			"getApproved(uint256)": "081812fc",
			"getBaseURI()": "714c5398",
			"getClaimableEther(uint256[],uint256[])": "c97912d8",
			"getContractVersion()": "8aa10435",
			"getLastCheckpointIndex()": "526eae3e",
			"getLastFinalizedRequestId()": "4f069a13",
			"getLastRequestId()": "19c2b4c3",
			"getLockedEtherAmount()": "f6fa8a47",
			"getNFTDescriptorAddress()": "46a086b4",
			"getResumeSinceTimestamp()": "589ff76c",
			"getRoleAdmin(bytes32)": "248a9ca3",
			"getRoleMember(bytes32,uint256)": "9010d07c",
			"getRoleMemberCount(bytes32)": "ca15c873",
			"getWithdrawalRequests(address)": "7d031b65",
			"getWithdrawalStatus(uint256[])": "b8c4b85a",
			"grantRole(bytes32,address)": "2f2ff15d",
			"hasRole(bytes32,address)": "91d14854",
			"initialize(address)": "c4d66de8",
			"isApprovedForAll(address,address)": "e985e9c5",
			"isBunkerModeActive()": "2b95b781",
			"isPaused()": "b187bd26",
			"name()": "06fdde03",
			"onOracleReport(bool,uint256,uint256)": "96992fed",
			"ownerOf(uint256)": "6352211e",
			"pauseFor(uint256)": "f3f449c7",
			"pauseUntil(uint256)": "abe9cfc8",
			"prefinalize(uint256[],uint256)": "a52e9c9f",
			"renounceRole(bytes32,address)": "36568abe",
			"requestWithdrawals(uint256[],address)": "d6681042",
			"requestWithdrawalsWithPermit(uint256[],address,(uint256,uint256,uint8,bytes32,bytes32))": "acf41e4d",
			"requestWithdrawalsWstETH(uint256[],address)": "19aa6257",
			"requestWithdrawalsWstETHWithPermit(uint256[],address,(uint256,uint256,uint8,bytes32,bytes32))": "7951b76f",
			"resume()": "046f7da2",
			"revokeRole(bytes32,address)": "d547741f",
			"safeTransferFrom(address,address,uint256)": "42842e0e",
			"safeTransferFrom(address,address,uint256,bytes)": "b88d4fde",
			"setApprovalForAll(address,bool)": "a22cb465",
			"setBaseURI(string)": "55f804b3",
			"setNFTDescriptorAddress(address)": "92b18a47",
			"supportsInterface(bytes4)": "01ffc9a7",
			"symbol()": "95d89b41",
			"tokenURI(uint256)": "c87b56dd",
			"transferFrom(address,address,uint256)": "23b872dd",
			"unfinalizedRequestNumber()": "c2fc7aff",
			"unfinalizedStETH()": "d0fb84e8"
		}
	},
	"abi": [
		{
			"inputs": [
				{
					"internalType": "address",
					"name": "_wstETH",
					"type": "address"
				},
				{
					"internalType": "string",
					"name": "_name",
					"type": "string"
				},
				{
					"internalType": "string",
					"name": "_symbol",
					"type": "string"
				}
			],
			"stateMutability": "nonpayable",
			"type": "constructor"
		},
		{
			"inputs": [],
			"name": "AdminZeroAddress",
			"type": "error"
		},
		{
			"inputs": [],
			"name": "ApprovalToOwner",
			"type": "error"
		},
		{
			"inputs": [],
			"name": "ApproveToCaller",
			"type": "error"
		},
		{
			"inputs": [
				{
					"internalType": "uint256",
					"name": "_firstArrayLength",
					"type": "uint256"
				},
				{
					"internalType": "uint256",
					"name": "_secondArrayLength",
					"type": "uint256"
				}
			],
			"name": "ArraysLengthMismatch",
			"type": "error"
		},
		{
			"inputs": [],
			"name": "BatchesAreNotSorted",
			"type": "error"
		},
		{
			"inputs": [],
			"name": "CantSendValueRecipientMayHaveReverted",
			"type": "error"
		},
		{
			"inputs": [],
			"name": "EmptyBatches",
			"type": "error"
		},
		{
			"inputs": [],
			"name": "InvalidContractVersionIncrement",
			"type": "error"
		},
		{
			"inputs": [
				{
					"internalType": "uint256",
					"name": "_hint",
					"type": "uint256"
				}
			],
			"name": "InvalidHint",
			"type": "error"
		},
		{
			"inputs": [
				{
					"internalType": "address",
					"name": "",
					"type": "address"
				}
			],
			"name": "InvalidOwnerAddress",
			"type": "error"
		},
		{
			"inputs": [],
			"name": "InvalidReportTimestamp",
			"type": "error"
		},
		{
			"inputs": [
				{
					"internalType": "uint256",
					"name": "_requestId",
					"type": "uint256"
				}
			],
			"name": "InvalidRequestId",
			"type": "error"
		},
		{
			"inputs": [
				{
					"internalType": "uint256",
					"name": "startId",
					"type": "uint256"
				},
				{
					"internalType": "uint256",
					"name": "endId",
					"type": "uint256"
				}
			],
			"name": "InvalidRequestIdRange",
			"type": "error"
		},
		{
			"inputs": [],
			"name": "InvalidState",
			"type": "error"
		},
		{
			"inputs": [],
			"name": "NonZeroContractVersionOnInit",
			"type": "error"
		},
		{
			"inputs": [],
			"name": "NotEnoughEther",
			"type": "error"
		},
		{
			"inputs": [
				{
					"internalType": "address",
					"name": "_sender",
					"type": "address"
				},
				{
					"internalType": "address",
					"name": "_owner",
					"type": "address"
				}
			],
			"name": "NotOwner",
			"type": "error"
		},
		{
			"inputs": [
				{
					"internalType": "address",
					"name": "sender",
					"type": "address"
				}
			],
			"name": "NotOwnerOrApproved",
			"type": "error"
		},
		{
			"inputs": [
				{
					"internalType": "address",
					"name": "sender",
					"type": "address"
				}
			],
			"name": "NotOwnerOrApprovedForAll",
			"type": "error"
		},
		{
			"inputs": [],
			"name": "PauseUntilMustBeInFuture",
			"type": "error"
		},
		{
			"inputs": [],
			"name": "PausedExpected",
			"type": "error"
		},
		{
			"inputs": [
				{
					"internalType": "uint256",
					"name": "_requestId",
					"type": "uint256"
				}
			],
			"name": "RequestAlreadyClaimed",
			"type": "error"
		},
		{
			"inputs": [
				{
					"internalType": "uint256",
					"name": "_amountOfStETH",
					"type": "uint256"
				}
			],
			"name": "RequestAmountTooLarge",
			"type": "error"
		},
		{
			"inputs": [
				{
					"internalType": "uint256",
					"name": "_amountOfStETH",
					"type": "uint256"
				}
			],
			"name": "RequestAmountTooSmall",
			"type": "error"
		},
		{
			"inputs": [],
			"name": "RequestIdsNotSorted",
			"type": "error"
		},
		{
			"inputs": [
				{
					"internalType": "uint256",
					"name": "_requestId",
					"type": "uint256"
				}
			],
			"name": "RequestNotFoundOrNotFinalized",
			"type": "error"
		},
		{
			"inputs": [],
			"name": "ResumedExpected",
			"type": "error"
		},
		{
			"inputs": [
				{
					"internalType": "string",
					"name": "str",
					"type": "string"
				}
			],
			"name": "StringTooLong",
			"type": "error"
		},
		{
			"inputs": [
				{
					"internalType": "uint256",
					"name": "sent",
					"type": "uint256"
				},
				{
					"internalType": "uint256",
					"name": "maxExpected",
					"type": "uint256"
				}
			],
			"name": "TooMuchEtherToFinalize",
			"type": "error"
		},
		{
			"inputs": [
				{
					"internalType": "address",
					"name": "from",
					"type": "address"
				},
				{
					"internalType": "address",
					"name": "realOwner",
					"type": "address"
				}
			],
			"name": "TransferFromIncorrectOwner",
			"type": "error"
		},
		{
			"inputs": [],
			"name": "TransferFromZeroAddress",
			"type": "error"
		},
		{
			"inputs": [
				{
					"internalType": "address",
					"name": "",
					"type": "address"
				}
			],
			"name": "TransferToNonIERC721Receiver",
			"type": "error"
		},
		{
			"inputs": [],
			"name": "TransferToThemselves",
			"type": "error"
		},
		{
			"inputs": [],
			"name": "TransferToZeroAddress",
			"type": "error"
		},
		{
			"inputs": [
				{
					"internalType": "uint256",
					"name": "expected",
					"type": "uint256"
				},
				{
					"internalType": "uint256",
					"name": "received",
					"type": "uint256"
				}
			],
			"name": "UnexpectedContractVersion",
			"type": "error"
		},
		{
			"inputs": [],
			"name": "ZeroAmountOfETH",
			"type": "error"
		},
		{
			"inputs": [],
			"name": "ZeroMetadata",
			"type": "error"
		},
		{
			"inputs": [],
			"name": "ZeroPauseDuration",
			"type": "error"
		},
		{
			"inputs": [],
			"name": "ZeroRecipient",
			"type": "error"
		},
		{
			"inputs": [],
			"name": "ZeroShareRate",
			"type": "error"
		},
		{
			"inputs": [],
			"name": "ZeroTimestamp",
			"type": "error"
		},
		{
			"anonymous": false,
			"inputs": [
				{
					"indexed": true,
					"internalType": "address",
					"name": "owner",
					"type": "address"
				},
				{
					"indexed": true,
					"internalType": "address",
					"name": "approved",
					"type": "address"
				},
				{
					"indexed": true,
					"internalType": "uint256",
					"name": "tokenId",
					"type": "uint256"
				}
			],
			"name": "Approval",
			"type": "event"
		},
		{
			"anonymous": false,
			"inputs": [
				{
					"indexed": true,
					"internalType": "address",
					"name": "owner",
					"type": "address"
				},
				{
					"indexed": true,
					"internalType": "address",
					"name": "operator",
					"type": "address"
				},
				{
					"indexed": false,
					"internalType": "bool",
					"name": "approved",
					"type": "bool"
				}
			],
			"name": "ApprovalForAll",
			"type": "event"
		},
		{
			"anonymous": false,
			"inputs": [
				{
					"indexed": false,
					"internalType": "string",
					"name": "baseURI",
					"type": "string"
				}
			],
			"name": "BaseURISet",
			"type": "event"
		},
		{
			"anonymous": false,
			"inputs": [
				{
					"indexed": false,
					"internalType": "uint256",
					"name": "_fromTokenId",
					"type": "uint256"
				},
				{
					"indexed": false,
					"internalType": "uint256",
					"name": "_toTokenId",
					"type": "uint256"
				}
			],
			"name": "BatchMetadataUpdate",
			"type": "event"
		},
		{
			"anonymous": false,
			"inputs": [],
			"name": "BunkerModeDisabled",
			"type": "event"
		},
		{
			"anonymous": false,
			"inputs": [
				{
					"indexed": false,
					"internalType": "uint256",
					"name": "_sinceTimestamp",
					"type": "uint256"
				}
			],
			"name": "BunkerModeEnabled",
			"type": "event"
		},
		{
			"anonymous": false,
			"inputs": [
				{
					"indexed": false,
					"internalType": "uint256",
					"name": "version",
					"type": "uint256"
				}
			],
			"name": "ContractVersionSet",
			"type": "event"
		},
		{
			"anonymous": false,
			"inputs": [
				{
					"indexed": false,
					"internalType": "address",
					"name": "_admin",
					"type": "address"
				}
			],
			"name": "InitializedV1",
			"type": "event"
		},
		{
			"anonymous": false,
			"inputs": [
				{
					"indexed": false,
					"internalType": "uint256",
					"name": "_tokenId",
					"type": "uint256"
				}
			],
			"name": "MetadataUpdate",
			"type": "event"
		},
		{
			"anonymous": false,
			"inputs": [
				{
					"indexed": false,
					"internalType": "address",
					"name": "nftDescriptorAddress",
					"type": "address"
				}
			],
			"name": "NftDescriptorAddressSet",
			"type": "event"
		},
		{
			"anonymous": false,
			"inputs": [
				{
					"indexed": false,
					"internalType": "uint256",
					"name": "duration",
					"type": "uint256"
				}
			],
			"name": "Paused",
			"type": "event"
		},
		{
			"anonymous": false,
			"inputs": [],
			"name": "Resumed",
			"type": "event"
		},
		{
			"anonymous": false,
			"inputs": [
				{
					"indexed": true,
					"internalType": "bytes32",
					"name": "role",
					"type": "bytes32"
				},
				{
					"indexed": true,
					"internalType": "bytes32",
					"name": "previousAdminRole",
					"type": "bytes32"
				},
				{
					"indexed": true,
					"internalType": "bytes32",
					"name": "newAdminRole",
					"type": "bytes32"
				}
			],
			"name": "RoleAdminChanged",
			"type": "event"
		},
		{
			"anonymous": false,
			"inputs": [
				{
					"indexed": true,
					"internalType": "bytes32",
					"name": "role",
					"type": "bytes32"
				},
				{
					"indexed": true,
					"internalType": "address",
					"name": "account",
					"type": "address"
				},
				{
					"indexed": true,
					"internalType": "address",
					"name": "sender",
					"type": "address"
				}
			],
			"name": "RoleGranted",
			"type": "event"
		},
		{
			"anonymous": false,
			"inputs": [
				{
					"indexed": true,
					"internalType": "bytes32",
					"name": "role",
					"type": "bytes32"
				},
				{
					"indexed": true,
					"internalType": "address",
					"name": "account",
					"type": "address"
				},
				{
					"indexed": true,
					"internalType": "address",
					"name": "sender",
					"type": "address"
				}
			],
			"name": "RoleRevoked",
			"type": "event"
		},
		{
			"anonymous": false,
			"inputs": [
				{
					"indexed": true,
					"internalType": "address",
					"name": "from",
					"type": "address"
				},
				{
					"indexed": true,
					"internalType": "address",
					"name": "to",
					"type": "address"
				},
				{
					"indexed": true,
					"internalType": "uint256",
					"name": "tokenId",
					"type": "uint256"
				}
			],
			"name": "Transfer",
			"type": "event"
		},
		{
			"anonymous": false,
			"inputs": [
				{
					"indexed": true,
					"internalType": "uint256",
					"name": "requestId",
					"type": "uint256"
				},
				{
					"indexed": true,
					"internalType": "address",
					"name": "owner",
					"type": "address"
				},
				{
					"indexed": true,
					"internalType": "address",
					"name": "receiver",
					"type": "address"
				},
				{
					"indexed": false,
					"internalType": "uint256",
					"name": "amountOfETH",
					"type": "uint256"
				}
			],
			"name": "WithdrawalClaimed",
			"type": "event"
		},
		{
			"anonymous": false,
			"inputs": [
				{
					"indexed": true,
					"internalType": "uint256",
					"name": "requestId",
					"type": "uint256"
				},
				{
					"indexed": true,
					"internalType": "address",
					"name": "requestor",
					"type": "address"
				},
				{
					"indexed": true,
					"internalType": "address",
					"name": "owner",
					"type": "address"
				},
				{
					"indexed": false,
					"internalType": "uint256",
					"name": "amountOfStETH",
					"type": "uint256"
				},
				{
					"indexed": false,
					"internalType": "uint256",
					"name": "amountOfShares",
					"type": "uint256"
				}
			],
			"name": "WithdrawalRequested",
			"type": "event"
		},
		{
			"anonymous": false,
			"inputs": [
				{
					"indexed": true,
					"internalType": "uint256",
					"name": "from",
					"type": "uint256"
				},
				{
					"indexed": true,
					"internalType": "uint256",
					"name": "to",
					"type": "uint256"
				},
				{
					"indexed": false,
					"internalType": "uint256",
					"name": "amountOfETHLocked",
					"type": "uint256"
				},
				{
					"indexed": false,
					"internalType": "uint256",
					"name": "sharesToBurn",
					"type": "uint256"
				},
				{
					"indexed": false,
					"internalType": "uint256",
					"name": "timestamp",
					"type": "uint256"
				}
			],
			"name": "WithdrawalsFinalized",
			"type": "event"
		},
		{
			"inputs": [],
			"name": "BUNKER_MODE_DISABLED_TIMESTAMP",
			"outputs": [
				{
					"internalType": "uint256",
					"name": "",
					"type": "uint256"
				}
			],
			"stateMutability": "view",
			"type": "function"
		},
		{
			"inputs": [],
			"name": "DEFAULT_ADMIN_ROLE",
			"outputs": [
				{
					"internalType": "bytes32",
					"name": "",
					"type": "bytes32"
				}
			],
			"stateMutability": "view",
			"type": "function"
		},
		{
			"inputs": [],
			"name": "FINALIZE_ROLE",
			"outputs": [
				{
					"internalType": "bytes32",
					"name": "",
					"type": "bytes32"
				}
			],
			"stateMutability": "view",
			"type": "function"
		},
		{
			"inputs": [],
			"name": "MANAGE_TOKEN_URI_ROLE",
			"outputs": [
				{
					"internalType": "bytes32",
					"name": "",
					"type": "bytes32"
				}
			],
			"stateMutability": "view",
			"type": "function"
		},
		{
			"inputs": [],
			"name": "MAX_BATCHES_LENGTH",
			"outputs": [
				{
					"internalType": "uint256",
					"name": "",
					"type": "uint256"
				}
			],
			"stateMutability": "view",
			"type": "function"
		},
		{
			"inputs": [],
			"name": "MAX_STETH_WITHDRAWAL_AMOUNT",
			"outputs": [
				{
					"internalType": "uint256",
					"name": "",
					"type": "uint256"
				}
			],
			"stateMutability": "view",
			"type": "function"
		},
		{
			"inputs": [],
			"name": "MIN_STETH_WITHDRAWAL_AMOUNT",
			"outputs": [
				{
					"internalType": "uint256",
					"name": "",
					"type": "uint256"
				}
			],
			"stateMutability": "view",
			"type": "function"
		},
		{
			"inputs": [],
			"name": "ORACLE_ROLE",
			"outputs": [
				{
					"internalType": "bytes32",
					"name": "",
					"type": "bytes32"
				}
			],
			"stateMutability": "view",
			"type": "function"
		},
		{
			"inputs": [],
			"name": "PAUSE_INFINITELY",
			"outputs": [
				{
					"internalType": "uint256",
					"name": "",
					"type": "uint256"
				}
			],
			"stateMutability": "view",
			"type": "function"
		},
		{
			"inputs": [],
			"name": "PAUSE_ROLE",
			"outputs": [
				{
					"internalType": "bytes32",
					"name": "",
					"type": "bytes32"
				}
			],
			"stateMutability": "view",
			"type": "function"
		},
		{
			"inputs": [],
			"name": "RESUME_ROLE",
			"outputs": [
				{
					"internalType": "bytes32",
					"name": "",
					"type": "bytes32"
				}
			],
			"stateMutability": "view",
			"type": "function"
		},
		{
			"inputs": [],
			"name": "STETH",
			"outputs": [
				{
					"internalType": "contract IStETH",
					"name": "",
					"type": "address"
				}
			],
			"stateMutability": "view",
			"type": "function"
		},
		{
			"inputs": [],
			"name": "WSTETH",
			"outputs": [
				{
					"internalType": "contract IWstETH",
					"name": "",
					"type": "address"
				}
			],
			"stateMutability": "view",
			"type": "function"
		},
		{
			"inputs": [
				{
					"internalType": "address",
					"name": "_to",
					"type": "address"
				},
				{
					"internalType": "uint256",
					"name": "_requestId",
					"type": "uint256"
				}
			],
			"name": "approve",
			"outputs": [],
			"stateMutability": "nonpayable",
			"type": "function"
		},
		{
			"inputs": [
				{
					"internalType": "address",
					"name": "_owner",
					"type": "address"
				}
			],
			"name": "balanceOf",
			"outputs": [
				{
					"internalType": "uint256",
					"name": "",
					"type": "uint256"
				}
			],
			"stateMutability": "view",
			"type": "function"
		},
		{
			"inputs": [],
			"name": "bunkerModeSinceTimestamp",
			"outputs": [
				{
					"internalType": "uint256",
					"name": "",
					"type": "uint256"
				}
			],
			"stateMutability": "view",
			"type": "function"
		},
		{
			"inputs": [
				{
					"internalType": "uint256",
					"name": "_maxShareRate",
					"type": "uint256"
				},
				{
					"internalType": "uint256",
					"name": "_maxTimestamp",
					"type": "uint256"
				},
				{
					"internalType": "uint256",
					"name": "_maxRequestsPerCall",
					"type": "uint256"
				},
				{
					"components": [
						{
							"internalType": "uint256",
							"name": "remainingEthBudget",
							"type": "uint256"
						},
						{
							"internalType": "bool",
							"name": "finished",
							"type": "bool"
						},
						{
							"internalType": "uint256[36]",
							"name": "batches",
							"type": "uint256[36]"
						},
						{
							"internalType": "uint256",
							"name": "batchesLength",
							"type": "uint256"
						}
					],
					"internalType": "struct WithdrawalQueueBase.BatchesCalculationState",
					"name": "_state",
					"type": "tuple"
				}
			],
			"name": "calculateFinalizationBatches",
			"outputs": [
				{
					"components": [
						{
							"internalType": "uint256",
							"name": "remainingEthBudget",
							"type": "uint256"
						},
						{
							"internalType": "bool",
							"name": "finished",
							"type": "bool"
						},
						{
							"internalType": "uint256[36]",
							"name": "batches",
							"type": "uint256[36]"
						},
						{
							"internalType": "uint256",
							"name": "batchesLength",
							"type": "uint256"
						}
					],
					"internalType": "struct WithdrawalQueueBase.BatchesCalculationState",
					"name": "",
					"type": "tuple"
				}
			],
			"stateMutability": "view",
			"type": "function"
		},
		{
			"inputs": [
				{
					"internalType": "uint256",
					"name": "_requestId",
					"type": "uint256"
				}
			],
			"name": "claimWithdrawal",
			"outputs": [],
			"stateMutability": "nonpayable",
			"type": "function"
		},
		{
			"inputs": [
				{
					"internalType": "uint256[]",
					"name": "_requestIds",
					"type": "uint256[]"
				},
				{
					"internalType": "uint256[]",
					"name": "_hints",
					"type": "uint256[]"
				}
			],
			"name": "claimWithdrawals",
			"outputs": [],
			"stateMutability": "nonpayable",
			"type": "function"
		},
		{
			"inputs": [
				{
					"internalType": "uint256[]",
					"name": "_requestIds",
					"type": "uint256[]"
				},
				{
					"internalType": "uint256[]",
					"name": "_hints",
					"type": "uint256[]"
				},
				{
					"internalType": "address",
					"name": "_recipient",
					"type": "address"
				}
			],
			"name": "claimWithdrawalsTo",
			"outputs": [],
			"stateMutability": "nonpayable",
			"type": "function"
		},
		{
			"inputs": [
				{
					"internalType": "uint256",
					"name": "_lastRequestIdToBeFinalized",
					"type": "uint256"
				},
				{
					"internalType": "uint256",
					"name": "_maxShareRate",
					"type": "uint256"
				}
			],
			"name": "finalize",
			"outputs": [],
			"stateMutability": "payable",
			"type": "function"
		},
		{
			"inputs": [
				{
					"internalType": "uint256[]",
					"name": "_requestIds",
					"type": "uint256[]"
				},
				{
					"internalType": "uint256",
					"name": "_firstIndex",
					"type": "uint256"
				},
				{
					"internalType": "uint256",
					"name": "_lastIndex",
					"type": "uint256"
				}
			],
			"name": "findCheckpointHints",
			"outputs": [
				{
					"internalType": "uint256[]",
					"name": "hintIds",
					"type": "uint256[]"
				}
			],
			"stateMutability": "view",
			"type": "function"
		},
		{
			"inputs": [
				{
					"internalType": "uint256",
					"name": "_requestId",
					"type": "uint256"
				}
			],
			"name": "getApproved",
			"outputs": [
				{
					"internalType": "address",
					"name": "",
					"type": "address"
				}
			],
			"stateMutability": "view",
			"type": "function"
		},
		{
			"inputs": [],
			"name": "getBaseURI",
			"outputs": [
				{
					"internalType": "string",
					"name": "",
					"type": "string"
				}
			],
			"stateMutability": "view",
			"type": "function"
		},
		{
			"inputs": [
				{
					"internalType": "uint256[]",
					"name": "_requestIds",
					"type": "uint256[]"
				},
				{
					"internalType": "uint256[]",
					"name": "_hints",
					"type": "uint256[]"
				}
			],
			"name": "getClaimableEther",
			"outputs": [
				{
					"internalType": "uint256[]",
					"name": "claimableEthValues",
					"type": "uint256[]"
				}
			],
			"stateMutability": "view",
			"type": "function"
		},
		{
			"inputs": [],
			"name": "getContractVersion",
			"outputs": [
				{
					"internalType": "uint256",
					"name": "",
					"type": "uint256"
				}
			],
			"stateMutability": "view",
			"type": "function"
		},
		{
			"inputs": [],
			"name": "getLastCheckpointIndex",
			"outputs": [
				{
					"internalType": "uint256",
					"name": "",
					"type": "uint256"
				}
			],
			"stateMutability": "view",
			"type": "function"
		},
		{
			"inputs": [],
			"name": "getLastFinalizedRequestId",
			"outputs": [
				{
					"internalType": "uint256",
					"name": "",
					"type": "uint256"
				}
			],
			"stateMutability": "view",
			"type": "function"
		},
		{
			"inputs": [],
			"name": "getLastRequestId",
			"outputs": [
				{
					"internalType": "uint256",
					"name": "",
					"type": "uint256"
				}
			],
			"stateMutability": "view",
			"type": "function"
		},
		{
			"inputs": [],
			"name": "getLockedEtherAmount",
			"outputs": [
				{
					"internalType": "uint256",
					"name": "",
					"type": "uint256"
				}
			],
			"stateMutability": "view",
			"type": "function"
		},
		{
			"inputs": [],
			"name": "getNFTDescriptorAddress",
			"outputs": [
				{
					"internalType": "address",
					"name": "",
					"type": "address"
				}
			],
			"stateMutability": "view",
			"type": "function"
		},
		{
			"inputs": [],
			"name": "getResumeSinceTimestamp",
			"outputs": [
				{
					"internalType": "uint256",
					"name": "",
					"type": "uint256"
				}
			],
			"stateMutability": "view",
			"type": "function"
		},
		{
			"inputs": [
				{
					"internalType": "bytes32",
					"name": "role",
					"type": "bytes32"
				}
			],
			"name": "getRoleAdmin",
			"outputs": [
				{
					"internalType": "bytes32",
					"name": "",
					"type": "bytes32"
				}
			],
			"stateMutability": "view",
			"type": "function"
		},
		{
			"inputs": [
				{
					"internalType": "bytes32",
					"name": "role",
					"type": "bytes32"
				},
				{
					"internalType": "uint256",
					"name": "index",
					"type": "uint256"
				}
			],
			"name": "getRoleMember",
			"outputs": [
				{
					"internalType": "address",
					"name": "",
					"type": "address"
				}
			],
			"stateMutability": "view",
			"type": "function"
		},
		{
			"inputs": [
				{
					"internalType": "bytes32",
					"name": "role",
					"type": "bytes32"
				}
			],
			"name": "getRoleMemberCount",
			"outputs": [
				{
					"internalType": "uint256",
					"name": "",
					"type": "uint256"
				}
			],
			"stateMutability": "view",
			"type": "function"
		},
		{
			"inputs": [
				{
					"internalType": "address",
					"name": "_owner",
					"type": "address"
				}
			],
			"name": "getWithdrawalRequests",
			"outputs": [
				{
					"internalType": "uint256[]",
					"name": "requestsIds",
					"type": "uint256[]"
				}
			],
			"stateMutability": "view",
			"type": "function"
		},
		{
			"inputs": [
				{
					"internalType": "uint256[]",
					"name": "_requestIds",
					"type": "uint256[]"
				}
			],
			"name": "getWithdrawalStatus",
			"outputs": [
				{
					"components": [
						{
							"internalType": "uint256",
							"name": "amountOfStETH",
							"type": "uint256"
						},
						{
							"internalType": "uint256",
							"name": "amountOfShares",
							"type": "uint256"
						},
						{
							"internalType": "address",
							"name": "owner",
							"type": "address"
						},
						{
							"internalType": "uint256",
							"name": "timestamp",
							"type": "uint256"
						},
						{
							"internalType": "bool",
							"name": "isFinalized",
							"type": "bool"
						},
						{
							"internalType": "bool",
							"name": "isClaimed",
							"type": "bool"
						}
					],
					"internalType": "struct WithdrawalQueueBase.WithdrawalRequestStatus[]",
					"name": "statuses",
					"type": "tuple[]"
				}
			],
			"stateMutability": "view",
			"type": "function"
		},
		{
			"inputs": [
				{
					"internalType": "bytes32",
					"name": "role",
					"type": "bytes32"
				},
				{
					"internalType": "address",
					"name": "account",
					"type": "address"
				}
			],
			"name": "grantRole",
			"outputs": [],
			"stateMutability": "nonpayable",
			"type": "function"
		},
		{
			"inputs": [
				{
					"internalType": "bytes32",
					"name": "role",
					"type": "bytes32"
				},
				{
					"internalType": "address",
					"name": "account",
					"type": "address"
				}
			],
			"name": "hasRole",
			"outputs": [
				{
					"internalType": "bool",
					"name": "",
					"type": "bool"
				}
			],
			"stateMutability": "view",
			"type": "function"
		},
		{
			"inputs": [
				{
					"internalType": "address",
					"name": "_admin",
					"type": "address"
				}
			],
			"name": "initialize",
			"outputs": [],
			"stateMutability": "nonpayable",
			"type": "function"
		},
		{
			"inputs": [
				{
					"internalType": "address",
					"name": "_owner",
					"type": "address"
				},
				{
					"internalType": "address",
					"name": "_operator",
					"type": "address"
				}
			],
			"name": "isApprovedForAll",
			"outputs": [
				{
					"internalType": "bool",
					"name": "",
					"type": "bool"
				}
			],
			"stateMutability": "view",
			"type": "function"
		},
		{
			"inputs": [],
			"name": "isBunkerModeActive",
			"outputs": [
				{
					"internalType": "bool",
					"name": "",
					"type": "bool"
				}
			],
			"stateMutability": "view",
			"type": "function"
		},
		{
			"inputs": [],
			"name": "isPaused",
			"outputs": [
				{
					"internalType": "bool",
					"name": "",
					"type": "bool"
				}
			],
			"stateMutability": "view",
			"type": "function"
		},
		{
			"inputs": [],
			"name": "name",
			"outputs": [
				{
					"internalType": "string",
					"name": "",
					"type": "string"
				}
			],
			"stateMutability": "view",
			"type": "function"
		},
		{
			"inputs": [
				{
					"internalType": "bool",
					"name": "_isBunkerModeNow",
					"type": "bool"
				},
				{
					"internalType": "uint256",
					"name": "_bunkerStartTimestamp",
					"type": "uint256"
				},
				{
					"internalType": "uint256",
					"name": "_currentReportTimestamp",
					"type": "uint256"
				}
			],
			"name": "onOracleReport",
			"outputs": [],
			"stateMutability": "nonpayable",
			"type": "function"
		},
		{
			"inputs": [
				{
					"internalType": "uint256",
					"name": "_requestId",
					"type": "uint256"
				}
			],
			"name": "ownerOf",
			"outputs": [
				{
					"internalType": "address",
					"name": "",
					"type": "address"
				}
			],
			"stateMutability": "view",
			"type": "function"
		},
		{
			"inputs": [
				{
					"internalType": "uint256",
					"name": "_duration",
					"type": "uint256"
				}
			],
			"name": "pauseFor",
			"outputs": [],
			"stateMutability": "nonpayable",
			"type": "function"
		},
		{
			"inputs": [
				{
					"internalType": "uint256",
					"name": "_pauseUntilInclusive",
					"type": "uint256"
				}
			],
			"name": "pauseUntil",
			"outputs": [],
			"stateMutability": "nonpayable",
			"type": "function"
		},
		{
			"inputs": [
				{
					"internalType": "uint256[]",
					"name": "_batches",
					"type": "uint256[]"
				},
				{
					"internalType": "uint256",
					"name": "_maxShareRate",
					"type": "uint256"
				}
			],
			"name": "prefinalize",
			"outputs": [
				{
					"internalType": "uint256",
					"name": "ethToLock",
					"type": "uint256"
				},
				{
					"internalType": "uint256",
					"name": "sharesToBurn",
					"type": "uint256"
				}
			],
			"stateMutability": "view",
			"type": "function"
		},
		{
			"inputs": [
				{
					"internalType": "bytes32",
					"name": "role",
					"type": "bytes32"
				},
				{
					"internalType": "address",
					"name": "account",
					"type": "address"
				}
			],
			"name": "renounceRole",
			"outputs": [],
			"stateMutability": "nonpayable",
			"type": "function"
		},
		{
			"inputs": [
				{
					"internalType": "uint256[]",
					"name": "_amounts",
					"type": "uint256[]"
				},
				{
					"internalType": "address",
					"name": "_owner",
					"type": "address"
				}
			],
			"name": "requestWithdrawals",
			"outputs": [
				{
					"internalType": "uint256[]",
					"name": "requestIds",
					"type": "uint256[]"
				}
			],
			"stateMutability": "nonpayable",
			"type": "function"
		},
		{
			"inputs": [
				{
					"internalType": "uint256[]",
					"name": "_amounts",
					"type": "uint256[]"
				},
				{
					"internalType": "address",
					"name": "_owner",
					"type": "address"
				},
				{
					"components": [
						{
							"internalType": "uint256",
							"name": "value",
							"type": "uint256"
						},
						{
							"internalType": "uint256",
							"name": "deadline",
							"type": "uint256"
						},
						{
							"internalType": "uint8",
							"name": "v",
							"type": "uint8"
						},
						{
							"internalType": "bytes32",
							"name": "r",
							"type": "bytes32"
						},
						{
							"internalType": "bytes32",
							"name": "s",
							"type": "bytes32"
						}
					],
					"internalType": "struct WithdrawalQueue.PermitInput",
					"name": "_permit",
					"type": "tuple"
				}
			],
			"name": "requestWithdrawalsWithPermit",
			"outputs": [
				{
					"internalType": "uint256[]",
					"name": "requestIds",
					"type": "uint256[]"
				}
			],
			"stateMutability": "nonpayable",
			"type": "function"
		},
		{
			"inputs": [
				{
					"internalType": "uint256[]",
					"name": "_amounts",
					"type": "uint256[]"
				},
				{
					"internalType": "address",
					"name": "_owner",
					"type": "address"
				}
			],
			"name": "requestWithdrawalsWstETH",
			"outputs": [
				{
					"internalType": "uint256[]",
					"name": "requestIds",
					"type": "uint256[]"
				}
			],
			"stateMutability": "nonpayable",
			"type": "function"
		},
		{
			"inputs": [
				{
					"internalType": "uint256[]",
					"name": "_amounts",
					"type": "uint256[]"
				},
				{
					"internalType": "address",
					"name": "_owner",
					"type": "address"
				},
				{
					"components": [
						{
							"internalType": "uint256",
							"name": "value",
							"type": "uint256"
						},
						{
							"internalType": "uint256",
							"name": "deadline",
							"type": "uint256"
						},
						{
							"internalType": "uint8",
							"name": "v",
							"type": "uint8"
						},
						{
							"internalType": "bytes32",
							"name": "r",
							"type": "bytes32"
						},
						{
							"internalType": "bytes32",
							"name": "s",
							"type": "bytes32"
						}
					],
					"internalType": "struct WithdrawalQueue.PermitInput",
					"name": "_permit",
					"type": "tuple"
				}
			],
			"name": "requestWithdrawalsWstETHWithPermit",
			"outputs": [
				{
					"internalType": "uint256[]",
					"name": "requestIds",
					"type": "uint256[]"
				}
			],
			"stateMutability": "nonpayable",
			"type": "function"
		},
		{
			"inputs": [],
			"name": "resume",
			"outputs": [],
			"stateMutability": "nonpayable",
			"type": "function"
		},
		{
			"inputs": [
				{
					"internalType": "bytes32",
					"name": "role",
					"type": "bytes32"
				},
				{
					"internalType": "address",
					"name": "account",
					"type": "address"
				}
			],
			"name": "revokeRole",
			"outputs": [],
			"stateMutability": "nonpayable",
			"type": "function"
		},
		{
			"inputs": [
				{
					"internalType": "address",
					"name": "_from",
					"type": "address"
				},
				{
					"internalType": "address",
					"name": "_to",
					"type": "address"
				},
				{
					"internalType": "uint256",
					"name": "_requestId",
					"type": "uint256"
				}
			],
			"name": "safeTransferFrom",
			"outputs": [],
			"stateMutability": "nonpayable",
			"type": "function"
		},
		{
			"inputs": [
				{
					"internalType": "address",
					"name": "_from",
					"type": "address"
				},
				{
					"internalType": "address",
					"name": "_to",
					"type": "address"
				},
				{
					"internalType": "uint256",
					"name": "_requestId",
					"type": "uint256"
				},
				{
					"internalType": "bytes",
					"name": "_data",
					"type": "bytes"
				}
			],
			"name": "safeTransferFrom",
			"outputs": [],
			"stateMutability": "nonpayable",
			"type": "function"
		},
		{
			"inputs": [
				{
					"internalType": "address",
					"name": "_operator",
					"type": "address"
				},
				{
					"internalType": "bool",
					"name": "_approved",
					"type": "bool"
				}
			],
			"name": "setApprovalForAll",
			"outputs": [],
			"stateMutability": "nonpayable",
			"type": "function"
		},
		{
			"inputs": [
				{
					"internalType": "string",
					"name": "_baseURI",
					"type": "string"
				}
			],
			"name": "setBaseURI",
			"outputs": [],
			"stateMutability": "nonpayable",
			"type": "function"
		},
		{
			"inputs": [
				{
					"internalType": "address",
					"name": "_nftDescriptorAddress",
					"type": "address"
				}
			],
			"name": "setNFTDescriptorAddress",
			"outputs": [],
			"stateMutability": "nonpayable",
			"type": "function"
		},
		{
			"inputs": [
				{
					"internalType": "bytes4",
					"name": "interfaceId",
					"type": "bytes4"
				}
			],
			"name": "supportsInterface",
			"outputs": [
				{
					"internalType": "bool",
					"name": "",
					"type": "bool"
				}
			],
			"stateMutability": "view",
			"type": "function"
		},
		{
			"inputs": [],
			"name": "symbol",
			"outputs": [
				{
					"internalType": "string",
					"name": "",
					"type": "string"
				}
			],
			"stateMutability": "view",
			"type": "function"
		},
		{
			"inputs": [
				{
					"internalType": "uint256",
					"name": "_requestId",
					"type": "uint256"
				}
			],
			"name": "tokenURI",
			"outputs": [
				{
					"internalType": "string",
					"name": "",
					"type": "string"
				}
			],
			"stateMutability": "view",
			"type": "function"
		},
		{
			"inputs": [
				{
					"internalType": "address",
					"name": "_from",
					"type": "address"
				},
				{
					"internalType": "address",
					"name": "_to",
					"type": "address"
				},
				{
					"internalType": "uint256",
					"name": "_requestId",
					"type": "uint256"
				}
			],
			"name": "transferFrom",
			"outputs": [],
			"stateMutability": "nonpayable",
			"type": "function"
		},
		{
			"inputs": [],
			"name": "unfinalizedRequestNumber",
			"outputs": [
				{
					"internalType": "uint256",
					"name": "",
					"type": "uint256"
				}
			],
			"stateMutability": "view",
			"type": "function"
		},
		{
			"inputs": [],
			"name": "unfinalizedStETH",
			"outputs": [
				{
					"internalType": "uint256",
					"name": "",
					"type": "uint256"
				}
			],
			"stateMutability": "view",
			"type": "function"
		}
	]
}